{
	"contracts/HotelRoom.sol": {
		"HotelRoom": {
			"abi": [
				{
					"inputs": [],
					"stateMutability": "nonpayable",
					"type": "constructor"
				},
				{
					"anonymous": false,
					"inputs": [
						{
							"indexed": true,
							"internalType": "address",
							"name": "to",
							"type": "address"
						},
						{
							"indexed": false,
							"internalType": "uint256",
							"name": "amount",
							"type": "uint256"
						}
					],
					"name": "FundsWithdrawn",
					"type": "event"
				},
				{
					"anonymous": false,
					"inputs": [
						{
							"indexed": false,
							"internalType": "string",
							"name": "details",
							"type": "string"
						},
						{
							"indexed": false,
							"internalType": "uint256",
							"name": "price",
							"type": "uint256"
						},
						{
							"indexed": false,
							"internalType": "enum HotelRoom.roomStatus",
							"name": "status",
							"type": "uint8"
						}
					],
					"name": "RoomAdded",
					"type": "event"
				},
				{
					"anonymous": false,
					"inputs": [
						{
							"indexed": false,
							"internalType": "uint256",
							"name": "id",
							"type": "uint256"
						},
						{
							"indexed": false,
							"internalType": "uint256",
							"name": "price",
							"type": "uint256"
						},
						{
							"components": [
								{
									"internalType": "string",
									"name": "name",
									"type": "string"
								},
								{
									"internalType": "string",
									"name": "email",
									"type": "string"
								}
							],
							"indexed": false,
							"internalType": "struct HotelRoom.Guest",
							"name": "guest",
							"type": "tuple"
						}
					],
					"name": "RoomOccupied",
					"type": "event"
				},
				{
					"inputs": [
						{
							"internalType": "string",
							"name": "_details",
							"type": "string"
						},
						{
							"internalType": "uint256",
							"name": "_price",
							"type": "uint256"
						}
					],
					"name": "addRoom",
					"outputs": [],
					"stateMutability": "nonpayable",
					"type": "function"
				},
				{
					"inputs": [
						{
							"internalType": "uint256",
							"name": "roomId",
							"type": "uint256"
						},
						{
							"internalType": "string",
							"name": "guestName",
							"type": "string"
						},
						{
							"internalType": "string",
							"name": "guestEmail",
							"type": "string"
						}
					],
					"name": "bookRoom",
					"outputs": [],
					"stateMutability": "payable",
					"type": "function"
				},
				{
					"inputs": [],
					"name": "manager",
					"outputs": [
						{
							"internalType": "address",
							"name": "",
							"type": "address"
						}
					],
					"stateMutability": "view",
					"type": "function"
				},
				{
					"inputs": [],
					"name": "owner",
					"outputs": [
						{
							"internalType": "address payable",
							"name": "",
							"type": "address"
						}
					],
					"stateMutability": "view",
					"type": "function"
				},
				{
					"inputs": [
						{
							"internalType": "uint256",
							"name": "",
							"type": "uint256"
						}
					],
					"name": "rooms",
					"outputs": [
						{
							"internalType": "string",
							"name": "details",
							"type": "string"
						},
						{
							"internalType": "uint256",
							"name": "price",
							"type": "uint256"
						},
						{
							"internalType": "enum HotelRoom.roomStatus",
							"name": "status",
							"type": "uint8"
						},
						{
							"components": [
								{
									"internalType": "string",
									"name": "name",
									"type": "string"
								},
								{
									"internalType": "string",
									"name": "email",
									"type": "string"
								}
							],
							"internalType": "struct HotelRoom.Guest",
							"name": "guest",
							"type": "tuple"
						}
					],
					"stateMutability": "view",
					"type": "function"
				},
				{
					"inputs": [
						{
							"internalType": "address payable",
							"name": "_to",
							"type": "address"
						}
					],
					"name": "withdrawFunds",
					"outputs": [],
					"stateMutability": "nonpayable",
					"type": "function"
				}
			],
			"devdoc": {
				"kind": "dev",
				"methods": {},
				"version": 1
			},
			"evm": {
				"assembly": "    /* \"contracts/HotelRoom.sol\":57:2221  contract HotelRoom {... */\n  mstore(0x40, 0x80)\n    /* \"contracts/HotelRoom.sol\":953:1011  constructor() {... */\n  callvalue\n  dup1\n  iszero\n  tag_1\n  jumpi\n  0x00\n  dup1\n  revert\ntag_1:\n  pop\n    /* \"contracts/HotelRoom.sol\":993:1003  msg.sender */\n  caller\n    /* \"contracts/HotelRoom.sol\":977:982  owner */\n  0x00\n  dup1\n    /* \"contracts/HotelRoom.sol\":977:1004  owner = payable(msg.sender) */\n  0x0100\n  exp\n  dup2\n  sload\n  dup2\n  0xffffffffffffffffffffffffffffffffffffffff\n  mul\n  not\n  and\n  swap1\n  dup4\n  0xffffffffffffffffffffffffffffffffffffffff\n  and\n  mul\n  or\n  swap1\n  sstore\n  pop\n    /* \"contracts/HotelRoom.sol\":57:2221  contract HotelRoom {... */\n  dataSize(sub_0)\n  dup1\n  dataOffset(sub_0)\n  0x00\n  codecopy\n  0x00\n  return\nstop\n\nsub_0: assembly {\n        /* \"contracts/HotelRoom.sol\":57:2221  contract HotelRoom {... */\n      mstore(0x40, 0x80)\n      jumpi(tag_1, lt(calldatasize, 0x04))\n      shr(0xe0, calldataload(0x00))\n      dup1\n      0x1bae0ac8\n      eq\n      tag_2\n      jumpi\n      dup1\n      0x481c6a75\n      eq\n      tag_3\n      jumpi\n      dup1\n      0x4bde3ab1\n      eq\n      tag_4\n      jumpi\n      dup1\n      0x68742da6\n      eq\n      tag_5\n      jumpi\n      dup1\n      0x8da5cb5b\n      eq\n      tag_6\n      jumpi\n      dup1\n      0x99c383be\n      eq\n      tag_7\n      jumpi\n    tag_1:\n      0x00\n      dup1\n      revert\n        /* \"contracts/HotelRoom.sol\":927:946  Room[] public rooms */\n    tag_2:\n      callvalue\n      dup1\n      iszero\n      tag_8\n      jumpi\n      0x00\n      dup1\n      revert\n    tag_8:\n      pop\n      tag_9\n      0x04\n      dup1\n      calldatasize\n      sub\n      dup2\n      add\n      swap1\n      tag_10\n      swap2\n      swap1\n      tag_11\n      jump\t// in\n    tag_10:\n      tag_12\n      jump\t// in\n    tag_9:\n      mload(0x40)\n      tag_13\n      swap5\n      swap4\n      swap3\n      swap2\n      swap1\n      tag_14\n      jump\t// in\n    tag_13:\n      mload(0x40)\n      dup1\n      swap2\n      sub\n      swap1\n      return\n        /* \"contracts/HotelRoom.sol\":116:138  address public manager */\n    tag_3:\n      callvalue\n      dup1\n      iszero\n      tag_15\n      jumpi\n      0x00\n      dup1\n      revert\n    tag_15:\n      pop\n      tag_16\n      tag_17\n      jump\t// in\n    tag_16:\n      mload(0x40)\n      tag_18\n      swap2\n      swap1\n      tag_19\n      jump\t// in\n    tag_18:\n      mload(0x40)\n      dup1\n      swap2\n      sub\n      swap1\n      return\n        /* \"contracts/HotelRoom.sol\":1017:1235  function addRoom(string memory _details, uint256 _price) public isOwner {... */\n    tag_4:\n      callvalue\n      dup1\n      iszero\n      tag_20\n      jumpi\n      0x00\n      dup1\n      revert\n    tag_20:\n      pop\n      tag_21\n      0x04\n      dup1\n      calldatasize\n      sub\n      dup2\n      add\n      swap1\n      tag_22\n      swap2\n      swap1\n      tag_23\n      jump\t// in\n    tag_22:\n      tag_24\n      jump\t// in\n    tag_21:\n      stop\n        /* \"contracts/HotelRoom.sol\":1825:2219  function withdrawFunds(address payable _to) public isOwner {... */\n    tag_5:\n      callvalue\n      dup1\n      iszero\n      tag_25\n      jumpi\n      0x00\n      dup1\n      revert\n    tag_25:\n      pop\n      tag_26\n      0x04\n      dup1\n      calldatasize\n      sub\n      dup2\n      add\n      swap1\n      tag_27\n      swap2\n      swap1\n      tag_28\n      jump\t// in\n    tag_27:\n      tag_29\n      jump\t// in\n    tag_26:\n      stop\n        /* \"contracts/HotelRoom.sol\":82:110  address payable public owner */\n    tag_6:\n      callvalue\n      dup1\n      iszero\n      tag_30\n      jumpi\n      0x00\n      dup1\n      revert\n    tag_30:\n      pop\n      tag_31\n      tag_32\n      jump\t// in\n    tag_31:\n      mload(0x40)\n      tag_33\n      swap2\n      swap1\n      tag_34\n      jump\t// in\n    tag_33:\n      mload(0x40)\n      dup1\n      swap2\n      sub\n      swap1\n      return\n        /* \"contracts/HotelRoom.sol\":1241:1819  function bookRoom(... */\n    tag_7:\n      tag_35\n      0x04\n      dup1\n      calldatasize\n      sub\n      dup2\n      add\n      swap1\n      tag_36\n      swap2\n      swap1\n      tag_37\n      jump\t// in\n    tag_36:\n      tag_38\n      jump\t// in\n    tag_35:\n      stop\n        /* \"contracts/HotelRoom.sol\":927:946  Room[] public rooms */\n    tag_12:\n      0x02\n      dup2\n      dup2\n      sload\n      dup2\n      lt\n      tag_39\n      jumpi\n      0x00\n      dup1\n      revert\n    tag_39:\n      swap1\n      0x00\n      mstore\n      keccak256(0x00, 0x20)\n      swap1\n      0x05\n      mul\n      add\n      0x00\n      swap2\n      pop\n      swap1\n      pop\n      dup1\n      0x00\n      add\n      dup1\n      sload\n      tag_41\n      swap1\n      tag_42\n      jump\t// in\n    tag_41:\n      dup1\n      0x1f\n      add\n      0x20\n      dup1\n      swap2\n      div\n      mul\n      0x20\n      add\n      mload(0x40)\n      swap1\n      dup2\n      add\n      0x40\n      mstore\n      dup1\n      swap3\n      swap2\n      swap1\n      dup2\n      dup2\n      mstore\n      0x20\n      add\n      dup3\n      dup1\n      sload\n      tag_43\n      swap1\n      tag_42\n      jump\t// in\n    tag_43:\n      dup1\n      iszero\n      tag_44\n      jumpi\n      dup1\n      0x1f\n      lt\n      tag_45\n      jumpi\n      0x0100\n      dup1\n      dup4\n      sload\n      div\n      mul\n      dup4\n      mstore\n      swap2\n      0x20\n      add\n      swap2\n      jump(tag_44)\n    tag_45:\n      dup3\n      add\n      swap2\n      swap1\n      0x00\n      mstore\n      keccak256(0x00, 0x20)\n      swap1\n    tag_46:\n      dup2\n      sload\n      dup2\n      mstore\n      swap1\n      0x01\n      add\n      swap1\n      0x20\n      add\n      dup1\n      dup4\n      gt\n      tag_46\n      jumpi\n      dup3\n      swap1\n      sub\n      0x1f\n      and\n      dup3\n      add\n      swap2\n    tag_44:\n      pop\n      pop\n      pop\n      pop\n      pop\n      swap1\n      dup1\n      0x01\n      add\n      sload\n      swap1\n      dup1\n      0x02\n      add\n      0x00\n      swap1\n      sload\n      swap1\n      0x0100\n      exp\n      swap1\n      div\n      0xff\n      and\n      swap1\n      dup1\n      0x03\n      add\n      mload(0x40)\n      dup1\n      0x40\n      add\n      0x40\n      mstore\n      swap1\n      dup2\n      0x00\n      dup3\n      add\n      dup1\n      sload\n      tag_47\n      swap1\n      tag_42\n      jump\t// in\n    tag_47:\n      dup1\n      0x1f\n      add\n      0x20\n      dup1\n      swap2\n      div\n      mul\n      0x20\n      add\n      mload(0x40)\n      swap1\n      dup2\n      add\n      0x40\n      mstore\n      dup1\n      swap3\n      swap2\n      swap1\n      dup2\n      dup2\n      mstore\n      0x20\n      add\n      dup3\n      dup1\n      sload\n      tag_48\n      swap1\n      tag_42\n      jump\t// in\n    tag_48:\n      dup1\n      iszero\n      tag_49\n      jumpi\n      dup1\n      0x1f\n      lt\n      tag_50\n      jumpi\n      0x0100\n      dup1\n      dup4\n      sload\n      div\n      mul\n      dup4\n      mstore\n      swap2\n      0x20\n      add\n      swap2\n      jump(tag_49)\n    tag_50:\n      dup3\n      add\n      swap2\n      swap1\n      0x00\n      mstore\n      keccak256(0x00, 0x20)\n      swap1\n    tag_51:\n      dup2\n      sload\n      dup2\n      mstore\n      swap1\n      0x01\n      add\n      swap1\n      0x20\n      add\n      dup1\n      dup4\n      gt\n      tag_51\n      jumpi\n      dup3\n      swap1\n      sub\n      0x1f\n      and\n      dup3\n      add\n      swap2\n    tag_49:\n      pop\n      pop\n      pop\n      pop\n      pop\n      dup2\n      mstore\n      0x20\n      add\n      0x01\n      dup3\n      add\n      dup1\n      sload\n      tag_52\n      swap1\n      tag_42\n      jump\t// in\n    tag_52:\n      dup1\n      0x1f\n      add\n      0x20\n      dup1\n      swap2\n      div\n      mul\n      0x20\n      add\n      mload(0x40)\n      swap1\n      dup2\n      add\n      0x40\n      mstore\n      dup1\n      swap3\n      swap2\n      swap1\n      dup2\n      dup2\n      mstore\n      0x20\n      add\n      dup3\n      dup1\n      sload\n      tag_53\n      swap1\n      tag_42\n      jump\t// in\n    tag_53:\n      dup1\n      iszero\n      tag_54\n      jumpi\n      dup1\n      0x1f\n      lt\n      tag_55\n      jumpi\n      0x0100\n      dup1\n      dup4\n      sload\n      div\n      mul\n      dup4\n      mstore\n      swap2\n      0x20\n      add\n      swap2\n      jump(tag_54)\n    tag_55:\n      dup3\n      add\n      swap2\n      swap1\n      0x00\n      mstore\n      keccak256(0x00, 0x20)\n      swap1\n    tag_56:\n      dup2\n      sload\n      dup2\n      mstore\n      swap1\n      0x01\n      add\n      swap1\n      0x20\n      add\n      dup1\n      dup4\n      gt\n      tag_56\n      jumpi\n      dup3\n      swap1\n      sub\n      0x1f\n      and\n      dup3\n      add\n      swap2\n    tag_54:\n      pop\n      pop\n      pop\n      pop\n      pop\n      dup2\n      mstore\n      pop\n      pop\n      swap1\n      pop\n      dup5\n      jump\t// out\n        /* \"contracts/HotelRoom.sol\":116:138  address public manager */\n    tag_17:\n      0x01\n      0x00\n      swap1\n      sload\n      swap1\n      0x0100\n      exp\n      swap1\n      div\n      0xffffffffffffffffffffffffffffffffffffffff\n      and\n      dup2\n      jump\t// out\n        /* \"contracts/HotelRoom.sol\":1017:1235  function addRoom(string memory _details, uint256 _price) public isOwner {... */\n    tag_24:\n        /* \"contracts/HotelRoom.sol\":656:661  owner */\n      0x00\n      dup1\n      sload\n      swap1\n      0x0100\n      exp\n      swap1\n      div\n      0xffffffffffffffffffffffffffffffffffffffff\n      and\n        /* \"contracts/HotelRoom.sol\":642:661  msg.sender == owner */\n      0xffffffffffffffffffffffffffffffffffffffff\n      and\n        /* \"contracts/HotelRoom.sol\":642:652  msg.sender */\n      caller\n        /* \"contracts/HotelRoom.sol\":642:661  msg.sender == owner */\n      0xffffffffffffffffffffffffffffffffffffffff\n      and\n      eq\n        /* \"contracts/HotelRoom.sol\":621:731  require(... */\n      tag_58\n      jumpi\n      mload(0x40)\n      0x08c379a000000000000000000000000000000000000000000000000000000000\n      dup2\n      mstore\n      0x04\n      add\n      tag_59\n      swap1\n      tag_60\n      jump\t// in\n    tag_59:\n      mload(0x40)\n      dup1\n      swap2\n      sub\n      swap1\n      revert\n    tag_58:\n        /* \"contracts/HotelRoom.sol\":1099:1104  rooms */\n      0x02\n        /* \"contracts/HotelRoom.sol\":1110:1166  Room(_details, _price, roomStatus.Vacant, Guest(\"\", \"\")) */\n      mload(0x40)\n      dup1\n      0x80\n      add\n      0x40\n      mstore\n      dup1\n        /* \"contracts/HotelRoom.sol\":1115:1123  _details */\n      dup5\n        /* \"contracts/HotelRoom.sol\":1110:1166  Room(_details, _price, roomStatus.Vacant, Guest(\"\", \"\")) */\n      dup2\n      mstore\n      0x20\n      add\n        /* \"contracts/HotelRoom.sol\":1125:1131  _price */\n      dup4\n        /* \"contracts/HotelRoom.sol\":1110:1166  Room(_details, _price, roomStatus.Vacant, Guest(\"\", \"\")) */\n      dup2\n      mstore\n      0x20\n      add\n        /* \"contracts/HotelRoom.sol\":1133:1150  roomStatus.Vacant */\n      0x00\n        /* \"contracts/HotelRoom.sol\":1110:1166  Room(_details, _price, roomStatus.Vacant, Guest(\"\", \"\")) */\n      0x01\n      dup2\n      gt\n      iszero\n      tag_62\n      jumpi\n      tag_63\n      tag_64\n      jump\t// in\n    tag_63:\n    tag_62:\n      dup2\n      mstore\n      0x20\n      add\n        /* \"contracts/HotelRoom.sol\":1152:1165  Guest(\"\", \"\") */\n      mload(0x40)\n      dup1\n      0x40\n      add\n      0x40\n      mstore\n      dup1\n      mload(0x40)\n      dup1\n      0x20\n      add\n      0x40\n      mstore\n      dup1\n      0x00\n      dup2\n      mstore\n      pop\n      dup2\n      mstore\n      0x20\n      add\n      mload(0x40)\n      dup1\n      0x20\n      add\n      0x40\n      mstore\n      dup1\n      0x00\n      dup2\n      mstore\n      pop\n      dup2\n      mstore\n      pop\n        /* \"contracts/HotelRoom.sol\":1110:1166  Room(_details, _price, roomStatus.Vacant, Guest(\"\", \"\")) */\n      dup2\n      mstore\n      pop\n        /* \"contracts/HotelRoom.sol\":1099:1167  rooms.push(Room(_details, _price, roomStatus.Vacant, Guest(\"\", \"\"))) */\n      swap1\n      dup1\n      0x01\n      dup2\n      sload\n      add\n      dup1\n      dup3\n      sstore\n      dup1\n      swap2\n      pop\n      pop\n      0x01\n      swap1\n      sub\n      swap1\n      0x00\n      mstore\n      keccak256(0x00, 0x20)\n      swap1\n      0x05\n      mul\n      add\n      0x00\n      swap1\n      swap2\n      swap1\n      swap2\n      swap1\n      swap2\n      pop\n      0x00\n      dup3\n      add\n      mload\n      dup2\n      0x00\n      add\n      swap1\n      dup2\n      tag_66\n      swap2\n      swap1\n      tag_67\n      jump\t// in\n    tag_66:\n      pop\n      0x20\n      dup3\n      add\n      mload\n      dup2\n      0x01\n      add\n      sstore\n      0x40\n      dup3\n      add\n      mload\n      dup2\n      0x02\n      add\n      exp(0x0100, 0x00)\n      dup2\n      sload\n      dup2\n      0xff\n      mul\n      not\n      and\n      swap1\n      dup4\n      0x01\n      dup2\n      gt\n      iszero\n      tag_68\n      jumpi\n      tag_69\n      tag_64\n      jump\t// in\n    tag_69:\n    tag_68:\n      mul\n      or\n      swap1\n      sstore\n      pop\n      0x60\n      dup3\n      add\n      mload\n      dup2\n      0x03\n      add\n      0x00\n      dup3\n      add\n      mload\n      dup2\n      0x00\n      add\n      swap1\n      dup2\n      tag_70\n      swap2\n      swap1\n      tag_67\n      jump\t// in\n    tag_70:\n      pop\n      0x20\n      dup3\n      add\n      mload\n      dup2\n      0x01\n      add\n      swap1\n      dup2\n      tag_71\n      swap2\n      swap1\n      tag_67\n      jump\t// in\n    tag_71:\n      pop\n      pop\n      pop\n      pop\n      pop\n        /* \"contracts/HotelRoom.sol\":1182:1228  RoomAdded(_details, _price, roomStatus.Vacant) */\n      0x608a4b9b1eddb2b48fb3c62a5e7f36d625b58f5ff3a1f8cc78259e69e2cf067e\n        /* \"contracts/HotelRoom.sol\":1192:1200  _details */\n      dup3\n        /* \"contracts/HotelRoom.sol\":1202:1208  _price */\n      dup3\n        /* \"contracts/HotelRoom.sol\":1210:1227  roomStatus.Vacant */\n      0x00\n        /* \"contracts/HotelRoom.sol\":1182:1228  RoomAdded(_details, _price, roomStatus.Vacant) */\n      mload(0x40)\n      tag_72\n      swap4\n      swap3\n      swap2\n      swap1\n      tag_73\n      jump\t// in\n    tag_72:\n      mload(0x40)\n      dup1\n      swap2\n      sub\n      swap1\n      log1\n        /* \"contracts/HotelRoom.sol\":1017:1235  function addRoom(string memory _details, uint256 _price) public isOwner {... */\n      pop\n      pop\n      jump\t// out\n        /* \"contracts/HotelRoom.sol\":1825:2219  function withdrawFunds(address payable _to) public isOwner {... */\n    tag_29:\n        /* \"contracts/HotelRoom.sol\":656:661  owner */\n      0x00\n      dup1\n      sload\n      swap1\n      0x0100\n      exp\n      swap1\n      div\n      0xffffffffffffffffffffffffffffffffffffffff\n      and\n        /* \"contracts/HotelRoom.sol\":642:661  msg.sender == owner */\n      0xffffffffffffffffffffffffffffffffffffffff\n      and\n        /* \"contracts/HotelRoom.sol\":642:652  msg.sender */\n      caller\n        /* \"contracts/HotelRoom.sol\":642:661  msg.sender == owner */\n      0xffffffffffffffffffffffffffffffffffffffff\n      and\n      eq\n        /* \"contracts/HotelRoom.sol\":621:731  require(... */\n      tag_75\n      jumpi\n      mload(0x40)\n      0x08c379a000000000000000000000000000000000000000000000000000000000\n      dup2\n      mstore\n      0x04\n      add\n      tag_76\n      swap1\n      tag_60\n      jump\t// in\n    tag_76:\n      mload(0x40)\n      dup1\n      swap2\n      sub\n      swap1\n      revert\n    tag_75:\n        /* \"contracts/HotelRoom.sol\":1894:1909  uint256 balance */\n      0x00\n        /* \"contracts/HotelRoom.sol\":1912:1933  address(this).balance */\n      selfbalance\n        /* \"contracts/HotelRoom.sol\":1894:1933  uint256 balance = address(this).balance */\n      swap1\n      pop\n        /* \"contracts/HotelRoom.sol\":1961:1962  0 */\n      0x00\n        /* \"contracts/HotelRoom.sol\":1951:1958  balance */\n      dup2\n        /* \"contracts/HotelRoom.sol\":1951:1962  balance > 0 */\n      gt\n        /* \"contracts/HotelRoom.sol\":1943:1987  require(balance > 0, \"No funds to withdraw\") */\n      tag_78\n      jumpi\n      mload(0x40)\n      0x08c379a000000000000000000000000000000000000000000000000000000000\n      dup2\n      mstore\n      0x04\n      add\n      tag_79\n      swap1\n      tag_80\n      jump\t// in\n    tag_79:\n      mload(0x40)\n      dup1\n      swap2\n      sub\n      swap1\n      revert\n    tag_78:\n        /* \"contracts/HotelRoom.sol\":2020:2021  0 */\n      0x00\n        /* \"contracts/HotelRoom.sol\":2005:2022  _to != address(0) */\n      0xffffffffffffffffffffffffffffffffffffffff\n      and\n        /* \"contracts/HotelRoom.sol\":2005:2008  _to */\n      dup3\n        /* \"contracts/HotelRoom.sol\":2005:2022  _to != address(0) */\n      0xffffffffffffffffffffffffffffffffffffffff\n      and\n      sub\n        /* \"contracts/HotelRoom.sol\":1997:2062  require(_to != address(0), \"Cannot withdraw to the zero address\") */\n      tag_81\n      jumpi\n      mload(0x40)\n      0x08c379a000000000000000000000000000000000000000000000000000000000\n      dup2\n      mstore\n      0x04\n      add\n      tag_82\n      swap1\n      tag_83\n      jump\t// in\n    tag_82:\n      mload(0x40)\n      dup1\n      swap2\n      sub\n      swap1\n      revert\n    tag_81:\n        /* \"contracts/HotelRoom.sol\":2074:2083  bool sent */\n      0x00\n        /* \"contracts/HotelRoom.sol\":2089:2092  _to */\n      dup3\n        /* \"contracts/HotelRoom.sol\":2089:2097  _to.call */\n      0xffffffffffffffffffffffffffffffffffffffff\n      and\n        /* \"contracts/HotelRoom.sol\":2105:2112  balance */\n      dup3\n        /* \"contracts/HotelRoom.sol\":2089:2117  _to.call{value: balance}(\"\") */\n      mload(0x40)\n      tag_84\n      swap1\n      tag_85\n      jump\t// in\n    tag_84:\n      0x00\n      mload(0x40)\n      dup1\n      dup4\n      sub\n      dup2\n      dup6\n      dup8\n      gas\n      call\n      swap3\n      pop\n      pop\n      pop\n      returndatasize\n      dup1\n      0x00\n      dup2\n      eq\n      tag_88\n      jumpi\n      mload(0x40)\n      swap2\n      pop\n      and(add(returndatasize, 0x3f), not(0x1f))\n      dup3\n      add\n      0x40\n      mstore\n      returndatasize\n      dup3\n      mstore\n      returndatasize\n      0x00\n      0x20\n      dup5\n      add\n      returndatacopy\n      jump(tag_87)\n    tag_88:\n      0x60\n      swap2\n      pop\n    tag_87:\n      pop\n        /* \"contracts/HotelRoom.sol\":2073:2117  (bool sent, ) = _to.call{value: balance}(\"\") */\n      pop\n      swap1\n      pop\n        /* \"contracts/HotelRoom.sol\":2135:2139  sent */\n      dup1\n        /* \"contracts/HotelRoom.sol\":2127:2168  require(sent, \"Failed to withdraw funds\") */\n      tag_89\n      jumpi\n      mload(0x40)\n      0x08c379a000000000000000000000000000000000000000000000000000000000\n      dup2\n      mstore\n      0x04\n      add\n      tag_90\n      swap1\n      tag_91\n      jump\t// in\n    tag_90:\n      mload(0x40)\n      dup1\n      swap2\n      sub\n      swap1\n      revert\n    tag_89:\n        /* \"contracts/HotelRoom.sol\":2199:2202  _to */\n      dup3\n        /* \"contracts/HotelRoom.sol\":2184:2212  FundsWithdrawn(_to, balance) */\n      0xffffffffffffffffffffffffffffffffffffffff\n      and\n      0xeaff4b37086828766ad3268786972c0cd24259d4c87a80f9d3963a3c3d999b0d\n        /* \"contracts/HotelRoom.sol\":2204:2211  balance */\n      dup4\n        /* \"contracts/HotelRoom.sol\":2184:2212  FundsWithdrawn(_to, balance) */\n      mload(0x40)\n      tag_92\n      swap2\n      swap1\n      tag_93\n      jump\t// in\n    tag_92:\n      mload(0x40)\n      dup1\n      swap2\n      sub\n      swap1\n      log2\n        /* \"contracts/HotelRoom.sol\":1884:2219  {... */\n      pop\n      pop\n        /* \"contracts/HotelRoom.sol\":1825:2219  function withdrawFunds(address payable _to) public isOwner {... */\n      pop\n      jump\t// out\n        /* \"contracts/HotelRoom.sol\":82:110  address payable public owner */\n    tag_32:\n      0x00\n      dup1\n      sload\n      swap1\n      0x0100\n      exp\n      swap1\n      div\n      0xffffffffffffffffffffffffffffffffffffffff\n      and\n      dup2\n      jump\t// out\n        /* \"contracts/HotelRoom.sol\":1241:1819  function bookRoom(... */\n    tag_38:\n        /* \"contracts/HotelRoom.sol\":1380:1386  roomId */\n      dup3\n        /* \"contracts/HotelRoom.sol\":836:853  roomStatus.Vacant */\n      0x00\n        /* \"contracts/HotelRoom.sol\":816:853  rooms[id].status == roomStatus.Vacant */\n      0x01\n      dup2\n      gt\n      iszero\n      tag_95\n      jumpi\n      tag_96\n      tag_64\n      jump\t// in\n    tag_96:\n    tag_95:\n        /* \"contracts/HotelRoom.sol\":816:821  rooms */\n      0x02\n        /* \"contracts/HotelRoom.sol\":822:824  id */\n      dup3\n        /* \"contracts/HotelRoom.sol\":816:825  rooms[id] */\n      dup2\n      sload\n      dup2\n      lt\n      tag_97\n      jumpi\n      tag_98\n      tag_99\n      jump\t// in\n    tag_98:\n    tag_97:\n      swap1\n      0x00\n      mstore\n      keccak256(0x00, 0x20)\n      swap1\n      0x05\n      mul\n      add\n        /* \"contracts/HotelRoom.sol\":816:832  rooms[id].status */\n      0x02\n      add\n      0x00\n      swap1\n      sload\n      swap1\n      0x0100\n      exp\n      swap1\n      div\n      0xff\n      and\n        /* \"contracts/HotelRoom.sol\":816:853  rooms[id].status == roomStatus.Vacant */\n      0x01\n      dup2\n      gt\n      iszero\n      tag_101\n      jumpi\n      tag_102\n      tag_64\n      jump\t// in\n    tag_102:\n    tag_101:\n      eq\n        /* \"contracts/HotelRoom.sol\":795:903  require(... */\n      tag_103\n      jumpi\n      mload(0x40)\n      0x08c379a000000000000000000000000000000000000000000000000000000000\n      dup2\n      mstore\n      0x04\n      add\n      tag_104\n      swap1\n      tag_105\n      jump\t// in\n    tag_104:\n      mload(0x40)\n      dup1\n      swap2\n      sub\n      swap1\n      revert\n    tag_103:\n        /* \"contracts/HotelRoom.sol\":1442:1451  msg.value */\n      callvalue\n        /* \"contracts/HotelRoom.sol\":1419:1424  rooms */\n      0x02\n        /* \"contracts/HotelRoom.sol\":1425:1431  roomId */\n      dup6\n        /* \"contracts/HotelRoom.sol\":1419:1432  rooms[roomId] */\n      dup2\n      sload\n      dup2\n      lt\n      tag_107\n      jumpi\n      tag_108\n      tag_99\n      jump\t// in\n    tag_108:\n    tag_107:\n      swap1\n      0x00\n      mstore\n      keccak256(0x00, 0x20)\n      swap1\n      0x05\n      mul\n      add\n        /* \"contracts/HotelRoom.sol\":1419:1438  rooms[roomId].price */\n      0x01\n      add\n      sload\n        /* \"contracts/HotelRoom.sol\":1419:1451  rooms[roomId].price <= msg.value */\n      gt\n      iszero\n        /* \"contracts/HotelRoom.sol\":1398:1521  require(... */\n      tag_110\n      jumpi\n      mload(0x40)\n      0x08c379a000000000000000000000000000000000000000000000000000000000\n      dup2\n      mstore\n      0x04\n      add\n      tag_111\n      swap1\n      tag_112\n      jump\t// in\n    tag_111:\n      mload(0x40)\n      dup1\n      swap2\n      sub\n      swap1\n      revert\n    tag_110:\n        /* \"contracts/HotelRoom.sol\":1532:1541  bool sent */\n      0x00\n        /* \"contracts/HotelRoom.sol\":1547:1552  owner */\n      dup1\n      0x00\n      swap1\n      sload\n      swap1\n      0x0100\n      exp\n      swap1\n      div\n      0xffffffffffffffffffffffffffffffffffffffff\n      and\n        /* \"contracts/HotelRoom.sol\":1547:1557  owner.call */\n      0xffffffffffffffffffffffffffffffffffffffff\n      and\n        /* \"contracts/HotelRoom.sol\":1565:1574  msg.value */\n      callvalue\n        /* \"contracts/HotelRoom.sol\":1547:1579  owner.call{value: msg.value}(\"\") */\n      mload(0x40)\n      tag_113\n      swap1\n      tag_85\n      jump\t// in\n    tag_113:\n      0x00\n      mload(0x40)\n      dup1\n      dup4\n      sub\n      dup2\n      dup6\n      dup8\n      gas\n      call\n      swap3\n      pop\n      pop\n      pop\n      returndatasize\n      dup1\n      0x00\n      dup2\n      eq\n      tag_116\n      jumpi\n      mload(0x40)\n      swap2\n      pop\n      and(add(returndatasize, 0x3f), not(0x1f))\n      dup3\n      add\n      0x40\n      mstore\n      returndatasize\n      dup3\n      mstore\n      returndatasize\n      0x00\n      0x20\n      dup5\n      add\n      returndatacopy\n      jump(tag_115)\n    tag_116:\n      0x60\n      swap2\n      pop\n    tag_115:\n      pop\n        /* \"contracts/HotelRoom.sol\":1531:1579  (bool sent, ) = owner.call{value: msg.value}(\"\") */\n      pop\n      swap1\n      pop\n        /* \"contracts/HotelRoom.sol\":1597:1601  sent */\n      dup1\n        /* \"contracts/HotelRoom.sol\":1589:1624  require(sent, \"Transaction Failed\") */\n      tag_117\n      jumpi\n      mload(0x40)\n      0x08c379a000000000000000000000000000000000000000000000000000000000\n      dup2\n      mstore\n      0x04\n      add\n      tag_118\n      swap1\n      tag_119\n      jump\t// in\n    tag_118:\n      mload(0x40)\n      dup1\n      swap2\n      sub\n      swap1\n      revert\n    tag_117:\n        /* \"contracts/HotelRoom.sol\":1657:1676  roomStatus.Occupied */\n      0x01\n        /* \"contracts/HotelRoom.sol\":1634:1639  rooms */\n      0x02\n        /* \"contracts/HotelRoom.sol\":1640:1646  roomId */\n      dup7\n        /* \"contracts/HotelRoom.sol\":1634:1647  rooms[roomId] */\n      dup2\n      sload\n      dup2\n      lt\n      tag_120\n      jumpi\n      tag_121\n      tag_99\n      jump\t// in\n    tag_121:\n    tag_120:\n      swap1\n      0x00\n      mstore\n      keccak256(0x00, 0x20)\n      swap1\n      0x05\n      mul\n      add\n        /* \"contracts/HotelRoom.sol\":1634:1654  rooms[roomId].status */\n      0x02\n      add\n      0x00\n        /* \"contracts/HotelRoom.sol\":1634:1676  rooms[roomId].status = roomStatus.Occupied */\n      0x0100\n      exp\n      dup2\n      sload\n      dup2\n      0xff\n      mul\n      not\n      and\n      swap1\n      dup4\n      0x01\n      dup2\n      gt\n      iszero\n      tag_123\n      jumpi\n      tag_124\n      tag_64\n      jump\t// in\n    tag_124:\n    tag_123:\n      mul\n      or\n      swap1\n      sstore\n      pop\n        /* \"contracts/HotelRoom.sol\":1708:1736  Guest(guestName, guestEmail) */\n      mload(0x40)\n      dup1\n      0x40\n      add\n      0x40\n      mstore\n      dup1\n        /* \"contracts/HotelRoom.sol\":1714:1723  guestName */\n      dup6\n        /* \"contracts/HotelRoom.sol\":1708:1736  Guest(guestName, guestEmail) */\n      dup2\n      mstore\n      0x20\n      add\n        /* \"contracts/HotelRoom.sol\":1725:1735  guestEmail */\n      dup5\n        /* \"contracts/HotelRoom.sol\":1708:1736  Guest(guestName, guestEmail) */\n      dup2\n      mstore\n      pop\n        /* \"contracts/HotelRoom.sol\":1686:1691  rooms */\n      0x02\n        /* \"contracts/HotelRoom.sol\":1692:1698  roomId */\n      dup7\n        /* \"contracts/HotelRoom.sol\":1686:1699  rooms[roomId] */\n      dup2\n      sload\n      dup2\n      lt\n      tag_125\n      jumpi\n      tag_126\n      tag_99\n      jump\t// in\n    tag_126:\n    tag_125:\n      swap1\n      0x00\n      mstore\n      keccak256(0x00, 0x20)\n      swap1\n      0x05\n      mul\n      add\n        /* \"contracts/HotelRoom.sol\":1686:1705  rooms[roomId].guest */\n      0x03\n      add\n        /* \"contracts/HotelRoom.sol\":1686:1736  rooms[roomId].guest = Guest(guestName, guestEmail) */\n      0x00\n      dup3\n      add\n      mload\n      dup2\n      0x00\n      add\n      swap1\n      dup2\n      tag_128\n      swap2\n      swap1\n      tag_67\n      jump\t// in\n    tag_128:\n      pop\n      0x20\n      dup3\n      add\n      mload\n      dup2\n      0x01\n      add\n      swap1\n      dup2\n      tag_129\n      swap2\n      swap1\n      tag_67\n      jump\t// in\n    tag_129:\n      pop\n      swap1\n      pop\n      pop\n        /* \"contracts/HotelRoom.sol\":1751:1812  RoomOccupied(roomId, msg.value, Guest(guestName, guestEmail)) */\n      0x1b81702f4e481593ce2eb45aed48d5b8d2b5110bc3f95faf6089617af8656550\n        /* \"contracts/HotelRoom.sol\":1764:1770  roomId */\n      dup6\n        /* \"contracts/HotelRoom.sol\":1772:1781  msg.value */\n      callvalue\n        /* \"contracts/HotelRoom.sol\":1783:1811  Guest(guestName, guestEmail) */\n      mload(0x40)\n      dup1\n      0x40\n      add\n      0x40\n      mstore\n      dup1\n        /* \"contracts/HotelRoom.sol\":1789:1798  guestName */\n      dup9\n        /* \"contracts/HotelRoom.sol\":1783:1811  Guest(guestName, guestEmail) */\n      dup2\n      mstore\n      0x20\n      add\n        /* \"contracts/HotelRoom.sol\":1800:1810  guestEmail */\n      dup8\n        /* \"contracts/HotelRoom.sol\":1783:1811  Guest(guestName, guestEmail) */\n      dup2\n      mstore\n      pop\n        /* \"contracts/HotelRoom.sol\":1751:1812  RoomOccupied(roomId, msg.value, Guest(guestName, guestEmail)) */\n      mload(0x40)\n      tag_130\n      swap4\n      swap3\n      swap2\n      swap1\n      tag_131\n      jump\t// in\n    tag_130:\n      mload(0x40)\n      dup1\n      swap2\n      sub\n      swap1\n      log1\n        /* \"contracts/HotelRoom.sol\":1388:1819  {... */\n      pop\n        /* \"contracts/HotelRoom.sol\":1241:1819  function bookRoom(... */\n      pop\n      pop\n      pop\n      pop\n      jump\t// out\n        /* \"#utility.yul\":7:82   */\n    tag_132:\n        /* \"#utility.yul\":40:46   */\n      0x00\n        /* \"#utility.yul\":73:75   */\n      0x40\n        /* \"#utility.yul\":67:76   */\n      mload\n        /* \"#utility.yul\":57:76   */\n      swap1\n      pop\n        /* \"#utility.yul\":7:82   */\n      swap1\n      jump\t// out\n        /* \"#utility.yul\":88:205   */\n    tag_133:\n        /* \"#utility.yul\":197:198   */\n      0x00\n        /* \"#utility.yul\":194:195   */\n      dup1\n        /* \"#utility.yul\":187:199   */\n      revert\n        /* \"#utility.yul\":211:328   */\n    tag_134:\n        /* \"#utility.yul\":320:321   */\n      0x00\n        /* \"#utility.yul\":317:318   */\n      dup1\n        /* \"#utility.yul\":310:322   */\n      revert\n        /* \"#utility.yul\":334:411   */\n    tag_135:\n        /* \"#utility.yul\":371:378   */\n      0x00\n        /* \"#utility.yul\":400:405   */\n      dup2\n        /* \"#utility.yul\":389:405   */\n      swap1\n      pop\n        /* \"#utility.yul\":334:411   */\n      swap2\n      swap1\n      pop\n      jump\t// out\n        /* \"#utility.yul\":417:539   */\n    tag_136:\n        /* \"#utility.yul\":490:514   */\n      tag_206\n        /* \"#utility.yul\":508:513   */\n      dup2\n        /* \"#utility.yul\":490:514   */\n      tag_135\n      jump\t// in\n    tag_206:\n        /* \"#utility.yul\":483:488   */\n      dup2\n        /* \"#utility.yul\":480:515   */\n      eq\n        /* \"#utility.yul\":470:533   */\n      tag_207\n      jumpi\n        /* \"#utility.yul\":529:530   */\n      0x00\n        /* \"#utility.yul\":526:527   */\n      dup1\n        /* \"#utility.yul\":519:531   */\n      revert\n        /* \"#utility.yul\":470:533   */\n    tag_207:\n        /* \"#utility.yul\":417:539   */\n      pop\n      jump\t// out\n        /* \"#utility.yul\":545:684   */\n    tag_137:\n        /* \"#utility.yul\":591:596   */\n      0x00\n        /* \"#utility.yul\":629:635   */\n      dup2\n        /* \"#utility.yul\":616:636   */\n      calldataload\n        /* \"#utility.yul\":607:636   */\n      swap1\n      pop\n        /* \"#utility.yul\":645:678   */\n      tag_209\n        /* \"#utility.yul\":672:677   */\n      dup2\n        /* \"#utility.yul\":645:678   */\n      tag_136\n      jump\t// in\n    tag_209:\n        /* \"#utility.yul\":545:684   */\n      swap3\n      swap2\n      pop\n      pop\n      jump\t// out\n        /* \"#utility.yul\":690:1019   */\n    tag_11:\n        /* \"#utility.yul\":749:755   */\n      0x00\n        /* \"#utility.yul\":798:800   */\n      0x20\n        /* \"#utility.yul\":786:795   */\n      dup3\n        /* \"#utility.yul\":777:784   */\n      dup5\n        /* \"#utility.yul\":773:796   */\n      sub\n        /* \"#utility.yul\":769:801   */\n      slt\n        /* \"#utility.yul\":766:885   */\n      iszero\n      tag_211\n      jumpi\n        /* \"#utility.yul\":804:883   */\n      tag_212\n      tag_133\n      jump\t// in\n    tag_212:\n        /* \"#utility.yul\":766:885   */\n    tag_211:\n        /* \"#utility.yul\":924:925   */\n      0x00\n        /* \"#utility.yul\":949:1002   */\n      tag_213\n        /* \"#utility.yul\":994:1001   */\n      dup5\n        /* \"#utility.yul\":985:991   */\n      dup3\n        /* \"#utility.yul\":974:983   */\n      dup6\n        /* \"#utility.yul\":970:992   */\n      add\n        /* \"#utility.yul\":949:1002   */\n      tag_137\n      jump\t// in\n    tag_213:\n        /* \"#utility.yul\":939:1002   */\n      swap2\n      pop\n        /* \"#utility.yul\":895:1012   */\n      pop\n        /* \"#utility.yul\":690:1019   */\n      swap3\n      swap2\n      pop\n      pop\n      jump\t// out\n        /* \"#utility.yul\":1025:1124   */\n    tag_138:\n        /* \"#utility.yul\":1077:1083   */\n      0x00\n        /* \"#utility.yul\":1111:1116   */\n      dup2\n        /* \"#utility.yul\":1105:1117   */\n      mload\n        /* \"#utility.yul\":1095:1117   */\n      swap1\n      pop\n        /* \"#utility.yul\":1025:1124   */\n      swap2\n      swap1\n      pop\n      jump\t// out\n        /* \"#utility.yul\":1130:1299   */\n    tag_139:\n        /* \"#utility.yul\":1214:1225   */\n      0x00\n        /* \"#utility.yul\":1248:1254   */\n      dup3\n        /* \"#utility.yul\":1243:1246   */\n      dup3\n        /* \"#utility.yul\":1236:1255   */\n      mstore\n        /* \"#utility.yul\":1288:1292   */\n      0x20\n        /* \"#utility.yul\":1283:1286   */\n      dup3\n        /* \"#utility.yul\":1279:1293   */\n      add\n        /* \"#utility.yul\":1264:1293   */\n      swap1\n      pop\n        /* \"#utility.yul\":1130:1299   */\n      swap3\n      swap2\n      pop\n      pop\n      jump\t// out\n        /* \"#utility.yul\":1305:1444   */\n    tag_140:\n        /* \"#utility.yul\":1394:1400   */\n      dup3\n        /* \"#utility.yul\":1389:1392   */\n      dup2\n        /* \"#utility.yul\":1384:1387   */\n      dup4\n        /* \"#utility.yul\":1378:1401   */\n      mcopy\n        /* \"#utility.yul\":1435:1436   */\n      0x00\n        /* \"#utility.yul\":1426:1432   */\n      dup4\n        /* \"#utility.yul\":1421:1424   */\n      dup4\n        /* \"#utility.yul\":1417:1433   */\n      add\n        /* \"#utility.yul\":1410:1437   */\n      mstore\n        /* \"#utility.yul\":1305:1444   */\n      pop\n      pop\n      pop\n      jump\t// out\n        /* \"#utility.yul\":1450:1552   */\n    tag_141:\n        /* \"#utility.yul\":1491:1497   */\n      0x00\n        /* \"#utility.yul\":1542:1544   */\n      0x1f\n        /* \"#utility.yul\":1538:1545   */\n      not\n        /* \"#utility.yul\":1533:1535   */\n      0x1f\n        /* \"#utility.yul\":1526:1531   */\n      dup4\n        /* \"#utility.yul\":1522:1536   */\n      add\n        /* \"#utility.yul\":1518:1546   */\n      and\n        /* \"#utility.yul\":1508:1546   */\n      swap1\n      pop\n        /* \"#utility.yul\":1450:1552   */\n      swap2\n      swap1\n      pop\n      jump\t// out\n        /* \"#utility.yul\":1558:1935   */\n    tag_142:\n        /* \"#utility.yul\":1646:1649   */\n      0x00\n        /* \"#utility.yul\":1674:1713   */\n      tag_219\n        /* \"#utility.yul\":1707:1712   */\n      dup3\n        /* \"#utility.yul\":1674:1713   */\n      tag_138\n      jump\t// in\n    tag_219:\n        /* \"#utility.yul\":1729:1800   */\n      tag_220\n        /* \"#utility.yul\":1793:1799   */\n      dup2\n        /* \"#utility.yul\":1788:1791   */\n      dup6\n        /* \"#utility.yul\":1729:1800   */\n      tag_139\n      jump\t// in\n    tag_220:\n        /* \"#utility.yul\":1722:1800   */\n      swap4\n      pop\n        /* \"#utility.yul\":1809:1874   */\n      tag_221\n        /* \"#utility.yul\":1867:1873   */\n      dup2\n        /* \"#utility.yul\":1862:1865   */\n      dup6\n        /* \"#utility.yul\":1855:1859   */\n      0x20\n        /* \"#utility.yul\":1848:1853   */\n      dup7\n        /* \"#utility.yul\":1844:1860   */\n      add\n        /* \"#utility.yul\":1809:1874   */\n      tag_140\n      jump\t// in\n    tag_221:\n        /* \"#utility.yul\":1899:1928   */\n      tag_222\n        /* \"#utility.yul\":1921:1927   */\n      dup2\n        /* \"#utility.yul\":1899:1928   */\n      tag_141\n      jump\t// in\n    tag_222:\n        /* \"#utility.yul\":1894:1897   */\n      dup5\n        /* \"#utility.yul\":1890:1929   */\n      add\n        /* \"#utility.yul\":1883:1929   */\n      swap2\n      pop\n        /* \"#utility.yul\":1650:1935   */\n      pop\n        /* \"#utility.yul\":1558:1935   */\n      swap3\n      swap2\n      pop\n      pop\n      jump\t// out\n        /* \"#utility.yul\":1941:2059   */\n    tag_143:\n        /* \"#utility.yul\":2028:2052   */\n      tag_224\n        /* \"#utility.yul\":2046:2051   */\n      dup2\n        /* \"#utility.yul\":2028:2052   */\n      tag_135\n      jump\t// in\n    tag_224:\n        /* \"#utility.yul\":2023:2026   */\n      dup3\n        /* \"#utility.yul\":2016:2053   */\n      mstore\n        /* \"#utility.yul\":1941:2059   */\n      pop\n      pop\n      jump\t// out\n        /* \"#utility.yul\":2065:2245   */\n    tag_64:\n        /* \"#utility.yul\":2113:2190   */\n      0x4e487b7100000000000000000000000000000000000000000000000000000000\n        /* \"#utility.yul\":2110:2111   */\n      0x00\n        /* \"#utility.yul\":2103:2191   */\n      mstore\n        /* \"#utility.yul\":2210:2214   */\n      0x21\n        /* \"#utility.yul\":2207:2208   */\n      0x04\n        /* \"#utility.yul\":2200:2215   */\n      mstore\n        /* \"#utility.yul\":2234:2238   */\n      0x24\n        /* \"#utility.yul\":2231:2232   */\n      0x00\n        /* \"#utility.yul\":2224:2239   */\n      revert\n        /* \"#utility.yul\":2251:2368   */\n    tag_144:\n        /* \"#utility.yul\":2336:2337   */\n      0x02\n        /* \"#utility.yul\":2329:2334   */\n      dup2\n        /* \"#utility.yul\":2326:2338   */\n      lt\n        /* \"#utility.yul\":2316:2362   */\n      tag_227\n      jumpi\n        /* \"#utility.yul\":2342:2360   */\n      tag_228\n      tag_64\n      jump\t// in\n    tag_228:\n        /* \"#utility.yul\":2316:2362   */\n    tag_227:\n        /* \"#utility.yul\":2251:2368   */\n      pop\n      jump\t// out\n        /* \"#utility.yul\":2374:2509   */\n    tag_145:\n        /* \"#utility.yul\":2423:2430   */\n      0x00\n        /* \"#utility.yul\":2452:2457   */\n      dup2\n        /* \"#utility.yul\":2441:2457   */\n      swap1\n      pop\n        /* \"#utility.yul\":2458:2503   */\n      tag_230\n        /* \"#utility.yul\":2497:2502   */\n      dup3\n        /* \"#utility.yul\":2458:2503   */\n      tag_144\n      jump\t// in\n    tag_230:\n        /* \"#utility.yul\":2374:2509   */\n      swap2\n      swap1\n      pop\n      jump\t// out\n        /* \"#utility.yul\":2515:2650   */\n    tag_146:\n        /* \"#utility.yul\":2575:2584   */\n      0x00\n        /* \"#utility.yul\":2608:2644   */\n      tag_232\n        /* \"#utility.yul\":2638:2643   */\n      dup3\n        /* \"#utility.yul\":2608:2644   */\n      tag_145\n      jump\t// in\n    tag_232:\n        /* \"#utility.yul\":2595:2644   */\n      swap1\n      pop\n        /* \"#utility.yul\":2515:2650   */\n      swap2\n      swap1\n      pop\n      jump\t// out\n        /* \"#utility.yul\":2656:2807   */\n    tag_147:\n        /* \"#utility.yul\":2753:2800   */\n      tag_234\n        /* \"#utility.yul\":2794:2799   */\n      dup2\n        /* \"#utility.yul\":2753:2800   */\n      tag_146\n      jump\t// in\n    tag_234:\n        /* \"#utility.yul\":2748:2751   */\n      dup3\n        /* \"#utility.yul\":2741:2801   */\n      mstore\n        /* \"#utility.yul\":2656:2807   */\n      pop\n      pop\n      jump\t// out\n        /* \"#utility.yul\":2813:2972   */\n    tag_148:\n        /* \"#utility.yul\":2887:2898   */\n      0x00\n        /* \"#utility.yul\":2921:2927   */\n      dup3\n        /* \"#utility.yul\":2916:2919   */\n      dup3\n        /* \"#utility.yul\":2909:2928   */\n      mstore\n        /* \"#utility.yul\":2961:2965   */\n      0x20\n        /* \"#utility.yul\":2956:2959   */\n      dup3\n        /* \"#utility.yul\":2952:2966   */\n      add\n        /* \"#utility.yul\":2937:2966   */\n      swap1\n      pop\n        /* \"#utility.yul\":2813:2972   */\n      swap3\n      swap2\n      pop\n      pop\n      jump\t// out\n        /* \"#utility.yul\":2978:3335   */\n    tag_149:\n        /* \"#utility.yul\":3056:3059   */\n      0x00\n        /* \"#utility.yul\":3084:3123   */\n      tag_237\n        /* \"#utility.yul\":3117:3122   */\n      dup3\n        /* \"#utility.yul\":3084:3123   */\n      tag_138\n      jump\t// in\n    tag_237:\n        /* \"#utility.yul\":3139:3200   */\n      tag_238\n        /* \"#utility.yul\":3193:3199   */\n      dup2\n        /* \"#utility.yul\":3188:3191   */\n      dup6\n        /* \"#utility.yul\":3139:3200   */\n      tag_148\n      jump\t// in\n    tag_238:\n        /* \"#utility.yul\":3132:3200   */\n      swap4\n      pop\n        /* \"#utility.yul\":3209:3274   */\n      tag_239\n        /* \"#utility.yul\":3267:3273   */\n      dup2\n        /* \"#utility.yul\":3262:3265   */\n      dup6\n        /* \"#utility.yul\":3255:3259   */\n      0x20\n        /* \"#utility.yul\":3248:3253   */\n      dup7\n        /* \"#utility.yul\":3244:3260   */\n      add\n        /* \"#utility.yul\":3209:3274   */\n      tag_140\n      jump\t// in\n    tag_239:\n        /* \"#utility.yul\":3299:3328   */\n      tag_240\n        /* \"#utility.yul\":3321:3327   */\n      dup2\n        /* \"#utility.yul\":3299:3328   */\n      tag_141\n      jump\t// in\n    tag_240:\n        /* \"#utility.yul\":3294:3297   */\n      dup5\n        /* \"#utility.yul\":3290:3329   */\n      add\n        /* \"#utility.yul\":3283:3329   */\n      swap2\n      pop\n        /* \"#utility.yul\":3060:3335   */\n      pop\n        /* \"#utility.yul\":2978:3335   */\n      swap3\n      swap2\n      pop\n      pop\n      jump\t// out\n        /* \"#utility.yul\":3397:4067   */\n    tag_150:\n        /* \"#utility.yul\":3508:3511   */\n      0x00\n        /* \"#utility.yul\":3544:3548   */\n      0x40\n        /* \"#utility.yul\":3539:3542   */\n      dup4\n        /* \"#utility.yul\":3535:3549   */\n      add\n        /* \"#utility.yul\":3631:3635   */\n      0x00\n        /* \"#utility.yul\":3624:3629   */\n      dup4\n        /* \"#utility.yul\":3620:3636   */\n      add\n        /* \"#utility.yul\":3614:3637   */\n      mload\n        /* \"#utility.yul\":3684:3687   */\n      dup5\n        /* \"#utility.yul\":3678:3682   */\n      dup3\n        /* \"#utility.yul\":3674:3688   */\n      sub\n        /* \"#utility.yul\":3667:3671   */\n      0x00\n        /* \"#utility.yul\":3662:3665   */\n      dup7\n        /* \"#utility.yul\":3658:3672   */\n      add\n        /* \"#utility.yul\":3651:3689   */\n      mstore\n        /* \"#utility.yul\":3710:3783   */\n      tag_242\n        /* \"#utility.yul\":3778:3782   */\n      dup3\n        /* \"#utility.yul\":3764:3776   */\n      dup3\n        /* \"#utility.yul\":3710:3783   */\n      tag_149\n      jump\t// in\n    tag_242:\n        /* \"#utility.yul\":3702:3783   */\n      swap2\n      pop\n        /* \"#utility.yul\":3559:3794   */\n      pop\n        /* \"#utility.yul\":3877:3881   */\n      0x20\n        /* \"#utility.yul\":3870:3875   */\n      dup4\n        /* \"#utility.yul\":3866:3882   */\n      add\n        /* \"#utility.yul\":3860:3883   */\n      mload\n        /* \"#utility.yul\":3930:3933   */\n      dup5\n        /* \"#utility.yul\":3924:3928   */\n      dup3\n        /* \"#utility.yul\":3920:3934   */\n      sub\n        /* \"#utility.yul\":3913:3917   */\n      0x20\n        /* \"#utility.yul\":3908:3911   */\n      dup7\n        /* \"#utility.yul\":3904:3918   */\n      add\n        /* \"#utility.yul\":3897:3935   */\n      mstore\n        /* \"#utility.yul\":3956:4029   */\n      tag_243\n        /* \"#utility.yul\":4024:4028   */\n      dup3\n        /* \"#utility.yul\":4010:4022   */\n      dup3\n        /* \"#utility.yul\":3956:4029   */\n      tag_149\n      jump\t// in\n    tag_243:\n        /* \"#utility.yul\":3948:4029   */\n      swap2\n      pop\n        /* \"#utility.yul\":3804:4040   */\n      pop\n        /* \"#utility.yul\":4057:4061   */\n      dup1\n        /* \"#utility.yul\":4050:4061   */\n      swap2\n      pop\n        /* \"#utility.yul\":3513:4067   */\n      pop\n        /* \"#utility.yul\":3397:4067   */\n      swap3\n      swap2\n      pop\n      pop\n      jump\t// out\n        /* \"#utility.yul\":4073:4872   */\n    tag_14:\n        /* \"#utility.yul\":4322:4326   */\n      0x00\n        /* \"#utility.yul\":4360:4363   */\n      0x80\n        /* \"#utility.yul\":4349:4358   */\n      dup3\n        /* \"#utility.yul\":4345:4364   */\n      add\n        /* \"#utility.yul\":4337:4364   */\n      swap1\n      pop\n        /* \"#utility.yul\":4410:4419   */\n      dup2\n        /* \"#utility.yul\":4404:4408   */\n      dup2\n        /* \"#utility.yul\":4400:4420   */\n      sub\n        /* \"#utility.yul\":4396:4397   */\n      0x00\n        /* \"#utility.yul\":4385:4394   */\n      dup4\n        /* \"#utility.yul\":4381:4398   */\n      add\n        /* \"#utility.yul\":4374:4421   */\n      mstore\n        /* \"#utility.yul\":4438:4516   */\n      tag_245\n        /* \"#utility.yul\":4511:4515   */\n      dup2\n        /* \"#utility.yul\":4502:4508   */\n      dup8\n        /* \"#utility.yul\":4438:4516   */\n      tag_142\n      jump\t// in\n    tag_245:\n        /* \"#utility.yul\":4430:4516   */\n      swap1\n      pop\n        /* \"#utility.yul\":4526:4598   */\n      tag_246\n        /* \"#utility.yul\":4594:4596   */\n      0x20\n        /* \"#utility.yul\":4583:4592   */\n      dup4\n        /* \"#utility.yul\":4579:4597   */\n      add\n        /* \"#utility.yul\":4570:4576   */\n      dup7\n        /* \"#utility.yul\":4526:4598   */\n      tag_143\n      jump\t// in\n    tag_246:\n        /* \"#utility.yul\":4608:4690   */\n      tag_247\n        /* \"#utility.yul\":4686:4688   */\n      0x40\n        /* \"#utility.yul\":4675:4684   */\n      dup4\n        /* \"#utility.yul\":4671:4689   */\n      add\n        /* \"#utility.yul\":4662:4668   */\n      dup6\n        /* \"#utility.yul\":4608:4690   */\n      tag_147\n      jump\t// in\n    tag_247:\n        /* \"#utility.yul\":4737:4746   */\n      dup2\n        /* \"#utility.yul\":4731:4735   */\n      dup2\n        /* \"#utility.yul\":4727:4747   */\n      sub\n        /* \"#utility.yul\":4722:4724   */\n      0x60\n        /* \"#utility.yul\":4711:4720   */\n      dup4\n        /* \"#utility.yul\":4707:4725   */\n      add\n        /* \"#utility.yul\":4700:4748   */\n      mstore\n        /* \"#utility.yul\":4765:4865   */\n      tag_248\n        /* \"#utility.yul\":4860:4864   */\n      dup2\n        /* \"#utility.yul\":4851:4857   */\n      dup5\n        /* \"#utility.yul\":4765:4865   */\n      tag_150\n      jump\t// in\n    tag_248:\n        /* \"#utility.yul\":4757:4865   */\n      swap1\n      pop\n        /* \"#utility.yul\":4073:4872   */\n      swap6\n      swap5\n      pop\n      pop\n      pop\n      pop\n      pop\n      jump\t// out\n        /* \"#utility.yul\":4878:5004   */\n    tag_151:\n        /* \"#utility.yul\":4915:4922   */\n      0x00\n        /* \"#utility.yul\":4955:4997   */\n      0xffffffffffffffffffffffffffffffffffffffff\n        /* \"#utility.yul\":4948:4953   */\n      dup3\n        /* \"#utility.yul\":4944:4998   */\n      and\n        /* \"#utility.yul\":4933:4998   */\n      swap1\n      pop\n        /* \"#utility.yul\":4878:5004   */\n      swap2\n      swap1\n      pop\n      jump\t// out\n        /* \"#utility.yul\":5010:5106   */\n    tag_152:\n        /* \"#utility.yul\":5047:5054   */\n      0x00\n        /* \"#utility.yul\":5076:5100   */\n      tag_251\n        /* \"#utility.yul\":5094:5099   */\n      dup3\n        /* \"#utility.yul\":5076:5100   */\n      tag_151\n      jump\t// in\n    tag_251:\n        /* \"#utility.yul\":5065:5100   */\n      swap1\n      pop\n        /* \"#utility.yul\":5010:5106   */\n      swap2\n      swap1\n      pop\n      jump\t// out\n        /* \"#utility.yul\":5112:5230   */\n    tag_153:\n        /* \"#utility.yul\":5199:5223   */\n      tag_253\n        /* \"#utility.yul\":5217:5222   */\n      dup2\n        /* \"#utility.yul\":5199:5223   */\n      tag_152\n      jump\t// in\n    tag_253:\n        /* \"#utility.yul\":5194:5197   */\n      dup3\n        /* \"#utility.yul\":5187:5224   */\n      mstore\n        /* \"#utility.yul\":5112:5230   */\n      pop\n      pop\n      jump\t// out\n        /* \"#utility.yul\":5236:5458   */\n    tag_19:\n        /* \"#utility.yul\":5329:5333   */\n      0x00\n        /* \"#utility.yul\":5367:5369   */\n      0x20\n        /* \"#utility.yul\":5356:5365   */\n      dup3\n        /* \"#utility.yul\":5352:5370   */\n      add\n        /* \"#utility.yul\":5344:5370   */\n      swap1\n      pop\n        /* \"#utility.yul\":5380:5451   */\n      tag_255\n        /* \"#utility.yul\":5448:5449   */\n      0x00\n        /* \"#utility.yul\":5437:5446   */\n      dup4\n        /* \"#utility.yul\":5433:5450   */\n      add\n        /* \"#utility.yul\":5424:5430   */\n      dup5\n        /* \"#utility.yul\":5380:5451   */\n      tag_153\n      jump\t// in\n    tag_255:\n        /* \"#utility.yul\":5236:5458   */\n      swap3\n      swap2\n      pop\n      pop\n      jump\t// out\n        /* \"#utility.yul\":5464:5581   */\n    tag_154:\n        /* \"#utility.yul\":5573:5574   */\n      0x00\n        /* \"#utility.yul\":5570:5571   */\n      dup1\n        /* \"#utility.yul\":5563:5575   */\n      revert\n        /* \"#utility.yul\":5587:5704   */\n    tag_155:\n        /* \"#utility.yul\":5696:5697   */\n      0x00\n        /* \"#utility.yul\":5693:5694   */\n      dup1\n        /* \"#utility.yul\":5686:5698   */\n      revert\n        /* \"#utility.yul\":5710:5890   */\n    tag_156:\n        /* \"#utility.yul\":5758:5835   */\n      0x4e487b7100000000000000000000000000000000000000000000000000000000\n        /* \"#utility.yul\":5755:5756   */\n      0x00\n        /* \"#utility.yul\":5748:5836   */\n      mstore\n        /* \"#utility.yul\":5855:5859   */\n      0x41\n        /* \"#utility.yul\":5852:5853   */\n      0x04\n        /* \"#utility.yul\":5845:5860   */\n      mstore\n        /* \"#utility.yul\":5879:5883   */\n      0x24\n        /* \"#utility.yul\":5876:5877   */\n      0x00\n        /* \"#utility.yul\":5869:5884   */\n      revert\n        /* \"#utility.yul\":5896:6177   */\n    tag_157:\n        /* \"#utility.yul\":5979:6006   */\n      tag_260\n        /* \"#utility.yul\":6001:6005   */\n      dup3\n        /* \"#utility.yul\":5979:6006   */\n      tag_141\n      jump\t// in\n    tag_260:\n        /* \"#utility.yul\":5971:5977   */\n      dup2\n        /* \"#utility.yul\":5967:6007   */\n      add\n        /* \"#utility.yul\":6109:6115   */\n      dup2\n        /* \"#utility.yul\":6097:6107   */\n      dup2\n        /* \"#utility.yul\":6094:6116   */\n      lt\n        /* \"#utility.yul\":6073:6091   */\n      0xffffffffffffffff\n        /* \"#utility.yul\":6061:6071   */\n      dup3\n        /* \"#utility.yul\":6058:6092   */\n      gt\n        /* \"#utility.yul\":6055:6117   */\n      or\n        /* \"#utility.yul\":6052:6140   */\n      iszero\n      tag_261\n      jumpi\n        /* \"#utility.yul\":6120:6138   */\n      tag_262\n      tag_156\n      jump\t// in\n    tag_262:\n        /* \"#utility.yul\":6052:6140   */\n    tag_261:\n        /* \"#utility.yul\":6160:6170   */\n      dup1\n        /* \"#utility.yul\":6156:6158   */\n      0x40\n        /* \"#utility.yul\":6149:6171   */\n      mstore\n        /* \"#utility.yul\":5939:6177   */\n      pop\n        /* \"#utility.yul\":5896:6177   */\n      pop\n      pop\n      jump\t// out\n        /* \"#utility.yul\":6183:6312   */\n    tag_158:\n        /* \"#utility.yul\":6217:6223   */\n      0x00\n        /* \"#utility.yul\":6244:6264   */\n      tag_264\n      tag_132\n      jump\t// in\n    tag_264:\n        /* \"#utility.yul\":6234:6264   */\n      swap1\n      pop\n        /* \"#utility.yul\":6273:6306   */\n      tag_265\n        /* \"#utility.yul\":6301:6305   */\n      dup3\n        /* \"#utility.yul\":6293:6299   */\n      dup3\n        /* \"#utility.yul\":6273:6306   */\n      tag_157\n      jump\t// in\n    tag_265:\n        /* \"#utility.yul\":6183:6312   */\n      swap2\n      swap1\n      pop\n      jump\t// out\n        /* \"#utility.yul\":6318:6626   */\n    tag_159:\n        /* \"#utility.yul\":6380:6384   */\n      0x00\n        /* \"#utility.yul\":6470:6488   */\n      0xffffffffffffffff\n        /* \"#utility.yul\":6462:6468   */\n      dup3\n        /* \"#utility.yul\":6459:6489   */\n      gt\n        /* \"#utility.yul\":6456:6512   */\n      iszero\n      tag_267\n      jumpi\n        /* \"#utility.yul\":6492:6510   */\n      tag_268\n      tag_156\n      jump\t// in\n    tag_268:\n        /* \"#utility.yul\":6456:6512   */\n    tag_267:\n        /* \"#utility.yul\":6530:6559   */\n      tag_269\n        /* \"#utility.yul\":6552:6558   */\n      dup3\n        /* \"#utility.yul\":6530:6559   */\n      tag_141\n      jump\t// in\n    tag_269:\n        /* \"#utility.yul\":6522:6559   */\n      swap1\n      pop\n        /* \"#utility.yul\":6614:6618   */\n      0x20\n        /* \"#utility.yul\":6608:6612   */\n      dup2\n        /* \"#utility.yul\":6604:6619   */\n      add\n        /* \"#utility.yul\":6596:6619   */\n      swap1\n      pop\n        /* \"#utility.yul\":6318:6626   */\n      swap2\n      swap1\n      pop\n      jump\t// out\n        /* \"#utility.yul\":6632:6780   */\n    tag_160:\n        /* \"#utility.yul\":6730:6736   */\n      dup3\n        /* \"#utility.yul\":6725:6728   */\n      dup2\n        /* \"#utility.yul\":6720:6723   */\n      dup4\n        /* \"#utility.yul\":6707:6737   */\n      calldatacopy\n        /* \"#utility.yul\":6771:6772   */\n      0x00\n        /* \"#utility.yul\":6762:6768   */\n      dup4\n        /* \"#utility.yul\":6757:6760   */\n      dup4\n        /* \"#utility.yul\":6753:6769   */\n      add\n        /* \"#utility.yul\":6746:6773   */\n      mstore\n        /* \"#utility.yul\":6632:6780   */\n      pop\n      pop\n      pop\n      jump\t// out\n        /* \"#utility.yul\":6786:7211   */\n    tag_161:\n        /* \"#utility.yul\":6864:6869   */\n      0x00\n        /* \"#utility.yul\":6889:6955   */\n      tag_272\n        /* \"#utility.yul\":6905:6954   */\n      tag_273\n        /* \"#utility.yul\":6947:6953   */\n      dup5\n        /* \"#utility.yul\":6905:6954   */\n      tag_159\n      jump\t// in\n    tag_273:\n        /* \"#utility.yul\":6889:6955   */\n      tag_158\n      jump\t// in\n    tag_272:\n        /* \"#utility.yul\":6880:6955   */\n      swap1\n      pop\n        /* \"#utility.yul\":6978:6984   */\n      dup3\n        /* \"#utility.yul\":6971:6976   */\n      dup2\n        /* \"#utility.yul\":6964:6985   */\n      mstore\n        /* \"#utility.yul\":7016:7020   */\n      0x20\n        /* \"#utility.yul\":7009:7014   */\n      dup2\n        /* \"#utility.yul\":7005:7021   */\n      add\n        /* \"#utility.yul\":7054:7057   */\n      dup5\n        /* \"#utility.yul\":7045:7051   */\n      dup5\n        /* \"#utility.yul\":7040:7043   */\n      dup5\n        /* \"#utility.yul\":7036:7052   */\n      add\n        /* \"#utility.yul\":7033:7058   */\n      gt\n        /* \"#utility.yul\":7030:7142   */\n      iszero\n      tag_274\n      jumpi\n        /* \"#utility.yul\":7061:7140   */\n      tag_275\n      tag_155\n      jump\t// in\n    tag_275:\n        /* \"#utility.yul\":7030:7142   */\n    tag_274:\n        /* \"#utility.yul\":7151:7205   */\n      tag_276\n        /* \"#utility.yul\":7198:7204   */\n      dup5\n        /* \"#utility.yul\":7193:7196   */\n      dup3\n        /* \"#utility.yul\":7188:7191   */\n      dup6\n        /* \"#utility.yul\":7151:7205   */\n      tag_160\n      jump\t// in\n    tag_276:\n        /* \"#utility.yul\":6870:7211   */\n      pop\n        /* \"#utility.yul\":6786:7211   */\n      swap4\n      swap3\n      pop\n      pop\n      pop\n      jump\t// out\n        /* \"#utility.yul\":7231:7571   */\n    tag_162:\n        /* \"#utility.yul\":7287:7292   */\n      0x00\n        /* \"#utility.yul\":7336:7339   */\n      dup3\n        /* \"#utility.yul\":7329:7333   */\n      0x1f\n        /* \"#utility.yul\":7321:7327   */\n      dup4\n        /* \"#utility.yul\":7317:7334   */\n      add\n        /* \"#utility.yul\":7313:7340   */\n      slt\n        /* \"#utility.yul\":7303:7425   */\n      tag_278\n      jumpi\n        /* \"#utility.yul\":7344:7423   */\n      tag_279\n      tag_154\n      jump\t// in\n    tag_279:\n        /* \"#utility.yul\":7303:7425   */\n    tag_278:\n        /* \"#utility.yul\":7461:7467   */\n      dup2\n        /* \"#utility.yul\":7448:7468   */\n      calldataload\n        /* \"#utility.yul\":7486:7565   */\n      tag_280\n        /* \"#utility.yul\":7561:7564   */\n      dup5\n        /* \"#utility.yul\":7553:7559   */\n      dup3\n        /* \"#utility.yul\":7546:7550   */\n      0x20\n        /* \"#utility.yul\":7538:7544   */\n      dup7\n        /* \"#utility.yul\":7534:7551   */\n      add\n        /* \"#utility.yul\":7486:7565   */\n      tag_161\n      jump\t// in\n    tag_280:\n        /* \"#utility.yul\":7477:7565   */\n      swap2\n      pop\n        /* \"#utility.yul\":7293:7571   */\n      pop\n        /* \"#utility.yul\":7231:7571   */\n      swap3\n      swap2\n      pop\n      pop\n      jump\t// out\n        /* \"#utility.yul\":7577:8231   */\n    tag_23:\n        /* \"#utility.yul\":7655:7661   */\n      0x00\n        /* \"#utility.yul\":7663:7669   */\n      dup1\n        /* \"#utility.yul\":7712:7714   */\n      0x40\n        /* \"#utility.yul\":7700:7709   */\n      dup4\n        /* \"#utility.yul\":7691:7698   */\n      dup6\n        /* \"#utility.yul\":7687:7710   */\n      sub\n        /* \"#utility.yul\":7683:7715   */\n      slt\n        /* \"#utility.yul\":7680:7799   */\n      iszero\n      tag_282\n      jumpi\n        /* \"#utility.yul\":7718:7797   */\n      tag_283\n      tag_133\n      jump\t// in\n    tag_283:\n        /* \"#utility.yul\":7680:7799   */\n    tag_282:\n        /* \"#utility.yul\":7866:7867   */\n      0x00\n        /* \"#utility.yul\":7855:7864   */\n      dup4\n        /* \"#utility.yul\":7851:7868   */\n      add\n        /* \"#utility.yul\":7838:7869   */\n      calldataload\n        /* \"#utility.yul\":7896:7914   */\n      0xffffffffffffffff\n        /* \"#utility.yul\":7888:7894   */\n      dup2\n        /* \"#utility.yul\":7885:7915   */\n      gt\n        /* \"#utility.yul\":7882:7999   */\n      iszero\n      tag_284\n      jumpi\n        /* \"#utility.yul\":7918:7997   */\n      tag_285\n      tag_134\n      jump\t// in\n    tag_285:\n        /* \"#utility.yul\":7882:7999   */\n    tag_284:\n        /* \"#utility.yul\":8023:8086   */\n      tag_286\n        /* \"#utility.yul\":8078:8085   */\n      dup6\n        /* \"#utility.yul\":8069:8075   */\n      dup3\n        /* \"#utility.yul\":8058:8067   */\n      dup7\n        /* \"#utility.yul\":8054:8076   */\n      add\n        /* \"#utility.yul\":8023:8086   */\n      tag_162\n      jump\t// in\n    tag_286:\n        /* \"#utility.yul\":8013:8086   */\n      swap3\n      pop\n        /* \"#utility.yul\":7809:8096   */\n      pop\n        /* \"#utility.yul\":8135:8137   */\n      0x20\n        /* \"#utility.yul\":8161:8214   */\n      tag_287\n        /* \"#utility.yul\":8206:8213   */\n      dup6\n        /* \"#utility.yul\":8197:8203   */\n      dup3\n        /* \"#utility.yul\":8186:8195   */\n      dup7\n        /* \"#utility.yul\":8182:8204   */\n      add\n        /* \"#utility.yul\":8161:8214   */\n      tag_137\n      jump\t// in\n    tag_287:\n        /* \"#utility.yul\":8151:8214   */\n      swap2\n      pop\n        /* \"#utility.yul\":8106:8224   */\n      pop\n        /* \"#utility.yul\":7577:8231   */\n      swap3\n      pop\n      swap3\n      swap1\n      pop\n      jump\t// out\n        /* \"#utility.yul\":8237:8341   */\n    tag_163:\n        /* \"#utility.yul\":8282:8289   */\n      0x00\n        /* \"#utility.yul\":8311:8335   */\n      tag_289\n        /* \"#utility.yul\":8329:8334   */\n      dup3\n        /* \"#utility.yul\":8311:8335   */\n      tag_151\n      jump\t// in\n    tag_289:\n        /* \"#utility.yul\":8300:8335   */\n      swap1\n      pop\n        /* \"#utility.yul\":8237:8341   */\n      swap2\n      swap1\n      pop\n      jump\t// out\n        /* \"#utility.yul\":8347:8485   */\n    tag_164:\n        /* \"#utility.yul\":8428:8460   */\n      tag_291\n        /* \"#utility.yul\":8454:8459   */\n      dup2\n        /* \"#utility.yul\":8428:8460   */\n      tag_163\n      jump\t// in\n    tag_291:\n        /* \"#utility.yul\":8421:8426   */\n      dup2\n        /* \"#utility.yul\":8418:8461   */\n      eq\n        /* \"#utility.yul\":8408:8479   */\n      tag_292\n      jumpi\n        /* \"#utility.yul\":8475:8476   */\n      0x00\n        /* \"#utility.yul\":8472:8473   */\n      dup1\n        /* \"#utility.yul\":8465:8477   */\n      revert\n        /* \"#utility.yul\":8408:8479   */\n    tag_292:\n        /* \"#utility.yul\":8347:8485   */\n      pop\n      jump\t// out\n        /* \"#utility.yul\":8491:8646   */\n    tag_165:\n        /* \"#utility.yul\":8545:8550   */\n      0x00\n        /* \"#utility.yul\":8583:8589   */\n      dup2\n        /* \"#utility.yul\":8570:8590   */\n      calldataload\n        /* \"#utility.yul\":8561:8590   */\n      swap1\n      pop\n        /* \"#utility.yul\":8599:8640   */\n      tag_294\n        /* \"#utility.yul\":8634:8639   */\n      dup2\n        /* \"#utility.yul\":8599:8640   */\n      tag_164\n      jump\t// in\n    tag_294:\n        /* \"#utility.yul\":8491:8646   */\n      swap3\n      swap2\n      pop\n      pop\n      jump\t// out\n        /* \"#utility.yul\":8652:8997   */\n    tag_28:\n        /* \"#utility.yul\":8719:8725   */\n      0x00\n        /* \"#utility.yul\":8768:8770   */\n      0x20\n        /* \"#utility.yul\":8756:8765   */\n      dup3\n        /* \"#utility.yul\":8747:8754   */\n      dup5\n        /* \"#utility.yul\":8743:8766   */\n      sub\n        /* \"#utility.yul\":8739:8771   */\n      slt\n        /* \"#utility.yul\":8736:8855   */\n      iszero\n      tag_296\n      jumpi\n        /* \"#utility.yul\":8774:8853   */\n      tag_297\n      tag_133\n      jump\t// in\n    tag_297:\n        /* \"#utility.yul\":8736:8855   */\n    tag_296:\n        /* \"#utility.yul\":8894:8895   */\n      0x00\n        /* \"#utility.yul\":8919:8980   */\n      tag_298\n        /* \"#utility.yul\":8972:8979   */\n      dup5\n        /* \"#utility.yul\":8963:8969   */\n      dup3\n        /* \"#utility.yul\":8952:8961   */\n      dup6\n        /* \"#utility.yul\":8948:8970   */\n      add\n        /* \"#utility.yul\":8919:8980   */\n      tag_165\n      jump\t// in\n    tag_298:\n        /* \"#utility.yul\":8909:8980   */\n      swap2\n      pop\n        /* \"#utility.yul\":8865:8990   */\n      pop\n        /* \"#utility.yul\":8652:8997   */\n      swap3\n      swap2\n      pop\n      pop\n      jump\t// out\n        /* \"#utility.yul\":9003:9145   */\n    tag_166:\n        /* \"#utility.yul\":9106:9138   */\n      tag_300\n        /* \"#utility.yul\":9132:9137   */\n      dup2\n        /* \"#utility.yul\":9106:9138   */\n      tag_163\n      jump\t// in\n    tag_300:\n        /* \"#utility.yul\":9101:9104   */\n      dup3\n        /* \"#utility.yul\":9094:9139   */\n      mstore\n        /* \"#utility.yul\":9003:9145   */\n      pop\n      pop\n      jump\t// out\n        /* \"#utility.yul\":9151:9405   */\n    tag_34:\n        /* \"#utility.yul\":9260:9264   */\n      0x00\n        /* \"#utility.yul\":9298:9300   */\n      0x20\n        /* \"#utility.yul\":9287:9296   */\n      dup3\n        /* \"#utility.yul\":9283:9301   */\n      add\n        /* \"#utility.yul\":9275:9301   */\n      swap1\n      pop\n        /* \"#utility.yul\":9311:9398   */\n      tag_302\n        /* \"#utility.yul\":9395:9396   */\n      0x00\n        /* \"#utility.yul\":9384:9393   */\n      dup4\n        /* \"#utility.yul\":9380:9397   */\n      add\n        /* \"#utility.yul\":9371:9377   */\n      dup5\n        /* \"#utility.yul\":9311:9398   */\n      tag_166\n      jump\t// in\n    tag_302:\n        /* \"#utility.yul\":9151:9405   */\n      swap3\n      swap2\n      pop\n      pop\n      jump\t// out\n        /* \"#utility.yul\":9411:10390   */\n    tag_37:\n        /* \"#utility.yul\":9508:9514   */\n      0x00\n        /* \"#utility.yul\":9516:9522   */\n      dup1\n        /* \"#utility.yul\":9524:9530   */\n      0x00\n        /* \"#utility.yul\":9573:9575   */\n      0x60\n        /* \"#utility.yul\":9561:9570   */\n      dup5\n        /* \"#utility.yul\":9552:9559   */\n      dup7\n        /* \"#utility.yul\":9548:9571   */\n      sub\n        /* \"#utility.yul\":9544:9576   */\n      slt\n        /* \"#utility.yul\":9541:9660   */\n      iszero\n      tag_304\n      jumpi\n        /* \"#utility.yul\":9579:9658   */\n      tag_305\n      tag_133\n      jump\t// in\n    tag_305:\n        /* \"#utility.yul\":9541:9660   */\n    tag_304:\n        /* \"#utility.yul\":9699:9700   */\n      0x00\n        /* \"#utility.yul\":9724:9777   */\n      tag_306\n        /* \"#utility.yul\":9769:9776   */\n      dup7\n        /* \"#utility.yul\":9760:9766   */\n      dup3\n        /* \"#utility.yul\":9749:9758   */\n      dup8\n        /* \"#utility.yul\":9745:9767   */\n      add\n        /* \"#utility.yul\":9724:9777   */\n      tag_137\n      jump\t// in\n    tag_306:\n        /* \"#utility.yul\":9714:9777   */\n      swap4\n      pop\n        /* \"#utility.yul\":9670:9787   */\n      pop\n        /* \"#utility.yul\":9854:9856   */\n      0x20\n        /* \"#utility.yul\":9843:9852   */\n      dup5\n        /* \"#utility.yul\":9839:9857   */\n      add\n        /* \"#utility.yul\":9826:9858   */\n      calldataload\n        /* \"#utility.yul\":9885:9903   */\n      0xffffffffffffffff\n        /* \"#utility.yul\":9877:9883   */\n      dup2\n        /* \"#utility.yul\":9874:9904   */\n      gt\n        /* \"#utility.yul\":9871:9988   */\n      iszero\n      tag_307\n      jumpi\n        /* \"#utility.yul\":9907:9986   */\n      tag_308\n      tag_134\n      jump\t// in\n    tag_308:\n        /* \"#utility.yul\":9871:9988   */\n    tag_307:\n        /* \"#utility.yul\":10012:10075   */\n      tag_309\n        /* \"#utility.yul\":10067:10074   */\n      dup7\n        /* \"#utility.yul\":10058:10064   */\n      dup3\n        /* \"#utility.yul\":10047:10056   */\n      dup8\n        /* \"#utility.yul\":10043:10065   */\n      add\n        /* \"#utility.yul\":10012:10075   */\n      tag_162\n      jump\t// in\n    tag_309:\n        /* \"#utility.yul\":10002:10075   */\n      swap3\n      pop\n        /* \"#utility.yul\":9797:10085   */\n      pop\n        /* \"#utility.yul\":10152:10154   */\n      0x40\n        /* \"#utility.yul\":10141:10150   */\n      dup5\n        /* \"#utility.yul\":10137:10155   */\n      add\n        /* \"#utility.yul\":10124:10156   */\n      calldataload\n        /* \"#utility.yul\":10183:10201   */\n      0xffffffffffffffff\n        /* \"#utility.yul\":10175:10181   */\n      dup2\n        /* \"#utility.yul\":10172:10202   */\n      gt\n        /* \"#utility.yul\":10169:10286   */\n      iszero\n      tag_310\n      jumpi\n        /* \"#utility.yul\":10205:10284   */\n      tag_311\n      tag_134\n      jump\t// in\n    tag_311:\n        /* \"#utility.yul\":10169:10286   */\n    tag_310:\n        /* \"#utility.yul\":10310:10373   */\n      tag_312\n        /* \"#utility.yul\":10365:10372   */\n      dup7\n        /* \"#utility.yul\":10356:10362   */\n      dup3\n        /* \"#utility.yul\":10345:10354   */\n      dup8\n        /* \"#utility.yul\":10341:10363   */\n      add\n        /* \"#utility.yul\":10310:10373   */\n      tag_162\n      jump\t// in\n    tag_312:\n        /* \"#utility.yul\":10300:10373   */\n      swap2\n      pop\n        /* \"#utility.yul\":10095:10383   */\n      pop\n        /* \"#utility.yul\":9411:10390   */\n      swap3\n      pop\n      swap3\n      pop\n      swap3\n      jump\t// out\n        /* \"#utility.yul\":10396:10576   */\n    tag_167:\n        /* \"#utility.yul\":10444:10521   */\n      0x4e487b7100000000000000000000000000000000000000000000000000000000\n        /* \"#utility.yul\":10441:10442   */\n      0x00\n        /* \"#utility.yul\":10434:10522   */\n      mstore\n        /* \"#utility.yul\":10541:10545   */\n      0x22\n        /* \"#utility.yul\":10538:10539   */\n      0x04\n        /* \"#utility.yul\":10531:10546   */\n      mstore\n        /* \"#utility.yul\":10565:10569   */\n      0x24\n        /* \"#utility.yul\":10562:10563   */\n      0x00\n        /* \"#utility.yul\":10555:10570   */\n      revert\n        /* \"#utility.yul\":10582:10902   */\n    tag_42:\n        /* \"#utility.yul\":10626:10632   */\n      0x00\n        /* \"#utility.yul\":10663:10664   */\n      0x02\n        /* \"#utility.yul\":10657:10661   */\n      dup3\n        /* \"#utility.yul\":10653:10665   */\n      div\n        /* \"#utility.yul\":10643:10665   */\n      swap1\n      pop\n        /* \"#utility.yul\":10710:10711   */\n      0x01\n        /* \"#utility.yul\":10704:10708   */\n      dup3\n        /* \"#utility.yul\":10700:10712   */\n      and\n        /* \"#utility.yul\":10731:10749   */\n      dup1\n        /* \"#utility.yul\":10721:10802   */\n      tag_315\n      jumpi\n        /* \"#utility.yul\":10787:10791   */\n      0x7f\n        /* \"#utility.yul\":10779:10785   */\n      dup3\n        /* \"#utility.yul\":10775:10792   */\n      and\n        /* \"#utility.yul\":10765:10792   */\n      swap2\n      pop\n        /* \"#utility.yul\":10721:10802   */\n    tag_315:\n        /* \"#utility.yul\":10849:10851   */\n      0x20\n        /* \"#utility.yul\":10841:10847   */\n      dup3\n        /* \"#utility.yul\":10838:10852   */\n      lt\n        /* \"#utility.yul\":10818:10836   */\n      dup2\n        /* \"#utility.yul\":10815:10853   */\n      sub\n        /* \"#utility.yul\":10812:10896   */\n      tag_316\n      jumpi\n        /* \"#utility.yul\":10868:10886   */\n      tag_317\n      tag_167\n      jump\t// in\n    tag_317:\n        /* \"#utility.yul\":10812:10896   */\n    tag_316:\n        /* \"#utility.yul\":10633:10902   */\n      pop\n        /* \"#utility.yul\":10582:10902   */\n      swap2\n      swap1\n      pop\n      jump\t// out\n        /* \"#utility.yul\":10908:11139   */\n    tag_168:\n        /* \"#utility.yul\":11048:11082   */\n      0x596f75206d75737420626520746865206f776e657220746f20706572666f726d\n        /* \"#utility.yul\":11044:11045   */\n      0x00\n        /* \"#utility.yul\":11036:11042   */\n      dup3\n        /* \"#utility.yul\":11032:11046   */\n      add\n        /* \"#utility.yul\":11025:11083   */\n      mstore\n        /* \"#utility.yul\":11117:11131   */\n      0x207468697320616374696f6e0000000000000000000000000000000000000000\n        /* \"#utility.yul\":11112:11114   */\n      0x20\n        /* \"#utility.yul\":11104:11110   */\n      dup3\n        /* \"#utility.yul\":11100:11115   */\n      add\n        /* \"#utility.yul\":11093:11132   */\n      mstore\n        /* \"#utility.yul\":10908:11139   */\n      pop\n      jump\t// out\n        /* \"#utility.yul\":11145:11511   */\n    tag_169:\n        /* \"#utility.yul\":11287:11290   */\n      0x00\n        /* \"#utility.yul\":11308:11375   */\n      tag_320\n        /* \"#utility.yul\":11372:11374   */\n      0x2c\n        /* \"#utility.yul\":11367:11370   */\n      dup4\n        /* \"#utility.yul\":11308:11375   */\n      tag_139\n      jump\t// in\n    tag_320:\n        /* \"#utility.yul\":11301:11375   */\n      swap2\n      pop\n        /* \"#utility.yul\":11384:11477   */\n      tag_321\n        /* \"#utility.yul\":11473:11476   */\n      dup3\n        /* \"#utility.yul\":11384:11477   */\n      tag_168\n      jump\t// in\n    tag_321:\n        /* \"#utility.yul\":11502:11504   */\n      0x40\n        /* \"#utility.yul\":11497:11500   */\n      dup3\n        /* \"#utility.yul\":11493:11505   */\n      add\n        /* \"#utility.yul\":11486:11505   */\n      swap1\n      pop\n        /* \"#utility.yul\":11145:11511   */\n      swap2\n      swap1\n      pop\n      jump\t// out\n        /* \"#utility.yul\":11517:11936   */\n    tag_60:\n        /* \"#utility.yul\":11683:11687   */\n      0x00\n        /* \"#utility.yul\":11721:11723   */\n      0x20\n        /* \"#utility.yul\":11710:11719   */\n      dup3\n        /* \"#utility.yul\":11706:11724   */\n      add\n        /* \"#utility.yul\":11698:11724   */\n      swap1\n      pop\n        /* \"#utility.yul\":11770:11779   */\n      dup2\n        /* \"#utility.yul\":11764:11768   */\n      dup2\n        /* \"#utility.yul\":11760:11780   */\n      sub\n        /* \"#utility.yul\":11756:11757   */\n      0x00\n        /* \"#utility.yul\":11745:11754   */\n      dup4\n        /* \"#utility.yul\":11741:11758   */\n      add\n        /* \"#utility.yul\":11734:11781   */\n      mstore\n        /* \"#utility.yul\":11798:11929   */\n      tag_323\n        /* \"#utility.yul\":11924:11928   */\n      dup2\n        /* \"#utility.yul\":11798:11929   */\n      tag_169\n      jump\t// in\n    tag_323:\n        /* \"#utility.yul\":11790:11929   */\n      swap1\n      pop\n        /* \"#utility.yul\":11517:11936   */\n      swap2\n      swap1\n      pop\n      jump\t// out\n        /* \"#utility.yul\":11942:12083   */\n    tag_170:\n        /* \"#utility.yul\":11991:11995   */\n      0x00\n        /* \"#utility.yul\":12014:12017   */\n      dup2\n        /* \"#utility.yul\":12006:12017   */\n      swap1\n      pop\n        /* \"#utility.yul\":12037:12040   */\n      dup2\n        /* \"#utility.yul\":12034:12035   */\n      0x00\n        /* \"#utility.yul\":12027:12041   */\n      mstore\n        /* \"#utility.yul\":12071:12075   */\n      0x20\n        /* \"#utility.yul\":12068:12069   */\n      0x00\n        /* \"#utility.yul\":12058:12076   */\n      keccak256\n        /* \"#utility.yul\":12050:12076   */\n      swap1\n      pop\n        /* \"#utility.yul\":11942:12083   */\n      swap2\n      swap1\n      pop\n      jump\t// out\n        /* \"#utility.yul\":12089:12182   */\n    tag_171:\n        /* \"#utility.yul\":12126:12132   */\n      0x00\n        /* \"#utility.yul\":12173:12175   */\n      0x20\n        /* \"#utility.yul\":12168:12170   */\n      0x1f\n        /* \"#utility.yul\":12161:12166   */\n      dup4\n        /* \"#utility.yul\":12157:12171   */\n      add\n        /* \"#utility.yul\":12153:12176   */\n      div\n        /* \"#utility.yul\":12143:12176   */\n      swap1\n      pop\n        /* \"#utility.yul\":12089:12182   */\n      swap2\n      swap1\n      pop\n      jump\t// out\n        /* \"#utility.yul\":12188:12295   */\n    tag_172:\n        /* \"#utility.yul\":12232:12240   */\n      0x00\n        /* \"#utility.yul\":12282:12287   */\n      dup3\n        /* \"#utility.yul\":12276:12280   */\n      dup3\n        /* \"#utility.yul\":12272:12288   */\n      shl\n        /* \"#utility.yul\":12251:12288   */\n      swap1\n      pop\n        /* \"#utility.yul\":12188:12295   */\n      swap3\n      swap2\n      pop\n      pop\n      jump\t// out\n        /* \"#utility.yul\":12301:12694   */\n    tag_173:\n        /* \"#utility.yul\":12370:12376   */\n      0x00\n        /* \"#utility.yul\":12420:12421   */\n      0x08\n        /* \"#utility.yul\":12408:12418   */\n      dup4\n        /* \"#utility.yul\":12404:12422   */\n      mul\n        /* \"#utility.yul\":12443:12540   */\n      tag_328\n        /* \"#utility.yul\":12473:12539   */\n      0xffffffffffffffffffffffffffffffffffffffffffffffffffffffffffffffff\n        /* \"#utility.yul\":12462:12471   */\n      dup3\n        /* \"#utility.yul\":12443:12540   */\n      tag_172\n      jump\t// in\n    tag_328:\n        /* \"#utility.yul\":12561:12600   */\n      tag_329\n        /* \"#utility.yul\":12591:12599   */\n      dup7\n        /* \"#utility.yul\":12580:12589   */\n      dup4\n        /* \"#utility.yul\":12561:12600   */\n      tag_172\n      jump\t// in\n    tag_329:\n        /* \"#utility.yul\":12549:12600   */\n      swap6\n      pop\n        /* \"#utility.yul\":12633:12637   */\n      dup1\n        /* \"#utility.yul\":12629:12638   */\n      not\n        /* \"#utility.yul\":12622:12627   */\n      dup5\n        /* \"#utility.yul\":12618:12639   */\n      and\n        /* \"#utility.yul\":12609:12639   */\n      swap4\n      pop\n        /* \"#utility.yul\":12682:12686   */\n      dup1\n        /* \"#utility.yul\":12672:12680   */\n      dup7\n        /* \"#utility.yul\":12668:12687   */\n      and\n        /* \"#utility.yul\":12661:12666   */\n      dup5\n        /* \"#utility.yul\":12658:12688   */\n      or\n        /* \"#utility.yul\":12648:12688   */\n      swap3\n      pop\n        /* \"#utility.yul\":12377:12694   */\n      pop\n      pop\n        /* \"#utility.yul\":12301:12694   */\n      swap4\n      swap3\n      pop\n      pop\n      pop\n      jump\t// out\n        /* \"#utility.yul\":12700:12760   */\n    tag_174:\n        /* \"#utility.yul\":12728:12731   */\n      0x00\n        /* \"#utility.yul\":12749:12754   */\n      dup2\n        /* \"#utility.yul\":12742:12754   */\n      swap1\n      pop\n        /* \"#utility.yul\":12700:12760   */\n      swap2\n      swap1\n      pop\n      jump\t// out\n        /* \"#utility.yul\":12766:12908   */\n    tag_175:\n        /* \"#utility.yul\":12816:12825   */\n      0x00\n        /* \"#utility.yul\":12849:12902   */\n      tag_332\n        /* \"#utility.yul\":12867:12901   */\n      tag_333\n        /* \"#utility.yul\":12876:12900   */\n      tag_334\n        /* \"#utility.yul\":12894:12899   */\n      dup5\n        /* \"#utility.yul\":12876:12900   */\n      tag_135\n      jump\t// in\n    tag_334:\n        /* \"#utility.yul\":12867:12901   */\n      tag_174\n      jump\t// in\n    tag_333:\n        /* \"#utility.yul\":12849:12902   */\n      tag_135\n      jump\t// in\n    tag_332:\n        /* \"#utility.yul\":12836:12902   */\n      swap1\n      pop\n        /* \"#utility.yul\":12766:12908   */\n      swap2\n      swap1\n      pop\n      jump\t// out\n        /* \"#utility.yul\":12914:12989   */\n    tag_176:\n        /* \"#utility.yul\":12957:12960   */\n      0x00\n        /* \"#utility.yul\":12978:12983   */\n      dup2\n        /* \"#utility.yul\":12971:12983   */\n      swap1\n      pop\n        /* \"#utility.yul\":12914:12989   */\n      swap2\n      swap1\n      pop\n      jump\t// out\n        /* \"#utility.yul\":12995:13264   */\n    tag_177:\n        /* \"#utility.yul\":13105:13144   */\n      tag_337\n        /* \"#utility.yul\":13136:13143   */\n      dup4\n        /* \"#utility.yul\":13105:13144   */\n      tag_175\n      jump\t// in\n    tag_337:\n        /* \"#utility.yul\":13166:13257   */\n      tag_338\n        /* \"#utility.yul\":13215:13256   */\n      tag_339\n        /* \"#utility.yul\":13239:13255   */\n      dup3\n        /* \"#utility.yul\":13215:13256   */\n      tag_176\n      jump\t// in\n    tag_339:\n        /* \"#utility.yul\":13207:13213   */\n      dup5\n        /* \"#utility.yul\":13200:13204   */\n      dup5\n        /* \"#utility.yul\":13194:13205   */\n      sload\n        /* \"#utility.yul\":13166:13257   */\n      tag_173\n      jump\t// in\n    tag_338:\n        /* \"#utility.yul\":13160:13164   */\n      dup3\n        /* \"#utility.yul\":13153:13258   */\n      sstore\n        /* \"#utility.yul\":13071:13264   */\n      pop\n        /* \"#utility.yul\":12995:13264   */\n      pop\n      pop\n      pop\n      jump\t// out\n        /* \"#utility.yul\":13270:13343   */\n    tag_178:\n        /* \"#utility.yul\":13315:13318   */\n      0x00\n        /* \"#utility.yul\":13270:13343   */\n      swap1\n      jump\t// out\n        /* \"#utility.yul\":13349:13538   */\n    tag_179:\n        /* \"#utility.yul\":13426:13458   */\n      tag_342\n      tag_178\n      jump\t// in\n    tag_342:\n        /* \"#utility.yul\":13467:13532   */\n      tag_343\n        /* \"#utility.yul\":13525:13531   */\n      dup2\n        /* \"#utility.yul\":13517:13523   */\n      dup5\n        /* \"#utility.yul\":13511:13515   */\n      dup5\n        /* \"#utility.yul\":13467:13532   */\n      tag_177\n      jump\t// in\n    tag_343:\n        /* \"#utility.yul\":13402:13538   */\n      pop\n        /* \"#utility.yul\":13349:13538   */\n      pop\n      pop\n      jump\t// out\n        /* \"#utility.yul\":13544:13730   */\n    tag_180:\n        /* \"#utility.yul\":13604:13724   */\n    tag_345:\n        /* \"#utility.yul\":13621:13624   */\n      dup2\n        /* \"#utility.yul\":13614:13619   */\n      dup2\n        /* \"#utility.yul\":13611:13625   */\n      lt\n        /* \"#utility.yul\":13604:13724   */\n      iszero\n      tag_347\n      jumpi\n        /* \"#utility.yul\":13675:13714   */\n      tag_348\n        /* \"#utility.yul\":13712:13713   */\n      0x00\n        /* \"#utility.yul\":13705:13710   */\n      dup3\n        /* \"#utility.yul\":13675:13714   */\n      tag_179\n      jump\t// in\n    tag_348:\n        /* \"#utility.yul\":13648:13649   */\n      0x01\n        /* \"#utility.yul\":13641:13646   */\n      dup2\n        /* \"#utility.yul\":13637:13650   */\n      add\n        /* \"#utility.yul\":13628:13650   */\n      swap1\n      pop\n        /* \"#utility.yul\":13604:13724   */\n      jump(tag_345)\n    tag_347:\n        /* \"#utility.yul\":13544:13730   */\n      pop\n      pop\n      jump\t// out\n        /* \"#utility.yul\":13736:14279   */\n    tag_181:\n        /* \"#utility.yul\":13837:13839   */\n      0x1f\n        /* \"#utility.yul\":13832:13835   */\n      dup3\n        /* \"#utility.yul\":13829:13840   */\n      gt\n        /* \"#utility.yul\":13826:14272   */\n      iszero\n      tag_350\n      jumpi\n        /* \"#utility.yul\":13871:13909   */\n      tag_351\n        /* \"#utility.yul\":13903:13908   */\n      dup2\n        /* \"#utility.yul\":13871:13909   */\n      tag_170\n      jump\t// in\n    tag_351:\n        /* \"#utility.yul\":13955:13984   */\n      tag_352\n        /* \"#utility.yul\":13973:13983   */\n      dup5\n        /* \"#utility.yul\":13955:13984   */\n      tag_171\n      jump\t// in\n    tag_352:\n        /* \"#utility.yul\":13945:13953   */\n      dup2\n        /* \"#utility.yul\":13941:13985   */\n      add\n        /* \"#utility.yul\":14138:14140   */\n      0x20\n        /* \"#utility.yul\":14126:14136   */\n      dup6\n        /* \"#utility.yul\":14123:14141   */\n      lt\n        /* \"#utility.yul\":14120:14169   */\n      iszero\n      tag_353\n      jumpi\n        /* \"#utility.yul\":14159:14167   */\n      dup2\n        /* \"#utility.yul\":14144:14167   */\n      swap1\n      pop\n        /* \"#utility.yul\":14120:14169   */\n    tag_353:\n        /* \"#utility.yul\":14182:14262   */\n      tag_354\n        /* \"#utility.yul\":14238:14260   */\n      tag_355\n        /* \"#utility.yul\":14256:14259   */\n      dup6\n        /* \"#utility.yul\":14238:14260   */\n      tag_171\n      jump\t// in\n    tag_355:\n        /* \"#utility.yul\":14228:14236   */\n      dup4\n        /* \"#utility.yul\":14224:14261   */\n      add\n        /* \"#utility.yul\":14211:14222   */\n      dup3\n        /* \"#utility.yul\":14182:14262   */\n      tag_180\n      jump\t// in\n    tag_354:\n        /* \"#utility.yul\":13841:14272   */\n      pop\n      pop\n        /* \"#utility.yul\":13826:14272   */\n    tag_350:\n        /* \"#utility.yul\":13736:14279   */\n      pop\n      pop\n      pop\n      jump\t// out\n        /* \"#utility.yul\":14285:14402   */\n    tag_182:\n        /* \"#utility.yul\":14339:14347   */\n      0x00\n        /* \"#utility.yul\":14389:14394   */\n      dup3\n        /* \"#utility.yul\":14383:14387   */\n      dup3\n        /* \"#utility.yul\":14379:14395   */\n      shr\n        /* \"#utility.yul\":14358:14395   */\n      swap1\n      pop\n        /* \"#utility.yul\":14285:14402   */\n      swap3\n      swap2\n      pop\n      pop\n      jump\t// out\n        /* \"#utility.yul\":14408:14577   */\n    tag_183:\n        /* \"#utility.yul\":14452:14458   */\n      0x00\n        /* \"#utility.yul\":14485:14536   */\n      tag_358\n        /* \"#utility.yul\":14533:14534   */\n      0x00\n        /* \"#utility.yul\":14529:14535   */\n      not\n        /* \"#utility.yul\":14521:14526   */\n      dup5\n        /* \"#utility.yul\":14518:14519   */\n      0x08\n        /* \"#utility.yul\":14514:14527   */\n      mul\n        /* \"#utility.yul\":14485:14536   */\n      tag_182\n      jump\t// in\n    tag_358:\n        /* \"#utility.yul\":14481:14537   */\n      not\n        /* \"#utility.yul\":14566:14570   */\n      dup1\n        /* \"#utility.yul\":14560:14564   */\n      dup4\n        /* \"#utility.yul\":14556:14571   */\n      and\n        /* \"#utility.yul\":14546:14571   */\n      swap2\n      pop\n        /* \"#utility.yul\":14459:14577   */\n      pop\n        /* \"#utility.yul\":14408:14577   */\n      swap3\n      swap2\n      pop\n      pop\n      jump\t// out\n        /* \"#utility.yul\":14582:14877   */\n    tag_184:\n        /* \"#utility.yul\":14658:14662   */\n      0x00\n        /* \"#utility.yul\":14804:14833   */\n      tag_360\n        /* \"#utility.yul\":14829:14832   */\n      dup4\n        /* \"#utility.yul\":14823:14827   */\n      dup4\n        /* \"#utility.yul\":14804:14833   */\n      tag_183\n      jump\t// in\n    tag_360:\n        /* \"#utility.yul\":14796:14833   */\n      swap2\n      pop\n        /* \"#utility.yul\":14866:14869   */\n      dup3\n        /* \"#utility.yul\":14863:14864   */\n      0x02\n        /* \"#utility.yul\":14859:14870   */\n      mul\n        /* \"#utility.yul\":14853:14857   */\n      dup3\n        /* \"#utility.yul\":14850:14871   */\n      or\n        /* \"#utility.yul\":14842:14871   */\n      swap1\n      pop\n        /* \"#utility.yul\":14582:14877   */\n      swap3\n      swap2\n      pop\n      pop\n      jump\t// out\n        /* \"#utility.yul\":14882:16277   */\n    tag_67:\n        /* \"#utility.yul\":14999:15036   */\n      tag_362\n        /* \"#utility.yul\":15032:15035   */\n      dup3\n        /* \"#utility.yul\":14999:15036   */\n      tag_138\n      jump\t// in\n    tag_362:\n        /* \"#utility.yul\":15101:15119   */\n      0xffffffffffffffff\n        /* \"#utility.yul\":15093:15099   */\n      dup2\n        /* \"#utility.yul\":15090:15120   */\n      gt\n        /* \"#utility.yul\":15087:15143   */\n      iszero\n      tag_363\n      jumpi\n        /* \"#utility.yul\":15123:15141   */\n      tag_364\n      tag_156\n      jump\t// in\n    tag_364:\n        /* \"#utility.yul\":15087:15143   */\n    tag_363:\n        /* \"#utility.yul\":15167:15205   */\n      tag_365\n        /* \"#utility.yul\":15199:15203   */\n      dup3\n        /* \"#utility.yul\":15193:15204   */\n      sload\n        /* \"#utility.yul\":15167:15205   */\n      tag_42\n      jump\t// in\n    tag_365:\n        /* \"#utility.yul\":15252:15319   */\n      tag_366\n        /* \"#utility.yul\":15312:15318   */\n      dup3\n        /* \"#utility.yul\":15304:15310   */\n      dup3\n        /* \"#utility.yul\":15298:15302   */\n      dup6\n        /* \"#utility.yul\":15252:15319   */\n      tag_181\n      jump\t// in\n    tag_366:\n        /* \"#utility.yul\":15346:15347   */\n      0x00\n        /* \"#utility.yul\":15370:15374   */\n      0x20\n        /* \"#utility.yul\":15357:15374   */\n      swap1\n      pop\n        /* \"#utility.yul\":15402:15404   */\n      0x1f\n        /* \"#utility.yul\":15394:15400   */\n      dup4\n        /* \"#utility.yul\":15391:15405   */\n      gt\n        /* \"#utility.yul\":15419:15420   */\n      0x01\n        /* \"#utility.yul\":15414:16032   */\n      dup2\n      eq\n      tag_368\n      jumpi\n        /* \"#utility.yul\":16076:16077   */\n      0x00\n        /* \"#utility.yul\":16093:16099   */\n      dup5\n        /* \"#utility.yul\":16090:16167   */\n      iszero\n      tag_369\n      jumpi\n        /* \"#utility.yul\":16142:16151   */\n      dup3\n        /* \"#utility.yul\":16137:16140   */\n      dup8\n        /* \"#utility.yul\":16133:16152   */\n      add\n        /* \"#utility.yul\":16127:16153   */\n      mload\n        /* \"#utility.yul\":16118:16153   */\n      swap1\n      pop\n        /* \"#utility.yul\":16090:16167   */\n    tag_369:\n        /* \"#utility.yul\":16193:16260   */\n      tag_370\n        /* \"#utility.yul\":16253:16259   */\n      dup6\n        /* \"#utility.yul\":16246:16251   */\n      dup3\n        /* \"#utility.yul\":16193:16260   */\n      tag_184\n      jump\t// in\n    tag_370:\n        /* \"#utility.yul\":16187:16191   */\n      dup7\n        /* \"#utility.yul\":16180:16261   */\n      sstore\n        /* \"#utility.yul\":16049:16271   */\n      pop\n        /* \"#utility.yul\":15384:16271   */\n      jump(tag_367)\n        /* \"#utility.yul\":15414:16032   */\n    tag_368:\n        /* \"#utility.yul\":15466:15470   */\n      0x1f\n        /* \"#utility.yul\":15462:15471   */\n      not\n        /* \"#utility.yul\":15454:15460   */\n      dup5\n        /* \"#utility.yul\":15450:15472   */\n      and\n        /* \"#utility.yul\":15500:15537   */\n      tag_371\n        /* \"#utility.yul\":15532:15536   */\n      dup7\n        /* \"#utility.yul\":15500:15537   */\n      tag_170\n      jump\t// in\n    tag_371:\n        /* \"#utility.yul\":15559:15560   */\n      0x00\n        /* \"#utility.yul\":15573:15781   */\n    tag_372:\n        /* \"#utility.yul\":15587:15594   */\n      dup3\n        /* \"#utility.yul\":15584:15585   */\n      dup2\n        /* \"#utility.yul\":15581:15595   */\n      lt\n        /* \"#utility.yul\":15573:15781   */\n      iszero\n      tag_374\n      jumpi\n        /* \"#utility.yul\":15666:15675   */\n      dup5\n        /* \"#utility.yul\":15661:15664   */\n      dup10\n        /* \"#utility.yul\":15657:15676   */\n      add\n        /* \"#utility.yul\":15651:15677   */\n      mload\n        /* \"#utility.yul\":15643:15649   */\n      dup3\n        /* \"#utility.yul\":15636:15678   */\n      sstore\n        /* \"#utility.yul\":15717:15718   */\n      0x01\n        /* \"#utility.yul\":15709:15715   */\n      dup3\n        /* \"#utility.yul\":15705:15719   */\n      add\n        /* \"#utility.yul\":15695:15719   */\n      swap2\n      pop\n        /* \"#utility.yul\":15764:15766   */\n      0x20\n        /* \"#utility.yul\":15753:15762   */\n      dup6\n        /* \"#utility.yul\":15749:15767   */\n      add\n        /* \"#utility.yul\":15736:15767   */\n      swap5\n      pop\n        /* \"#utility.yul\":15610:15614   */\n      0x20\n        /* \"#utility.yul\":15607:15608   */\n      dup2\n        /* \"#utility.yul\":15603:15615   */\n      add\n        /* \"#utility.yul\":15598:15615   */\n      swap1\n      pop\n        /* \"#utility.yul\":15573:15781   */\n      jump(tag_372)\n    tag_374:\n        /* \"#utility.yul\":15809:15815   */\n      dup7\n        /* \"#utility.yul\":15800:15807   */\n      dup4\n        /* \"#utility.yul\":15797:15816   */\n      lt\n        /* \"#utility.yul\":15794:15973   */\n      iszero\n      tag_375\n      jumpi\n        /* \"#utility.yul\":15867:15876   */\n      dup5\n        /* \"#utility.yul\":15862:15865   */\n      dup10\n        /* \"#utility.yul\":15858:15877   */\n      add\n        /* \"#utility.yul\":15852:15878   */\n      mload\n        /* \"#utility.yul\":15910:15958   */\n      tag_376\n        /* \"#utility.yul\":15952:15956   */\n      0x1f\n        /* \"#utility.yul\":15944:15950   */\n      dup10\n        /* \"#utility.yul\":15940:15957   */\n      and\n        /* \"#utility.yul\":15929:15938   */\n      dup3\n        /* \"#utility.yul\":15910:15958   */\n      tag_183\n      jump\t// in\n    tag_376:\n        /* \"#utility.yul\":15902:15908   */\n      dup4\n        /* \"#utility.yul\":15895:15959   */\n      sstore\n        /* \"#utility.yul\":15817:15973   */\n      pop\n        /* \"#utility.yul\":15794:15973   */\n    tag_375:\n        /* \"#utility.yul\":16019:16020   */\n      0x01\n        /* \"#utility.yul\":16015:16016   */\n      0x02\n        /* \"#utility.yul\":16007:16013   */\n      dup9\n        /* \"#utility.yul\":16003:16017   */\n      mul\n        /* \"#utility.yul\":15999:16021   */\n      add\n        /* \"#utility.yul\":15993:15997   */\n      dup9\n        /* \"#utility.yul\":15986:16022   */\n      sstore\n        /* \"#utility.yul\":15421:16032   */\n      pop\n      pop\n      pop\n        /* \"#utility.yul\":15384:16271   */\n    tag_367:\n      pop\n        /* \"#utility.yul\":14974:16277   */\n      pop\n      pop\n      pop\n        /* \"#utility.yul\":14882:16277   */\n      pop\n      pop\n      jump\t// out\n        /* \"#utility.yul\":16283:16836   */\n    tag_73:\n        /* \"#utility.yul\":16462:16466   */\n      0x00\n        /* \"#utility.yul\":16500:16502   */\n      0x60\n        /* \"#utility.yul\":16489:16498   */\n      dup3\n        /* \"#utility.yul\":16485:16503   */\n      add\n        /* \"#utility.yul\":16477:16503   */\n      swap1\n      pop\n        /* \"#utility.yul\":16549:16558   */\n      dup2\n        /* \"#utility.yul\":16543:16547   */\n      dup2\n        /* \"#utility.yul\":16539:16559   */\n      sub\n        /* \"#utility.yul\":16535:16536   */\n      0x00\n        /* \"#utility.yul\":16524:16533   */\n      dup4\n        /* \"#utility.yul\":16520:16537   */\n      add\n        /* \"#utility.yul\":16513:16560   */\n      mstore\n        /* \"#utility.yul\":16577:16655   */\n      tag_378\n        /* \"#utility.yul\":16650:16654   */\n      dup2\n        /* \"#utility.yul\":16641:16647   */\n      dup7\n        /* \"#utility.yul\":16577:16655   */\n      tag_142\n      jump\t// in\n    tag_378:\n        /* \"#utility.yul\":16569:16655   */\n      swap1\n      pop\n        /* \"#utility.yul\":16665:16737   */\n      tag_379\n        /* \"#utility.yul\":16733:16735   */\n      0x20\n        /* \"#utility.yul\":16722:16731   */\n      dup4\n        /* \"#utility.yul\":16718:16736   */\n      add\n        /* \"#utility.yul\":16709:16715   */\n      dup6\n        /* \"#utility.yul\":16665:16737   */\n      tag_143\n      jump\t// in\n    tag_379:\n        /* \"#utility.yul\":16747:16829   */\n      tag_380\n        /* \"#utility.yul\":16825:16827   */\n      0x40\n        /* \"#utility.yul\":16814:16823   */\n      dup4\n        /* \"#utility.yul\":16810:16828   */\n      add\n        /* \"#utility.yul\":16801:16807   */\n      dup5\n        /* \"#utility.yul\":16747:16829   */\n      tag_147\n      jump\t// in\n    tag_380:\n        /* \"#utility.yul\":16283:16836   */\n      swap5\n      swap4\n      pop\n      pop\n      pop\n      pop\n      jump\t// out\n        /* \"#utility.yul\":16842:17012   */\n    tag_185:\n        /* \"#utility.yul\":16982:17004   */\n      0x4e6f2066756e647320746f207769746864726177000000000000000000000000\n        /* \"#utility.yul\":16978:16979   */\n      0x00\n        /* \"#utility.yul\":16970:16976   */\n      dup3\n        /* \"#utility.yul\":16966:16980   */\n      add\n        /* \"#utility.yul\":16959:17005   */\n      mstore\n        /* \"#utility.yul\":16842:17012   */\n      pop\n      jump\t// out\n        /* \"#utility.yul\":17018:17384   */\n    tag_186:\n        /* \"#utility.yul\":17160:17163   */\n      0x00\n        /* \"#utility.yul\":17181:17248   */\n      tag_383\n        /* \"#utility.yul\":17245:17247   */\n      0x14\n        /* \"#utility.yul\":17240:17243   */\n      dup4\n        /* \"#utility.yul\":17181:17248   */\n      tag_139\n      jump\t// in\n    tag_383:\n        /* \"#utility.yul\":17174:17248   */\n      swap2\n      pop\n        /* \"#utility.yul\":17257:17350   */\n      tag_384\n        /* \"#utility.yul\":17346:17349   */\n      dup3\n        /* \"#utility.yul\":17257:17350   */\n      tag_185\n      jump\t// in\n    tag_384:\n        /* \"#utility.yul\":17375:17377   */\n      0x20\n        /* \"#utility.yul\":17370:17373   */\n      dup3\n        /* \"#utility.yul\":17366:17378   */\n      add\n        /* \"#utility.yul\":17359:17378   */\n      swap1\n      pop\n        /* \"#utility.yul\":17018:17384   */\n      swap2\n      swap1\n      pop\n      jump\t// out\n        /* \"#utility.yul\":17390:17809   */\n    tag_80:\n        /* \"#utility.yul\":17556:17560   */\n      0x00\n        /* \"#utility.yul\":17594:17596   */\n      0x20\n        /* \"#utility.yul\":17583:17592   */\n      dup3\n        /* \"#utility.yul\":17579:17597   */\n      add\n        /* \"#utility.yul\":17571:17597   */\n      swap1\n      pop\n        /* \"#utility.yul\":17643:17652   */\n      dup2\n        /* \"#utility.yul\":17637:17641   */\n      dup2\n        /* \"#utility.yul\":17633:17653   */\n      sub\n        /* \"#utility.yul\":17629:17630   */\n      0x00\n        /* \"#utility.yul\":17618:17627   */\n      dup4\n        /* \"#utility.yul\":17614:17631   */\n      add\n        /* \"#utility.yul\":17607:17654   */\n      mstore\n        /* \"#utility.yul\":17671:17802   */\n      tag_386\n        /* \"#utility.yul\":17797:17801   */\n      dup2\n        /* \"#utility.yul\":17671:17802   */\n      tag_186\n      jump\t// in\n    tag_386:\n        /* \"#utility.yul\":17663:17802   */\n      swap1\n      pop\n        /* \"#utility.yul\":17390:17809   */\n      swap2\n      swap1\n      pop\n      jump\t// out\n        /* \"#utility.yul\":17815:18037   */\n    tag_187:\n        /* \"#utility.yul\":17955:17989   */\n      0x43616e6e6f7420776974686472617720746f20746865207a65726f2061646472\n        /* \"#utility.yul\":17951:17952   */\n      0x00\n        /* \"#utility.yul\":17943:17949   */\n      dup3\n        /* \"#utility.yul\":17939:17953   */\n      add\n        /* \"#utility.yul\":17932:17990   */\n      mstore\n        /* \"#utility.yul\":18024:18029   */\n      0x6573730000000000000000000000000000000000000000000000000000000000\n        /* \"#utility.yul\":18019:18021   */\n      0x20\n        /* \"#utility.yul\":18011:18017   */\n      dup3\n        /* \"#utility.yul\":18007:18022   */\n      add\n        /* \"#utility.yul\":18000:18030   */\n      mstore\n        /* \"#utility.yul\":17815:18037   */\n      pop\n      jump\t// out\n        /* \"#utility.yul\":18043:18409   */\n    tag_188:\n        /* \"#utility.yul\":18185:18188   */\n      0x00\n        /* \"#utility.yul\":18206:18273   */\n      tag_389\n        /* \"#utility.yul\":18270:18272   */\n      0x23\n        /* \"#utility.yul\":18265:18268   */\n      dup4\n        /* \"#utility.yul\":18206:18273   */\n      tag_139\n      jump\t// in\n    tag_389:\n        /* \"#utility.yul\":18199:18273   */\n      swap2\n      pop\n        /* \"#utility.yul\":18282:18375   */\n      tag_390\n        /* \"#utility.yul\":18371:18374   */\n      dup3\n        /* \"#utility.yul\":18282:18375   */\n      tag_187\n      jump\t// in\n    tag_390:\n        /* \"#utility.yul\":18400:18402   */\n      0x40\n        /* \"#utility.yul\":18395:18398   */\n      dup3\n        /* \"#utility.yul\":18391:18403   */\n      add\n        /* \"#utility.yul\":18384:18403   */\n      swap1\n      pop\n        /* \"#utility.yul\":18043:18409   */\n      swap2\n      swap1\n      pop\n      jump\t// out\n        /* \"#utility.yul\":18415:18834   */\n    tag_83:\n        /* \"#utility.yul\":18581:18585   */\n      0x00\n        /* \"#utility.yul\":18619:18621   */\n      0x20\n        /* \"#utility.yul\":18608:18617   */\n      dup3\n        /* \"#utility.yul\":18604:18622   */\n      add\n        /* \"#utility.yul\":18596:18622   */\n      swap1\n      pop\n        /* \"#utility.yul\":18668:18677   */\n      dup2\n        /* \"#utility.yul\":18662:18666   */\n      dup2\n        /* \"#utility.yul\":18658:18678   */\n      sub\n        /* \"#utility.yul\":18654:18655   */\n      0x00\n        /* \"#utility.yul\":18643:18652   */\n      dup4\n        /* \"#utility.yul\":18639:18656   */\n      add\n        /* \"#utility.yul\":18632:18679   */\n      mstore\n        /* \"#utility.yul\":18696:18827   */\n      tag_392\n        /* \"#utility.yul\":18822:18826   */\n      dup2\n        /* \"#utility.yul\":18696:18827   */\n      tag_188\n      jump\t// in\n    tag_392:\n        /* \"#utility.yul\":18688:18827   */\n      swap1\n      pop\n        /* \"#utility.yul\":18415:18834   */\n      swap2\n      swap1\n      pop\n      jump\t// out\n        /* \"#utility.yul\":18840:18987   */\n    tag_189:\n        /* \"#utility.yul\":18941:18952   */\n      0x00\n        /* \"#utility.yul\":18978:18981   */\n      dup2\n        /* \"#utility.yul\":18963:18981   */\n      swap1\n      pop\n        /* \"#utility.yul\":18840:18987   */\n      swap3\n      swap2\n      pop\n      pop\n      jump\t// out\n        /* \"#utility.yul\":18993:19107   */\n    tag_190:\n      pop\n      jump\t// out\n        /* \"#utility.yul\":19113:19511   */\n    tag_191:\n        /* \"#utility.yul\":19272:19275   */\n      0x00\n        /* \"#utility.yul\":19293:19376   */\n      tag_396\n        /* \"#utility.yul\":19374:19375   */\n      0x00\n        /* \"#utility.yul\":19369:19372   */\n      dup4\n        /* \"#utility.yul\":19293:19376   */\n      tag_189\n      jump\t// in\n    tag_396:\n        /* \"#utility.yul\":19286:19376   */\n      swap2\n      pop\n        /* \"#utility.yul\":19385:19478   */\n      tag_397\n        /* \"#utility.yul\":19474:19477   */\n      dup3\n        /* \"#utility.yul\":19385:19478   */\n      tag_190\n      jump\t// in\n    tag_397:\n        /* \"#utility.yul\":19503:19504   */\n      0x00\n        /* \"#utility.yul\":19498:19501   */\n      dup3\n        /* \"#utility.yul\":19494:19505   */\n      add\n        /* \"#utility.yul\":19487:19505   */\n      swap1\n      pop\n        /* \"#utility.yul\":19113:19511   */\n      swap2\n      swap1\n      pop\n      jump\t// out\n        /* \"#utility.yul\":19517:19896   */\n    tag_85:\n        /* \"#utility.yul\":19701:19704   */\n      0x00\n        /* \"#utility.yul\":19723:19870   */\n      tag_399\n        /* \"#utility.yul\":19866:19869   */\n      dup3\n        /* \"#utility.yul\":19723:19870   */\n      tag_191\n      jump\t// in\n    tag_399:\n        /* \"#utility.yul\":19716:19870   */\n      swap2\n      pop\n        /* \"#utility.yul\":19887:19890   */\n      dup2\n        /* \"#utility.yul\":19880:19890   */\n      swap1\n      pop\n        /* \"#utility.yul\":19517:19896   */\n      swap2\n      swap1\n      pop\n      jump\t// out\n        /* \"#utility.yul\":19902:20076   */\n    tag_192:\n        /* \"#utility.yul\":20042:20068   */\n      0x4661696c656420746f2077697468647261772066756e64730000000000000000\n        /* \"#utility.yul\":20038:20039   */\n      0x00\n        /* \"#utility.yul\":20030:20036   */\n      dup3\n        /* \"#utility.yul\":20026:20040   */\n      add\n        /* \"#utility.yul\":20019:20069   */\n      mstore\n        /* \"#utility.yul\":19902:20076   */\n      pop\n      jump\t// out\n        /* \"#utility.yul\":20082:20448   */\n    tag_193:\n        /* \"#utility.yul\":20224:20227   */\n      0x00\n        /* \"#utility.yul\":20245:20312   */\n      tag_402\n        /* \"#utility.yul\":20309:20311   */\n      0x18\n        /* \"#utility.yul\":20304:20307   */\n      dup4\n        /* \"#utility.yul\":20245:20312   */\n      tag_139\n      jump\t// in\n    tag_402:\n        /* \"#utility.yul\":20238:20312   */\n      swap2\n      pop\n        /* \"#utility.yul\":20321:20414   */\n      tag_403\n        /* \"#utility.yul\":20410:20413   */\n      dup3\n        /* \"#utility.yul\":20321:20414   */\n      tag_192\n      jump\t// in\n    tag_403:\n        /* \"#utility.yul\":20439:20441   */\n      0x20\n        /* \"#utility.yul\":20434:20437   */\n      dup3\n        /* \"#utility.yul\":20430:20442   */\n      add\n        /* \"#utility.yul\":20423:20442   */\n      swap1\n      pop\n        /* \"#utility.yul\":20082:20448   */\n      swap2\n      swap1\n      pop\n      jump\t// out\n        /* \"#utility.yul\":20454:20873   */\n    tag_91:\n        /* \"#utility.yul\":20620:20624   */\n      0x00\n        /* \"#utility.yul\":20658:20660   */\n      0x20\n        /* \"#utility.yul\":20647:20656   */\n      dup3\n        /* \"#utility.yul\":20643:20661   */\n      add\n        /* \"#utility.yul\":20635:20661   */\n      swap1\n      pop\n        /* \"#utility.yul\":20707:20716   */\n      dup2\n        /* \"#utility.yul\":20701:20705   */\n      dup2\n        /* \"#utility.yul\":20697:20717   */\n      sub\n        /* \"#utility.yul\":20693:20694   */\n      0x00\n        /* \"#utility.yul\":20682:20691   */\n      dup4\n        /* \"#utility.yul\":20678:20695   */\n      add\n        /* \"#utility.yul\":20671:20718   */\n      mstore\n        /* \"#utility.yul\":20735:20866   */\n      tag_405\n        /* \"#utility.yul\":20861:20865   */\n      dup2\n        /* \"#utility.yul\":20735:20866   */\n      tag_193\n      jump\t// in\n    tag_405:\n        /* \"#utility.yul\":20727:20866   */\n      swap1\n      pop\n        /* \"#utility.yul\":20454:20873   */\n      swap2\n      swap1\n      pop\n      jump\t// out\n        /* \"#utility.yul\":20879:21101   */\n    tag_93:\n        /* \"#utility.yul\":20972:20976   */\n      0x00\n        /* \"#utility.yul\":21010:21012   */\n      0x20\n        /* \"#utility.yul\":20999:21008   */\n      dup3\n        /* \"#utility.yul\":20995:21013   */\n      add\n        /* \"#utility.yul\":20987:21013   */\n      swap1\n      pop\n        /* \"#utility.yul\":21023:21094   */\n      tag_407\n        /* \"#utility.yul\":21091:21092   */\n      0x00\n        /* \"#utility.yul\":21080:21089   */\n      dup4\n        /* \"#utility.yul\":21076:21093   */\n      add\n        /* \"#utility.yul\":21067:21073   */\n      dup5\n        /* \"#utility.yul\":21023:21094   */\n      tag_143\n      jump\t// in\n    tag_407:\n        /* \"#utility.yul\":20879:21101   */\n      swap3\n      swap2\n      pop\n      pop\n      jump\t// out\n        /* \"#utility.yul\":21107:21287   */\n    tag_99:\n        /* \"#utility.yul\":21155:21232   */\n      0x4e487b7100000000000000000000000000000000000000000000000000000000\n        /* \"#utility.yul\":21152:21153   */\n      0x00\n        /* \"#utility.yul\":21145:21233   */\n      mstore\n        /* \"#utility.yul\":21252:21256   */\n      0x32\n        /* \"#utility.yul\":21249:21250   */\n      0x04\n        /* \"#utility.yul\":21242:21257   */\n      mstore\n        /* \"#utility.yul\":21276:21280   */\n      0x24\n        /* \"#utility.yul\":21273:21274   */\n      0x00\n        /* \"#utility.yul\":21266:21281   */\n      revert\n        /* \"#utility.yul\":21293:21467   */\n    tag_194:\n        /* \"#utility.yul\":21433:21459   */\n      0x526f6f6d20697320616c7265616479206f636375706965640000000000000000\n        /* \"#utility.yul\":21429:21430   */\n      0x00\n        /* \"#utility.yul\":21421:21427   */\n      dup3\n        /* \"#utility.yul\":21417:21431   */\n      add\n        /* \"#utility.yul\":21410:21460   */\n      mstore\n        /* \"#utility.yul\":21293:21467   */\n      pop\n      jump\t// out\n        /* \"#utility.yul\":21473:21839   */\n    tag_195:\n        /* \"#utility.yul\":21615:21618   */\n      0x00\n        /* \"#utility.yul\":21636:21703   */\n      tag_411\n        /* \"#utility.yul\":21700:21702   */\n      0x18\n        /* \"#utility.yul\":21695:21698   */\n      dup4\n        /* \"#utility.yul\":21636:21703   */\n      tag_139\n      jump\t// in\n    tag_411:\n        /* \"#utility.yul\":21629:21703   */\n      swap2\n      pop\n        /* \"#utility.yul\":21712:21805   */\n      tag_412\n        /* \"#utility.yul\":21801:21804   */\n      dup3\n        /* \"#utility.yul\":21712:21805   */\n      tag_194\n      jump\t// in\n    tag_412:\n        /* \"#utility.yul\":21830:21832   */\n      0x20\n        /* \"#utility.yul\":21825:21828   */\n      dup3\n        /* \"#utility.yul\":21821:21833   */\n      add\n        /* \"#utility.yul\":21814:21833   */\n      swap1\n      pop\n        /* \"#utility.yul\":21473:21839   */\n      swap2\n      swap1\n      pop\n      jump\t// out\n        /* \"#utility.yul\":21845:22264   */\n    tag_105:\n        /* \"#utility.yul\":22011:22015   */\n      0x00\n        /* \"#utility.yul\":22049:22051   */\n      0x20\n        /* \"#utility.yul\":22038:22047   */\n      dup3\n        /* \"#utility.yul\":22034:22052   */\n      add\n        /* \"#utility.yul\":22026:22052   */\n      swap1\n      pop\n        /* \"#utility.yul\":22098:22107   */\n      dup2\n        /* \"#utility.yul\":22092:22096   */\n      dup2\n        /* \"#utility.yul\":22088:22108   */\n      sub\n        /* \"#utility.yul\":22084:22085   */\n      0x00\n        /* \"#utility.yul\":22073:22082   */\n      dup4\n        /* \"#utility.yul\":22069:22086   */\n      add\n        /* \"#utility.yul\":22062:22109   */\n      mstore\n        /* \"#utility.yul\":22126:22257   */\n      tag_414\n        /* \"#utility.yul\":22252:22256   */\n      dup2\n        /* \"#utility.yul\":22126:22257   */\n      tag_195\n      jump\t// in\n    tag_414:\n        /* \"#utility.yul\":22118:22257   */\n      swap1\n      pop\n        /* \"#utility.yul\":21845:22264   */\n      swap2\n      swap1\n      pop\n      jump\t// out\n        /* \"#utility.yul\":22270:22501   */\n    tag_196:\n        /* \"#utility.yul\":22410:22444   */\n      0x426f6f6b696e672063616e63656c6c65643a204e6f7420656e6f756768206574\n        /* \"#utility.yul\":22406:22407   */\n      0x00\n        /* \"#utility.yul\":22398:22404   */\n      dup3\n        /* \"#utility.yul\":22394:22408   */\n      add\n        /* \"#utility.yul\":22387:22445   */\n      mstore\n        /* \"#utility.yul\":22479:22493   */\n      0x6865722070726f76696465640000000000000000000000000000000000000000\n        /* \"#utility.yul\":22474:22476   */\n      0x20\n        /* \"#utility.yul\":22466:22472   */\n      dup3\n        /* \"#utility.yul\":22462:22477   */\n      add\n        /* \"#utility.yul\":22455:22494   */\n      mstore\n        /* \"#utility.yul\":22270:22501   */\n      pop\n      jump\t// out\n        /* \"#utility.yul\":22507:22873   */\n    tag_197:\n        /* \"#utility.yul\":22649:22652   */\n      0x00\n        /* \"#utility.yul\":22670:22737   */\n      tag_417\n        /* \"#utility.yul\":22734:22736   */\n      0x2c\n        /* \"#utility.yul\":22729:22732   */\n      dup4\n        /* \"#utility.yul\":22670:22737   */\n      tag_139\n      jump\t// in\n    tag_417:\n        /* \"#utility.yul\":22663:22737   */\n      swap2\n      pop\n        /* \"#utility.yul\":22746:22839   */\n      tag_418\n        /* \"#utility.yul\":22835:22838   */\n      dup3\n        /* \"#utility.yul\":22746:22839   */\n      tag_196\n      jump\t// in\n    tag_418:\n        /* \"#utility.yul\":22864:22866   */\n      0x40\n        /* \"#utility.yul\":22859:22862   */\n      dup3\n        /* \"#utility.yul\":22855:22867   */\n      add\n        /* \"#utility.yul\":22848:22867   */\n      swap1\n      pop\n        /* \"#utility.yul\":22507:22873   */\n      swap2\n      swap1\n      pop\n      jump\t// out\n        /* \"#utility.yul\":22879:23298   */\n    tag_112:\n        /* \"#utility.yul\":23045:23049   */\n      0x00\n        /* \"#utility.yul\":23083:23085   */\n      0x20\n        /* \"#utility.yul\":23072:23081   */\n      dup3\n        /* \"#utility.yul\":23068:23086   */\n      add\n        /* \"#utility.yul\":23060:23086   */\n      swap1\n      pop\n        /* \"#utility.yul\":23132:23141   */\n      dup2\n        /* \"#utility.yul\":23126:23130   */\n      dup2\n        /* \"#utility.yul\":23122:23142   */\n      sub\n        /* \"#utility.yul\":23118:23119   */\n      0x00\n        /* \"#utility.yul\":23107:23116   */\n      dup4\n        /* \"#utility.yul\":23103:23120   */\n      add\n        /* \"#utility.yul\":23096:23143   */\n      mstore\n        /* \"#utility.yul\":23160:23291   */\n      tag_420\n        /* \"#utility.yul\":23286:23290   */\n      dup2\n        /* \"#utility.yul\":23160:23291   */\n      tag_197\n      jump\t// in\n    tag_420:\n        /* \"#utility.yul\":23152:23291   */\n      swap1\n      pop\n        /* \"#utility.yul\":22879:23298   */\n      swap2\n      swap1\n      pop\n      jump\t// out\n        /* \"#utility.yul\":23304:23472   */\n    tag_198:\n        /* \"#utility.yul\":23444:23464   */\n      0x5472616e73616374696f6e204661696c65640000000000000000000000000000\n        /* \"#utility.yul\":23440:23441   */\n      0x00\n        /* \"#utility.yul\":23432:23438   */\n      dup3\n        /* \"#utility.yul\":23428:23442   */\n      add\n        /* \"#utility.yul\":23421:23465   */\n      mstore\n        /* \"#utility.yul\":23304:23472   */\n      pop\n      jump\t// out\n        /* \"#utility.yul\":23478:23844   */\n    tag_199:\n        /* \"#utility.yul\":23620:23623   */\n      0x00\n        /* \"#utility.yul\":23641:23708   */\n      tag_423\n        /* \"#utility.yul\":23705:23707   */\n      0x12\n        /* \"#utility.yul\":23700:23703   */\n      dup4\n        /* \"#utility.yul\":23641:23708   */\n      tag_139\n      jump\t// in\n    tag_423:\n        /* \"#utility.yul\":23634:23708   */\n      swap2\n      pop\n        /* \"#utility.yul\":23717:23810   */\n      tag_424\n        /* \"#utility.yul\":23806:23809   */\n      dup3\n        /* \"#utility.yul\":23717:23810   */\n      tag_198\n      jump\t// in\n    tag_424:\n        /* \"#utility.yul\":23835:23837   */\n      0x20\n        /* \"#utility.yul\":23830:23833   */\n      dup3\n        /* \"#utility.yul\":23826:23838   */\n      add\n        /* \"#utility.yul\":23819:23838   */\n      swap1\n      pop\n        /* \"#utility.yul\":23478:23844   */\n      swap2\n      swap1\n      pop\n      jump\t// out\n        /* \"#utility.yul\":23850:24269   */\n    tag_119:\n        /* \"#utility.yul\":24016:24020   */\n      0x00\n        /* \"#utility.yul\":24054:24056   */\n      0x20\n        /* \"#utility.yul\":24043:24052   */\n      dup3\n        /* \"#utility.yul\":24039:24057   */\n      add\n        /* \"#utility.yul\":24031:24057   */\n      swap1\n      pop\n        /* \"#utility.yul\":24103:24112   */\n      dup2\n        /* \"#utility.yul\":24097:24101   */\n      dup2\n        /* \"#utility.yul\":24093:24113   */\n      sub\n        /* \"#utility.yul\":24089:24090   */\n      0x00\n        /* \"#utility.yul\":24078:24087   */\n      dup4\n        /* \"#utility.yul\":24074:24091   */\n      add\n        /* \"#utility.yul\":24067:24114   */\n      mstore\n        /* \"#utility.yul\":24131:24262   */\n      tag_426\n        /* \"#utility.yul\":24257:24261   */\n      dup2\n        /* \"#utility.yul\":24131:24262   */\n      tag_199\n      jump\t// in\n    tag_426:\n        /* \"#utility.yul\":24123:24262   */\n      swap1\n      pop\n        /* \"#utility.yul\":23850:24269   */\n      swap2\n      swap1\n      pop\n      jump\t// out\n        /* \"#utility.yul\":24275:24852   */\n    tag_131:\n        /* \"#utility.yul\":24466:24470   */\n      0x00\n        /* \"#utility.yul\":24504:24506   */\n      0x60\n        /* \"#utility.yul\":24493:24502   */\n      dup3\n        /* \"#utility.yul\":24489:24507   */\n      add\n        /* \"#utility.yul\":24481:24507   */\n      swap1\n      pop\n        /* \"#utility.yul\":24517:24588   */\n      tag_428\n        /* \"#utility.yul\":24585:24586   */\n      0x00\n        /* \"#utility.yul\":24574:24583   */\n      dup4\n        /* \"#utility.yul\":24570:24587   */\n      add\n        /* \"#utility.yul\":24561:24567   */\n      dup7\n        /* \"#utility.yul\":24517:24588   */\n      tag_143\n      jump\t// in\n    tag_428:\n        /* \"#utility.yul\":24598:24670   */\n      tag_429\n        /* \"#utility.yul\":24666:24668   */\n      0x20\n        /* \"#utility.yul\":24655:24664   */\n      dup4\n        /* \"#utility.yul\":24651:24669   */\n      add\n        /* \"#utility.yul\":24642:24648   */\n      dup6\n        /* \"#utility.yul\":24598:24670   */\n      tag_143\n      jump\t// in\n    tag_429:\n        /* \"#utility.yul\":24717:24726   */\n      dup2\n        /* \"#utility.yul\":24711:24715   */\n      dup2\n        /* \"#utility.yul\":24707:24727   */\n      sub\n        /* \"#utility.yul\":24702:24704   */\n      0x40\n        /* \"#utility.yul\":24691:24700   */\n      dup4\n        /* \"#utility.yul\":24687:24705   */\n      add\n        /* \"#utility.yul\":24680:24728   */\n      mstore\n        /* \"#utility.yul\":24745:24845   */\n      tag_430\n        /* \"#utility.yul\":24840:24844   */\n      dup2\n        /* \"#utility.yul\":24831:24837   */\n      dup5\n        /* \"#utility.yul\":24745:24845   */\n      tag_150\n      jump\t// in\n    tag_430:\n        /* \"#utility.yul\":24737:24845   */\n      swap1\n      pop\n        /* \"#utility.yul\":24275:24852   */\n      swap5\n      swap4\n      pop\n      pop\n      pop\n      pop\n      jump\t// out\n\n    auxdata: 0xa2646970667358221220c69d208b9f75448f73ef3d15280c5994db653d2102691bdc78994b8ce11d7aa464736f6c634300081a0033\n}\n",
				"bytecode": {
					"linkReferences": {},
					"object": "6080604052348015600e575f80fd5b50335f806101000a81548173ffffffffffffffffffffffffffffffffffffffff021916908373ffffffffffffffffffffffffffffffffffffffff1602179055506116ed8061005b5f395ff3fe608060405260043610610054575f3560e01c80631bae0ac814610058578063481c6a75146100975780634bde3ab1146100c157806368742da6146100e95780638da5cb5b1461011157806399c383be1461013b575b5f80fd5b348015610063575f80fd5b5061007e60048036038101906100799190610aba565b610157565b60405161008e9493929190610c60565b60405180910390f35b3480156100a2575f80fd5b506100ab61034d565b6040516100b89190610cf0565b60405180910390f35b3480156100cc575f80fd5b506100e760048036038101906100e29190610e35565b610372565b005b3480156100f4575f80fd5b5061010f600480360381019061010a9190610eca565b61054d565b005b34801561011c575f80fd5b50610125610789565b6040516101329190610f04565b60405180910390f35b61015560048036038101906101509190610f1d565b6107ac565b005b60028181548110610166575f80fd5b905f5260205f2090600502015f91509050805f01805461018590610fd2565b80601f01602080910402602001604051908101604052809291908181526020018280546101b190610fd2565b80156101fc5780601f106101d3576101008083540402835291602001916101fc565b820191905f5260205f20905b8154815290600101906020018083116101df57829003601f168201915b505050505090806001015490806002015f9054906101000a900460ff1690806003016040518060400160405290815f8201805461023890610fd2565b80601f016020809104026020016040519081016040528092919081815260200182805461026490610fd2565b80156102af5780601f10610286576101008083540402835291602001916102af565b820191905f5260205f20905b81548152906001019060200180831161029257829003601f168201915b505050505081526020016001820180546102c890610fd2565b80601f01602080910402602001604051908101604052809291908181526020018280546102f490610fd2565b801561033f5780601f106103165761010080835404028352916020019161033f565b820191905f5260205f20905b81548152906001019060200180831161032257829003601f168201915b505050505081525050905084565b60015f9054906101000a900473ffffffffffffffffffffffffffffffffffffffff1681565b5f8054906101000a900473ffffffffffffffffffffffffffffffffffffffff1673ffffffffffffffffffffffffffffffffffffffff163373ffffffffffffffffffffffffffffffffffffffff16146103ff576040517f08c379a00000000000000000000000000000000000000000000000000000000081526004016103f690611072565b60405180910390fd5b600260405180608001604052808481526020018381526020015f600181111561042b5761042a610b64565b5b8152602001604051806040016040528060405180602001604052805f815250815260200160405180602001604052805f815250815250815250908060018154018082558091505060019003905f5260205f2090600502015f909190919091505f820151815f01908161049d919061122d565b50602082015181600101556040820151816002015f6101000a81548160ff021916908360018111156104d2576104d1610b64565b5b02179055506060820151816003015f820151815f0190816104f3919061122d565b506020820151816001019081610509919061122d565b50505050507f608a4b9b1eddb2b48fb3c62a5e7f36d625b58f5ff3a1f8cc78259e69e2cf067e82825f604051610541939291906112fc565b60405180910390a15050565b5f8054906101000a900473ffffffffffffffffffffffffffffffffffffffff1673ffffffffffffffffffffffffffffffffffffffff163373ffffffffffffffffffffffffffffffffffffffff16146105da576040517f08c379a00000000000000000000000000000000000000000000000000000000081526004016105d190611072565b60405180910390fd5b5f4790505f8111610620576040517f08c379a000000000000000000000000000000000000000000000000000000000815260040161061790611382565b60405180910390fd5b5f73ffffffffffffffffffffffffffffffffffffffff168273ffffffffffffffffffffffffffffffffffffffff160361068e576040517f08c379a000000000000000000000000000000000000000000000000000000000815260040161068590611410565b60405180910390fd5b5f8273ffffffffffffffffffffffffffffffffffffffff16826040516106b39061145b565b5f6040518083038185875af1925050503d805f81146106ed576040519150601f19603f3d011682016040523d82523d5f602084013e6106f2565b606091505b5050905080610736576040517f08c379a000000000000000000000000000000000000000000000000000000000815260040161072d906114b9565b60405180910390fd5b8273ffffffffffffffffffffffffffffffffffffffff167feaff4b37086828766ad3268786972c0cd24259d4c87a80f9d3963a3c3d999b0d8360405161077c91906114d7565b60405180910390a2505050565b5f8054906101000a900473ffffffffffffffffffffffffffffffffffffffff1681565b825f60018111156107c0576107bf610b64565b5b600282815481106107d4576107d36114f0565b5b905f5260205f2090600502016002015f9054906101000a900460ff16600181111561080257610801610b64565b5b14610842576040517f08c379a000000000000000000000000000000000000000000000000000000000815260040161083990611567565b60405180910390fd5b3460028581548110610857576108566114f0565b5b905f5260205f2090600502016001015411156108a8576040517f08c379a000000000000000000000000000000000000000000000000000000000815260040161089f906115f5565b60405180910390fd5b5f805f9054906101000a900473ffffffffffffffffffffffffffffffffffffffff1673ffffffffffffffffffffffffffffffffffffffff16346040516108ed9061145b565b5f6040518083038185875af1925050503d805f8114610927576040519150601f19603f3d011682016040523d82523d5f602084013e61092c565b606091505b5050905080610970576040517f08c379a00000000000000000000000000000000000000000000000000000000081526004016109679061165d565b60405180910390fd5b600160028681548110610986576109856114f0565b5b905f5260205f2090600502016002015f6101000a81548160ff021916908360018111156109b6576109b5610b64565b5b0217905550604051806040016040528085815260200184815250600286815481106109e4576109e36114f0565b5b905f5260205f2090600502016003015f820151815f019081610a06919061122d565b506020820151816001019081610a1c919061122d565b509050507f1b81702f4e481593ce2eb45aed48d5b8d2b5110bc3f95faf6089617af86565508534604051806040016040528088815260200187815250604051610a679392919061167b565b60405180910390a15050505050565b5f604051905090565b5f80fd5b5f80fd5b5f819050919050565b610a9981610a87565b8114610aa3575f80fd5b50565b5f81359050610ab481610a90565b92915050565b5f60208284031215610acf57610ace610a7f565b5b5f610adc84828501610aa6565b91505092915050565b5f81519050919050565b5f82825260208201905092915050565b8281835e5f83830152505050565b5f601f19601f8301169050919050565b5f610b2782610ae5565b610b318185610aef565b9350610b41818560208601610aff565b610b4a81610b0d565b840191505092915050565b610b5e81610a87565b82525050565b7f4e487b71000000000000000000000000000000000000000000000000000000005f52602160045260245ffd5b60028110610ba257610ba1610b64565b5b50565b5f819050610bb282610b91565b919050565b5f610bc182610ba5565b9050919050565b610bd181610bb7565b82525050565b5f82825260208201905092915050565b5f610bf182610ae5565b610bfb8185610bd7565b9350610c0b818560208601610aff565b610c1481610b0d565b840191505092915050565b5f604083015f8301518482035f860152610c398282610be7565b91505060208301518482036020860152610c538282610be7565b9150508091505092915050565b5f6080820190508181035f830152610c788187610b1d565b9050610c876020830186610b55565b610c946040830185610bc8565b8181036060830152610ca68184610c1f565b905095945050505050565b5f73ffffffffffffffffffffffffffffffffffffffff82169050919050565b5f610cda82610cb1565b9050919050565b610cea81610cd0565b82525050565b5f602082019050610d035f830184610ce1565b92915050565b5f80fd5b5f80fd5b7f4e487b71000000000000000000000000000000000000000000000000000000005f52604160045260245ffd5b610d4782610b0d565b810181811067ffffffffffffffff82111715610d6657610d65610d11565b5b80604052505050565b5f610d78610a76565b9050610d848282610d3e565b919050565b5f67ffffffffffffffff821115610da357610da2610d11565b5b610dac82610b0d565b9050602081019050919050565b828183375f83830152505050565b5f610dd9610dd484610d89565b610d6f565b905082815260208101848484011115610df557610df4610d0d565b5b610e00848285610db9565b509392505050565b5f82601f830112610e1c57610e1b610d09565b5b8135610e2c848260208601610dc7565b91505092915050565b5f8060408385031215610e4b57610e4a610a7f565b5b5f83013567ffffffffffffffff811115610e6857610e67610a83565b5b610e7485828601610e08565b9250506020610e8585828601610aa6565b9150509250929050565b5f610e9982610cb1565b9050919050565b610ea981610e8f565b8114610eb3575f80fd5b50565b5f81359050610ec481610ea0565b92915050565b5f60208284031215610edf57610ede610a7f565b5b5f610eec84828501610eb6565b91505092915050565b610efe81610e8f565b82525050565b5f602082019050610f175f830184610ef5565b92915050565b5f805f60608486031215610f3457610f33610a7f565b5b5f610f4186828701610aa6565b935050602084013567ffffffffffffffff811115610f6257610f61610a83565b5b610f6e86828701610e08565b925050604084013567ffffffffffffffff811115610f8f57610f8e610a83565b5b610f9b86828701610e08565b9150509250925092565b7f4e487b71000000000000000000000000000000000000000000000000000000005f52602260045260245ffd5b5f6002820490506001821680610fe957607f821691505b602082108103610ffc57610ffb610fa5565b5b50919050565b7f596f75206d75737420626520746865206f776e657220746f20706572666f726d5f8201527f207468697320616374696f6e0000000000000000000000000000000000000000602082015250565b5f61105c602c83610aef565b915061106782611002565b604082019050919050565b5f6020820190508181035f83015261108981611050565b9050919050565b5f819050815f5260205f209050919050565b5f6020601f8301049050919050565b5f82821b905092915050565b5f600883026110ec7fffffffffffffffffffffffffffffffffffffffffffffffffffffffffffffffff826110b1565b6110f686836110b1565b95508019841693508086168417925050509392505050565b5f819050919050565b5f61113161112c61112784610a87565b61110e565b610a87565b9050919050565b5f819050919050565b61114a83611117565b61115e61115682611138565b8484546110bd565b825550505050565b5f90565b611172611166565b61117d818484611141565b505050565b5b818110156111a0576111955f8261116a565b600181019050611183565b5050565b601f8211156111e5576111b681611090565b6111bf846110a2565b810160208510156111ce578190505b6111e26111da856110a2565b830182611182565b50505b505050565b5f82821c905092915050565b5f6112055f19846008026111ea565b1980831691505092915050565b5f61121d83836111f6565b9150826002028217905092915050565b61123682610ae5565b67ffffffffffffffff81111561124f5761124e610d11565b5b6112598254610fd2565b6112648282856111a4565b5f60209050601f831160018114611295575f8415611283578287015190505b61128d8582611212565b8655506112f4565b601f1984166112a386611090565b5f5b828110156112ca578489015182556001820191506020850194506020810190506112a5565b868310156112e757848901516112e3601f8916826111f6565b8355505b6001600288020188555050505b505050505050565b5f6060820190508181035f8301526113148186610b1d565b90506113236020830185610b55565b6113306040830184610bc8565b949350505050565b7f4e6f2066756e647320746f2077697468647261770000000000000000000000005f82015250565b5f61136c601483610aef565b915061137782611338565b602082019050919050565b5f6020820190508181035f83015261139981611360565b9050919050565b7f43616e6e6f7420776974686472617720746f20746865207a65726f20616464725f8201527f6573730000000000000000000000000000000000000000000000000000000000602082015250565b5f6113fa602383610aef565b9150611405826113a0565b604082019050919050565b5f6020820190508181035f830152611427816113ee565b9050919050565b5f81905092915050565b50565b5f6114465f8361142e565b915061145182611438565b5f82019050919050565b5f6114658261143b565b9150819050919050565b7f4661696c656420746f2077697468647261772066756e647300000000000000005f82015250565b5f6114a3601883610aef565b91506114ae8261146f565b602082019050919050565b5f6020820190508181035f8301526114d081611497565b9050919050565b5f6020820190506114ea5f830184610b55565b92915050565b7f4e487b71000000000000000000000000000000000000000000000000000000005f52603260045260245ffd5b7f526f6f6d20697320616c7265616479206f6363757069656400000000000000005f82015250565b5f611551601883610aef565b915061155c8261151d565b602082019050919050565b5f6020820190508181035f83015261157e81611545565b9050919050565b7f426f6f6b696e672063616e63656c6c65643a204e6f7420656e6f7567682065745f8201527f6865722070726f76696465640000000000000000000000000000000000000000602082015250565b5f6115df602c83610aef565b91506115ea82611585565b604082019050919050565b5f6020820190508181035f83015261160c816115d3565b9050919050565b7f5472616e73616374696f6e204661696c656400000000000000000000000000005f82015250565b5f611647601283610aef565b915061165282611613565b602082019050919050565b5f6020820190508181035f8301526116748161163b565b9050919050565b5f60608201905061168e5f830186610b55565b61169b6020830185610b55565b81810360408301526116ad8184610c1f565b905094935050505056fea2646970667358221220c69d208b9f75448f73ef3d15280c5994db653d2102691bdc78994b8ce11d7aa464736f6c634300081a0033",
					"opcodes": "PUSH1 0x80 PUSH1 0x40 MSTORE CALLVALUE DUP1 ISZERO PUSH1 0xE JUMPI PUSH0 DUP1 REVERT JUMPDEST POP CALLER PUSH0 DUP1 PUSH2 0x100 EXP DUP2 SLOAD DUP2 PUSH20 0xFFFFFFFFFFFFFFFFFFFFFFFFFFFFFFFFFFFFFFFF MUL NOT AND SWAP1 DUP4 PUSH20 0xFFFFFFFFFFFFFFFFFFFFFFFFFFFFFFFFFFFFFFFF AND MUL OR SWAP1 SSTORE POP PUSH2 0x16ED DUP1 PUSH2 0x5B PUSH0 CODECOPY PUSH0 RETURN INVALID PUSH1 0x80 PUSH1 0x40 MSTORE PUSH1 0x4 CALLDATASIZE LT PUSH2 0x54 JUMPI PUSH0 CALLDATALOAD PUSH1 0xE0 SHR DUP1 PUSH4 0x1BAE0AC8 EQ PUSH2 0x58 JUMPI DUP1 PUSH4 0x481C6A75 EQ PUSH2 0x97 JUMPI DUP1 PUSH4 0x4BDE3AB1 EQ PUSH2 0xC1 JUMPI DUP1 PUSH4 0x68742DA6 EQ PUSH2 0xE9 JUMPI DUP1 PUSH4 0x8DA5CB5B EQ PUSH2 0x111 JUMPI DUP1 PUSH4 0x99C383BE EQ PUSH2 0x13B JUMPI JUMPDEST PUSH0 DUP1 REVERT JUMPDEST CALLVALUE DUP1 ISZERO PUSH2 0x63 JUMPI PUSH0 DUP1 REVERT JUMPDEST POP PUSH2 0x7E PUSH1 0x4 DUP1 CALLDATASIZE SUB DUP2 ADD SWAP1 PUSH2 0x79 SWAP2 SWAP1 PUSH2 0xABA JUMP JUMPDEST PUSH2 0x157 JUMP JUMPDEST PUSH1 0x40 MLOAD PUSH2 0x8E SWAP5 SWAP4 SWAP3 SWAP2 SWAP1 PUSH2 0xC60 JUMP JUMPDEST PUSH1 0x40 MLOAD DUP1 SWAP2 SUB SWAP1 RETURN JUMPDEST CALLVALUE DUP1 ISZERO PUSH2 0xA2 JUMPI PUSH0 DUP1 REVERT JUMPDEST POP PUSH2 0xAB PUSH2 0x34D JUMP JUMPDEST PUSH1 0x40 MLOAD PUSH2 0xB8 SWAP2 SWAP1 PUSH2 0xCF0 JUMP JUMPDEST PUSH1 0x40 MLOAD DUP1 SWAP2 SUB SWAP1 RETURN JUMPDEST CALLVALUE DUP1 ISZERO PUSH2 0xCC JUMPI PUSH0 DUP1 REVERT JUMPDEST POP PUSH2 0xE7 PUSH1 0x4 DUP1 CALLDATASIZE SUB DUP2 ADD SWAP1 PUSH2 0xE2 SWAP2 SWAP1 PUSH2 0xE35 JUMP JUMPDEST PUSH2 0x372 JUMP JUMPDEST STOP JUMPDEST CALLVALUE DUP1 ISZERO PUSH2 0xF4 JUMPI PUSH0 DUP1 REVERT JUMPDEST POP PUSH2 0x10F PUSH1 0x4 DUP1 CALLDATASIZE SUB DUP2 ADD SWAP1 PUSH2 0x10A SWAP2 SWAP1 PUSH2 0xECA JUMP JUMPDEST PUSH2 0x54D JUMP JUMPDEST STOP JUMPDEST CALLVALUE DUP1 ISZERO PUSH2 0x11C JUMPI PUSH0 DUP1 REVERT JUMPDEST POP PUSH2 0x125 PUSH2 0x789 JUMP JUMPDEST PUSH1 0x40 MLOAD PUSH2 0x132 SWAP2 SWAP1 PUSH2 0xF04 JUMP JUMPDEST PUSH1 0x40 MLOAD DUP1 SWAP2 SUB SWAP1 RETURN JUMPDEST PUSH2 0x155 PUSH1 0x4 DUP1 CALLDATASIZE SUB DUP2 ADD SWAP1 PUSH2 0x150 SWAP2 SWAP1 PUSH2 0xF1D JUMP JUMPDEST PUSH2 0x7AC JUMP JUMPDEST STOP JUMPDEST PUSH1 0x2 DUP2 DUP2 SLOAD DUP2 LT PUSH2 0x166 JUMPI PUSH0 DUP1 REVERT JUMPDEST SWAP1 PUSH0 MSTORE PUSH1 0x20 PUSH0 KECCAK256 SWAP1 PUSH1 0x5 MUL ADD PUSH0 SWAP2 POP SWAP1 POP DUP1 PUSH0 ADD DUP1 SLOAD PUSH2 0x185 SWAP1 PUSH2 0xFD2 JUMP JUMPDEST DUP1 PUSH1 0x1F ADD PUSH1 0x20 DUP1 SWAP2 DIV MUL PUSH1 0x20 ADD PUSH1 0x40 MLOAD SWAP1 DUP2 ADD PUSH1 0x40 MSTORE DUP1 SWAP3 SWAP2 SWAP1 DUP2 DUP2 MSTORE PUSH1 0x20 ADD DUP3 DUP1 SLOAD PUSH2 0x1B1 SWAP1 PUSH2 0xFD2 JUMP JUMPDEST DUP1 ISZERO PUSH2 0x1FC JUMPI DUP1 PUSH1 0x1F LT PUSH2 0x1D3 JUMPI PUSH2 0x100 DUP1 DUP4 SLOAD DIV MUL DUP4 MSTORE SWAP2 PUSH1 0x20 ADD SWAP2 PUSH2 0x1FC JUMP JUMPDEST DUP3 ADD SWAP2 SWAP1 PUSH0 MSTORE PUSH1 0x20 PUSH0 KECCAK256 SWAP1 JUMPDEST DUP2 SLOAD DUP2 MSTORE SWAP1 PUSH1 0x1 ADD SWAP1 PUSH1 0x20 ADD DUP1 DUP4 GT PUSH2 0x1DF JUMPI DUP3 SWAP1 SUB PUSH1 0x1F AND DUP3 ADD SWAP2 JUMPDEST POP POP POP POP POP SWAP1 DUP1 PUSH1 0x1 ADD SLOAD SWAP1 DUP1 PUSH1 0x2 ADD PUSH0 SWAP1 SLOAD SWAP1 PUSH2 0x100 EXP SWAP1 DIV PUSH1 0xFF AND SWAP1 DUP1 PUSH1 0x3 ADD PUSH1 0x40 MLOAD DUP1 PUSH1 0x40 ADD PUSH1 0x40 MSTORE SWAP1 DUP2 PUSH0 DUP3 ADD DUP1 SLOAD PUSH2 0x238 SWAP1 PUSH2 0xFD2 JUMP JUMPDEST DUP1 PUSH1 0x1F ADD PUSH1 0x20 DUP1 SWAP2 DIV MUL PUSH1 0x20 ADD PUSH1 0x40 MLOAD SWAP1 DUP2 ADD PUSH1 0x40 MSTORE DUP1 SWAP3 SWAP2 SWAP1 DUP2 DUP2 MSTORE PUSH1 0x20 ADD DUP3 DUP1 SLOAD PUSH2 0x264 SWAP1 PUSH2 0xFD2 JUMP JUMPDEST DUP1 ISZERO PUSH2 0x2AF JUMPI DUP1 PUSH1 0x1F LT PUSH2 0x286 JUMPI PUSH2 0x100 DUP1 DUP4 SLOAD DIV MUL DUP4 MSTORE SWAP2 PUSH1 0x20 ADD SWAP2 PUSH2 0x2AF JUMP JUMPDEST DUP3 ADD SWAP2 SWAP1 PUSH0 MSTORE PUSH1 0x20 PUSH0 KECCAK256 SWAP1 JUMPDEST DUP2 SLOAD DUP2 MSTORE SWAP1 PUSH1 0x1 ADD SWAP1 PUSH1 0x20 ADD DUP1 DUP4 GT PUSH2 0x292 JUMPI DUP3 SWAP1 SUB PUSH1 0x1F AND DUP3 ADD SWAP2 JUMPDEST POP POP POP POP POP DUP2 MSTORE PUSH1 0x20 ADD PUSH1 0x1 DUP3 ADD DUP1 SLOAD PUSH2 0x2C8 SWAP1 PUSH2 0xFD2 JUMP JUMPDEST DUP1 PUSH1 0x1F ADD PUSH1 0x20 DUP1 SWAP2 DIV MUL PUSH1 0x20 ADD PUSH1 0x40 MLOAD SWAP1 DUP2 ADD PUSH1 0x40 MSTORE DUP1 SWAP3 SWAP2 SWAP1 DUP2 DUP2 MSTORE PUSH1 0x20 ADD DUP3 DUP1 SLOAD PUSH2 0x2F4 SWAP1 PUSH2 0xFD2 JUMP JUMPDEST DUP1 ISZERO PUSH2 0x33F JUMPI DUP1 PUSH1 0x1F LT PUSH2 0x316 JUMPI PUSH2 0x100 DUP1 DUP4 SLOAD DIV MUL DUP4 MSTORE SWAP2 PUSH1 0x20 ADD SWAP2 PUSH2 0x33F JUMP JUMPDEST DUP3 ADD SWAP2 SWAP1 PUSH0 MSTORE PUSH1 0x20 PUSH0 KECCAK256 SWAP1 JUMPDEST DUP2 SLOAD DUP2 MSTORE SWAP1 PUSH1 0x1 ADD SWAP1 PUSH1 0x20 ADD DUP1 DUP4 GT PUSH2 0x322 JUMPI DUP3 SWAP1 SUB PUSH1 0x1F AND DUP3 ADD SWAP2 JUMPDEST POP POP POP POP POP DUP2 MSTORE POP POP SWAP1 POP DUP5 JUMP JUMPDEST PUSH1 0x1 PUSH0 SWAP1 SLOAD SWAP1 PUSH2 0x100 EXP SWAP1 DIV PUSH20 0xFFFFFFFFFFFFFFFFFFFFFFFFFFFFFFFFFFFFFFFF AND DUP2 JUMP JUMPDEST PUSH0 DUP1 SLOAD SWAP1 PUSH2 0x100 EXP SWAP1 DIV PUSH20 0xFFFFFFFFFFFFFFFFFFFFFFFFFFFFFFFFFFFFFFFF AND PUSH20 0xFFFFFFFFFFFFFFFFFFFFFFFFFFFFFFFFFFFFFFFF AND CALLER PUSH20 0xFFFFFFFFFFFFFFFFFFFFFFFFFFFFFFFFFFFFFFFF AND EQ PUSH2 0x3FF JUMPI PUSH1 0x40 MLOAD PUSH32 0x8C379A000000000000000000000000000000000000000000000000000000000 DUP2 MSTORE PUSH1 0x4 ADD PUSH2 0x3F6 SWAP1 PUSH2 0x1072 JUMP JUMPDEST PUSH1 0x40 MLOAD DUP1 SWAP2 SUB SWAP1 REVERT JUMPDEST PUSH1 0x2 PUSH1 0x40 MLOAD DUP1 PUSH1 0x80 ADD PUSH1 0x40 MSTORE DUP1 DUP5 DUP2 MSTORE PUSH1 0x20 ADD DUP4 DUP2 MSTORE PUSH1 0x20 ADD PUSH0 PUSH1 0x1 DUP2 GT ISZERO PUSH2 0x42B JUMPI PUSH2 0x42A PUSH2 0xB64 JUMP JUMPDEST JUMPDEST DUP2 MSTORE PUSH1 0x20 ADD PUSH1 0x40 MLOAD DUP1 PUSH1 0x40 ADD PUSH1 0x40 MSTORE DUP1 PUSH1 0x40 MLOAD DUP1 PUSH1 0x20 ADD PUSH1 0x40 MSTORE DUP1 PUSH0 DUP2 MSTORE POP DUP2 MSTORE PUSH1 0x20 ADD PUSH1 0x40 MLOAD DUP1 PUSH1 0x20 ADD PUSH1 0x40 MSTORE DUP1 PUSH0 DUP2 MSTORE POP DUP2 MSTORE POP DUP2 MSTORE POP SWAP1 DUP1 PUSH1 0x1 DUP2 SLOAD ADD DUP1 DUP3 SSTORE DUP1 SWAP2 POP POP PUSH1 0x1 SWAP1 SUB SWAP1 PUSH0 MSTORE PUSH1 0x20 PUSH0 KECCAK256 SWAP1 PUSH1 0x5 MUL ADD PUSH0 SWAP1 SWAP2 SWAP1 SWAP2 SWAP1 SWAP2 POP PUSH0 DUP3 ADD MLOAD DUP2 PUSH0 ADD SWAP1 DUP2 PUSH2 0x49D SWAP2 SWAP1 PUSH2 0x122D JUMP JUMPDEST POP PUSH1 0x20 DUP3 ADD MLOAD DUP2 PUSH1 0x1 ADD SSTORE PUSH1 0x40 DUP3 ADD MLOAD DUP2 PUSH1 0x2 ADD PUSH0 PUSH2 0x100 EXP DUP2 SLOAD DUP2 PUSH1 0xFF MUL NOT AND SWAP1 DUP4 PUSH1 0x1 DUP2 GT ISZERO PUSH2 0x4D2 JUMPI PUSH2 0x4D1 PUSH2 0xB64 JUMP JUMPDEST JUMPDEST MUL OR SWAP1 SSTORE POP PUSH1 0x60 DUP3 ADD MLOAD DUP2 PUSH1 0x3 ADD PUSH0 DUP3 ADD MLOAD DUP2 PUSH0 ADD SWAP1 DUP2 PUSH2 0x4F3 SWAP2 SWAP1 PUSH2 0x122D JUMP JUMPDEST POP PUSH1 0x20 DUP3 ADD MLOAD DUP2 PUSH1 0x1 ADD SWAP1 DUP2 PUSH2 0x509 SWAP2 SWAP1 PUSH2 0x122D JUMP JUMPDEST POP POP POP POP POP PUSH32 0x608A4B9B1EDDB2B48FB3C62A5E7F36D625B58F5FF3A1F8CC78259E69E2CF067E DUP3 DUP3 PUSH0 PUSH1 0x40 MLOAD PUSH2 0x541 SWAP4 SWAP3 SWAP2 SWAP1 PUSH2 0x12FC JUMP JUMPDEST PUSH1 0x40 MLOAD DUP1 SWAP2 SUB SWAP1 LOG1 POP POP JUMP JUMPDEST PUSH0 DUP1 SLOAD SWAP1 PUSH2 0x100 EXP SWAP1 DIV PUSH20 0xFFFFFFFFFFFFFFFFFFFFFFFFFFFFFFFFFFFFFFFF AND PUSH20 0xFFFFFFFFFFFFFFFFFFFFFFFFFFFFFFFFFFFFFFFF AND CALLER PUSH20 0xFFFFFFFFFFFFFFFFFFFFFFFFFFFFFFFFFFFFFFFF AND EQ PUSH2 0x5DA JUMPI PUSH1 0x40 MLOAD PUSH32 0x8C379A000000000000000000000000000000000000000000000000000000000 DUP2 MSTORE PUSH1 0x4 ADD PUSH2 0x5D1 SWAP1 PUSH2 0x1072 JUMP JUMPDEST PUSH1 0x40 MLOAD DUP1 SWAP2 SUB SWAP1 REVERT JUMPDEST PUSH0 SELFBALANCE SWAP1 POP PUSH0 DUP2 GT PUSH2 0x620 JUMPI PUSH1 0x40 MLOAD PUSH32 0x8C379A000000000000000000000000000000000000000000000000000000000 DUP2 MSTORE PUSH1 0x4 ADD PUSH2 0x617 SWAP1 PUSH2 0x1382 JUMP JUMPDEST PUSH1 0x40 MLOAD DUP1 SWAP2 SUB SWAP1 REVERT JUMPDEST PUSH0 PUSH20 0xFFFFFFFFFFFFFFFFFFFFFFFFFFFFFFFFFFFFFFFF AND DUP3 PUSH20 0xFFFFFFFFFFFFFFFFFFFFFFFFFFFFFFFFFFFFFFFF AND SUB PUSH2 0x68E JUMPI PUSH1 0x40 MLOAD PUSH32 0x8C379A000000000000000000000000000000000000000000000000000000000 DUP2 MSTORE PUSH1 0x4 ADD PUSH2 0x685 SWAP1 PUSH2 0x1410 JUMP JUMPDEST PUSH1 0x40 MLOAD DUP1 SWAP2 SUB SWAP1 REVERT JUMPDEST PUSH0 DUP3 PUSH20 0xFFFFFFFFFFFFFFFFFFFFFFFFFFFFFFFFFFFFFFFF AND DUP3 PUSH1 0x40 MLOAD PUSH2 0x6B3 SWAP1 PUSH2 0x145B JUMP JUMPDEST PUSH0 PUSH1 0x40 MLOAD DUP1 DUP4 SUB DUP2 DUP6 DUP8 GAS CALL SWAP3 POP POP POP RETURNDATASIZE DUP1 PUSH0 DUP2 EQ PUSH2 0x6ED JUMPI PUSH1 0x40 MLOAD SWAP2 POP PUSH1 0x1F NOT PUSH1 0x3F RETURNDATASIZE ADD AND DUP3 ADD PUSH1 0x40 MSTORE RETURNDATASIZE DUP3 MSTORE RETURNDATASIZE PUSH0 PUSH1 0x20 DUP5 ADD RETURNDATACOPY PUSH2 0x6F2 JUMP JUMPDEST PUSH1 0x60 SWAP2 POP JUMPDEST POP POP SWAP1 POP DUP1 PUSH2 0x736 JUMPI PUSH1 0x40 MLOAD PUSH32 0x8C379A000000000000000000000000000000000000000000000000000000000 DUP2 MSTORE PUSH1 0x4 ADD PUSH2 0x72D SWAP1 PUSH2 0x14B9 JUMP JUMPDEST PUSH1 0x40 MLOAD DUP1 SWAP2 SUB SWAP1 REVERT JUMPDEST DUP3 PUSH20 0xFFFFFFFFFFFFFFFFFFFFFFFFFFFFFFFFFFFFFFFF AND PUSH32 0xEAFF4B37086828766AD3268786972C0CD24259D4C87A80F9D3963A3C3D999B0D DUP4 PUSH1 0x40 MLOAD PUSH2 0x77C SWAP2 SWAP1 PUSH2 0x14D7 JUMP JUMPDEST PUSH1 0x40 MLOAD DUP1 SWAP2 SUB SWAP1 LOG2 POP POP POP JUMP JUMPDEST PUSH0 DUP1 SLOAD SWAP1 PUSH2 0x100 EXP SWAP1 DIV PUSH20 0xFFFFFFFFFFFFFFFFFFFFFFFFFFFFFFFFFFFFFFFF AND DUP2 JUMP JUMPDEST DUP3 PUSH0 PUSH1 0x1 DUP2 GT ISZERO PUSH2 0x7C0 JUMPI PUSH2 0x7BF PUSH2 0xB64 JUMP JUMPDEST JUMPDEST PUSH1 0x2 DUP3 DUP2 SLOAD DUP2 LT PUSH2 0x7D4 JUMPI PUSH2 0x7D3 PUSH2 0x14F0 JUMP JUMPDEST JUMPDEST SWAP1 PUSH0 MSTORE PUSH1 0x20 PUSH0 KECCAK256 SWAP1 PUSH1 0x5 MUL ADD PUSH1 0x2 ADD PUSH0 SWAP1 SLOAD SWAP1 PUSH2 0x100 EXP SWAP1 DIV PUSH1 0xFF AND PUSH1 0x1 DUP2 GT ISZERO PUSH2 0x802 JUMPI PUSH2 0x801 PUSH2 0xB64 JUMP JUMPDEST JUMPDEST EQ PUSH2 0x842 JUMPI PUSH1 0x40 MLOAD PUSH32 0x8C379A000000000000000000000000000000000000000000000000000000000 DUP2 MSTORE PUSH1 0x4 ADD PUSH2 0x839 SWAP1 PUSH2 0x1567 JUMP JUMPDEST PUSH1 0x40 MLOAD DUP1 SWAP2 SUB SWAP1 REVERT JUMPDEST CALLVALUE PUSH1 0x2 DUP6 DUP2 SLOAD DUP2 LT PUSH2 0x857 JUMPI PUSH2 0x856 PUSH2 0x14F0 JUMP JUMPDEST JUMPDEST SWAP1 PUSH0 MSTORE PUSH1 0x20 PUSH0 KECCAK256 SWAP1 PUSH1 0x5 MUL ADD PUSH1 0x1 ADD SLOAD GT ISZERO PUSH2 0x8A8 JUMPI PUSH1 0x40 MLOAD PUSH32 0x8C379A000000000000000000000000000000000000000000000000000000000 DUP2 MSTORE PUSH1 0x4 ADD PUSH2 0x89F SWAP1 PUSH2 0x15F5 JUMP JUMPDEST PUSH1 0x40 MLOAD DUP1 SWAP2 SUB SWAP1 REVERT JUMPDEST PUSH0 DUP1 PUSH0 SWAP1 SLOAD SWAP1 PUSH2 0x100 EXP SWAP1 DIV PUSH20 0xFFFFFFFFFFFFFFFFFFFFFFFFFFFFFFFFFFFFFFFF AND PUSH20 0xFFFFFFFFFFFFFFFFFFFFFFFFFFFFFFFFFFFFFFFF AND CALLVALUE PUSH1 0x40 MLOAD PUSH2 0x8ED SWAP1 PUSH2 0x145B JUMP JUMPDEST PUSH0 PUSH1 0x40 MLOAD DUP1 DUP4 SUB DUP2 DUP6 DUP8 GAS CALL SWAP3 POP POP POP RETURNDATASIZE DUP1 PUSH0 DUP2 EQ PUSH2 0x927 JUMPI PUSH1 0x40 MLOAD SWAP2 POP PUSH1 0x1F NOT PUSH1 0x3F RETURNDATASIZE ADD AND DUP3 ADD PUSH1 0x40 MSTORE RETURNDATASIZE DUP3 MSTORE RETURNDATASIZE PUSH0 PUSH1 0x20 DUP5 ADD RETURNDATACOPY PUSH2 0x92C JUMP JUMPDEST PUSH1 0x60 SWAP2 POP JUMPDEST POP POP SWAP1 POP DUP1 PUSH2 0x970 JUMPI PUSH1 0x40 MLOAD PUSH32 0x8C379A000000000000000000000000000000000000000000000000000000000 DUP2 MSTORE PUSH1 0x4 ADD PUSH2 0x967 SWAP1 PUSH2 0x165D JUMP JUMPDEST PUSH1 0x40 MLOAD DUP1 SWAP2 SUB SWAP1 REVERT JUMPDEST PUSH1 0x1 PUSH1 0x2 DUP7 DUP2 SLOAD DUP2 LT PUSH2 0x986 JUMPI PUSH2 0x985 PUSH2 0x14F0 JUMP JUMPDEST JUMPDEST SWAP1 PUSH0 MSTORE PUSH1 0x20 PUSH0 KECCAK256 SWAP1 PUSH1 0x5 MUL ADD PUSH1 0x2 ADD PUSH0 PUSH2 0x100 EXP DUP2 SLOAD DUP2 PUSH1 0xFF MUL NOT AND SWAP1 DUP4 PUSH1 0x1 DUP2 GT ISZERO PUSH2 0x9B6 JUMPI PUSH2 0x9B5 PUSH2 0xB64 JUMP JUMPDEST JUMPDEST MUL OR SWAP1 SSTORE POP PUSH1 0x40 MLOAD DUP1 PUSH1 0x40 ADD PUSH1 0x40 MSTORE DUP1 DUP6 DUP2 MSTORE PUSH1 0x20 ADD DUP5 DUP2 MSTORE POP PUSH1 0x2 DUP7 DUP2 SLOAD DUP2 LT PUSH2 0x9E4 JUMPI PUSH2 0x9E3 PUSH2 0x14F0 JUMP JUMPDEST JUMPDEST SWAP1 PUSH0 MSTORE PUSH1 0x20 PUSH0 KECCAK256 SWAP1 PUSH1 0x5 MUL ADD PUSH1 0x3 ADD PUSH0 DUP3 ADD MLOAD DUP2 PUSH0 ADD SWAP1 DUP2 PUSH2 0xA06 SWAP2 SWAP1 PUSH2 0x122D JUMP JUMPDEST POP PUSH1 0x20 DUP3 ADD MLOAD DUP2 PUSH1 0x1 ADD SWAP1 DUP2 PUSH2 0xA1C SWAP2 SWAP1 PUSH2 0x122D JUMP JUMPDEST POP SWAP1 POP POP PUSH32 0x1B81702F4E481593CE2EB45AED48D5B8D2B5110BC3F95FAF6089617AF8656550 DUP6 CALLVALUE PUSH1 0x40 MLOAD DUP1 PUSH1 0x40 ADD PUSH1 0x40 MSTORE DUP1 DUP9 DUP2 MSTORE PUSH1 0x20 ADD DUP8 DUP2 MSTORE POP PUSH1 0x40 MLOAD PUSH2 0xA67 SWAP4 SWAP3 SWAP2 SWAP1 PUSH2 0x167B JUMP JUMPDEST PUSH1 0x40 MLOAD DUP1 SWAP2 SUB SWAP1 LOG1 POP POP POP POP POP JUMP JUMPDEST PUSH0 PUSH1 0x40 MLOAD SWAP1 POP SWAP1 JUMP JUMPDEST PUSH0 DUP1 REVERT JUMPDEST PUSH0 DUP1 REVERT JUMPDEST PUSH0 DUP2 SWAP1 POP SWAP2 SWAP1 POP JUMP JUMPDEST PUSH2 0xA99 DUP2 PUSH2 0xA87 JUMP JUMPDEST DUP2 EQ PUSH2 0xAA3 JUMPI PUSH0 DUP1 REVERT JUMPDEST POP JUMP JUMPDEST PUSH0 DUP2 CALLDATALOAD SWAP1 POP PUSH2 0xAB4 DUP2 PUSH2 0xA90 JUMP JUMPDEST SWAP3 SWAP2 POP POP JUMP JUMPDEST PUSH0 PUSH1 0x20 DUP3 DUP5 SUB SLT ISZERO PUSH2 0xACF JUMPI PUSH2 0xACE PUSH2 0xA7F JUMP JUMPDEST JUMPDEST PUSH0 PUSH2 0xADC DUP5 DUP3 DUP6 ADD PUSH2 0xAA6 JUMP JUMPDEST SWAP2 POP POP SWAP3 SWAP2 POP POP JUMP JUMPDEST PUSH0 DUP2 MLOAD SWAP1 POP SWAP2 SWAP1 POP JUMP JUMPDEST PUSH0 DUP3 DUP3 MSTORE PUSH1 0x20 DUP3 ADD SWAP1 POP SWAP3 SWAP2 POP POP JUMP JUMPDEST DUP3 DUP2 DUP4 MCOPY PUSH0 DUP4 DUP4 ADD MSTORE POP POP POP JUMP JUMPDEST PUSH0 PUSH1 0x1F NOT PUSH1 0x1F DUP4 ADD AND SWAP1 POP SWAP2 SWAP1 POP JUMP JUMPDEST PUSH0 PUSH2 0xB27 DUP3 PUSH2 0xAE5 JUMP JUMPDEST PUSH2 0xB31 DUP2 DUP6 PUSH2 0xAEF JUMP JUMPDEST SWAP4 POP PUSH2 0xB41 DUP2 DUP6 PUSH1 0x20 DUP7 ADD PUSH2 0xAFF JUMP JUMPDEST PUSH2 0xB4A DUP2 PUSH2 0xB0D JUMP JUMPDEST DUP5 ADD SWAP2 POP POP SWAP3 SWAP2 POP POP JUMP JUMPDEST PUSH2 0xB5E DUP2 PUSH2 0xA87 JUMP JUMPDEST DUP3 MSTORE POP POP JUMP JUMPDEST PUSH32 0x4E487B7100000000000000000000000000000000000000000000000000000000 PUSH0 MSTORE PUSH1 0x21 PUSH1 0x4 MSTORE PUSH1 0x24 PUSH0 REVERT JUMPDEST PUSH1 0x2 DUP2 LT PUSH2 0xBA2 JUMPI PUSH2 0xBA1 PUSH2 0xB64 JUMP JUMPDEST JUMPDEST POP JUMP JUMPDEST PUSH0 DUP2 SWAP1 POP PUSH2 0xBB2 DUP3 PUSH2 0xB91 JUMP JUMPDEST SWAP2 SWAP1 POP JUMP JUMPDEST PUSH0 PUSH2 0xBC1 DUP3 PUSH2 0xBA5 JUMP JUMPDEST SWAP1 POP SWAP2 SWAP1 POP JUMP JUMPDEST PUSH2 0xBD1 DUP2 PUSH2 0xBB7 JUMP JUMPDEST DUP3 MSTORE POP POP JUMP JUMPDEST PUSH0 DUP3 DUP3 MSTORE PUSH1 0x20 DUP3 ADD SWAP1 POP SWAP3 SWAP2 POP POP JUMP JUMPDEST PUSH0 PUSH2 0xBF1 DUP3 PUSH2 0xAE5 JUMP JUMPDEST PUSH2 0xBFB DUP2 DUP6 PUSH2 0xBD7 JUMP JUMPDEST SWAP4 POP PUSH2 0xC0B DUP2 DUP6 PUSH1 0x20 DUP7 ADD PUSH2 0xAFF JUMP JUMPDEST PUSH2 0xC14 DUP2 PUSH2 0xB0D JUMP JUMPDEST DUP5 ADD SWAP2 POP POP SWAP3 SWAP2 POP POP JUMP JUMPDEST PUSH0 PUSH1 0x40 DUP4 ADD PUSH0 DUP4 ADD MLOAD DUP5 DUP3 SUB PUSH0 DUP7 ADD MSTORE PUSH2 0xC39 DUP3 DUP3 PUSH2 0xBE7 JUMP JUMPDEST SWAP2 POP POP PUSH1 0x20 DUP4 ADD MLOAD DUP5 DUP3 SUB PUSH1 0x20 DUP7 ADD MSTORE PUSH2 0xC53 DUP3 DUP3 PUSH2 0xBE7 JUMP JUMPDEST SWAP2 POP POP DUP1 SWAP2 POP POP SWAP3 SWAP2 POP POP JUMP JUMPDEST PUSH0 PUSH1 0x80 DUP3 ADD SWAP1 POP DUP2 DUP2 SUB PUSH0 DUP4 ADD MSTORE PUSH2 0xC78 DUP2 DUP8 PUSH2 0xB1D JUMP JUMPDEST SWAP1 POP PUSH2 0xC87 PUSH1 0x20 DUP4 ADD DUP7 PUSH2 0xB55 JUMP JUMPDEST PUSH2 0xC94 PUSH1 0x40 DUP4 ADD DUP6 PUSH2 0xBC8 JUMP JUMPDEST DUP2 DUP2 SUB PUSH1 0x60 DUP4 ADD MSTORE PUSH2 0xCA6 DUP2 DUP5 PUSH2 0xC1F JUMP JUMPDEST SWAP1 POP SWAP6 SWAP5 POP POP POP POP POP JUMP JUMPDEST PUSH0 PUSH20 0xFFFFFFFFFFFFFFFFFFFFFFFFFFFFFFFFFFFFFFFF DUP3 AND SWAP1 POP SWAP2 SWAP1 POP JUMP JUMPDEST PUSH0 PUSH2 0xCDA DUP3 PUSH2 0xCB1 JUMP JUMPDEST SWAP1 POP SWAP2 SWAP1 POP JUMP JUMPDEST PUSH2 0xCEA DUP2 PUSH2 0xCD0 JUMP JUMPDEST DUP3 MSTORE POP POP JUMP JUMPDEST PUSH0 PUSH1 0x20 DUP3 ADD SWAP1 POP PUSH2 0xD03 PUSH0 DUP4 ADD DUP5 PUSH2 0xCE1 JUMP JUMPDEST SWAP3 SWAP2 POP POP JUMP JUMPDEST PUSH0 DUP1 REVERT JUMPDEST PUSH0 DUP1 REVERT JUMPDEST PUSH32 0x4E487B7100000000000000000000000000000000000000000000000000000000 PUSH0 MSTORE PUSH1 0x41 PUSH1 0x4 MSTORE PUSH1 0x24 PUSH0 REVERT JUMPDEST PUSH2 0xD47 DUP3 PUSH2 0xB0D JUMP JUMPDEST DUP2 ADD DUP2 DUP2 LT PUSH8 0xFFFFFFFFFFFFFFFF DUP3 GT OR ISZERO PUSH2 0xD66 JUMPI PUSH2 0xD65 PUSH2 0xD11 JUMP JUMPDEST JUMPDEST DUP1 PUSH1 0x40 MSTORE POP POP POP JUMP JUMPDEST PUSH0 PUSH2 0xD78 PUSH2 0xA76 JUMP JUMPDEST SWAP1 POP PUSH2 0xD84 DUP3 DUP3 PUSH2 0xD3E JUMP JUMPDEST SWAP2 SWAP1 POP JUMP JUMPDEST PUSH0 PUSH8 0xFFFFFFFFFFFFFFFF DUP3 GT ISZERO PUSH2 0xDA3 JUMPI PUSH2 0xDA2 PUSH2 0xD11 JUMP JUMPDEST JUMPDEST PUSH2 0xDAC DUP3 PUSH2 0xB0D JUMP JUMPDEST SWAP1 POP PUSH1 0x20 DUP2 ADD SWAP1 POP SWAP2 SWAP1 POP JUMP JUMPDEST DUP3 DUP2 DUP4 CALLDATACOPY PUSH0 DUP4 DUP4 ADD MSTORE POP POP POP JUMP JUMPDEST PUSH0 PUSH2 0xDD9 PUSH2 0xDD4 DUP5 PUSH2 0xD89 JUMP JUMPDEST PUSH2 0xD6F JUMP JUMPDEST SWAP1 POP DUP3 DUP2 MSTORE PUSH1 0x20 DUP2 ADD DUP5 DUP5 DUP5 ADD GT ISZERO PUSH2 0xDF5 JUMPI PUSH2 0xDF4 PUSH2 0xD0D JUMP JUMPDEST JUMPDEST PUSH2 0xE00 DUP5 DUP3 DUP6 PUSH2 0xDB9 JUMP JUMPDEST POP SWAP4 SWAP3 POP POP POP JUMP JUMPDEST PUSH0 DUP3 PUSH1 0x1F DUP4 ADD SLT PUSH2 0xE1C JUMPI PUSH2 0xE1B PUSH2 0xD09 JUMP JUMPDEST JUMPDEST DUP2 CALLDATALOAD PUSH2 0xE2C DUP5 DUP3 PUSH1 0x20 DUP7 ADD PUSH2 0xDC7 JUMP JUMPDEST SWAP2 POP POP SWAP3 SWAP2 POP POP JUMP JUMPDEST PUSH0 DUP1 PUSH1 0x40 DUP4 DUP6 SUB SLT ISZERO PUSH2 0xE4B JUMPI PUSH2 0xE4A PUSH2 0xA7F JUMP JUMPDEST JUMPDEST PUSH0 DUP4 ADD CALLDATALOAD PUSH8 0xFFFFFFFFFFFFFFFF DUP2 GT ISZERO PUSH2 0xE68 JUMPI PUSH2 0xE67 PUSH2 0xA83 JUMP JUMPDEST JUMPDEST PUSH2 0xE74 DUP6 DUP3 DUP7 ADD PUSH2 0xE08 JUMP JUMPDEST SWAP3 POP POP PUSH1 0x20 PUSH2 0xE85 DUP6 DUP3 DUP7 ADD PUSH2 0xAA6 JUMP JUMPDEST SWAP2 POP POP SWAP3 POP SWAP3 SWAP1 POP JUMP JUMPDEST PUSH0 PUSH2 0xE99 DUP3 PUSH2 0xCB1 JUMP JUMPDEST SWAP1 POP SWAP2 SWAP1 POP JUMP JUMPDEST PUSH2 0xEA9 DUP2 PUSH2 0xE8F JUMP JUMPDEST DUP2 EQ PUSH2 0xEB3 JUMPI PUSH0 DUP1 REVERT JUMPDEST POP JUMP JUMPDEST PUSH0 DUP2 CALLDATALOAD SWAP1 POP PUSH2 0xEC4 DUP2 PUSH2 0xEA0 JUMP JUMPDEST SWAP3 SWAP2 POP POP JUMP JUMPDEST PUSH0 PUSH1 0x20 DUP3 DUP5 SUB SLT ISZERO PUSH2 0xEDF JUMPI PUSH2 0xEDE PUSH2 0xA7F JUMP JUMPDEST JUMPDEST PUSH0 PUSH2 0xEEC DUP5 DUP3 DUP6 ADD PUSH2 0xEB6 JUMP JUMPDEST SWAP2 POP POP SWAP3 SWAP2 POP POP JUMP JUMPDEST PUSH2 0xEFE DUP2 PUSH2 0xE8F JUMP JUMPDEST DUP3 MSTORE POP POP JUMP JUMPDEST PUSH0 PUSH1 0x20 DUP3 ADD SWAP1 POP PUSH2 0xF17 PUSH0 DUP4 ADD DUP5 PUSH2 0xEF5 JUMP JUMPDEST SWAP3 SWAP2 POP POP JUMP JUMPDEST PUSH0 DUP1 PUSH0 PUSH1 0x60 DUP5 DUP7 SUB SLT ISZERO PUSH2 0xF34 JUMPI PUSH2 0xF33 PUSH2 0xA7F JUMP JUMPDEST JUMPDEST PUSH0 PUSH2 0xF41 DUP7 DUP3 DUP8 ADD PUSH2 0xAA6 JUMP JUMPDEST SWAP4 POP POP PUSH1 0x20 DUP5 ADD CALLDATALOAD PUSH8 0xFFFFFFFFFFFFFFFF DUP2 GT ISZERO PUSH2 0xF62 JUMPI PUSH2 0xF61 PUSH2 0xA83 JUMP JUMPDEST JUMPDEST PUSH2 0xF6E DUP7 DUP3 DUP8 ADD PUSH2 0xE08 JUMP JUMPDEST SWAP3 POP POP PUSH1 0x40 DUP5 ADD CALLDATALOAD PUSH8 0xFFFFFFFFFFFFFFFF DUP2 GT ISZERO PUSH2 0xF8F JUMPI PUSH2 0xF8E PUSH2 0xA83 JUMP JUMPDEST JUMPDEST PUSH2 0xF9B DUP7 DUP3 DUP8 ADD PUSH2 0xE08 JUMP JUMPDEST SWAP2 POP POP SWAP3 POP SWAP3 POP SWAP3 JUMP JUMPDEST PUSH32 0x4E487B7100000000000000000000000000000000000000000000000000000000 PUSH0 MSTORE PUSH1 0x22 PUSH1 0x4 MSTORE PUSH1 0x24 PUSH0 REVERT JUMPDEST PUSH0 PUSH1 0x2 DUP3 DIV SWAP1 POP PUSH1 0x1 DUP3 AND DUP1 PUSH2 0xFE9 JUMPI PUSH1 0x7F DUP3 AND SWAP2 POP JUMPDEST PUSH1 0x20 DUP3 LT DUP2 SUB PUSH2 0xFFC JUMPI PUSH2 0xFFB PUSH2 0xFA5 JUMP JUMPDEST JUMPDEST POP SWAP2 SWAP1 POP JUMP JUMPDEST PUSH32 0x596F75206D75737420626520746865206F776E657220746F20706572666F726D PUSH0 DUP3 ADD MSTORE PUSH32 0x207468697320616374696F6E0000000000000000000000000000000000000000 PUSH1 0x20 DUP3 ADD MSTORE POP JUMP JUMPDEST PUSH0 PUSH2 0x105C PUSH1 0x2C DUP4 PUSH2 0xAEF JUMP JUMPDEST SWAP2 POP PUSH2 0x1067 DUP3 PUSH2 0x1002 JUMP JUMPDEST PUSH1 0x40 DUP3 ADD SWAP1 POP SWAP2 SWAP1 POP JUMP JUMPDEST PUSH0 PUSH1 0x20 DUP3 ADD SWAP1 POP DUP2 DUP2 SUB PUSH0 DUP4 ADD MSTORE PUSH2 0x1089 DUP2 PUSH2 0x1050 JUMP JUMPDEST SWAP1 POP SWAP2 SWAP1 POP JUMP JUMPDEST PUSH0 DUP2 SWAP1 POP DUP2 PUSH0 MSTORE PUSH1 0x20 PUSH0 KECCAK256 SWAP1 POP SWAP2 SWAP1 POP JUMP JUMPDEST PUSH0 PUSH1 0x20 PUSH1 0x1F DUP4 ADD DIV SWAP1 POP SWAP2 SWAP1 POP JUMP JUMPDEST PUSH0 DUP3 DUP3 SHL SWAP1 POP SWAP3 SWAP2 POP POP JUMP JUMPDEST PUSH0 PUSH1 0x8 DUP4 MUL PUSH2 0x10EC PUSH32 0xFFFFFFFFFFFFFFFFFFFFFFFFFFFFFFFFFFFFFFFFFFFFFFFFFFFFFFFFFFFFFFFF DUP3 PUSH2 0x10B1 JUMP JUMPDEST PUSH2 0x10F6 DUP7 DUP4 PUSH2 0x10B1 JUMP JUMPDEST SWAP6 POP DUP1 NOT DUP5 AND SWAP4 POP DUP1 DUP7 AND DUP5 OR SWAP3 POP POP POP SWAP4 SWAP3 POP POP POP JUMP JUMPDEST PUSH0 DUP2 SWAP1 POP SWAP2 SWAP1 POP JUMP JUMPDEST PUSH0 PUSH2 0x1131 PUSH2 0x112C PUSH2 0x1127 DUP5 PUSH2 0xA87 JUMP JUMPDEST PUSH2 0x110E JUMP JUMPDEST PUSH2 0xA87 JUMP JUMPDEST SWAP1 POP SWAP2 SWAP1 POP JUMP JUMPDEST PUSH0 DUP2 SWAP1 POP SWAP2 SWAP1 POP JUMP JUMPDEST PUSH2 0x114A DUP4 PUSH2 0x1117 JUMP JUMPDEST PUSH2 0x115E PUSH2 0x1156 DUP3 PUSH2 0x1138 JUMP JUMPDEST DUP5 DUP5 SLOAD PUSH2 0x10BD JUMP JUMPDEST DUP3 SSTORE POP POP POP POP JUMP JUMPDEST PUSH0 SWAP1 JUMP JUMPDEST PUSH2 0x1172 PUSH2 0x1166 JUMP JUMPDEST PUSH2 0x117D DUP2 DUP5 DUP5 PUSH2 0x1141 JUMP JUMPDEST POP POP POP JUMP JUMPDEST JUMPDEST DUP2 DUP2 LT ISZERO PUSH2 0x11A0 JUMPI PUSH2 0x1195 PUSH0 DUP3 PUSH2 0x116A JUMP JUMPDEST PUSH1 0x1 DUP2 ADD SWAP1 POP PUSH2 0x1183 JUMP JUMPDEST POP POP JUMP JUMPDEST PUSH1 0x1F DUP3 GT ISZERO PUSH2 0x11E5 JUMPI PUSH2 0x11B6 DUP2 PUSH2 0x1090 JUMP JUMPDEST PUSH2 0x11BF DUP5 PUSH2 0x10A2 JUMP JUMPDEST DUP2 ADD PUSH1 0x20 DUP6 LT ISZERO PUSH2 0x11CE JUMPI DUP2 SWAP1 POP JUMPDEST PUSH2 0x11E2 PUSH2 0x11DA DUP6 PUSH2 0x10A2 JUMP JUMPDEST DUP4 ADD DUP3 PUSH2 0x1182 JUMP JUMPDEST POP POP JUMPDEST POP POP POP JUMP JUMPDEST PUSH0 DUP3 DUP3 SHR SWAP1 POP SWAP3 SWAP2 POP POP JUMP JUMPDEST PUSH0 PUSH2 0x1205 PUSH0 NOT DUP5 PUSH1 0x8 MUL PUSH2 0x11EA JUMP JUMPDEST NOT DUP1 DUP4 AND SWAP2 POP POP SWAP3 SWAP2 POP POP JUMP JUMPDEST PUSH0 PUSH2 0x121D DUP4 DUP4 PUSH2 0x11F6 JUMP JUMPDEST SWAP2 POP DUP3 PUSH1 0x2 MUL DUP3 OR SWAP1 POP SWAP3 SWAP2 POP POP JUMP JUMPDEST PUSH2 0x1236 DUP3 PUSH2 0xAE5 JUMP JUMPDEST PUSH8 0xFFFFFFFFFFFFFFFF DUP2 GT ISZERO PUSH2 0x124F JUMPI PUSH2 0x124E PUSH2 0xD11 JUMP JUMPDEST JUMPDEST PUSH2 0x1259 DUP3 SLOAD PUSH2 0xFD2 JUMP JUMPDEST PUSH2 0x1264 DUP3 DUP3 DUP6 PUSH2 0x11A4 JUMP JUMPDEST PUSH0 PUSH1 0x20 SWAP1 POP PUSH1 0x1F DUP4 GT PUSH1 0x1 DUP2 EQ PUSH2 0x1295 JUMPI PUSH0 DUP5 ISZERO PUSH2 0x1283 JUMPI DUP3 DUP8 ADD MLOAD SWAP1 POP JUMPDEST PUSH2 0x128D DUP6 DUP3 PUSH2 0x1212 JUMP JUMPDEST DUP7 SSTORE POP PUSH2 0x12F4 JUMP JUMPDEST PUSH1 0x1F NOT DUP5 AND PUSH2 0x12A3 DUP7 PUSH2 0x1090 JUMP JUMPDEST PUSH0 JUMPDEST DUP3 DUP2 LT ISZERO PUSH2 0x12CA JUMPI DUP5 DUP10 ADD MLOAD DUP3 SSTORE PUSH1 0x1 DUP3 ADD SWAP2 POP PUSH1 0x20 DUP6 ADD SWAP5 POP PUSH1 0x20 DUP2 ADD SWAP1 POP PUSH2 0x12A5 JUMP JUMPDEST DUP7 DUP4 LT ISZERO PUSH2 0x12E7 JUMPI DUP5 DUP10 ADD MLOAD PUSH2 0x12E3 PUSH1 0x1F DUP10 AND DUP3 PUSH2 0x11F6 JUMP JUMPDEST DUP4 SSTORE POP JUMPDEST PUSH1 0x1 PUSH1 0x2 DUP9 MUL ADD DUP9 SSTORE POP POP POP JUMPDEST POP POP POP POP POP POP JUMP JUMPDEST PUSH0 PUSH1 0x60 DUP3 ADD SWAP1 POP DUP2 DUP2 SUB PUSH0 DUP4 ADD MSTORE PUSH2 0x1314 DUP2 DUP7 PUSH2 0xB1D JUMP JUMPDEST SWAP1 POP PUSH2 0x1323 PUSH1 0x20 DUP4 ADD DUP6 PUSH2 0xB55 JUMP JUMPDEST PUSH2 0x1330 PUSH1 0x40 DUP4 ADD DUP5 PUSH2 0xBC8 JUMP JUMPDEST SWAP5 SWAP4 POP POP POP POP JUMP JUMPDEST PUSH32 0x4E6F2066756E647320746F207769746864726177000000000000000000000000 PUSH0 DUP3 ADD MSTORE POP JUMP JUMPDEST PUSH0 PUSH2 0x136C PUSH1 0x14 DUP4 PUSH2 0xAEF JUMP JUMPDEST SWAP2 POP PUSH2 0x1377 DUP3 PUSH2 0x1338 JUMP JUMPDEST PUSH1 0x20 DUP3 ADD SWAP1 POP SWAP2 SWAP1 POP JUMP JUMPDEST PUSH0 PUSH1 0x20 DUP3 ADD SWAP1 POP DUP2 DUP2 SUB PUSH0 DUP4 ADD MSTORE PUSH2 0x1399 DUP2 PUSH2 0x1360 JUMP JUMPDEST SWAP1 POP SWAP2 SWAP1 POP JUMP JUMPDEST PUSH32 0x43616E6E6F7420776974686472617720746F20746865207A65726F2061646472 PUSH0 DUP3 ADD MSTORE PUSH32 0x6573730000000000000000000000000000000000000000000000000000000000 PUSH1 0x20 DUP3 ADD MSTORE POP JUMP JUMPDEST PUSH0 PUSH2 0x13FA PUSH1 0x23 DUP4 PUSH2 0xAEF JUMP JUMPDEST SWAP2 POP PUSH2 0x1405 DUP3 PUSH2 0x13A0 JUMP JUMPDEST PUSH1 0x40 DUP3 ADD SWAP1 POP SWAP2 SWAP1 POP JUMP JUMPDEST PUSH0 PUSH1 0x20 DUP3 ADD SWAP1 POP DUP2 DUP2 SUB PUSH0 DUP4 ADD MSTORE PUSH2 0x1427 DUP2 PUSH2 0x13EE JUMP JUMPDEST SWAP1 POP SWAP2 SWAP1 POP JUMP JUMPDEST PUSH0 DUP2 SWAP1 POP SWAP3 SWAP2 POP POP JUMP JUMPDEST POP JUMP JUMPDEST PUSH0 PUSH2 0x1446 PUSH0 DUP4 PUSH2 0x142E JUMP JUMPDEST SWAP2 POP PUSH2 0x1451 DUP3 PUSH2 0x1438 JUMP JUMPDEST PUSH0 DUP3 ADD SWAP1 POP SWAP2 SWAP1 POP JUMP JUMPDEST PUSH0 PUSH2 0x1465 DUP3 PUSH2 0x143B JUMP JUMPDEST SWAP2 POP DUP2 SWAP1 POP SWAP2 SWAP1 POP JUMP JUMPDEST PUSH32 0x4661696C656420746F2077697468647261772066756E64730000000000000000 PUSH0 DUP3 ADD MSTORE POP JUMP JUMPDEST PUSH0 PUSH2 0x14A3 PUSH1 0x18 DUP4 PUSH2 0xAEF JUMP JUMPDEST SWAP2 POP PUSH2 0x14AE DUP3 PUSH2 0x146F JUMP JUMPDEST PUSH1 0x20 DUP3 ADD SWAP1 POP SWAP2 SWAP1 POP JUMP JUMPDEST PUSH0 PUSH1 0x20 DUP3 ADD SWAP1 POP DUP2 DUP2 SUB PUSH0 DUP4 ADD MSTORE PUSH2 0x14D0 DUP2 PUSH2 0x1497 JUMP JUMPDEST SWAP1 POP SWAP2 SWAP1 POP JUMP JUMPDEST PUSH0 PUSH1 0x20 DUP3 ADD SWAP1 POP PUSH2 0x14EA PUSH0 DUP4 ADD DUP5 PUSH2 0xB55 JUMP JUMPDEST SWAP3 SWAP2 POP POP JUMP JUMPDEST PUSH32 0x4E487B7100000000000000000000000000000000000000000000000000000000 PUSH0 MSTORE PUSH1 0x32 PUSH1 0x4 MSTORE PUSH1 0x24 PUSH0 REVERT JUMPDEST PUSH32 0x526F6F6D20697320616C7265616479206F636375706965640000000000000000 PUSH0 DUP3 ADD MSTORE POP JUMP JUMPDEST PUSH0 PUSH2 0x1551 PUSH1 0x18 DUP4 PUSH2 0xAEF JUMP JUMPDEST SWAP2 POP PUSH2 0x155C DUP3 PUSH2 0x151D JUMP JUMPDEST PUSH1 0x20 DUP3 ADD SWAP1 POP SWAP2 SWAP1 POP JUMP JUMPDEST PUSH0 PUSH1 0x20 DUP3 ADD SWAP1 POP DUP2 DUP2 SUB PUSH0 DUP4 ADD MSTORE PUSH2 0x157E DUP2 PUSH2 0x1545 JUMP JUMPDEST SWAP1 POP SWAP2 SWAP1 POP JUMP JUMPDEST PUSH32 0x426F6F6B696E672063616E63656C6C65643A204E6F7420656E6F756768206574 PUSH0 DUP3 ADD MSTORE PUSH32 0x6865722070726F76696465640000000000000000000000000000000000000000 PUSH1 0x20 DUP3 ADD MSTORE POP JUMP JUMPDEST PUSH0 PUSH2 0x15DF PUSH1 0x2C DUP4 PUSH2 0xAEF JUMP JUMPDEST SWAP2 POP PUSH2 0x15EA DUP3 PUSH2 0x1585 JUMP JUMPDEST PUSH1 0x40 DUP3 ADD SWAP1 POP SWAP2 SWAP1 POP JUMP JUMPDEST PUSH0 PUSH1 0x20 DUP3 ADD SWAP1 POP DUP2 DUP2 SUB PUSH0 DUP4 ADD MSTORE PUSH2 0x160C DUP2 PUSH2 0x15D3 JUMP JUMPDEST SWAP1 POP SWAP2 SWAP1 POP JUMP JUMPDEST PUSH32 0x5472616E73616374696F6E204661696C65640000000000000000000000000000 PUSH0 DUP3 ADD MSTORE POP JUMP JUMPDEST PUSH0 PUSH2 0x1647 PUSH1 0x12 DUP4 PUSH2 0xAEF JUMP JUMPDEST SWAP2 POP PUSH2 0x1652 DUP3 PUSH2 0x1613 JUMP JUMPDEST PUSH1 0x20 DUP3 ADD SWAP1 POP SWAP2 SWAP1 POP JUMP JUMPDEST PUSH0 PUSH1 0x20 DUP3 ADD SWAP1 POP DUP2 DUP2 SUB PUSH0 DUP4 ADD MSTORE PUSH2 0x1674 DUP2 PUSH2 0x163B JUMP JUMPDEST SWAP1 POP SWAP2 SWAP1 POP JUMP JUMPDEST PUSH0 PUSH1 0x60 DUP3 ADD SWAP1 POP PUSH2 0x168E PUSH0 DUP4 ADD DUP7 PUSH2 0xB55 JUMP JUMPDEST PUSH2 0x169B PUSH1 0x20 DUP4 ADD DUP6 PUSH2 0xB55 JUMP JUMPDEST DUP2 DUP2 SUB PUSH1 0x40 DUP4 ADD MSTORE PUSH2 0x16AD DUP2 DUP5 PUSH2 0xC1F JUMP JUMPDEST SWAP1 POP SWAP5 SWAP4 POP POP POP POP JUMP INVALID LOG2 PUSH5 0x6970667358 0x22 SLT KECCAK256 0xC6 SWAP14 KECCAK256 DUP12 SWAP16 PUSH22 0x448F73EF3D15280C5994DB653D2102691BDC78994B8C 0xE1 SAR PUSH27 0xA464736F6C634300081A0033000000000000000000000000000000 "
				},
				"gasEstimates": {
					"creation": {
						"codeDepositCost": "1173800",
						"executionCost": "25484",
						"totalCost": "1199284"
					},
					"external": {
						"addRoom(string,uint256)": "infinite",
						"bookRoom(uint256,string,string)": "infinite",
						"manager()": "2508",
						"owner()": "2571",
						"rooms(uint256)": "infinite",
						"withdrawFunds(address)": "infinite"
					}
				},
				"methodIdentifiers": {
					"addRoom(string,uint256)": "4bde3ab1",
					"bookRoom(uint256,string,string)": "99c383be",
					"manager()": "481c6a75",
					"owner()": "8da5cb5b",
					"rooms(uint256)": "1bae0ac8",
					"withdrawFunds(address)": "68742da6"
				}
			},
			"storageLayout": {
				"storage": [
					{
						"astId": 3,
						"contract": "contracts/HotelRoom.sol:HotelRoom",
						"label": "owner",
						"offset": 0,
						"slot": "0",
						"type": "t_address_payable"
					},
					{
						"astId": 5,
						"contract": "contracts/HotelRoom.sol:HotelRoom",
						"label": "manager",
						"offset": 0,
						"slot": "1",
						"type": "t_address"
					},
					{
						"astId": 81,
						"contract": "contracts/HotelRoom.sol:HotelRoom",
						"label": "rooms",
						"offset": 0,
						"slot": "2",
						"type": "t_array(t_struct(Room)24_storage)dyn_storage"
					}
				],
				"types": {
					"t_address": {
						"encoding": "inplace",
						"label": "address",
						"numberOfBytes": "20"
					},
					"t_address_payable": {
						"encoding": "inplace",
						"label": "address payable",
						"numberOfBytes": "20"
					},
					"t_array(t_struct(Room)24_storage)dyn_storage": {
						"base": "t_struct(Room)24_storage",
						"encoding": "dynamic_array",
						"label": "struct HotelRoom.Room[]",
						"numberOfBytes": "32"
					},
					"t_enum(roomStatus)8": {
						"encoding": "inplace",
						"label": "enum HotelRoom.roomStatus",
						"numberOfBytes": "1"
					},
					"t_string_storage": {
						"encoding": "bytes",
						"label": "string",
						"numberOfBytes": "32"
					},
					"t_struct(Guest)13_storage": {
						"encoding": "inplace",
						"label": "struct HotelRoom.Guest",
						"members": [
							{
								"astId": 10,
								"contract": "contracts/HotelRoom.sol:HotelRoom",
								"label": "name",
								"offset": 0,
								"slot": "0",
								"type": "t_string_storage"
							},
							{
								"astId": 12,
								"contract": "contracts/HotelRoom.sol:HotelRoom",
								"label": "email",
								"offset": 0,
								"slot": "1",
								"type": "t_string_storage"
							}
						],
						"numberOfBytes": "64"
					},
					"t_struct(Room)24_storage": {
						"encoding": "inplace",
						"label": "struct HotelRoom.Room",
						"members": [
							{
								"astId": 15,
								"contract": "contracts/HotelRoom.sol:HotelRoom",
								"label": "details",
								"offset": 0,
								"slot": "0",
								"type": "t_string_storage"
							},
							{
								"astId": 17,
								"contract": "contracts/HotelRoom.sol:HotelRoom",
								"label": "price",
								"offset": 0,
								"slot": "1",
								"type": "t_uint256"
							},
							{
								"astId": 20,
								"contract": "contracts/HotelRoom.sol:HotelRoom",
								"label": "status",
								"offset": 0,
								"slot": "2",
								"type": "t_enum(roomStatus)8"
							},
							{
								"astId": 23,
								"contract": "contracts/HotelRoom.sol:HotelRoom",
								"label": "guest",
								"offset": 0,
								"slot": "3",
								"type": "t_struct(Guest)13_storage"
							}
						],
						"numberOfBytes": "160"
					},
					"t_uint256": {
						"encoding": "inplace",
						"label": "uint256",
						"numberOfBytes": "32"
					}
				}
			},
			"userdoc": {
				"kind": "user",
				"methods": {},
				"version": 1
			}
		}
	}
}