{
	"contracts/BooksLibrary.sol": {
		"BooksLibrary": {
			"abi": [
				{
					"anonymous": false,
					"inputs": [
						{
							"indexed": true,
							"internalType": "uint256",
							"name": "_index",
							"type": "uint256"
						},
						{
							"indexed": false,
							"internalType": "string",
							"name": "_author",
							"type": "string"
						},
						{
							"indexed": false,
							"internalType": "string",
							"name": "_title",
							"type": "string"
						}
					],
					"name": "bookAdded",
					"type": "event"
				},
				{
					"anonymous": false,
					"inputs": [
						{
							"indexed": true,
							"internalType": "address",
							"name": "user",
							"type": "address"
						},
						{
							"indexed": true,
							"internalType": "uint256",
							"name": "_id",
							"type": "uint256"
						},
						{
							"indexed": false,
							"internalType": "string",
							"name": "author",
							"type": "string"
						},
						{
							"indexed": false,
							"internalType": "string",
							"name": "title",
							"type": "string"
						}
					],
					"name": "myBookAdded",
					"type": "event"
				},
				{
					"inputs": [
						{
							"internalType": "uint256",
							"name": "_index",
							"type": "uint256"
						},
						{
							"internalType": "string",
							"name": "_author",
							"type": "string"
						},
						{
							"internalType": "string",
							"name": "_title",
							"type": "string"
						}
					],
					"name": "addBook",
					"outputs": [],
					"stateMutability": "nonpayable",
					"type": "function"
				},
				{
					"inputs": [
						{
							"internalType": "uint256",
							"name": "_id",
							"type": "uint256"
						},
						{
							"internalType": "string",
							"name": "_author",
							"type": "string"
						},
						{
							"internalType": "string",
							"name": "_title",
							"type": "string"
						}
					],
					"name": "addMyBook",
					"outputs": [],
					"stateMutability": "nonpayable",
					"type": "function"
				},
				{
					"inputs": [
						{
							"internalType": "uint256",
							"name": "",
							"type": "uint256"
						}
					],
					"name": "books",
					"outputs": [
						{
							"internalType": "string",
							"name": "author",
							"type": "string"
						},
						{
							"internalType": "string",
							"name": "title",
							"type": "string"
						}
					],
					"stateMutability": "view",
					"type": "function"
				},
				{
					"inputs": [
						{
							"internalType": "uint256[]",
							"name": "_ids",
							"type": "uint256[]"
						}
					],
					"name": "getMyBooks",
					"outputs": [
						{
							"components": [
								{
									"internalType": "string",
									"name": "author",
									"type": "string"
								},
								{
									"internalType": "string",
									"name": "title",
									"type": "string"
								}
							],
							"internalType": "struct BooksLibrary.Book[]",
							"name": "",
							"type": "tuple[]"
						}
					],
					"stateMutability": "view",
					"type": "function"
				},
				{
					"inputs": [],
					"name": "getMybooksCount",
					"outputs": [
						{
							"internalType": "uint256",
							"name": "",
							"type": "uint256"
						}
					],
					"stateMutability": "view",
					"type": "function"
				}
			],
			"devdoc": {
				"kind": "dev",
				"methods": {},
				"version": 1
			},
			"evm": {
				"assembly": "    /* \"contracts/BooksLibrary.sol\":57:1820  contract BooksLibrary {... */\n  mstore(0x40, 0x80)\n  callvalue\n  dup1\n  iszero\n  tag_1\n  jumpi\n  0x00\n  dup1\n  revert\ntag_1:\n  pop\n  dataSize(sub_0)\n  dup1\n  dataOffset(sub_0)\n  0x00\n  codecopy\n  0x00\n  return\nstop\n\nsub_0: assembly {\n        /* \"contracts/BooksLibrary.sol\":57:1820  contract BooksLibrary {... */\n      mstore(0x40, 0x80)\n      callvalue\n      dup1\n      iszero\n      tag_1\n      jumpi\n      0x00\n      dup1\n      revert\n    tag_1:\n      pop\n      jumpi(tag_2, lt(calldatasize, 0x04))\n      shr(0xe0, calldataload(0x00))\n      dup1\n      0x028414f2\n      eq\n      tag_3\n      jumpi\n      dup1\n      0x242d79e3\n      eq\n      tag_4\n      jumpi\n      dup1\n      0x398f3ce4\n      eq\n      tag_5\n      jumpi\n      dup1\n      0x493ec707\n      eq\n      tag_6\n      jumpi\n      dup1\n      0x68744046\n      eq\n      tag_7\n      jumpi\n    tag_2:\n      0x00\n      dup1\n      revert\n        /* \"contracts/BooksLibrary.sol\":577:885  function addBook(... */\n    tag_3:\n      tag_8\n      0x04\n      dup1\n      calldatasize\n      sub\n      dup2\n      add\n      swap1\n      tag_9\n      swap2\n      swap1\n      tag_10\n      jump\t// in\n    tag_9:\n      tag_11\n      jump\t// in\n    tag_8:\n      stop\n        /* \"contracts/BooksLibrary.sol\":466:571  function getMybooksCount() public view returns (uint256) {... */\n    tag_4:\n      tag_12\n      tag_13\n      jump\t// in\n    tag_12:\n      mload(0x40)\n      tag_14\n      swap2\n      swap1\n      tag_15\n      jump\t// in\n    tag_14:\n      mload(0x40)\n      dup1\n      swap2\n      sub\n      swap1\n      return\n        /* \"contracts/BooksLibrary.sol\":1224:1818  function getMyBooks(uint256[] memory _ids)... */\n    tag_5:\n      tag_16\n      0x04\n      dup1\n      calldatasize\n      sub\n      dup2\n      add\n      swap1\n      tag_17\n      swap2\n      swap1\n      tag_18\n      jump\t// in\n    tag_17:\n      tag_19\n      jump\t// in\n    tag_16:\n      mload(0x40)\n      tag_20\n      swap2\n      swap1\n      tag_21\n      jump\t// in\n    tag_20:\n      mload(0x40)\n      dup1\n      swap2\n      sub\n      swap1\n      return\n        /* \"contracts/BooksLibrary.sol\":891:1218  function addMyBook(... */\n    tag_6:\n      tag_22\n      0x04\n      dup1\n      calldatasize\n      sub\n      dup2\n      add\n      swap1\n      tag_23\n      swap2\n      swap1\n      tag_10\n      jump\t// in\n    tag_23:\n      tag_24\n      jump\t// in\n    tag_22:\n      stop\n        /* \"contracts/BooksLibrary.sol\":85:122  mapping(uint256 => Book) public books */\n    tag_7:\n      tag_25\n      0x04\n      dup1\n      calldatasize\n      sub\n      dup2\n      add\n      swap1\n      tag_26\n      swap2\n      swap1\n      tag_27\n      jump\t// in\n    tag_26:\n      tag_28\n      jump\t// in\n    tag_25:\n      mload(0x40)\n      tag_29\n      swap3\n      swap2\n      swap1\n      tag_30\n      jump\t// in\n    tag_29:\n      mload(0x40)\n      dup1\n      swap2\n      sub\n      swap1\n      return\n        /* \"contracts/BooksLibrary.sol\":577:885  function addBook(... */\n    tag_11:\n        /* \"contracts/BooksLibrary.sol\":745:746  0 */\n      0x00\n        /* \"contracts/BooksLibrary.sol\":716:721  books */\n      dup1\n        /* \"contracts/BooksLibrary.sol\":716:729  books[_index] */\n      0x00\n        /* \"contracts/BooksLibrary.sol\":722:728  _index */\n      dup6\n        /* \"contracts/BooksLibrary.sol\":716:729  books[_index] */\n      dup2\n      mstore\n      0x20\n      add\n      swap1\n      dup2\n      mstore\n      0x20\n      add\n      0x00\n      keccak256\n        /* \"contracts/BooksLibrary.sol\":716:735  books[_index].title */\n      0x01\n      add\n        /* \"contracts/BooksLibrary.sol\":710:743  bytes(books[_index].title).length */\n      dup1\n      sload\n      tag_32\n      swap1\n      tag_33\n      jump\t// in\n    tag_32:\n      swap1\n      pop\n        /* \"contracts/BooksLibrary.sol\":710:746  bytes(books[_index].title).length==0 */\n      eq\n        /* \"contracts/BooksLibrary.sol\":702:782  require(bytes(books[_index].title).length==0,\"Book already exist at this index\") */\n      tag_34\n      jumpi\n      mload(0x40)\n      0x08c379a000000000000000000000000000000000000000000000000000000000\n      dup2\n      mstore\n      0x04\n      add\n      tag_35\n      swap1\n      tag_36\n      jump\t// in\n    tag_35:\n      mload(0x40)\n      dup1\n      swap2\n      sub\n      swap1\n      revert\n    tag_34:\n        /* \"contracts/BooksLibrary.sol\":808:829  Book(_author, _title) */\n      mload(0x40)\n      dup1\n      0x40\n      add\n      0x40\n      mstore\n      dup1\n        /* \"contracts/BooksLibrary.sol\":813:820  _author */\n      dup4\n        /* \"contracts/BooksLibrary.sol\":808:829  Book(_author, _title) */\n      dup2\n      mstore\n      0x20\n      add\n        /* \"contracts/BooksLibrary.sol\":822:828  _title */\n      dup3\n        /* \"contracts/BooksLibrary.sol\":808:829  Book(_author, _title) */\n      dup2\n      mstore\n      pop\n        /* \"contracts/BooksLibrary.sol\":792:797  books */\n      0x00\n        /* \"contracts/BooksLibrary.sol\":792:805  books[_index] */\n      dup1\n        /* \"contracts/BooksLibrary.sol\":798:804  _index */\n      dup6\n        /* \"contracts/BooksLibrary.sol\":792:805  books[_index] */\n      dup2\n      mstore\n      0x20\n      add\n      swap1\n      dup2\n      mstore\n      0x20\n      add\n      0x00\n      keccak256\n        /* \"contracts/BooksLibrary.sol\":792:829  books[_index] = Book(_author, _title) */\n      0x00\n      dup3\n      add\n      mload\n      dup2\n      0x00\n      add\n      swap1\n      dup2\n      tag_37\n      swap2\n      swap1\n      tag_38\n      jump\t// in\n    tag_37:\n      pop\n      0x20\n      dup3\n      add\n      mload\n      dup2\n      0x01\n      add\n      swap1\n      dup2\n      tag_39\n      swap2\n      swap1\n      tag_38\n      jump\t// in\n    tag_39:\n      pop\n      swap1\n      pop\n      pop\n        /* \"contracts/BooksLibrary.sol\":854:860  _index */\n      dup3\n        /* \"contracts/BooksLibrary.sol\":844:878  bookAdded(_index, _author, _title) */\n      0x36899b40595334456eac37ba436643f558e1d5342018d7a5d05af21f752ac539\n        /* \"contracts/BooksLibrary.sol\":862:869  _author */\n      dup4\n        /* \"contracts/BooksLibrary.sol\":871:877  _title */\n      dup4\n        /* \"contracts/BooksLibrary.sol\":844:878  bookAdded(_index, _author, _title) */\n      mload(0x40)\n      tag_40\n      swap3\n      swap2\n      swap1\n      tag_30\n      jump\t// in\n    tag_40:\n      mload(0x40)\n      dup1\n      swap2\n      sub\n      swap1\n      log2\n        /* \"contracts/BooksLibrary.sol\":577:885  function addBook(... */\n      pop\n      pop\n      pop\n      jump\t// out\n        /* \"contracts/BooksLibrary.sol\":466:571  function getMybooksCount() public view returns (uint256) {... */\n    tag_13:\n        /* \"contracts/BooksLibrary.sol\":514:521  uint256 */\n      0x00\n        /* \"contracts/BooksLibrary.sol\":540:552  myBooksCount */\n      0x02\n        /* \"contracts/BooksLibrary.sol\":540:564  myBooksCount[msg.sender] */\n      0x00\n        /* \"contracts/BooksLibrary.sol\":553:563  msg.sender */\n      caller\n        /* \"contracts/BooksLibrary.sol\":540:564  myBooksCount[msg.sender] */\n      0xffffffffffffffffffffffffffffffffffffffff\n      and\n      0xffffffffffffffffffffffffffffffffffffffff\n      and\n      dup2\n      mstore\n      0x20\n      add\n      swap1\n      dup2\n      mstore\n      0x20\n      add\n      0x00\n      keccak256\n      sload\n        /* \"contracts/BooksLibrary.sol\":533:564  return myBooksCount[msg.sender] */\n      swap1\n      pop\n        /* \"contracts/BooksLibrary.sol\":466:571  function getMybooksCount() public view returns (uint256) {... */\n      swap1\n      jump\t// out\n        /* \"contracts/BooksLibrary.sol\":1224:1818  function getMyBooks(uint256[] memory _ids)... */\n    tag_19:\n        /* \"contracts/BooksLibrary.sol\":1312:1325  Book[] memory */\n      0x60\n        /* \"contracts/BooksLibrary.sol\":1361:1362  0 */\n      0x00\n        /* \"contracts/BooksLibrary.sol\":1349:1353  _ids */\n      dup3\n        /* \"contracts/BooksLibrary.sol\":1349:1360  _ids.length */\n      mload\n        /* \"contracts/BooksLibrary.sol\":1349:1362  _ids.length>0 */\n      gt\n        /* \"contracts/BooksLibrary.sol\":1341:1388  require(_ids.length>0,\"Please at least one ID\") */\n      tag_43\n      jumpi\n      mload(0x40)\n      0x08c379a000000000000000000000000000000000000000000000000000000000\n      dup2\n      mstore\n      0x04\n      add\n      tag_44\n      swap1\n      tag_45\n      jump\t// in\n    tag_44:\n      mload(0x40)\n      dup1\n      swap2\n      sub\n      swap1\n      revert\n    tag_43:\n        /* \"contracts/BooksLibrary.sol\":1444:1467  Book[] memory userBooks */\n      0x00\n        /* \"contracts/BooksLibrary.sol\":1481:1485  _ids */\n      dup3\n        /* \"contracts/BooksLibrary.sol\":1481:1492  _ids.length */\n      mload\n        /* \"contracts/BooksLibrary.sol\":1470:1493  new Book[](_ids.length) */\n      0xffffffffffffffff\n      dup2\n      gt\n      iszero\n      tag_46\n      jumpi\n      tag_47\n      tag_48\n      jump\t// in\n    tag_47:\n    tag_46:\n      mload(0x40)\n      swap1\n      dup1\n      dup3\n      mstore\n      dup1\n      0x20\n      mul\n      0x20\n      add\n      dup3\n      add\n      0x40\n      mstore\n      dup1\n      iszero\n      tag_49\n      jumpi\n      dup2\n      0x20\n      add\n    tag_50:\n      tag_51\n      tag_52\n      jump\t// in\n    tag_51:\n      dup2\n      mstore\n      0x20\n      add\n      swap1\n      0x01\n      swap1\n      sub\n      swap1\n      dup2\n      tag_50\n      jumpi\n      swap1\n      pop\n    tag_49:\n      pop\n        /* \"contracts/BooksLibrary.sol\":1444:1493  Book[] memory userBooks = new Book[](_ids.length) */\n      swap1\n      pop\n        /* \"contracts/BooksLibrary.sol\":1570:1579  uint256 i */\n      0x00\n        /* \"contracts/BooksLibrary.sol\":1565:1785  for (uint256 i = 0; i < _ids.length; i++) {... */\n    tag_53:\n        /* \"contracts/BooksLibrary.sol\":1589:1593  _ids */\n      dup4\n        /* \"contracts/BooksLibrary.sol\":1589:1600  _ids.length */\n      mload\n        /* \"contracts/BooksLibrary.sol\":1585:1586  i */\n      dup2\n        /* \"contracts/BooksLibrary.sol\":1585:1600  i < _ids.length */\n      lt\n        /* \"contracts/BooksLibrary.sol\":1565:1785  for (uint256 i = 0; i < _ids.length; i++) {... */\n      iszero\n      tag_54\n      jumpi\n        /* \"contracts/BooksLibrary.sol\":1681:1682  0 */\n      0x00\n        /* \"contracts/BooksLibrary.sol\":1635:1642  myBooks */\n      0x01\n        /* \"contracts/BooksLibrary.sol\":1635:1654  myBooks[msg.sender] */\n      0x00\n        /* \"contracts/BooksLibrary.sol\":1643:1653  msg.sender */\n      caller\n        /* \"contracts/BooksLibrary.sol\":1635:1654  myBooks[msg.sender] */\n      0xffffffffffffffffffffffffffffffffffffffff\n      and\n      0xffffffffffffffffffffffffffffffffffffffff\n      and\n      dup2\n      mstore\n      0x20\n      add\n      swap1\n      dup2\n      mstore\n      0x20\n      add\n      0x00\n      keccak256\n        /* \"contracts/BooksLibrary.sol\":1635:1663  myBooks[msg.sender][_ids[i]] */\n      0x00\n        /* \"contracts/BooksLibrary.sol\":1655:1659  _ids */\n      dup7\n        /* \"contracts/BooksLibrary.sol\":1660:1661  i */\n      dup5\n        /* \"contracts/BooksLibrary.sol\":1655:1662  _ids[i] */\n      dup2\n      mload\n      dup2\n      lt\n      tag_56\n      jumpi\n      tag_57\n      tag_58\n      jump\t// in\n    tag_57:\n    tag_56:\n      0x20\n      mul\n      0x20\n      add\n      add\n      mload\n        /* \"contracts/BooksLibrary.sol\":1635:1663  myBooks[msg.sender][_ids[i]] */\n      dup2\n      mstore\n      0x20\n      add\n      swap1\n      dup2\n      mstore\n      0x20\n      add\n      0x00\n      keccak256\n        /* \"contracts/BooksLibrary.sol\":1635:1669  myBooks[msg.sender][_ids[i]].title */\n      0x01\n      add\n        /* \"contracts/BooksLibrary.sol\":1629:1677  bytes(myBooks[msg.sender][_ids[i]].title).length */\n      dup1\n      sload\n      tag_59\n      swap1\n      tag_33\n      jump\t// in\n    tag_59:\n      swap1\n      pop\n        /* \"contracts/BooksLibrary.sol\":1629:1682  bytes(myBooks[msg.sender][_ids[i]].title).length != 0 */\n      sub\n        /* \"contracts/BooksLibrary.sol\":1621:1717  require(bytes(myBooks[msg.sender][_ids[i]].title).length != 0, \"Book does not exist at this ID\") */\n      tag_60\n      jumpi\n      mload(0x40)\n      0x08c379a000000000000000000000000000000000000000000000000000000000\n      dup2\n      mstore\n      0x04\n      add\n      tag_61\n      swap1\n      tag_62\n      jump\t// in\n    tag_61:\n      mload(0x40)\n      dup1\n      swap2\n      sub\n      swap1\n      revert\n    tag_60:\n        /* \"contracts/BooksLibrary.sol\":1746:1753  myBooks */\n      0x01\n        /* \"contracts/BooksLibrary.sol\":1746:1765  myBooks[msg.sender] */\n      0x00\n        /* \"contracts/BooksLibrary.sol\":1754:1764  msg.sender */\n      caller\n        /* \"contracts/BooksLibrary.sol\":1746:1765  myBooks[msg.sender] */\n      0xffffffffffffffffffffffffffffffffffffffff\n      and\n      0xffffffffffffffffffffffffffffffffffffffff\n      and\n      dup2\n      mstore\n      0x20\n      add\n      swap1\n      dup2\n      mstore\n      0x20\n      add\n      0x00\n      keccak256\n        /* \"contracts/BooksLibrary.sol\":1746:1774  myBooks[msg.sender][_ids[i]] */\n      0x00\n        /* \"contracts/BooksLibrary.sol\":1766:1770  _ids */\n      dup6\n        /* \"contracts/BooksLibrary.sol\":1771:1772  i */\n      dup4\n        /* \"contracts/BooksLibrary.sol\":1766:1773  _ids[i] */\n      dup2\n      mload\n      dup2\n      lt\n      tag_63\n      jumpi\n      tag_64\n      tag_58\n      jump\t// in\n    tag_64:\n    tag_63:\n      0x20\n      mul\n      0x20\n      add\n      add\n      mload\n        /* \"contracts/BooksLibrary.sol\":1746:1774  myBooks[msg.sender][_ids[i]] */\n      dup2\n      mstore\n      0x20\n      add\n      swap1\n      dup2\n      mstore\n      0x20\n      add\n      0x00\n      keccak256\n        /* \"contracts/BooksLibrary.sol\":1731:1774  userBooks[i] = myBooks[msg.sender][_ids[i]] */\n      mload(0x40)\n      dup1\n      0x40\n      add\n      0x40\n      mstore\n      swap1\n      dup2\n      0x00\n      dup3\n      add\n      dup1\n      sload\n      tag_65\n      swap1\n      tag_33\n      jump\t// in\n    tag_65:\n      dup1\n      0x1f\n      add\n      0x20\n      dup1\n      swap2\n      div\n      mul\n      0x20\n      add\n      mload(0x40)\n      swap1\n      dup2\n      add\n      0x40\n      mstore\n      dup1\n      swap3\n      swap2\n      swap1\n      dup2\n      dup2\n      mstore\n      0x20\n      add\n      dup3\n      dup1\n      sload\n      tag_66\n      swap1\n      tag_33\n      jump\t// in\n    tag_66:\n      dup1\n      iszero\n      tag_67\n      jumpi\n      dup1\n      0x1f\n      lt\n      tag_68\n      jumpi\n      0x0100\n      dup1\n      dup4\n      sload\n      div\n      mul\n      dup4\n      mstore\n      swap2\n      0x20\n      add\n      swap2\n      jump(tag_67)\n    tag_68:\n      dup3\n      add\n      swap2\n      swap1\n      0x00\n      mstore\n      keccak256(0x00, 0x20)\n      swap1\n    tag_69:\n      dup2\n      sload\n      dup2\n      mstore\n      swap1\n      0x01\n      add\n      swap1\n      0x20\n      add\n      dup1\n      dup4\n      gt\n      tag_69\n      jumpi\n      dup3\n      swap1\n      sub\n      0x1f\n      and\n      dup3\n      add\n      swap2\n    tag_67:\n      pop\n      pop\n      pop\n      pop\n      pop\n      dup2\n      mstore\n      0x20\n      add\n      0x01\n      dup3\n      add\n      dup1\n      sload\n      tag_70\n      swap1\n      tag_33\n      jump\t// in\n    tag_70:\n      dup1\n      0x1f\n      add\n      0x20\n      dup1\n      swap2\n      div\n      mul\n      0x20\n      add\n      mload(0x40)\n      swap1\n      dup2\n      add\n      0x40\n      mstore\n      dup1\n      swap3\n      swap2\n      swap1\n      dup2\n      dup2\n      mstore\n      0x20\n      add\n      dup3\n      dup1\n      sload\n      tag_71\n      swap1\n      tag_33\n      jump\t// in\n    tag_71:\n      dup1\n      iszero\n      tag_72\n      jumpi\n      dup1\n      0x1f\n      lt\n      tag_73\n      jumpi\n      0x0100\n      dup1\n      dup4\n      sload\n      div\n      mul\n      dup4\n      mstore\n      swap2\n      0x20\n      add\n      swap2\n      jump(tag_72)\n    tag_73:\n      dup3\n      add\n      swap2\n      swap1\n      0x00\n      mstore\n      keccak256(0x00, 0x20)\n      swap1\n    tag_74:\n      dup2\n      sload\n      dup2\n      mstore\n      swap1\n      0x01\n      add\n      swap1\n      0x20\n      add\n      dup1\n      dup4\n      gt\n      tag_74\n      jumpi\n      dup3\n      swap1\n      sub\n      0x1f\n      and\n      dup3\n      add\n      swap2\n    tag_72:\n      pop\n      pop\n      pop\n      pop\n      pop\n      dup2\n      mstore\n      pop\n      pop\n        /* \"contracts/BooksLibrary.sol\":1731:1740  userBooks */\n      dup3\n        /* \"contracts/BooksLibrary.sol\":1741:1742  i */\n      dup3\n        /* \"contracts/BooksLibrary.sol\":1731:1743  userBooks[i] */\n      dup2\n      mload\n      dup2\n      lt\n      tag_75\n      jumpi\n      tag_76\n      tag_58\n      jump\t// in\n    tag_76:\n    tag_75:\n      0x20\n      mul\n      0x20\n      add\n      add\n        /* \"contracts/BooksLibrary.sol\":1731:1774  userBooks[i] = myBooks[msg.sender][_ids[i]] */\n      dup2\n      swap1\n      mstore\n      pop\n        /* \"contracts/BooksLibrary.sol\":1602:1605  i++ */\n      dup1\n      dup1\n      0x01\n      add\n      swap2\n      pop\n      pop\n        /* \"contracts/BooksLibrary.sol\":1565:1785  for (uint256 i = 0; i < _ids.length; i++) {... */\n      jump(tag_53)\n    tag_54:\n      pop\n        /* \"contracts/BooksLibrary.sol\":1802:1811  userBooks */\n      dup1\n        /* \"contracts/BooksLibrary.sol\":1795:1811  return userBooks */\n      swap2\n      pop\n      pop\n        /* \"contracts/BooksLibrary.sol\":1224:1818  function getMyBooks(uint256[] memory _ids)... */\n      swap2\n      swap1\n      pop\n      jump\t// out\n        /* \"contracts/BooksLibrary.sol\":891:1218  function addMyBook(... */\n    tag_24:\n        /* \"contracts/BooksLibrary.sol\":1069:1070  0 */\n      0x00\n        /* \"contracts/BooksLibrary.sol\":1029:1036  myBooks */\n      0x01\n        /* \"contracts/BooksLibrary.sol\":1029:1048  myBooks[msg.sender] */\n      0x00\n        /* \"contracts/BooksLibrary.sol\":1037:1047  msg.sender */\n      caller\n        /* \"contracts/BooksLibrary.sol\":1029:1048  myBooks[msg.sender] */\n      0xffffffffffffffffffffffffffffffffffffffff\n      and\n      0xffffffffffffffffffffffffffffffffffffffff\n      and\n      dup2\n      mstore\n      0x20\n      add\n      swap1\n      dup2\n      mstore\n      0x20\n      add\n      0x00\n      keccak256\n        /* \"contracts/BooksLibrary.sol\":1029:1053  myBooks[msg.sender][_id] */\n      0x00\n        /* \"contracts/BooksLibrary.sol\":1049:1052  _id */\n      dup6\n        /* \"contracts/BooksLibrary.sol\":1029:1053  myBooks[msg.sender][_id] */\n      dup2\n      mstore\n      0x20\n      add\n      swap1\n      dup2\n      mstore\n      0x20\n      add\n      0x00\n      keccak256\n        /* \"contracts/BooksLibrary.sol\":1029:1059  myBooks[msg.sender][_id].title */\n      0x01\n      add\n        /* \"contracts/BooksLibrary.sol\":1023:1067  bytes(myBooks[msg.sender][_id].title).length */\n      dup1\n      sload\n      tag_78\n      swap1\n      tag_33\n      jump\t// in\n    tag_78:\n      swap1\n      pop\n        /* \"contracts/BooksLibrary.sol\":1023:1070  bytes(myBooks[msg.sender][_id].title).length==0 */\n      eq\n        /* \"contracts/BooksLibrary.sol\":1015:1117  require(bytes(myBooks[msg.sender][_id].title).length==0,\"Book already exists at this ID for the user\") */\n      tag_79\n      jumpi\n      mload(0x40)\n      0x08c379a000000000000000000000000000000000000000000000000000000000\n      dup2\n      mstore\n      0x04\n      add\n      tag_80\n      swap1\n      tag_81\n      jump\t// in\n    tag_80:\n      mload(0x40)\n      dup1\n      swap2\n      sub\n      swap1\n      revert\n    tag_79:\n        /* \"contracts/BooksLibrary.sol\":1154:1175  Book(_author, _title) */\n      mload(0x40)\n      dup1\n      0x40\n      add\n      0x40\n      mstore\n      dup1\n        /* \"contracts/BooksLibrary.sol\":1159:1166  _author */\n      dup4\n        /* \"contracts/BooksLibrary.sol\":1154:1175  Book(_author, _title) */\n      dup2\n      mstore\n      0x20\n      add\n        /* \"contracts/BooksLibrary.sol\":1168:1174  _title */\n      dup3\n        /* \"contracts/BooksLibrary.sol\":1154:1175  Book(_author, _title) */\n      dup2\n      mstore\n      pop\n        /* \"contracts/BooksLibrary.sol\":1127:1134  myBooks */\n      0x01\n        /* \"contracts/BooksLibrary.sol\":1127:1146  myBooks[msg.sender] */\n      0x00\n        /* \"contracts/BooksLibrary.sol\":1135:1145  msg.sender */\n      caller\n        /* \"contracts/BooksLibrary.sol\":1127:1146  myBooks[msg.sender] */\n      0xffffffffffffffffffffffffffffffffffffffff\n      and\n      0xffffffffffffffffffffffffffffffffffffffff\n      and\n      dup2\n      mstore\n      0x20\n      add\n      swap1\n      dup2\n      mstore\n      0x20\n      add\n      0x00\n      keccak256\n        /* \"contracts/BooksLibrary.sol\":1127:1151  myBooks[msg.sender][_id] */\n      0x00\n        /* \"contracts/BooksLibrary.sol\":1147:1150  _id */\n      dup6\n        /* \"contracts/BooksLibrary.sol\":1127:1151  myBooks[msg.sender][_id] */\n      dup2\n      mstore\n      0x20\n      add\n      swap1\n      dup2\n      mstore\n      0x20\n      add\n      0x00\n      keccak256\n        /* \"contracts/BooksLibrary.sol\":1127:1175  myBooks[msg.sender][_id] = Book(_author, _title) */\n      0x00\n      dup3\n      add\n      mload\n      dup2\n      0x00\n      add\n      swap1\n      dup2\n      tag_82\n      swap2\n      swap1\n      tag_38\n      jump\t// in\n    tag_82:\n      pop\n      0x20\n      dup3\n      add\n      mload\n      dup2\n      0x01\n      add\n      swap1\n      dup2\n      tag_83\n      swap2\n      swap1\n      tag_38\n      jump\t// in\n    tag_83:\n      pop\n      swap1\n      pop\n      pop\n        /* \"contracts/BooksLibrary.sol\":1185:1197  myBooksCount */\n      0x02\n        /* \"contracts/BooksLibrary.sol\":1185:1209  myBooksCount[msg.sender] */\n      0x00\n        /* \"contracts/BooksLibrary.sol\":1198:1208  msg.sender */\n      caller\n        /* \"contracts/BooksLibrary.sol\":1185:1209  myBooksCount[msg.sender] */\n      0xffffffffffffffffffffffffffffffffffffffff\n      and\n      0xffffffffffffffffffffffffffffffffffffffff\n      and\n      dup2\n      mstore\n      0x20\n      add\n      swap1\n      dup2\n      mstore\n      0x20\n      add\n      0x00\n      keccak256\n      0x00\n        /* \"contracts/BooksLibrary.sol\":1185:1211  myBooksCount[msg.sender]++ */\n      dup2\n      sload\n      dup1\n      swap3\n      swap2\n      swap1\n      tag_84\n      swap1\n      tag_85\n      jump\t// in\n    tag_84:\n      swap2\n      swap1\n      pop\n      sstore\n      pop\n        /* \"contracts/BooksLibrary.sol\":891:1218  function addMyBook(... */\n      pop\n      pop\n      pop\n      jump\t// out\n        /* \"contracts/BooksLibrary.sol\":85:122  mapping(uint256 => Book) public books */\n    tag_28:\n      mstore(0x20, 0x00)\n      dup1\n      0x00\n      mstore\n      keccak256(0x00, 0x40)\n      0x00\n      swap2\n      pop\n      swap1\n      pop\n      dup1\n      0x00\n      add\n      dup1\n      sload\n      tag_86\n      swap1\n      tag_33\n      jump\t// in\n    tag_86:\n      dup1\n      0x1f\n      add\n      0x20\n      dup1\n      swap2\n      div\n      mul\n      0x20\n      add\n      mload(0x40)\n      swap1\n      dup2\n      add\n      0x40\n      mstore\n      dup1\n      swap3\n      swap2\n      swap1\n      dup2\n      dup2\n      mstore\n      0x20\n      add\n      dup3\n      dup1\n      sload\n      tag_87\n      swap1\n      tag_33\n      jump\t// in\n    tag_87:\n      dup1\n      iszero\n      tag_88\n      jumpi\n      dup1\n      0x1f\n      lt\n      tag_89\n      jumpi\n      0x0100\n      dup1\n      dup4\n      sload\n      div\n      mul\n      dup4\n      mstore\n      swap2\n      0x20\n      add\n      swap2\n      jump(tag_88)\n    tag_89:\n      dup3\n      add\n      swap2\n      swap1\n      0x00\n      mstore\n      keccak256(0x00, 0x20)\n      swap1\n    tag_90:\n      dup2\n      sload\n      dup2\n      mstore\n      swap1\n      0x01\n      add\n      swap1\n      0x20\n      add\n      dup1\n      dup4\n      gt\n      tag_90\n      jumpi\n      dup3\n      swap1\n      sub\n      0x1f\n      and\n      dup3\n      add\n      swap2\n    tag_88:\n      pop\n      pop\n      pop\n      pop\n      pop\n      swap1\n      dup1\n      0x01\n      add\n      dup1\n      sload\n      tag_91\n      swap1\n      tag_33\n      jump\t// in\n    tag_91:\n      dup1\n      0x1f\n      add\n      0x20\n      dup1\n      swap2\n      div\n      mul\n      0x20\n      add\n      mload(0x40)\n      swap1\n      dup2\n      add\n      0x40\n      mstore\n      dup1\n      swap3\n      swap2\n      swap1\n      dup2\n      dup2\n      mstore\n      0x20\n      add\n      dup3\n      dup1\n      sload\n      tag_92\n      swap1\n      tag_33\n      jump\t// in\n    tag_92:\n      dup1\n      iszero\n      tag_93\n      jumpi\n      dup1\n      0x1f\n      lt\n      tag_94\n      jumpi\n      0x0100\n      dup1\n      dup4\n      sload\n      div\n      mul\n      dup4\n      mstore\n      swap2\n      0x20\n      add\n      swap2\n      jump(tag_93)\n    tag_94:\n      dup3\n      add\n      swap2\n      swap1\n      0x00\n      mstore\n      keccak256(0x00, 0x20)\n      swap1\n    tag_95:\n      dup2\n      sload\n      dup2\n      mstore\n      swap1\n      0x01\n      add\n      swap1\n      0x20\n      add\n      dup1\n      dup4\n      gt\n      tag_95\n      jumpi\n      dup3\n      swap1\n      sub\n      0x1f\n      and\n      dup3\n      add\n      swap2\n    tag_93:\n      pop\n      pop\n      pop\n      pop\n      pop\n      swap1\n      pop\n      dup3\n      jump\t// out\n    tag_52:\n      mload(0x40)\n      dup1\n      0x40\n      add\n      0x40\n      mstore\n      dup1\n      0x60\n      dup2\n      mstore\n      0x20\n      add\n      0x60\n      dup2\n      mstore\n      pop\n      swap1\n      jump\t// out\n        /* \"#utility.yul\":7:82   */\n    tag_96:\n        /* \"#utility.yul\":40:46   */\n      0x00\n        /* \"#utility.yul\":73:75   */\n      0x40\n        /* \"#utility.yul\":67:76   */\n      mload\n        /* \"#utility.yul\":57:76   */\n      swap1\n      pop\n        /* \"#utility.yul\":7:82   */\n      swap1\n      jump\t// out\n        /* \"#utility.yul\":88:205   */\n    tag_97:\n        /* \"#utility.yul\":197:198   */\n      0x00\n        /* \"#utility.yul\":194:195   */\n      dup1\n        /* \"#utility.yul\":187:199   */\n      revert\n        /* \"#utility.yul\":211:328   */\n    tag_98:\n        /* \"#utility.yul\":320:321   */\n      0x00\n        /* \"#utility.yul\":317:318   */\n      dup1\n        /* \"#utility.yul\":310:322   */\n      revert\n        /* \"#utility.yul\":334:411   */\n    tag_99:\n        /* \"#utility.yul\":371:378   */\n      0x00\n        /* \"#utility.yul\":400:405   */\n      dup2\n        /* \"#utility.yul\":389:405   */\n      swap1\n      pop\n        /* \"#utility.yul\":334:411   */\n      swap2\n      swap1\n      pop\n      jump\t// out\n        /* \"#utility.yul\":417:539   */\n    tag_100:\n        /* \"#utility.yul\":490:514   */\n      tag_160\n        /* \"#utility.yul\":508:513   */\n      dup2\n        /* \"#utility.yul\":490:514   */\n      tag_99\n      jump\t// in\n    tag_160:\n        /* \"#utility.yul\":483:488   */\n      dup2\n        /* \"#utility.yul\":480:515   */\n      eq\n        /* \"#utility.yul\":470:533   */\n      tag_161\n      jumpi\n        /* \"#utility.yul\":529:530   */\n      0x00\n        /* \"#utility.yul\":526:527   */\n      dup1\n        /* \"#utility.yul\":519:531   */\n      revert\n        /* \"#utility.yul\":470:533   */\n    tag_161:\n        /* \"#utility.yul\":417:539   */\n      pop\n      jump\t// out\n        /* \"#utility.yul\":545:684   */\n    tag_101:\n        /* \"#utility.yul\":591:596   */\n      0x00\n        /* \"#utility.yul\":629:635   */\n      dup2\n        /* \"#utility.yul\":616:636   */\n      calldataload\n        /* \"#utility.yul\":607:636   */\n      swap1\n      pop\n        /* \"#utility.yul\":645:678   */\n      tag_163\n        /* \"#utility.yul\":672:677   */\n      dup2\n        /* \"#utility.yul\":645:678   */\n      tag_100\n      jump\t// in\n    tag_163:\n        /* \"#utility.yul\":545:684   */\n      swap3\n      swap2\n      pop\n      pop\n      jump\t// out\n        /* \"#utility.yul\":690:807   */\n    tag_102:\n        /* \"#utility.yul\":799:800   */\n      0x00\n        /* \"#utility.yul\":796:797   */\n      dup1\n        /* \"#utility.yul\":789:801   */\n      revert\n        /* \"#utility.yul\":813:930   */\n    tag_103:\n        /* \"#utility.yul\":922:923   */\n      0x00\n        /* \"#utility.yul\":919:920   */\n      dup1\n        /* \"#utility.yul\":912:924   */\n      revert\n        /* \"#utility.yul\":936:1038   */\n    tag_104:\n        /* \"#utility.yul\":977:983   */\n      0x00\n        /* \"#utility.yul\":1028:1030   */\n      0x1f\n        /* \"#utility.yul\":1024:1031   */\n      not\n        /* \"#utility.yul\":1019:1021   */\n      0x1f\n        /* \"#utility.yul\":1012:1017   */\n      dup4\n        /* \"#utility.yul\":1008:1022   */\n      add\n        /* \"#utility.yul\":1004:1032   */\n      and\n        /* \"#utility.yul\":994:1032   */\n      swap1\n      pop\n        /* \"#utility.yul\":936:1038   */\n      swap2\n      swap1\n      pop\n      jump\t// out\n        /* \"#utility.yul\":1044:1224   */\n    tag_48:\n        /* \"#utility.yul\":1092:1169   */\n      0x4e487b7100000000000000000000000000000000000000000000000000000000\n        /* \"#utility.yul\":1089:1090   */\n      0x00\n        /* \"#utility.yul\":1082:1170   */\n      mstore\n        /* \"#utility.yul\":1189:1193   */\n      0x41\n        /* \"#utility.yul\":1186:1187   */\n      0x04\n        /* \"#utility.yul\":1179:1194   */\n      mstore\n        /* \"#utility.yul\":1213:1217   */\n      0x24\n        /* \"#utility.yul\":1210:1211   */\n      0x00\n        /* \"#utility.yul\":1203:1218   */\n      revert\n        /* \"#utility.yul\":1230:1511   */\n    tag_105:\n        /* \"#utility.yul\":1313:1340   */\n      tag_169\n        /* \"#utility.yul\":1335:1339   */\n      dup3\n        /* \"#utility.yul\":1313:1340   */\n      tag_104\n      jump\t// in\n    tag_169:\n        /* \"#utility.yul\":1305:1311   */\n      dup2\n        /* \"#utility.yul\":1301:1341   */\n      add\n        /* \"#utility.yul\":1443:1449   */\n      dup2\n        /* \"#utility.yul\":1431:1441   */\n      dup2\n        /* \"#utility.yul\":1428:1450   */\n      lt\n        /* \"#utility.yul\":1407:1425   */\n      0xffffffffffffffff\n        /* \"#utility.yul\":1395:1405   */\n      dup3\n        /* \"#utility.yul\":1392:1426   */\n      gt\n        /* \"#utility.yul\":1389:1451   */\n      or\n        /* \"#utility.yul\":1386:1474   */\n      iszero\n      tag_170\n      jumpi\n        /* \"#utility.yul\":1454:1472   */\n      tag_171\n      tag_48\n      jump\t// in\n    tag_171:\n        /* \"#utility.yul\":1386:1474   */\n    tag_170:\n        /* \"#utility.yul\":1494:1504   */\n      dup1\n        /* \"#utility.yul\":1490:1492   */\n      0x40\n        /* \"#utility.yul\":1483:1505   */\n      mstore\n        /* \"#utility.yul\":1273:1511   */\n      pop\n        /* \"#utility.yul\":1230:1511   */\n      pop\n      pop\n      jump\t// out\n        /* \"#utility.yul\":1517:1646   */\n    tag_106:\n        /* \"#utility.yul\":1551:1557   */\n      0x00\n        /* \"#utility.yul\":1578:1598   */\n      tag_173\n      tag_96\n      jump\t// in\n    tag_173:\n        /* \"#utility.yul\":1568:1598   */\n      swap1\n      pop\n        /* \"#utility.yul\":1607:1640   */\n      tag_174\n        /* \"#utility.yul\":1635:1639   */\n      dup3\n        /* \"#utility.yul\":1627:1633   */\n      dup3\n        /* \"#utility.yul\":1607:1640   */\n      tag_105\n      jump\t// in\n    tag_174:\n        /* \"#utility.yul\":1517:1646   */\n      swap2\n      swap1\n      pop\n      jump\t// out\n        /* \"#utility.yul\":1652:1960   */\n    tag_107:\n        /* \"#utility.yul\":1714:1718   */\n      0x00\n        /* \"#utility.yul\":1804:1822   */\n      0xffffffffffffffff\n        /* \"#utility.yul\":1796:1802   */\n      dup3\n        /* \"#utility.yul\":1793:1823   */\n      gt\n        /* \"#utility.yul\":1790:1846   */\n      iszero\n      tag_176\n      jumpi\n        /* \"#utility.yul\":1826:1844   */\n      tag_177\n      tag_48\n      jump\t// in\n    tag_177:\n        /* \"#utility.yul\":1790:1846   */\n    tag_176:\n        /* \"#utility.yul\":1864:1893   */\n      tag_178\n        /* \"#utility.yul\":1886:1892   */\n      dup3\n        /* \"#utility.yul\":1864:1893   */\n      tag_104\n      jump\t// in\n    tag_178:\n        /* \"#utility.yul\":1856:1893   */\n      swap1\n      pop\n        /* \"#utility.yul\":1948:1952   */\n      0x20\n        /* \"#utility.yul\":1942:1946   */\n      dup2\n        /* \"#utility.yul\":1938:1953   */\n      add\n        /* \"#utility.yul\":1930:1953   */\n      swap1\n      pop\n        /* \"#utility.yul\":1652:1960   */\n      swap2\n      swap1\n      pop\n      jump\t// out\n        /* \"#utility.yul\":1966:2114   */\n    tag_108:\n        /* \"#utility.yul\":2064:2070   */\n      dup3\n        /* \"#utility.yul\":2059:2062   */\n      dup2\n        /* \"#utility.yul\":2054:2057   */\n      dup4\n        /* \"#utility.yul\":2041:2071   */\n      calldatacopy\n        /* \"#utility.yul\":2105:2106   */\n      0x00\n        /* \"#utility.yul\":2096:2102   */\n      dup4\n        /* \"#utility.yul\":2091:2094   */\n      dup4\n        /* \"#utility.yul\":2087:2103   */\n      add\n        /* \"#utility.yul\":2080:2107   */\n      mstore\n        /* \"#utility.yul\":1966:2114   */\n      pop\n      pop\n      pop\n      jump\t// out\n        /* \"#utility.yul\":2120:2545   */\n    tag_109:\n        /* \"#utility.yul\":2198:2203   */\n      0x00\n        /* \"#utility.yul\":2223:2289   */\n      tag_181\n        /* \"#utility.yul\":2239:2288   */\n      tag_182\n        /* \"#utility.yul\":2281:2287   */\n      dup5\n        /* \"#utility.yul\":2239:2288   */\n      tag_107\n      jump\t// in\n    tag_182:\n        /* \"#utility.yul\":2223:2289   */\n      tag_106\n      jump\t// in\n    tag_181:\n        /* \"#utility.yul\":2214:2289   */\n      swap1\n      pop\n        /* \"#utility.yul\":2312:2318   */\n      dup3\n        /* \"#utility.yul\":2305:2310   */\n      dup2\n        /* \"#utility.yul\":2298:2319   */\n      mstore\n        /* \"#utility.yul\":2350:2354   */\n      0x20\n        /* \"#utility.yul\":2343:2348   */\n      dup2\n        /* \"#utility.yul\":2339:2355   */\n      add\n        /* \"#utility.yul\":2388:2391   */\n      dup5\n        /* \"#utility.yul\":2379:2385   */\n      dup5\n        /* \"#utility.yul\":2374:2377   */\n      dup5\n        /* \"#utility.yul\":2370:2386   */\n      add\n        /* \"#utility.yul\":2367:2392   */\n      gt\n        /* \"#utility.yul\":2364:2476   */\n      iszero\n      tag_183\n      jumpi\n        /* \"#utility.yul\":2395:2474   */\n      tag_184\n      tag_103\n      jump\t// in\n    tag_184:\n        /* \"#utility.yul\":2364:2476   */\n    tag_183:\n        /* \"#utility.yul\":2485:2539   */\n      tag_185\n        /* \"#utility.yul\":2532:2538   */\n      dup5\n        /* \"#utility.yul\":2527:2530   */\n      dup3\n        /* \"#utility.yul\":2522:2525   */\n      dup6\n        /* \"#utility.yul\":2485:2539   */\n      tag_108\n      jump\t// in\n    tag_185:\n        /* \"#utility.yul\":2204:2545   */\n      pop\n        /* \"#utility.yul\":2120:2545   */\n      swap4\n      swap3\n      pop\n      pop\n      pop\n      jump\t// out\n        /* \"#utility.yul\":2565:2905   */\n    tag_110:\n        /* \"#utility.yul\":2621:2626   */\n      0x00\n        /* \"#utility.yul\":2670:2673   */\n      dup3\n        /* \"#utility.yul\":2663:2667   */\n      0x1f\n        /* \"#utility.yul\":2655:2661   */\n      dup4\n        /* \"#utility.yul\":2651:2668   */\n      add\n        /* \"#utility.yul\":2647:2674   */\n      slt\n        /* \"#utility.yul\":2637:2759   */\n      tag_187\n      jumpi\n        /* \"#utility.yul\":2678:2757   */\n      tag_188\n      tag_102\n      jump\t// in\n    tag_188:\n        /* \"#utility.yul\":2637:2759   */\n    tag_187:\n        /* \"#utility.yul\":2795:2801   */\n      dup2\n        /* \"#utility.yul\":2782:2802   */\n      calldataload\n        /* \"#utility.yul\":2820:2899   */\n      tag_189\n        /* \"#utility.yul\":2895:2898   */\n      dup5\n        /* \"#utility.yul\":2887:2893   */\n      dup3\n        /* \"#utility.yul\":2880:2884   */\n      0x20\n        /* \"#utility.yul\":2872:2878   */\n      dup7\n        /* \"#utility.yul\":2868:2885   */\n      add\n        /* \"#utility.yul\":2820:2899   */\n      tag_109\n      jump\t// in\n    tag_189:\n        /* \"#utility.yul\":2811:2899   */\n      swap2\n      pop\n        /* \"#utility.yul\":2627:2905   */\n      pop\n        /* \"#utility.yul\":2565:2905   */\n      swap3\n      swap2\n      pop\n      pop\n      jump\t// out\n        /* \"#utility.yul\":2911:3890   */\n    tag_10:\n        /* \"#utility.yul\":3008:3014   */\n      0x00\n        /* \"#utility.yul\":3016:3022   */\n      dup1\n        /* \"#utility.yul\":3024:3030   */\n      0x00\n        /* \"#utility.yul\":3073:3075   */\n      0x60\n        /* \"#utility.yul\":3061:3070   */\n      dup5\n        /* \"#utility.yul\":3052:3059   */\n      dup7\n        /* \"#utility.yul\":3048:3071   */\n      sub\n        /* \"#utility.yul\":3044:3076   */\n      slt\n        /* \"#utility.yul\":3041:3160   */\n      iszero\n      tag_191\n      jumpi\n        /* \"#utility.yul\":3079:3158   */\n      tag_192\n      tag_97\n      jump\t// in\n    tag_192:\n        /* \"#utility.yul\":3041:3160   */\n    tag_191:\n        /* \"#utility.yul\":3199:3200   */\n      0x00\n        /* \"#utility.yul\":3224:3277   */\n      tag_193\n        /* \"#utility.yul\":3269:3276   */\n      dup7\n        /* \"#utility.yul\":3260:3266   */\n      dup3\n        /* \"#utility.yul\":3249:3258   */\n      dup8\n        /* \"#utility.yul\":3245:3267   */\n      add\n        /* \"#utility.yul\":3224:3277   */\n      tag_101\n      jump\t// in\n    tag_193:\n        /* \"#utility.yul\":3214:3277   */\n      swap4\n      pop\n        /* \"#utility.yul\":3170:3287   */\n      pop\n        /* \"#utility.yul\":3354:3356   */\n      0x20\n        /* \"#utility.yul\":3343:3352   */\n      dup5\n        /* \"#utility.yul\":3339:3357   */\n      add\n        /* \"#utility.yul\":3326:3358   */\n      calldataload\n        /* \"#utility.yul\":3385:3403   */\n      0xffffffffffffffff\n        /* \"#utility.yul\":3377:3383   */\n      dup2\n        /* \"#utility.yul\":3374:3404   */\n      gt\n        /* \"#utility.yul\":3371:3488   */\n      iszero\n      tag_194\n      jumpi\n        /* \"#utility.yul\":3407:3486   */\n      tag_195\n      tag_98\n      jump\t// in\n    tag_195:\n        /* \"#utility.yul\":3371:3488   */\n    tag_194:\n        /* \"#utility.yul\":3512:3575   */\n      tag_196\n        /* \"#utility.yul\":3567:3574   */\n      dup7\n        /* \"#utility.yul\":3558:3564   */\n      dup3\n        /* \"#utility.yul\":3547:3556   */\n      dup8\n        /* \"#utility.yul\":3543:3565   */\n      add\n        /* \"#utility.yul\":3512:3575   */\n      tag_110\n      jump\t// in\n    tag_196:\n        /* \"#utility.yul\":3502:3575   */\n      swap3\n      pop\n        /* \"#utility.yul\":3297:3585   */\n      pop\n        /* \"#utility.yul\":3652:3654   */\n      0x40\n        /* \"#utility.yul\":3641:3650   */\n      dup5\n        /* \"#utility.yul\":3637:3655   */\n      add\n        /* \"#utility.yul\":3624:3656   */\n      calldataload\n        /* \"#utility.yul\":3683:3701   */\n      0xffffffffffffffff\n        /* \"#utility.yul\":3675:3681   */\n      dup2\n        /* \"#utility.yul\":3672:3702   */\n      gt\n        /* \"#utility.yul\":3669:3786   */\n      iszero\n      tag_197\n      jumpi\n        /* \"#utility.yul\":3705:3784   */\n      tag_198\n      tag_98\n      jump\t// in\n    tag_198:\n        /* \"#utility.yul\":3669:3786   */\n    tag_197:\n        /* \"#utility.yul\":3810:3873   */\n      tag_199\n        /* \"#utility.yul\":3865:3872   */\n      dup7\n        /* \"#utility.yul\":3856:3862   */\n      dup3\n        /* \"#utility.yul\":3845:3854   */\n      dup8\n        /* \"#utility.yul\":3841:3863   */\n      add\n        /* \"#utility.yul\":3810:3873   */\n      tag_110\n      jump\t// in\n    tag_199:\n        /* \"#utility.yul\":3800:3873   */\n      swap2\n      pop\n        /* \"#utility.yul\":3595:3883   */\n      pop\n        /* \"#utility.yul\":2911:3890   */\n      swap3\n      pop\n      swap3\n      pop\n      swap3\n      jump\t// out\n        /* \"#utility.yul\":3896:4014   */\n    tag_111:\n        /* \"#utility.yul\":3983:4007   */\n      tag_201\n        /* \"#utility.yul\":4001:4006   */\n      dup2\n        /* \"#utility.yul\":3983:4007   */\n      tag_99\n      jump\t// in\n    tag_201:\n        /* \"#utility.yul\":3978:3981   */\n      dup3\n        /* \"#utility.yul\":3971:4008   */\n      mstore\n        /* \"#utility.yul\":3896:4014   */\n      pop\n      pop\n      jump\t// out\n        /* \"#utility.yul\":4020:4242   */\n    tag_15:\n        /* \"#utility.yul\":4113:4117   */\n      0x00\n        /* \"#utility.yul\":4151:4153   */\n      0x20\n        /* \"#utility.yul\":4140:4149   */\n      dup3\n        /* \"#utility.yul\":4136:4154   */\n      add\n        /* \"#utility.yul\":4128:4154   */\n      swap1\n      pop\n        /* \"#utility.yul\":4164:4235   */\n      tag_203\n        /* \"#utility.yul\":4232:4233   */\n      0x00\n        /* \"#utility.yul\":4221:4230   */\n      dup4\n        /* \"#utility.yul\":4217:4234   */\n      add\n        /* \"#utility.yul\":4208:4214   */\n      dup5\n        /* \"#utility.yul\":4164:4235   */\n      tag_111\n      jump\t// in\n    tag_203:\n        /* \"#utility.yul\":4020:4242   */\n      swap3\n      swap2\n      pop\n      pop\n      jump\t// out\n        /* \"#utility.yul\":4248:4559   */\n    tag_112:\n        /* \"#utility.yul\":4325:4329   */\n      0x00\n        /* \"#utility.yul\":4415:4433   */\n      0xffffffffffffffff\n        /* \"#utility.yul\":4407:4413   */\n      dup3\n        /* \"#utility.yul\":4404:4434   */\n      gt\n        /* \"#utility.yul\":4401:4457   */\n      iszero\n      tag_205\n      jumpi\n        /* \"#utility.yul\":4437:4455   */\n      tag_206\n      tag_48\n      jump\t// in\n    tag_206:\n        /* \"#utility.yul\":4401:4457   */\n    tag_205:\n        /* \"#utility.yul\":4487:4491   */\n      0x20\n        /* \"#utility.yul\":4479:4485   */\n      dup3\n        /* \"#utility.yul\":4475:4492   */\n      mul\n        /* \"#utility.yul\":4467:4492   */\n      swap1\n      pop\n        /* \"#utility.yul\":4547:4551   */\n      0x20\n        /* \"#utility.yul\":4541:4545   */\n      dup2\n        /* \"#utility.yul\":4537:4552   */\n      add\n        /* \"#utility.yul\":4529:4552   */\n      swap1\n      pop\n        /* \"#utility.yul\":4248:4559   */\n      swap2\n      swap1\n      pop\n      jump\t// out\n        /* \"#utility.yul\":4565:4682   */\n    tag_113:\n        /* \"#utility.yul\":4674:4675   */\n      0x00\n        /* \"#utility.yul\":4671:4672   */\n      dup1\n        /* \"#utility.yul\":4664:4676   */\n      revert\n        /* \"#utility.yul\":4705:5415   */\n    tag_114:\n        /* \"#utility.yul\":4801:4806   */\n      0x00\n        /* \"#utility.yul\":4826:4907   */\n      tag_209\n        /* \"#utility.yul\":4842:4906   */\n      tag_210\n        /* \"#utility.yul\":4899:4905   */\n      dup5\n        /* \"#utility.yul\":4842:4906   */\n      tag_112\n      jump\t// in\n    tag_210:\n        /* \"#utility.yul\":4826:4907   */\n      tag_106\n      jump\t// in\n    tag_209:\n        /* \"#utility.yul\":4817:4907   */\n      swap1\n      pop\n        /* \"#utility.yul\":4927:4932   */\n      dup1\n        /* \"#utility.yul\":4956:4962   */\n      dup4\n        /* \"#utility.yul\":4949:4954   */\n      dup3\n        /* \"#utility.yul\":4942:4963   */\n      mstore\n        /* \"#utility.yul\":4990:4994   */\n      0x20\n        /* \"#utility.yul\":4983:4988   */\n      dup3\n        /* \"#utility.yul\":4979:4995   */\n      add\n        /* \"#utility.yul\":4972:4995   */\n      swap1\n      pop\n        /* \"#utility.yul\":5043:5047   */\n      0x20\n        /* \"#utility.yul\":5035:5041   */\n      dup5\n        /* \"#utility.yul\":5031:5048   */\n      mul\n        /* \"#utility.yul\":5023:5029   */\n      dup4\n        /* \"#utility.yul\":5019:5049   */\n      add\n        /* \"#utility.yul\":5072:5075   */\n      dup6\n        /* \"#utility.yul\":5064:5070   */\n      dup2\n        /* \"#utility.yul\":5061:5076   */\n      gt\n        /* \"#utility.yul\":5058:5180   */\n      iszero\n      tag_211\n      jumpi\n        /* \"#utility.yul\":5091:5170   */\n      tag_212\n      tag_113\n      jump\t// in\n    tag_212:\n        /* \"#utility.yul\":5058:5180   */\n    tag_211:\n        /* \"#utility.yul\":5206:5212   */\n      dup4\n        /* \"#utility.yul\":5189:5409   */\n    tag_213:\n        /* \"#utility.yul\":5223:5229   */\n      dup2\n        /* \"#utility.yul\":5218:5221   */\n      dup2\n        /* \"#utility.yul\":5215:5230   */\n      lt\n        /* \"#utility.yul\":5189:5409   */\n      iszero\n      tag_215\n      jumpi\n        /* \"#utility.yul\":5298:5301   */\n      dup1\n        /* \"#utility.yul\":5327:5364   */\n      tag_216\n        /* \"#utility.yul\":5360:5363   */\n      dup9\n        /* \"#utility.yul\":5348:5358   */\n      dup3\n        /* \"#utility.yul\":5327:5364   */\n      tag_101\n      jump\t// in\n    tag_216:\n        /* \"#utility.yul\":5322:5325   */\n      dup5\n        /* \"#utility.yul\":5315:5365   */\n      mstore\n        /* \"#utility.yul\":5394:5398   */\n      0x20\n        /* \"#utility.yul\":5389:5392   */\n      dup5\n        /* \"#utility.yul\":5385:5399   */\n      add\n        /* \"#utility.yul\":5378:5399   */\n      swap4\n      pop\n        /* \"#utility.yul\":5265:5409   */\n      pop\n        /* \"#utility.yul\":5249:5253   */\n      0x20\n        /* \"#utility.yul\":5244:5247   */\n      dup2\n        /* \"#utility.yul\":5240:5254   */\n      add\n        /* \"#utility.yul\":5233:5254   */\n      swap1\n      pop\n        /* \"#utility.yul\":5189:5409   */\n      jump(tag_213)\n    tag_215:\n        /* \"#utility.yul\":5193:5214   */\n      pop\n        /* \"#utility.yul\":4807:5415   */\n      pop\n      pop\n        /* \"#utility.yul\":4705:5415   */\n      swap4\n      swap3\n      pop\n      pop\n      pop\n      jump\t// out\n        /* \"#utility.yul\":5438:5808   */\n    tag_115:\n        /* \"#utility.yul\":5509:5514   */\n      0x00\n        /* \"#utility.yul\":5558:5561   */\n      dup3\n        /* \"#utility.yul\":5551:5555   */\n      0x1f\n        /* \"#utility.yul\":5543:5549   */\n      dup4\n        /* \"#utility.yul\":5539:5556   */\n      add\n        /* \"#utility.yul\":5535:5562   */\n      slt\n        /* \"#utility.yul\":5525:5647   */\n      tag_218\n      jumpi\n        /* \"#utility.yul\":5566:5645   */\n      tag_219\n      tag_102\n      jump\t// in\n    tag_219:\n        /* \"#utility.yul\":5525:5647   */\n    tag_218:\n        /* \"#utility.yul\":5683:5689   */\n      dup2\n        /* \"#utility.yul\":5670:5690   */\n      calldataload\n        /* \"#utility.yul\":5708:5802   */\n      tag_220\n        /* \"#utility.yul\":5798:5801   */\n      dup5\n        /* \"#utility.yul\":5790:5796   */\n      dup3\n        /* \"#utility.yul\":5783:5787   */\n      0x20\n        /* \"#utility.yul\":5775:5781   */\n      dup7\n        /* \"#utility.yul\":5771:5788   */\n      add\n        /* \"#utility.yul\":5708:5802   */\n      tag_114\n      jump\t// in\n    tag_220:\n        /* \"#utility.yul\":5699:5802   */\n      swap2\n      pop\n        /* \"#utility.yul\":5515:5808   */\n      pop\n        /* \"#utility.yul\":5438:5808   */\n      swap3\n      swap2\n      pop\n      pop\n      jump\t// out\n        /* \"#utility.yul\":5814:6353   */\n    tag_18:\n        /* \"#utility.yul\":5898:5904   */\n      0x00\n        /* \"#utility.yul\":5947:5949   */\n      0x20\n        /* \"#utility.yul\":5935:5944   */\n      dup3\n        /* \"#utility.yul\":5926:5933   */\n      dup5\n        /* \"#utility.yul\":5922:5945   */\n      sub\n        /* \"#utility.yul\":5918:5950   */\n      slt\n        /* \"#utility.yul\":5915:6034   */\n      iszero\n      tag_222\n      jumpi\n        /* \"#utility.yul\":5953:6032   */\n      tag_223\n      tag_97\n      jump\t// in\n    tag_223:\n        /* \"#utility.yul\":5915:6034   */\n    tag_222:\n        /* \"#utility.yul\":6101:6102   */\n      0x00\n        /* \"#utility.yul\":6090:6099   */\n      dup3\n        /* \"#utility.yul\":6086:6103   */\n      add\n        /* \"#utility.yul\":6073:6104   */\n      calldataload\n        /* \"#utility.yul\":6131:6149   */\n      0xffffffffffffffff\n        /* \"#utility.yul\":6123:6129   */\n      dup2\n        /* \"#utility.yul\":6120:6150   */\n      gt\n        /* \"#utility.yul\":6117:6234   */\n      iszero\n      tag_224\n      jumpi\n        /* \"#utility.yul\":6153:6232   */\n      tag_225\n      tag_98\n      jump\t// in\n    tag_225:\n        /* \"#utility.yul\":6117:6234   */\n    tag_224:\n        /* \"#utility.yul\":6258:6336   */\n      tag_226\n        /* \"#utility.yul\":6328:6335   */\n      dup5\n        /* \"#utility.yul\":6319:6325   */\n      dup3\n        /* \"#utility.yul\":6308:6317   */\n      dup6\n        /* \"#utility.yul\":6304:6326   */\n      add\n        /* \"#utility.yul\":6258:6336   */\n      tag_115\n      jump\t// in\n    tag_226:\n        /* \"#utility.yul\":6248:6336   */\n      swap2\n      pop\n        /* \"#utility.yul\":6044:6346   */\n      pop\n        /* \"#utility.yul\":5814:6353   */\n      swap3\n      swap2\n      pop\n      pop\n      jump\t// out\n        /* \"#utility.yul\":6359:6493   */\n    tag_116:\n        /* \"#utility.yul\":6446:6452   */\n      0x00\n        /* \"#utility.yul\":6480:6485   */\n      dup2\n        /* \"#utility.yul\":6474:6486   */\n      mload\n        /* \"#utility.yul\":6464:6486   */\n      swap1\n      pop\n        /* \"#utility.yul\":6359:6493   */\n      swap2\n      swap1\n      pop\n      jump\t// out\n        /* \"#utility.yul\":6499:6703   */\n    tag_117:\n        /* \"#utility.yul\":6618:6629   */\n      0x00\n        /* \"#utility.yul\":6652:6658   */\n      dup3\n        /* \"#utility.yul\":6647:6650   */\n      dup3\n        /* \"#utility.yul\":6640:6659   */\n      mstore\n        /* \"#utility.yul\":6692:6696   */\n      0x20\n        /* \"#utility.yul\":6687:6690   */\n      dup3\n        /* \"#utility.yul\":6683:6697   */\n      add\n        /* \"#utility.yul\":6668:6697   */\n      swap1\n      pop\n        /* \"#utility.yul\":6499:6703   */\n      swap3\n      swap2\n      pop\n      pop\n      jump\t// out\n        /* \"#utility.yul\":6709:6861   */\n    tag_118:\n        /* \"#utility.yul\":6796:6800   */\n      0x00\n        /* \"#utility.yul\":6819:6822   */\n      dup2\n        /* \"#utility.yul\":6811:6822   */\n      swap1\n      pop\n        /* \"#utility.yul\":6849:6853   */\n      0x20\n        /* \"#utility.yul\":6844:6847   */\n      dup3\n        /* \"#utility.yul\":6840:6854   */\n      add\n        /* \"#utility.yul\":6832:6854   */\n      swap1\n      pop\n        /* \"#utility.yul\":6709:6861   */\n      swap2\n      swap1\n      pop\n      jump\t// out\n        /* \"#utility.yul\":6867:6966   */\n    tag_119:\n        /* \"#utility.yul\":6919:6925   */\n      0x00\n        /* \"#utility.yul\":6953:6958   */\n      dup2\n        /* \"#utility.yul\":6947:6959   */\n      mload\n        /* \"#utility.yul\":6937:6959   */\n      swap1\n      pop\n        /* \"#utility.yul\":6867:6966   */\n      swap2\n      swap1\n      pop\n      jump\t// out\n        /* \"#utility.yul\":6972:7131   */\n    tag_120:\n        /* \"#utility.yul\":7046:7057   */\n      0x00\n        /* \"#utility.yul\":7080:7086   */\n      dup3\n        /* \"#utility.yul\":7075:7078   */\n      dup3\n        /* \"#utility.yul\":7068:7087   */\n      mstore\n        /* \"#utility.yul\":7120:7124   */\n      0x20\n        /* \"#utility.yul\":7115:7118   */\n      dup3\n        /* \"#utility.yul\":7111:7125   */\n      add\n        /* \"#utility.yul\":7096:7125   */\n      swap1\n      pop\n        /* \"#utility.yul\":6972:7131   */\n      swap3\n      swap2\n      pop\n      pop\n      jump\t// out\n        /* \"#utility.yul\":7137:7276   */\n    tag_121:\n        /* \"#utility.yul\":7226:7232   */\n      dup3\n        /* \"#utility.yul\":7221:7224   */\n      dup2\n        /* \"#utility.yul\":7216:7219   */\n      dup4\n        /* \"#utility.yul\":7210:7233   */\n      mcopy\n        /* \"#utility.yul\":7267:7268   */\n      0x00\n        /* \"#utility.yul\":7258:7264   */\n      dup4\n        /* \"#utility.yul\":7253:7256   */\n      dup4\n        /* \"#utility.yul\":7249:7265   */\n      add\n        /* \"#utility.yul\":7242:7269   */\n      mstore\n        /* \"#utility.yul\":7137:7276   */\n      pop\n      pop\n      pop\n      jump\t// out\n        /* \"#utility.yul\":7282:7639   */\n    tag_122:\n        /* \"#utility.yul\":7360:7363   */\n      0x00\n        /* \"#utility.yul\":7388:7427   */\n      tag_234\n        /* \"#utility.yul\":7421:7426   */\n      dup3\n        /* \"#utility.yul\":7388:7427   */\n      tag_119\n      jump\t// in\n    tag_234:\n        /* \"#utility.yul\":7443:7504   */\n      tag_235\n        /* \"#utility.yul\":7497:7503   */\n      dup2\n        /* \"#utility.yul\":7492:7495   */\n      dup6\n        /* \"#utility.yul\":7443:7504   */\n      tag_120\n      jump\t// in\n    tag_235:\n        /* \"#utility.yul\":7436:7504   */\n      swap4\n      pop\n        /* \"#utility.yul\":7513:7578   */\n      tag_236\n        /* \"#utility.yul\":7571:7577   */\n      dup2\n        /* \"#utility.yul\":7566:7569   */\n      dup6\n        /* \"#utility.yul\":7559:7563   */\n      0x20\n        /* \"#utility.yul\":7552:7557   */\n      dup7\n        /* \"#utility.yul\":7548:7564   */\n      add\n        /* \"#utility.yul\":7513:7578   */\n      tag_121\n      jump\t// in\n    tag_236:\n        /* \"#utility.yul\":7603:7632   */\n      tag_237\n        /* \"#utility.yul\":7625:7631   */\n      dup2\n        /* \"#utility.yul\":7603:7632   */\n      tag_104\n      jump\t// in\n    tag_237:\n        /* \"#utility.yul\":7598:7601   */\n      dup5\n        /* \"#utility.yul\":7594:7633   */\n      add\n        /* \"#utility.yul\":7587:7633   */\n      swap2\n      pop\n        /* \"#utility.yul\":7364:7639   */\n      pop\n        /* \"#utility.yul\":7282:7639   */\n      swap3\n      swap2\n      pop\n      pop\n      jump\t// out\n        /* \"#utility.yul\":7705:8365   */\n    tag_123:\n        /* \"#utility.yul\":7804:7807   */\n      0x00\n        /* \"#utility.yul\":7840:7844   */\n      0x40\n        /* \"#utility.yul\":7835:7838   */\n      dup4\n        /* \"#utility.yul\":7831:7845   */\n      add\n        /* \"#utility.yul\":7929:7933   */\n      0x00\n        /* \"#utility.yul\":7922:7927   */\n      dup4\n        /* \"#utility.yul\":7918:7934   */\n      add\n        /* \"#utility.yul\":7912:7935   */\n      mload\n        /* \"#utility.yul\":7982:7985   */\n      dup5\n        /* \"#utility.yul\":7976:7980   */\n      dup3\n        /* \"#utility.yul\":7972:7986   */\n      sub\n        /* \"#utility.yul\":7965:7969   */\n      0x00\n        /* \"#utility.yul\":7960:7963   */\n      dup7\n        /* \"#utility.yul\":7956:7970   */\n      add\n        /* \"#utility.yul\":7949:7987   */\n      mstore\n        /* \"#utility.yul\":8008:8081   */\n      tag_239\n        /* \"#utility.yul\":8076:8080   */\n      dup3\n        /* \"#utility.yul\":8062:8074   */\n      dup3\n        /* \"#utility.yul\":8008:8081   */\n      tag_122\n      jump\t// in\n    tag_239:\n        /* \"#utility.yul\":8000:8081   */\n      swap2\n      pop\n        /* \"#utility.yul\":7855:8092   */\n      pop\n        /* \"#utility.yul\":8175:8179   */\n      0x20\n        /* \"#utility.yul\":8168:8173   */\n      dup4\n        /* \"#utility.yul\":8164:8180   */\n      add\n        /* \"#utility.yul\":8158:8181   */\n      mload\n        /* \"#utility.yul\":8228:8231   */\n      dup5\n        /* \"#utility.yul\":8222:8226   */\n      dup3\n        /* \"#utility.yul\":8218:8232   */\n      sub\n        /* \"#utility.yul\":8211:8215   */\n      0x20\n        /* \"#utility.yul\":8206:8209   */\n      dup7\n        /* \"#utility.yul\":8202:8216   */\n      add\n        /* \"#utility.yul\":8195:8233   */\n      mstore\n        /* \"#utility.yul\":8254:8327   */\n      tag_240\n        /* \"#utility.yul\":8322:8326   */\n      dup3\n        /* \"#utility.yul\":8308:8320   */\n      dup3\n        /* \"#utility.yul\":8254:8327   */\n      tag_122\n      jump\t// in\n    tag_240:\n        /* \"#utility.yul\":8246:8327   */\n      swap2\n      pop\n        /* \"#utility.yul\":8102:8338   */\n      pop\n        /* \"#utility.yul\":8355:8359   */\n      dup1\n        /* \"#utility.yul\":8348:8359   */\n      swap2\n      pop\n        /* \"#utility.yul\":7809:8365   */\n      pop\n        /* \"#utility.yul\":7705:8365   */\n      swap3\n      swap2\n      pop\n      pop\n      jump\t// out\n        /* \"#utility.yul\":8371:8607   */\n    tag_124:\n        /* \"#utility.yul\":8480:8490   */\n      0x00\n        /* \"#utility.yul\":8515:8601   */\n      tag_242\n        /* \"#utility.yul\":8597:8600   */\n      dup4\n        /* \"#utility.yul\":8589:8595   */\n      dup4\n        /* \"#utility.yul\":8515:8601   */\n      tag_123\n      jump\t// in\n    tag_242:\n        /* \"#utility.yul\":8501:8601   */\n      swap1\n      pop\n        /* \"#utility.yul\":8371:8607   */\n      swap3\n      swap2\n      pop\n      pop\n      jump\t// out\n        /* \"#utility.yul\":8613:8746   */\n    tag_125:\n        /* \"#utility.yul\":8703:8707   */\n      0x00\n        /* \"#utility.yul\":8735:8739   */\n      0x20\n        /* \"#utility.yul\":8730:8733   */\n      dup3\n        /* \"#utility.yul\":8726:8740   */\n      add\n        /* \"#utility.yul\":8718:8740   */\n      swap1\n      pop\n        /* \"#utility.yul\":8613:8746   */\n      swap2\n      swap1\n      pop\n      jump\t// out\n        /* \"#utility.yul\":8816:9887   */\n    tag_126:\n        /* \"#utility.yul\":8975:8978   */\n      0x00\n        /* \"#utility.yul\":9004:9078   */\n      tag_245\n        /* \"#utility.yul\":9072:9077   */\n      dup3\n        /* \"#utility.yul\":9004:9078   */\n      tag_116\n      jump\t// in\n    tag_245:\n        /* \"#utility.yul\":9094:9200   */\n      tag_246\n        /* \"#utility.yul\":9193:9199   */\n      dup2\n        /* \"#utility.yul\":9188:9191   */\n      dup6\n        /* \"#utility.yul\":9094:9200   */\n      tag_117\n      jump\t// in\n    tag_246:\n        /* \"#utility.yul\":9087:9200   */\n      swap4\n      pop\n        /* \"#utility.yul\":9226:9229   */\n      dup4\n        /* \"#utility.yul\":9271:9275   */\n      0x20\n        /* \"#utility.yul\":9263:9269   */\n      dup3\n        /* \"#utility.yul\":9259:9276   */\n      mul\n        /* \"#utility.yul\":9254:9257   */\n      dup6\n        /* \"#utility.yul\":9250:9277   */\n      add\n        /* \"#utility.yul\":9301:9377   */\n      tag_247\n        /* \"#utility.yul\":9371:9376   */\n      dup6\n        /* \"#utility.yul\":9301:9377   */\n      tag_118\n      jump\t// in\n    tag_247:\n        /* \"#utility.yul\":9400:9407   */\n      dup1\n        /* \"#utility.yul\":9431:9432   */\n      0x00\n        /* \"#utility.yul\":9416:9842   */\n    tag_248:\n        /* \"#utility.yul\":9441:9447   */\n      dup6\n        /* \"#utility.yul\":9438:9439   */\n      dup2\n        /* \"#utility.yul\":9435:9448   */\n      lt\n        /* \"#utility.yul\":9416:9842   */\n      iszero\n      tag_250\n      jumpi\n        /* \"#utility.yul\":9512:9521   */\n      dup5\n        /* \"#utility.yul\":9506:9510   */\n      dup5\n        /* \"#utility.yul\":9502:9522   */\n      sub\n        /* \"#utility.yul\":9497:9500   */\n      dup10\n        /* \"#utility.yul\":9490:9523   */\n      mstore\n        /* \"#utility.yul\":9563:9569   */\n      dup2\n        /* \"#utility.yul\":9557:9570   */\n      mload\n        /* \"#utility.yul\":9591:9695   */\n      tag_251\n        /* \"#utility.yul\":9690:9694   */\n      dup6\n        /* \"#utility.yul\":9675:9688   */\n      dup3\n        /* \"#utility.yul\":9591:9695   */\n      tag_124\n      jump\t// in\n    tag_251:\n        /* \"#utility.yul\":9583:9695   */\n      swap5\n      pop\n        /* \"#utility.yul\":9718:9798   */\n      tag_252\n        /* \"#utility.yul\":9791:9797   */\n      dup4\n        /* \"#utility.yul\":9718:9798   */\n      tag_125\n      jump\t// in\n    tag_252:\n        /* \"#utility.yul\":9708:9798   */\n      swap3\n      pop\n        /* \"#utility.yul\":9827:9831   */\n      0x20\n        /* \"#utility.yul\":9822:9825   */\n      dup11\n        /* \"#utility.yul\":9818:9832   */\n      add\n        /* \"#utility.yul\":9811:9832   */\n      swap10\n      pop\n        /* \"#utility.yul\":9476:9842   */\n      pop\n        /* \"#utility.yul\":9463:9464   */\n      0x01\n        /* \"#utility.yul\":9460:9461   */\n      dup2\n        /* \"#utility.yul\":9456:9465   */\n      add\n        /* \"#utility.yul\":9451:9465   */\n      swap1\n      pop\n        /* \"#utility.yul\":9416:9842   */\n      jump(tag_248)\n    tag_250:\n        /* \"#utility.yul\":9420:9434   */\n      pop\n        /* \"#utility.yul\":9858:9862   */\n      dup3\n        /* \"#utility.yul\":9851:9862   */\n      swap8\n      pop\n        /* \"#utility.yul\":9878:9881   */\n      dup8\n        /* \"#utility.yul\":9871:9881   */\n      swap6\n      pop\n        /* \"#utility.yul\":8980:9887   */\n      pop\n      pop\n      pop\n      pop\n      pop\n        /* \"#utility.yul\":8816:9887   */\n      swap3\n      swap2\n      pop\n      pop\n      jump\t// out\n        /* \"#utility.yul\":9893:10346   */\n    tag_21:\n        /* \"#utility.yul\":10076:10080   */\n      0x00\n        /* \"#utility.yul\":10114:10116   */\n      0x20\n        /* \"#utility.yul\":10103:10112   */\n      dup3\n        /* \"#utility.yul\":10099:10117   */\n      add\n        /* \"#utility.yul\":10091:10117   */\n      swap1\n      pop\n        /* \"#utility.yul\":10163:10172   */\n      dup2\n        /* \"#utility.yul\":10157:10161   */\n      dup2\n        /* \"#utility.yul\":10153:10173   */\n      sub\n        /* \"#utility.yul\":10149:10150   */\n      0x00\n        /* \"#utility.yul\":10138:10147   */\n      dup4\n        /* \"#utility.yul\":10134:10151   */\n      add\n        /* \"#utility.yul\":10127:10174   */\n      mstore\n        /* \"#utility.yul\":10191:10339   */\n      tag_254\n        /* \"#utility.yul\":10334:10338   */\n      dup2\n        /* \"#utility.yul\":10325:10331   */\n      dup5\n        /* \"#utility.yul\":10191:10339   */\n      tag_126\n      jump\t// in\n    tag_254:\n        /* \"#utility.yul\":10183:10339   */\n      swap1\n      pop\n        /* \"#utility.yul\":9893:10346   */\n      swap3\n      swap2\n      pop\n      pop\n      jump\t// out\n        /* \"#utility.yul\":10352:10681   */\n    tag_27:\n        /* \"#utility.yul\":10411:10417   */\n      0x00\n        /* \"#utility.yul\":10460:10462   */\n      0x20\n        /* \"#utility.yul\":10448:10457   */\n      dup3\n        /* \"#utility.yul\":10439:10446   */\n      dup5\n        /* \"#utility.yul\":10435:10458   */\n      sub\n        /* \"#utility.yul\":10431:10463   */\n      slt\n        /* \"#utility.yul\":10428:10547   */\n      iszero\n      tag_256\n      jumpi\n        /* \"#utility.yul\":10466:10545   */\n      tag_257\n      tag_97\n      jump\t// in\n    tag_257:\n        /* \"#utility.yul\":10428:10547   */\n    tag_256:\n        /* \"#utility.yul\":10586:10587   */\n      0x00\n        /* \"#utility.yul\":10611:10664   */\n      tag_258\n        /* \"#utility.yul\":10656:10663   */\n      dup5\n        /* \"#utility.yul\":10647:10653   */\n      dup3\n        /* \"#utility.yul\":10636:10645   */\n      dup6\n        /* \"#utility.yul\":10632:10654   */\n      add\n        /* \"#utility.yul\":10611:10664   */\n      tag_101\n      jump\t// in\n    tag_258:\n        /* \"#utility.yul\":10601:10664   */\n      swap2\n      pop\n        /* \"#utility.yul\":10557:10674   */\n      pop\n        /* \"#utility.yul\":10352:10681   */\n      swap3\n      swap2\n      pop\n      pop\n      jump\t// out\n        /* \"#utility.yul\":10687:10856   */\n    tag_127:\n        /* \"#utility.yul\":10771:10782   */\n      0x00\n        /* \"#utility.yul\":10805:10811   */\n      dup3\n        /* \"#utility.yul\":10800:10803   */\n      dup3\n        /* \"#utility.yul\":10793:10812   */\n      mstore\n        /* \"#utility.yul\":10845:10849   */\n      0x20\n        /* \"#utility.yul\":10840:10843   */\n      dup3\n        /* \"#utility.yul\":10836:10850   */\n      add\n        /* \"#utility.yul\":10821:10850   */\n      swap1\n      pop\n        /* \"#utility.yul\":10687:10856   */\n      swap3\n      swap2\n      pop\n      pop\n      jump\t// out\n        /* \"#utility.yul\":10862:11239   */\n    tag_128:\n        /* \"#utility.yul\":10950:10953   */\n      0x00\n        /* \"#utility.yul\":10978:11017   */\n      tag_261\n        /* \"#utility.yul\":11011:11016   */\n      dup3\n        /* \"#utility.yul\":10978:11017   */\n      tag_119\n      jump\t// in\n    tag_261:\n        /* \"#utility.yul\":11033:11104   */\n      tag_262\n        /* \"#utility.yul\":11097:11103   */\n      dup2\n        /* \"#utility.yul\":11092:11095   */\n      dup6\n        /* \"#utility.yul\":11033:11104   */\n      tag_127\n      jump\t// in\n    tag_262:\n        /* \"#utility.yul\":11026:11104   */\n      swap4\n      pop\n        /* \"#utility.yul\":11113:11178   */\n      tag_263\n        /* \"#utility.yul\":11171:11177   */\n      dup2\n        /* \"#utility.yul\":11166:11169   */\n      dup6\n        /* \"#utility.yul\":11159:11163   */\n      0x20\n        /* \"#utility.yul\":11152:11157   */\n      dup7\n        /* \"#utility.yul\":11148:11164   */\n      add\n        /* \"#utility.yul\":11113:11178   */\n      tag_121\n      jump\t// in\n    tag_263:\n        /* \"#utility.yul\":11203:11232   */\n      tag_264\n        /* \"#utility.yul\":11225:11231   */\n      dup2\n        /* \"#utility.yul\":11203:11232   */\n      tag_104\n      jump\t// in\n    tag_264:\n        /* \"#utility.yul\":11198:11201   */\n      dup5\n        /* \"#utility.yul\":11194:11233   */\n      add\n        /* \"#utility.yul\":11187:11233   */\n      swap2\n      pop\n        /* \"#utility.yul\":10954:11239   */\n      pop\n        /* \"#utility.yul\":10862:11239   */\n      swap3\n      swap2\n      pop\n      pop\n      jump\t// out\n        /* \"#utility.yul\":11245:11759   */\n    tag_30:\n        /* \"#utility.yul\":11406:11410   */\n      0x00\n        /* \"#utility.yul\":11444:11446   */\n      0x40\n        /* \"#utility.yul\":11433:11442   */\n      dup3\n        /* \"#utility.yul\":11429:11447   */\n      add\n        /* \"#utility.yul\":11421:11447   */\n      swap1\n      pop\n        /* \"#utility.yul\":11493:11502   */\n      dup2\n        /* \"#utility.yul\":11487:11491   */\n      dup2\n        /* \"#utility.yul\":11483:11503   */\n      sub\n        /* \"#utility.yul\":11479:11480   */\n      0x00\n        /* \"#utility.yul\":11468:11477   */\n      dup4\n        /* \"#utility.yul\":11464:11481   */\n      add\n        /* \"#utility.yul\":11457:11504   */\n      mstore\n        /* \"#utility.yul\":11521:11599   */\n      tag_266\n        /* \"#utility.yul\":11594:11598   */\n      dup2\n        /* \"#utility.yul\":11585:11591   */\n      dup6\n        /* \"#utility.yul\":11521:11599   */\n      tag_128\n      jump\t// in\n    tag_266:\n        /* \"#utility.yul\":11513:11599   */\n      swap1\n      pop\n        /* \"#utility.yul\":11646:11655   */\n      dup2\n        /* \"#utility.yul\":11640:11644   */\n      dup2\n        /* \"#utility.yul\":11636:11656   */\n      sub\n        /* \"#utility.yul\":11631:11633   */\n      0x20\n        /* \"#utility.yul\":11620:11629   */\n      dup4\n        /* \"#utility.yul\":11616:11634   */\n      add\n        /* \"#utility.yul\":11609:11657   */\n      mstore\n        /* \"#utility.yul\":11674:11752   */\n      tag_267\n        /* \"#utility.yul\":11747:11751   */\n      dup2\n        /* \"#utility.yul\":11738:11744   */\n      dup5\n        /* \"#utility.yul\":11674:11752   */\n      tag_128\n      jump\t// in\n    tag_267:\n        /* \"#utility.yul\":11666:11752   */\n      swap1\n      pop\n        /* \"#utility.yul\":11245:11759   */\n      swap4\n      swap3\n      pop\n      pop\n      pop\n      jump\t// out\n        /* \"#utility.yul\":11765:11945   */\n    tag_129:\n        /* \"#utility.yul\":11813:11890   */\n      0x4e487b7100000000000000000000000000000000000000000000000000000000\n        /* \"#utility.yul\":11810:11811   */\n      0x00\n        /* \"#utility.yul\":11803:11891   */\n      mstore\n        /* \"#utility.yul\":11910:11914   */\n      0x22\n        /* \"#utility.yul\":11907:11908   */\n      0x04\n        /* \"#utility.yul\":11900:11915   */\n      mstore\n        /* \"#utility.yul\":11934:11938   */\n      0x24\n        /* \"#utility.yul\":11931:11932   */\n      0x00\n        /* \"#utility.yul\":11924:11939   */\n      revert\n        /* \"#utility.yul\":11951:12271   */\n    tag_33:\n        /* \"#utility.yul\":11995:12001   */\n      0x00\n        /* \"#utility.yul\":12032:12033   */\n      0x02\n        /* \"#utility.yul\":12026:12030   */\n      dup3\n        /* \"#utility.yul\":12022:12034   */\n      div\n        /* \"#utility.yul\":12012:12034   */\n      swap1\n      pop\n        /* \"#utility.yul\":12079:12080   */\n      0x01\n        /* \"#utility.yul\":12073:12077   */\n      dup3\n        /* \"#utility.yul\":12069:12081   */\n      and\n        /* \"#utility.yul\":12100:12118   */\n      dup1\n        /* \"#utility.yul\":12090:12171   */\n      tag_270\n      jumpi\n        /* \"#utility.yul\":12156:12160   */\n      0x7f\n        /* \"#utility.yul\":12148:12154   */\n      dup3\n        /* \"#utility.yul\":12144:12161   */\n      and\n        /* \"#utility.yul\":12134:12161   */\n      swap2\n      pop\n        /* \"#utility.yul\":12090:12171   */\n    tag_270:\n        /* \"#utility.yul\":12218:12220   */\n      0x20\n        /* \"#utility.yul\":12210:12216   */\n      dup3\n        /* \"#utility.yul\":12207:12221   */\n      lt\n        /* \"#utility.yul\":12187:12205   */\n      dup2\n        /* \"#utility.yul\":12184:12222   */\n      sub\n        /* \"#utility.yul\":12181:12265   */\n      tag_271\n      jumpi\n        /* \"#utility.yul\":12237:12255   */\n      tag_272\n      tag_129\n      jump\t// in\n    tag_272:\n        /* \"#utility.yul\":12181:12265   */\n    tag_271:\n        /* \"#utility.yul\":12002:12271   */\n      pop\n        /* \"#utility.yul\":11951:12271   */\n      swap2\n      swap1\n      pop\n      jump\t// out\n        /* \"#utility.yul\":12277:12459   */\n    tag_130:\n        /* \"#utility.yul\":12417:12451   */\n      0x426f6f6b20616c7265616479206578697374206174207468697320696e646578\n        /* \"#utility.yul\":12413:12414   */\n      0x00\n        /* \"#utility.yul\":12405:12411   */\n      dup3\n        /* \"#utility.yul\":12401:12415   */\n      add\n        /* \"#utility.yul\":12394:12452   */\n      mstore\n        /* \"#utility.yul\":12277:12459   */\n      pop\n      jump\t// out\n        /* \"#utility.yul\":12465:12831   */\n    tag_131:\n        /* \"#utility.yul\":12607:12610   */\n      0x00\n        /* \"#utility.yul\":12628:12695   */\n      tag_275\n        /* \"#utility.yul\":12692:12694   */\n      0x20\n        /* \"#utility.yul\":12687:12690   */\n      dup4\n        /* \"#utility.yul\":12628:12695   */\n      tag_127\n      jump\t// in\n    tag_275:\n        /* \"#utility.yul\":12621:12695   */\n      swap2\n      pop\n        /* \"#utility.yul\":12704:12797   */\n      tag_276\n        /* \"#utility.yul\":12793:12796   */\n      dup3\n        /* \"#utility.yul\":12704:12797   */\n      tag_130\n      jump\t// in\n    tag_276:\n        /* \"#utility.yul\":12822:12824   */\n      0x20\n        /* \"#utility.yul\":12817:12820   */\n      dup3\n        /* \"#utility.yul\":12813:12825   */\n      add\n        /* \"#utility.yul\":12806:12825   */\n      swap1\n      pop\n        /* \"#utility.yul\":12465:12831   */\n      swap2\n      swap1\n      pop\n      jump\t// out\n        /* \"#utility.yul\":12837:13256   */\n    tag_36:\n        /* \"#utility.yul\":13003:13007   */\n      0x00\n        /* \"#utility.yul\":13041:13043   */\n      0x20\n        /* \"#utility.yul\":13030:13039   */\n      dup3\n        /* \"#utility.yul\":13026:13044   */\n      add\n        /* \"#utility.yul\":13018:13044   */\n      swap1\n      pop\n        /* \"#utility.yul\":13090:13099   */\n      dup2\n        /* \"#utility.yul\":13084:13088   */\n      dup2\n        /* \"#utility.yul\":13080:13100   */\n      sub\n        /* \"#utility.yul\":13076:13077   */\n      0x00\n        /* \"#utility.yul\":13065:13074   */\n      dup4\n        /* \"#utility.yul\":13061:13078   */\n      add\n        /* \"#utility.yul\":13054:13101   */\n      mstore\n        /* \"#utility.yul\":13118:13249   */\n      tag_278\n        /* \"#utility.yul\":13244:13248   */\n      dup2\n        /* \"#utility.yul\":13118:13249   */\n      tag_131\n      jump\t// in\n    tag_278:\n        /* \"#utility.yul\":13110:13249   */\n      swap1\n      pop\n        /* \"#utility.yul\":12837:13256   */\n      swap2\n      swap1\n      pop\n      jump\t// out\n        /* \"#utility.yul\":13262:13403   */\n    tag_132:\n        /* \"#utility.yul\":13311:13315   */\n      0x00\n        /* \"#utility.yul\":13334:13337   */\n      dup2\n        /* \"#utility.yul\":13326:13337   */\n      swap1\n      pop\n        /* \"#utility.yul\":13357:13360   */\n      dup2\n        /* \"#utility.yul\":13354:13355   */\n      0x00\n        /* \"#utility.yul\":13347:13361   */\n      mstore\n        /* \"#utility.yul\":13391:13395   */\n      0x20\n        /* \"#utility.yul\":13388:13389   */\n      0x00\n        /* \"#utility.yul\":13378:13396   */\n      keccak256\n        /* \"#utility.yul\":13370:13396   */\n      swap1\n      pop\n        /* \"#utility.yul\":13262:13403   */\n      swap2\n      swap1\n      pop\n      jump\t// out\n        /* \"#utility.yul\":13409:13502   */\n    tag_133:\n        /* \"#utility.yul\":13446:13452   */\n      0x00\n        /* \"#utility.yul\":13493:13495   */\n      0x20\n        /* \"#utility.yul\":13488:13490   */\n      0x1f\n        /* \"#utility.yul\":13481:13486   */\n      dup4\n        /* \"#utility.yul\":13477:13491   */\n      add\n        /* \"#utility.yul\":13473:13496   */\n      div\n        /* \"#utility.yul\":13463:13496   */\n      swap1\n      pop\n        /* \"#utility.yul\":13409:13502   */\n      swap2\n      swap1\n      pop\n      jump\t// out\n        /* \"#utility.yul\":13508:13615   */\n    tag_134:\n        /* \"#utility.yul\":13552:13560   */\n      0x00\n        /* \"#utility.yul\":13602:13607   */\n      dup3\n        /* \"#utility.yul\":13596:13600   */\n      dup3\n        /* \"#utility.yul\":13592:13608   */\n      shl\n        /* \"#utility.yul\":13571:13608   */\n      swap1\n      pop\n        /* \"#utility.yul\":13508:13615   */\n      swap3\n      swap2\n      pop\n      pop\n      jump\t// out\n        /* \"#utility.yul\":13621:14014   */\n    tag_135:\n        /* \"#utility.yul\":13690:13696   */\n      0x00\n        /* \"#utility.yul\":13740:13741   */\n      0x08\n        /* \"#utility.yul\":13728:13738   */\n      dup4\n        /* \"#utility.yul\":13724:13742   */\n      mul\n        /* \"#utility.yul\":13763:13860   */\n      tag_283\n        /* \"#utility.yul\":13793:13859   */\n      0xffffffffffffffffffffffffffffffffffffffffffffffffffffffffffffffff\n        /* \"#utility.yul\":13782:13791   */\n      dup3\n        /* \"#utility.yul\":13763:13860   */\n      tag_134\n      jump\t// in\n    tag_283:\n        /* \"#utility.yul\":13881:13920   */\n      tag_284\n        /* \"#utility.yul\":13911:13919   */\n      dup7\n        /* \"#utility.yul\":13900:13909   */\n      dup4\n        /* \"#utility.yul\":13881:13920   */\n      tag_134\n      jump\t// in\n    tag_284:\n        /* \"#utility.yul\":13869:13920   */\n      swap6\n      pop\n        /* \"#utility.yul\":13953:13957   */\n      dup1\n        /* \"#utility.yul\":13949:13958   */\n      not\n        /* \"#utility.yul\":13942:13947   */\n      dup5\n        /* \"#utility.yul\":13938:13959   */\n      and\n        /* \"#utility.yul\":13929:13959   */\n      swap4\n      pop\n        /* \"#utility.yul\":14002:14006   */\n      dup1\n        /* \"#utility.yul\":13992:14000   */\n      dup7\n        /* \"#utility.yul\":13988:14007   */\n      and\n        /* \"#utility.yul\":13981:13986   */\n      dup5\n        /* \"#utility.yul\":13978:14008   */\n      or\n        /* \"#utility.yul\":13968:14008   */\n      swap3\n      pop\n        /* \"#utility.yul\":13697:14014   */\n      pop\n      pop\n        /* \"#utility.yul\":13621:14014   */\n      swap4\n      swap3\n      pop\n      pop\n      pop\n      jump\t// out\n        /* \"#utility.yul\":14020:14080   */\n    tag_136:\n        /* \"#utility.yul\":14048:14051   */\n      0x00\n        /* \"#utility.yul\":14069:14074   */\n      dup2\n        /* \"#utility.yul\":14062:14074   */\n      swap1\n      pop\n        /* \"#utility.yul\":14020:14080   */\n      swap2\n      swap1\n      pop\n      jump\t// out\n        /* \"#utility.yul\":14086:14228   */\n    tag_137:\n        /* \"#utility.yul\":14136:14145   */\n      0x00\n        /* \"#utility.yul\":14169:14222   */\n      tag_287\n        /* \"#utility.yul\":14187:14221   */\n      tag_288\n        /* \"#utility.yul\":14196:14220   */\n      tag_289\n        /* \"#utility.yul\":14214:14219   */\n      dup5\n        /* \"#utility.yul\":14196:14220   */\n      tag_99\n      jump\t// in\n    tag_289:\n        /* \"#utility.yul\":14187:14221   */\n      tag_136\n      jump\t// in\n    tag_288:\n        /* \"#utility.yul\":14169:14222   */\n      tag_99\n      jump\t// in\n    tag_287:\n        /* \"#utility.yul\":14156:14222   */\n      swap1\n      pop\n        /* \"#utility.yul\":14086:14228   */\n      swap2\n      swap1\n      pop\n      jump\t// out\n        /* \"#utility.yul\":14234:14309   */\n    tag_138:\n        /* \"#utility.yul\":14277:14280   */\n      0x00\n        /* \"#utility.yul\":14298:14303   */\n      dup2\n        /* \"#utility.yul\":14291:14303   */\n      swap1\n      pop\n        /* \"#utility.yul\":14234:14309   */\n      swap2\n      swap1\n      pop\n      jump\t// out\n        /* \"#utility.yul\":14315:14584   */\n    tag_139:\n        /* \"#utility.yul\":14425:14464   */\n      tag_292\n        /* \"#utility.yul\":14456:14463   */\n      dup4\n        /* \"#utility.yul\":14425:14464   */\n      tag_137\n      jump\t// in\n    tag_292:\n        /* \"#utility.yul\":14486:14577   */\n      tag_293\n        /* \"#utility.yul\":14535:14576   */\n      tag_294\n        /* \"#utility.yul\":14559:14575   */\n      dup3\n        /* \"#utility.yul\":14535:14576   */\n      tag_138\n      jump\t// in\n    tag_294:\n        /* \"#utility.yul\":14527:14533   */\n      dup5\n        /* \"#utility.yul\":14520:14524   */\n      dup5\n        /* \"#utility.yul\":14514:14525   */\n      sload\n        /* \"#utility.yul\":14486:14577   */\n      tag_135\n      jump\t// in\n    tag_293:\n        /* \"#utility.yul\":14480:14484   */\n      dup3\n        /* \"#utility.yul\":14473:14578   */\n      sstore\n        /* \"#utility.yul\":14391:14584   */\n      pop\n        /* \"#utility.yul\":14315:14584   */\n      pop\n      pop\n      pop\n      jump\t// out\n        /* \"#utility.yul\":14590:14663   */\n    tag_140:\n        /* \"#utility.yul\":14635:14638   */\n      0x00\n        /* \"#utility.yul\":14590:14663   */\n      swap1\n      jump\t// out\n        /* \"#utility.yul\":14669:14858   */\n    tag_141:\n        /* \"#utility.yul\":14746:14778   */\n      tag_297\n      tag_140\n      jump\t// in\n    tag_297:\n        /* \"#utility.yul\":14787:14852   */\n      tag_298\n        /* \"#utility.yul\":14845:14851   */\n      dup2\n        /* \"#utility.yul\":14837:14843   */\n      dup5\n        /* \"#utility.yul\":14831:14835   */\n      dup5\n        /* \"#utility.yul\":14787:14852   */\n      tag_139\n      jump\t// in\n    tag_298:\n        /* \"#utility.yul\":14722:14858   */\n      pop\n        /* \"#utility.yul\":14669:14858   */\n      pop\n      pop\n      jump\t// out\n        /* \"#utility.yul\":14864:15050   */\n    tag_142:\n        /* \"#utility.yul\":14924:15044   */\n    tag_300:\n        /* \"#utility.yul\":14941:14944   */\n      dup2\n        /* \"#utility.yul\":14934:14939   */\n      dup2\n        /* \"#utility.yul\":14931:14945   */\n      lt\n        /* \"#utility.yul\":14924:15044   */\n      iszero\n      tag_302\n      jumpi\n        /* \"#utility.yul\":14995:15034   */\n      tag_303\n        /* \"#utility.yul\":15032:15033   */\n      0x00\n        /* \"#utility.yul\":15025:15030   */\n      dup3\n        /* \"#utility.yul\":14995:15034   */\n      tag_141\n      jump\t// in\n    tag_303:\n        /* \"#utility.yul\":14968:14969   */\n      0x01\n        /* \"#utility.yul\":14961:14966   */\n      dup2\n        /* \"#utility.yul\":14957:14970   */\n      add\n        /* \"#utility.yul\":14948:14970   */\n      swap1\n      pop\n        /* \"#utility.yul\":14924:15044   */\n      jump(tag_300)\n    tag_302:\n        /* \"#utility.yul\":14864:15050   */\n      pop\n      pop\n      jump\t// out\n        /* \"#utility.yul\":15056:15599   */\n    tag_143:\n        /* \"#utility.yul\":15157:15159   */\n      0x1f\n        /* \"#utility.yul\":15152:15155   */\n      dup3\n        /* \"#utility.yul\":15149:15160   */\n      gt\n        /* \"#utility.yul\":15146:15592   */\n      iszero\n      tag_305\n      jumpi\n        /* \"#utility.yul\":15191:15229   */\n      tag_306\n        /* \"#utility.yul\":15223:15228   */\n      dup2\n        /* \"#utility.yul\":15191:15229   */\n      tag_132\n      jump\t// in\n    tag_306:\n        /* \"#utility.yul\":15275:15304   */\n      tag_307\n        /* \"#utility.yul\":15293:15303   */\n      dup5\n        /* \"#utility.yul\":15275:15304   */\n      tag_133\n      jump\t// in\n    tag_307:\n        /* \"#utility.yul\":15265:15273   */\n      dup2\n        /* \"#utility.yul\":15261:15305   */\n      add\n        /* \"#utility.yul\":15458:15460   */\n      0x20\n        /* \"#utility.yul\":15446:15456   */\n      dup6\n        /* \"#utility.yul\":15443:15461   */\n      lt\n        /* \"#utility.yul\":15440:15489   */\n      iszero\n      tag_308\n      jumpi\n        /* \"#utility.yul\":15479:15487   */\n      dup2\n        /* \"#utility.yul\":15464:15487   */\n      swap1\n      pop\n        /* \"#utility.yul\":15440:15489   */\n    tag_308:\n        /* \"#utility.yul\":15502:15582   */\n      tag_309\n        /* \"#utility.yul\":15558:15580   */\n      tag_310\n        /* \"#utility.yul\":15576:15579   */\n      dup6\n        /* \"#utility.yul\":15558:15580   */\n      tag_133\n      jump\t// in\n    tag_310:\n        /* \"#utility.yul\":15548:15556   */\n      dup4\n        /* \"#utility.yul\":15544:15581   */\n      add\n        /* \"#utility.yul\":15531:15542   */\n      dup3\n        /* \"#utility.yul\":15502:15582   */\n      tag_142\n      jump\t// in\n    tag_309:\n        /* \"#utility.yul\":15161:15592   */\n      pop\n      pop\n        /* \"#utility.yul\":15146:15592   */\n    tag_305:\n        /* \"#utility.yul\":15056:15599   */\n      pop\n      pop\n      pop\n      jump\t// out\n        /* \"#utility.yul\":15605:15722   */\n    tag_144:\n        /* \"#utility.yul\":15659:15667   */\n      0x00\n        /* \"#utility.yul\":15709:15714   */\n      dup3\n        /* \"#utility.yul\":15703:15707   */\n      dup3\n        /* \"#utility.yul\":15699:15715   */\n      shr\n        /* \"#utility.yul\":15678:15715   */\n      swap1\n      pop\n        /* \"#utility.yul\":15605:15722   */\n      swap3\n      swap2\n      pop\n      pop\n      jump\t// out\n        /* \"#utility.yul\":15728:15897   */\n    tag_145:\n        /* \"#utility.yul\":15772:15778   */\n      0x00\n        /* \"#utility.yul\":15805:15856   */\n      tag_313\n        /* \"#utility.yul\":15853:15854   */\n      0x00\n        /* \"#utility.yul\":15849:15855   */\n      not\n        /* \"#utility.yul\":15841:15846   */\n      dup5\n        /* \"#utility.yul\":15838:15839   */\n      0x08\n        /* \"#utility.yul\":15834:15847   */\n      mul\n        /* \"#utility.yul\":15805:15856   */\n      tag_144\n      jump\t// in\n    tag_313:\n        /* \"#utility.yul\":15801:15857   */\n      not\n        /* \"#utility.yul\":15886:15890   */\n      dup1\n        /* \"#utility.yul\":15880:15884   */\n      dup4\n        /* \"#utility.yul\":15876:15891   */\n      and\n        /* \"#utility.yul\":15866:15891   */\n      swap2\n      pop\n        /* \"#utility.yul\":15779:15897   */\n      pop\n        /* \"#utility.yul\":15728:15897   */\n      swap3\n      swap2\n      pop\n      pop\n      jump\t// out\n        /* \"#utility.yul\":15902:16197   */\n    tag_146:\n        /* \"#utility.yul\":15978:15982   */\n      0x00\n        /* \"#utility.yul\":16124:16153   */\n      tag_315\n        /* \"#utility.yul\":16149:16152   */\n      dup4\n        /* \"#utility.yul\":16143:16147   */\n      dup4\n        /* \"#utility.yul\":16124:16153   */\n      tag_145\n      jump\t// in\n    tag_315:\n        /* \"#utility.yul\":16116:16153   */\n      swap2\n      pop\n        /* \"#utility.yul\":16186:16189   */\n      dup3\n        /* \"#utility.yul\":16183:16184   */\n      0x02\n        /* \"#utility.yul\":16179:16190   */\n      mul\n        /* \"#utility.yul\":16173:16177   */\n      dup3\n        /* \"#utility.yul\":16170:16191   */\n      or\n        /* \"#utility.yul\":16162:16191   */\n      swap1\n      pop\n        /* \"#utility.yul\":15902:16197   */\n      swap3\n      swap2\n      pop\n      pop\n      jump\t// out\n        /* \"#utility.yul\":16202:17597   */\n    tag_38:\n        /* \"#utility.yul\":16319:16356   */\n      tag_317\n        /* \"#utility.yul\":16352:16355   */\n      dup3\n        /* \"#utility.yul\":16319:16356   */\n      tag_119\n      jump\t// in\n    tag_317:\n        /* \"#utility.yul\":16421:16439   */\n      0xffffffffffffffff\n        /* \"#utility.yul\":16413:16419   */\n      dup2\n        /* \"#utility.yul\":16410:16440   */\n      gt\n        /* \"#utility.yul\":16407:16463   */\n      iszero\n      tag_318\n      jumpi\n        /* \"#utility.yul\":16443:16461   */\n      tag_319\n      tag_48\n      jump\t// in\n    tag_319:\n        /* \"#utility.yul\":16407:16463   */\n    tag_318:\n        /* \"#utility.yul\":16487:16525   */\n      tag_320\n        /* \"#utility.yul\":16519:16523   */\n      dup3\n        /* \"#utility.yul\":16513:16524   */\n      sload\n        /* \"#utility.yul\":16487:16525   */\n      tag_33\n      jump\t// in\n    tag_320:\n        /* \"#utility.yul\":16572:16639   */\n      tag_321\n        /* \"#utility.yul\":16632:16638   */\n      dup3\n        /* \"#utility.yul\":16624:16630   */\n      dup3\n        /* \"#utility.yul\":16618:16622   */\n      dup6\n        /* \"#utility.yul\":16572:16639   */\n      tag_143\n      jump\t// in\n    tag_321:\n        /* \"#utility.yul\":16666:16667   */\n      0x00\n        /* \"#utility.yul\":16690:16694   */\n      0x20\n        /* \"#utility.yul\":16677:16694   */\n      swap1\n      pop\n        /* \"#utility.yul\":16722:16724   */\n      0x1f\n        /* \"#utility.yul\":16714:16720   */\n      dup4\n        /* \"#utility.yul\":16711:16725   */\n      gt\n        /* \"#utility.yul\":16739:16740   */\n      0x01\n        /* \"#utility.yul\":16734:17352   */\n      dup2\n      eq\n      tag_323\n      jumpi\n        /* \"#utility.yul\":17396:17397   */\n      0x00\n        /* \"#utility.yul\":17413:17419   */\n      dup5\n        /* \"#utility.yul\":17410:17487   */\n      iszero\n      tag_324\n      jumpi\n        /* \"#utility.yul\":17462:17471   */\n      dup3\n        /* \"#utility.yul\":17457:17460   */\n      dup8\n        /* \"#utility.yul\":17453:17472   */\n      add\n        /* \"#utility.yul\":17447:17473   */\n      mload\n        /* \"#utility.yul\":17438:17473   */\n      swap1\n      pop\n        /* \"#utility.yul\":17410:17487   */\n    tag_324:\n        /* \"#utility.yul\":17513:17580   */\n      tag_325\n        /* \"#utility.yul\":17573:17579   */\n      dup6\n        /* \"#utility.yul\":17566:17571   */\n      dup3\n        /* \"#utility.yul\":17513:17580   */\n      tag_146\n      jump\t// in\n    tag_325:\n        /* \"#utility.yul\":17507:17511   */\n      dup7\n        /* \"#utility.yul\":17500:17581   */\n      sstore\n        /* \"#utility.yul\":17369:17591   */\n      pop\n        /* \"#utility.yul\":16704:17591   */\n      jump(tag_322)\n        /* \"#utility.yul\":16734:17352   */\n    tag_323:\n        /* \"#utility.yul\":16786:16790   */\n      0x1f\n        /* \"#utility.yul\":16782:16791   */\n      not\n        /* \"#utility.yul\":16774:16780   */\n      dup5\n        /* \"#utility.yul\":16770:16792   */\n      and\n        /* \"#utility.yul\":16820:16857   */\n      tag_326\n        /* \"#utility.yul\":16852:16856   */\n      dup7\n        /* \"#utility.yul\":16820:16857   */\n      tag_132\n      jump\t// in\n    tag_326:\n        /* \"#utility.yul\":16879:16880   */\n      0x00\n        /* \"#utility.yul\":16893:17101   */\n    tag_327:\n        /* \"#utility.yul\":16907:16914   */\n      dup3\n        /* \"#utility.yul\":16904:16905   */\n      dup2\n        /* \"#utility.yul\":16901:16915   */\n      lt\n        /* \"#utility.yul\":16893:17101   */\n      iszero\n      tag_329\n      jumpi\n        /* \"#utility.yul\":16986:16995   */\n      dup5\n        /* \"#utility.yul\":16981:16984   */\n      dup10\n        /* \"#utility.yul\":16977:16996   */\n      add\n        /* \"#utility.yul\":16971:16997   */\n      mload\n        /* \"#utility.yul\":16963:16969   */\n      dup3\n        /* \"#utility.yul\":16956:16998   */\n      sstore\n        /* \"#utility.yul\":17037:17038   */\n      0x01\n        /* \"#utility.yul\":17029:17035   */\n      dup3\n        /* \"#utility.yul\":17025:17039   */\n      add\n        /* \"#utility.yul\":17015:17039   */\n      swap2\n      pop\n        /* \"#utility.yul\":17084:17086   */\n      0x20\n        /* \"#utility.yul\":17073:17082   */\n      dup6\n        /* \"#utility.yul\":17069:17087   */\n      add\n        /* \"#utility.yul\":17056:17087   */\n      swap5\n      pop\n        /* \"#utility.yul\":16930:16934   */\n      0x20\n        /* \"#utility.yul\":16927:16928   */\n      dup2\n        /* \"#utility.yul\":16923:16935   */\n      add\n        /* \"#utility.yul\":16918:16935   */\n      swap1\n      pop\n        /* \"#utility.yul\":16893:17101   */\n      jump(tag_327)\n    tag_329:\n        /* \"#utility.yul\":17129:17135   */\n      dup7\n        /* \"#utility.yul\":17120:17127   */\n      dup4\n        /* \"#utility.yul\":17117:17136   */\n      lt\n        /* \"#utility.yul\":17114:17293   */\n      iszero\n      tag_330\n      jumpi\n        /* \"#utility.yul\":17187:17196   */\n      dup5\n        /* \"#utility.yul\":17182:17185   */\n      dup10\n        /* \"#utility.yul\":17178:17197   */\n      add\n        /* \"#utility.yul\":17172:17198   */\n      mload\n        /* \"#utility.yul\":17230:17278   */\n      tag_331\n        /* \"#utility.yul\":17272:17276   */\n      0x1f\n        /* \"#utility.yul\":17264:17270   */\n      dup10\n        /* \"#utility.yul\":17260:17277   */\n      and\n        /* \"#utility.yul\":17249:17258   */\n      dup3\n        /* \"#utility.yul\":17230:17278   */\n      tag_145\n      jump\t// in\n    tag_331:\n        /* \"#utility.yul\":17222:17228   */\n      dup4\n        /* \"#utility.yul\":17215:17279   */\n      sstore\n        /* \"#utility.yul\":17137:17293   */\n      pop\n        /* \"#utility.yul\":17114:17293   */\n    tag_330:\n        /* \"#utility.yul\":17339:17340   */\n      0x01\n        /* \"#utility.yul\":17335:17336   */\n      0x02\n        /* \"#utility.yul\":17327:17333   */\n      dup9\n        /* \"#utility.yul\":17323:17337   */\n      mul\n        /* \"#utility.yul\":17319:17341   */\n      add\n        /* \"#utility.yul\":17313:17317   */\n      dup9\n        /* \"#utility.yul\":17306:17342   */\n      sstore\n        /* \"#utility.yul\":16741:17352   */\n      pop\n      pop\n      pop\n        /* \"#utility.yul\":16704:17591   */\n    tag_322:\n      pop\n        /* \"#utility.yul\":16294:17597   */\n      pop\n      pop\n      pop\n        /* \"#utility.yul\":16202:17597   */\n      pop\n      pop\n      jump\t// out\n        /* \"#utility.yul\":17603:17775   */\n    tag_147:\n        /* \"#utility.yul\":17743:17767   */\n      0x506c65617365206174206c65617374206f6e6520494400000000000000000000\n        /* \"#utility.yul\":17739:17740   */\n      0x00\n        /* \"#utility.yul\":17731:17737   */\n      dup3\n        /* \"#utility.yul\":17727:17741   */\n      add\n        /* \"#utility.yul\":17720:17768   */\n      mstore\n        /* \"#utility.yul\":17603:17775   */\n      pop\n      jump\t// out\n        /* \"#utility.yul\":17781:18147   */\n    tag_148:\n        /* \"#utility.yul\":17923:17926   */\n      0x00\n        /* \"#utility.yul\":17944:18011   */\n      tag_334\n        /* \"#utility.yul\":18008:18010   */\n      0x16\n        /* \"#utility.yul\":18003:18006   */\n      dup4\n        /* \"#utility.yul\":17944:18011   */\n      tag_127\n      jump\t// in\n    tag_334:\n        /* \"#utility.yul\":17937:18011   */\n      swap2\n      pop\n        /* \"#utility.yul\":18020:18113   */\n      tag_335\n        /* \"#utility.yul\":18109:18112   */\n      dup3\n        /* \"#utility.yul\":18020:18113   */\n      tag_147\n      jump\t// in\n    tag_335:\n        /* \"#utility.yul\":18138:18140   */\n      0x20\n        /* \"#utility.yul\":18133:18136   */\n      dup3\n        /* \"#utility.yul\":18129:18141   */\n      add\n        /* \"#utility.yul\":18122:18141   */\n      swap1\n      pop\n        /* \"#utility.yul\":17781:18147   */\n      swap2\n      swap1\n      pop\n      jump\t// out\n        /* \"#utility.yul\":18153:18572   */\n    tag_45:\n        /* \"#utility.yul\":18319:18323   */\n      0x00\n        /* \"#utility.yul\":18357:18359   */\n      0x20\n        /* \"#utility.yul\":18346:18355   */\n      dup3\n        /* \"#utility.yul\":18342:18360   */\n      add\n        /* \"#utility.yul\":18334:18360   */\n      swap1\n      pop\n        /* \"#utility.yul\":18406:18415   */\n      dup2\n        /* \"#utility.yul\":18400:18404   */\n      dup2\n        /* \"#utility.yul\":18396:18416   */\n      sub\n        /* \"#utility.yul\":18392:18393   */\n      0x00\n        /* \"#utility.yul\":18381:18390   */\n      dup4\n        /* \"#utility.yul\":18377:18394   */\n      add\n        /* \"#utility.yul\":18370:18417   */\n      mstore\n        /* \"#utility.yul\":18434:18565   */\n      tag_337\n        /* \"#utility.yul\":18560:18564   */\n      dup2\n        /* \"#utility.yul\":18434:18565   */\n      tag_148\n      jump\t// in\n    tag_337:\n        /* \"#utility.yul\":18426:18565   */\n      swap1\n      pop\n        /* \"#utility.yul\":18153:18572   */\n      swap2\n      swap1\n      pop\n      jump\t// out\n        /* \"#utility.yul\":18578:18758   */\n    tag_58:\n        /* \"#utility.yul\":18626:18703   */\n      0x4e487b7100000000000000000000000000000000000000000000000000000000\n        /* \"#utility.yul\":18623:18624   */\n      0x00\n        /* \"#utility.yul\":18616:18704   */\n      mstore\n        /* \"#utility.yul\":18723:18727   */\n      0x32\n        /* \"#utility.yul\":18720:18721   */\n      0x04\n        /* \"#utility.yul\":18713:18728   */\n      mstore\n        /* \"#utility.yul\":18747:18751   */\n      0x24\n        /* \"#utility.yul\":18744:18745   */\n      0x00\n        /* \"#utility.yul\":18737:18752   */\n      revert\n        /* \"#utility.yul\":18764:18944   */\n    tag_149:\n        /* \"#utility.yul\":18904:18936   */\n      0x426f6f6b20646f6573206e6f7420657869737420617420746869732049440000\n        /* \"#utility.yul\":18900:18901   */\n      0x00\n        /* \"#utility.yul\":18892:18898   */\n      dup3\n        /* \"#utility.yul\":18888:18902   */\n      add\n        /* \"#utility.yul\":18881:18937   */\n      mstore\n        /* \"#utility.yul\":18764:18944   */\n      pop\n      jump\t// out\n        /* \"#utility.yul\":18950:19316   */\n    tag_150:\n        /* \"#utility.yul\":19092:19095   */\n      0x00\n        /* \"#utility.yul\":19113:19180   */\n      tag_341\n        /* \"#utility.yul\":19177:19179   */\n      0x1e\n        /* \"#utility.yul\":19172:19175   */\n      dup4\n        /* \"#utility.yul\":19113:19180   */\n      tag_127\n      jump\t// in\n    tag_341:\n        /* \"#utility.yul\":19106:19180   */\n      swap2\n      pop\n        /* \"#utility.yul\":19189:19282   */\n      tag_342\n        /* \"#utility.yul\":19278:19281   */\n      dup3\n        /* \"#utility.yul\":19189:19282   */\n      tag_149\n      jump\t// in\n    tag_342:\n        /* \"#utility.yul\":19307:19309   */\n      0x20\n        /* \"#utility.yul\":19302:19305   */\n      dup3\n        /* \"#utility.yul\":19298:19310   */\n      add\n        /* \"#utility.yul\":19291:19310   */\n      swap1\n      pop\n        /* \"#utility.yul\":18950:19316   */\n      swap2\n      swap1\n      pop\n      jump\t// out\n        /* \"#utility.yul\":19322:19741   */\n    tag_62:\n        /* \"#utility.yul\":19488:19492   */\n      0x00\n        /* \"#utility.yul\":19526:19528   */\n      0x20\n        /* \"#utility.yul\":19515:19524   */\n      dup3\n        /* \"#utility.yul\":19511:19529   */\n      add\n        /* \"#utility.yul\":19503:19529   */\n      swap1\n      pop\n        /* \"#utility.yul\":19575:19584   */\n      dup2\n        /* \"#utility.yul\":19569:19573   */\n      dup2\n        /* \"#utility.yul\":19565:19585   */\n      sub\n        /* \"#utility.yul\":19561:19562   */\n      0x00\n        /* \"#utility.yul\":19550:19559   */\n      dup4\n        /* \"#utility.yul\":19546:19563   */\n      add\n        /* \"#utility.yul\":19539:19586   */\n      mstore\n        /* \"#utility.yul\":19603:19734   */\n      tag_344\n        /* \"#utility.yul\":19729:19733   */\n      dup2\n        /* \"#utility.yul\":19603:19734   */\n      tag_150\n      jump\t// in\n    tag_344:\n        /* \"#utility.yul\":19595:19734   */\n      swap1\n      pop\n        /* \"#utility.yul\":19322:19741   */\n      swap2\n      swap1\n      pop\n      jump\t// out\n        /* \"#utility.yul\":19747:19977   */\n    tag_151:\n        /* \"#utility.yul\":19887:19921   */\n      0x426f6f6b20616c72656164792065786973747320617420746869732049442066\n        /* \"#utility.yul\":19883:19884   */\n      0x00\n        /* \"#utility.yul\":19875:19881   */\n      dup3\n        /* \"#utility.yul\":19871:19885   */\n      add\n        /* \"#utility.yul\":19864:19922   */\n      mstore\n        /* \"#utility.yul\":19956:19969   */\n      0x6f72207468652075736572000000000000000000000000000000000000000000\n        /* \"#utility.yul\":19951:19953   */\n      0x20\n        /* \"#utility.yul\":19943:19949   */\n      dup3\n        /* \"#utility.yul\":19939:19954   */\n      add\n        /* \"#utility.yul\":19932:19970   */\n      mstore\n        /* \"#utility.yul\":19747:19977   */\n      pop\n      jump\t// out\n        /* \"#utility.yul\":19983:20349   */\n    tag_152:\n        /* \"#utility.yul\":20125:20128   */\n      0x00\n        /* \"#utility.yul\":20146:20213   */\n      tag_347\n        /* \"#utility.yul\":20210:20212   */\n      0x2b\n        /* \"#utility.yul\":20205:20208   */\n      dup4\n        /* \"#utility.yul\":20146:20213   */\n      tag_127\n      jump\t// in\n    tag_347:\n        /* \"#utility.yul\":20139:20213   */\n      swap2\n      pop\n        /* \"#utility.yul\":20222:20315   */\n      tag_348\n        /* \"#utility.yul\":20311:20314   */\n      dup3\n        /* \"#utility.yul\":20222:20315   */\n      tag_151\n      jump\t// in\n    tag_348:\n        /* \"#utility.yul\":20340:20342   */\n      0x40\n        /* \"#utility.yul\":20335:20338   */\n      dup3\n        /* \"#utility.yul\":20331:20343   */\n      add\n        /* \"#utility.yul\":20324:20343   */\n      swap1\n      pop\n        /* \"#utility.yul\":19983:20349   */\n      swap2\n      swap1\n      pop\n      jump\t// out\n        /* \"#utility.yul\":20355:20774   */\n    tag_81:\n        /* \"#utility.yul\":20521:20525   */\n      0x00\n        /* \"#utility.yul\":20559:20561   */\n      0x20\n        /* \"#utility.yul\":20548:20557   */\n      dup3\n        /* \"#utility.yul\":20544:20562   */\n      add\n        /* \"#utility.yul\":20536:20562   */\n      swap1\n      pop\n        /* \"#utility.yul\":20608:20617   */\n      dup2\n        /* \"#utility.yul\":20602:20606   */\n      dup2\n        /* \"#utility.yul\":20598:20618   */\n      sub\n        /* \"#utility.yul\":20594:20595   */\n      0x00\n        /* \"#utility.yul\":20583:20592   */\n      dup4\n        /* \"#utility.yul\":20579:20596   */\n      add\n        /* \"#utility.yul\":20572:20619   */\n      mstore\n        /* \"#utility.yul\":20636:20767   */\n      tag_350\n        /* \"#utility.yul\":20762:20766   */\n      dup2\n        /* \"#utility.yul\":20636:20767   */\n      tag_152\n      jump\t// in\n    tag_350:\n        /* \"#utility.yul\":20628:20767   */\n      swap1\n      pop\n        /* \"#utility.yul\":20355:20774   */\n      swap2\n      swap1\n      pop\n      jump\t// out\n        /* \"#utility.yul\":20780:20960   */\n    tag_153:\n        /* \"#utility.yul\":20828:20905   */\n      0x4e487b7100000000000000000000000000000000000000000000000000000000\n        /* \"#utility.yul\":20825:20826   */\n      0x00\n        /* \"#utility.yul\":20818:20906   */\n      mstore\n        /* \"#utility.yul\":20925:20929   */\n      0x11\n        /* \"#utility.yul\":20922:20923   */\n      0x04\n        /* \"#utility.yul\":20915:20930   */\n      mstore\n        /* \"#utility.yul\":20949:20953   */\n      0x24\n        /* \"#utility.yul\":20946:20947   */\n      0x00\n        /* \"#utility.yul\":20939:20954   */\n      revert\n        /* \"#utility.yul\":20966:21199   */\n    tag_85:\n        /* \"#utility.yul\":21005:21008   */\n      0x00\n        /* \"#utility.yul\":21028:21052   */\n      tag_353\n        /* \"#utility.yul\":21046:21051   */\n      dup3\n        /* \"#utility.yul\":21028:21052   */\n      tag_99\n      jump\t// in\n    tag_353:\n        /* \"#utility.yul\":21019:21052   */\n      swap2\n      pop\n        /* \"#utility.yul\":21074:21140   */\n      0xffffffffffffffffffffffffffffffffffffffffffffffffffffffffffffffff\n        /* \"#utility.yul\":21067:21072   */\n      dup3\n        /* \"#utility.yul\":21064:21141   */\n      sub\n        /* \"#utility.yul\":21061:21164   */\n      tag_354\n      jumpi\n        /* \"#utility.yul\":21144:21162   */\n      tag_355\n      tag_153\n      jump\t// in\n    tag_355:\n        /* \"#utility.yul\":21061:21164   */\n    tag_354:\n        /* \"#utility.yul\":21191:21192   */\n      0x01\n        /* \"#utility.yul\":21184:21189   */\n      dup3\n        /* \"#utility.yul\":21180:21193   */\n      add\n        /* \"#utility.yul\":21173:21193   */\n      swap1\n      pop\n        /* \"#utility.yul\":20966:21199   */\n      swap2\n      swap1\n      pop\n      jump\t// out\n\n    auxdata: 0xa2646970667358221220308352d90b40cea38cc93f7dedff2ae36255f511f3bd65b7fa1fdb121f7ef5ba64736f6c634300081a0033\n}\n",
				"bytecode": {
					"linkReferences": {},
					"object": "6080604052348015600e575f80fd5b506112f68061001c5f395ff3fe608060405234801561000f575f80fd5b5060043610610055575f3560e01c8063028414f214610059578063242d79e314610075578063398f3ce414610093578063493ec707146100c357806368744046146100df575b5f80fd5b610073600480360381019061006e91906109b1565b610110565b005b61007d610202565b60405161008a9190610a48565b60405180910390f35b6100ad60048036038101906100a89190610b25565b610246565b6040516100ba9190610cc8565b60405180910390f35b6100dd60048036038101906100d891906109b1565b61056a565b005b6100f960048036038101906100f49190610ce8565b6106ec565b604051610107929190610d5b565b60405180910390f35b5f805f8581526020019081526020015f20600101805461012f90610dbd565b905014610171576040517f08c379a000000000000000000000000000000000000000000000000000000000815260040161016890610e37565b60405180910390fd5b6040518060400160405280838152602001828152505f808581526020019081526020015f205f820151815f0190816101a99190610ff2565b5060208201518160010190816101bf9190610ff2565b50905050827f36899b40595334456eac37ba436643f558e1d5342018d7a5d05af21f752ac53983836040516101f5929190610d5b565b60405180910390a2505050565b5f60025f3373ffffffffffffffffffffffffffffffffffffffff1673ffffffffffffffffffffffffffffffffffffffff1681526020019081526020015f2054905090565b60605f82511161028b576040517f08c379a00000000000000000000000000000000000000000000000000000000081526004016102829061110b565b60405180910390fd5b5f825167ffffffffffffffff8111156102a7576102a661088d565b5b6040519080825280602002602001820160405280156102e057816020015b6102cd610817565b8152602001906001900390816102c55790505b5090505f5b8351811015610560575f60015f3373ffffffffffffffffffffffffffffffffffffffff1673ffffffffffffffffffffffffffffffffffffffff1681526020019081526020015f205f8684815181106103405761033f611129565b5b602002602001015181526020019081526020015f20600101805461036390610dbd565b9050036103a5576040517f08c379a000000000000000000000000000000000000000000000000000000000815260040161039c906111a0565b60405180910390fd5b60015f3373ffffffffffffffffffffffffffffffffffffffff1673ffffffffffffffffffffffffffffffffffffffff1681526020019081526020015f205f8583815181106103f6576103f5611129565b5b602002602001015181526020019081526020015f206040518060400160405290815f8201805461042590610dbd565b80601f016020809104026020016040519081016040528092919081815260200182805461045190610dbd565b801561049c5780601f106104735761010080835404028352916020019161049c565b820191905f5260205f20905b81548152906001019060200180831161047f57829003601f168201915b505050505081526020016001820180546104b590610dbd565b80601f01602080910402602001604051908101604052809291908181526020018280546104e190610dbd565b801561052c5780601f106105035761010080835404028352916020019161052c565b820191905f5260205f20905b81548152906001019060200180831161050f57829003601f168201915b50505050508152505082828151811061054857610547611129565b5b602002602001018190525080806001019150506102e5565b5080915050919050565b5f60015f3373ffffffffffffffffffffffffffffffffffffffff1673ffffffffffffffffffffffffffffffffffffffff1681526020019081526020015f205f8581526020019081526020015f2060010180546105c590610dbd565b905014610607576040517f08c379a00000000000000000000000000000000000000000000000000000000081526004016105fe9061122e565b60405180910390fd5b60405180604001604052808381526020018281525060015f3373ffffffffffffffffffffffffffffffffffffffff1673ffffffffffffffffffffffffffffffffffffffff1681526020019081526020015f205f8581526020019081526020015f205f820151815f01908161067b9190610ff2565b5060208201518160010190816106919190610ff2565b5090505060025f3373ffffffffffffffffffffffffffffffffffffffff1673ffffffffffffffffffffffffffffffffffffffff1681526020019081526020015f205f8154809291906106e290611279565b9190505550505050565b5f602052805f5260405f205f91509050805f01805461070a90610dbd565b80601f016020809104026020016040519081016040528092919081815260200182805461073690610dbd565b80156107815780601f1061075857610100808354040283529160200191610781565b820191905f5260205f20905b81548152906001019060200180831161076457829003601f168201915b50505050509080600101805461079690610dbd565b80601f01602080910402602001604051908101604052809291908181526020018280546107c290610dbd565b801561080d5780601f106107e45761010080835404028352916020019161080d565b820191905f5260205f20905b8154815290600101906020018083116107f057829003601f168201915b5050505050905082565b604051806040016040528060608152602001606081525090565b5f604051905090565b5f80fd5b5f80fd5b5f819050919050565b61085481610842565b811461085e575f80fd5b50565b5f8135905061086f8161084b565b92915050565b5f80fd5b5f80fd5b5f601f19601f8301169050919050565b7f4e487b71000000000000000000000000000000000000000000000000000000005f52604160045260245ffd5b6108c38261087d565b810181811067ffffffffffffffff821117156108e2576108e161088d565b5b80604052505050565b5f6108f4610831565b905061090082826108ba565b919050565b5f67ffffffffffffffff82111561091f5761091e61088d565b5b6109288261087d565b9050602081019050919050565b828183375f83830152505050565b5f61095561095084610905565b6108eb565b90508281526020810184848401111561097157610970610879565b5b61097c848285610935565b509392505050565b5f82601f83011261099857610997610875565b5b81356109a8848260208601610943565b91505092915050565b5f805f606084860312156109c8576109c761083a565b5b5f6109d586828701610861565b935050602084013567ffffffffffffffff8111156109f6576109f561083e565b5b610a0286828701610984565b925050604084013567ffffffffffffffff811115610a2357610a2261083e565b5b610a2f86828701610984565b9150509250925092565b610a4281610842565b82525050565b5f602082019050610a5b5f830184610a39565b92915050565b5f67ffffffffffffffff821115610a7b57610a7a61088d565b5b602082029050602081019050919050565b5f80fd5b5f610aa2610a9d84610a61565b6108eb565b90508083825260208201905060208402830185811115610ac557610ac4610a8c565b5b835b81811015610aee5780610ada8882610861565b845260208401935050602081019050610ac7565b5050509392505050565b5f82601f830112610b0c57610b0b610875565b5b8135610b1c848260208601610a90565b91505092915050565b5f60208284031215610b3a57610b3961083a565b5b5f82013567ffffffffffffffff811115610b5757610b5661083e565b5b610b6384828501610af8565b91505092915050565b5f81519050919050565b5f82825260208201905092915050565b5f819050602082019050919050565b5f81519050919050565b5f82825260208201905092915050565b8281835e5f83830152505050565b5f610bc782610b95565b610bd18185610b9f565b9350610be1818560208601610baf565b610bea8161087d565b840191505092915050565b5f604083015f8301518482035f860152610c0f8282610bbd565b91505060208301518482036020860152610c298282610bbd565b9150508091505092915050565b5f610c418383610bf5565b905092915050565b5f602082019050919050565b5f610c5f82610b6c565b610c698185610b76565b935083602082028501610c7b85610b86565b805f5b85811015610cb65784840389528151610c978582610c36565b9450610ca283610c49565b925060208a01995050600181019050610c7e565b50829750879550505050505092915050565b5f6020820190508181035f830152610ce08184610c55565b905092915050565b5f60208284031215610cfd57610cfc61083a565b5b5f610d0a84828501610861565b91505092915050565b5f82825260208201905092915050565b5f610d2d82610b95565b610d378185610d13565b9350610d47818560208601610baf565b610d508161087d565b840191505092915050565b5f6040820190508181035f830152610d738185610d23565b90508181036020830152610d878184610d23565b90509392505050565b7f4e487b71000000000000000000000000000000000000000000000000000000005f52602260045260245ffd5b5f6002820490506001821680610dd457607f821691505b602082108103610de757610de6610d90565b5b50919050565b7f426f6f6b20616c7265616479206578697374206174207468697320696e6465785f82015250565b5f610e21602083610d13565b9150610e2c82610ded565b602082019050919050565b5f6020820190508181035f830152610e4e81610e15565b9050919050565b5f819050815f5260205f209050919050565b5f6020601f8301049050919050565b5f82821b905092915050565b5f60088302610eb17fffffffffffffffffffffffffffffffffffffffffffffffffffffffffffffffff82610e76565b610ebb8683610e76565b95508019841693508086168417925050509392505050565b5f819050919050565b5f610ef6610ef1610eec84610842565b610ed3565b610842565b9050919050565b5f819050919050565b610f0f83610edc565b610f23610f1b82610efd565b848454610e82565b825550505050565b5f90565b610f37610f2b565b610f42818484610f06565b505050565b5b81811015610f6557610f5a5f82610f2f565b600181019050610f48565b5050565b601f821115610faa57610f7b81610e55565b610f8484610e67565b81016020851015610f93578190505b610fa7610f9f85610e67565b830182610f47565b50505b505050565b5f82821c905092915050565b5f610fca5f1984600802610faf565b1980831691505092915050565b5f610fe28383610fbb565b9150826002028217905092915050565b610ffb82610b95565b67ffffffffffffffff8111156110145761101361088d565b5b61101e8254610dbd565b611029828285610f69565b5f60209050601f83116001811461105a575f8415611048578287015190505b6110528582610fd7565b8655506110b9565b601f19841661106886610e55565b5f5b8281101561108f5784890151825560018201915060208501945060208101905061106a565b868310156110ac57848901516110a8601f891682610fbb565b8355505b6001600288020188555050505b505050505050565b7f506c65617365206174206c65617374206f6e65204944000000000000000000005f82015250565b5f6110f5601683610d13565b9150611100826110c1565b602082019050919050565b5f6020820190508181035f830152611122816110e9565b9050919050565b7f4e487b71000000000000000000000000000000000000000000000000000000005f52603260045260245ffd5b7f426f6f6b20646f6573206e6f74206578697374206174207468697320494400005f82015250565b5f61118a601e83610d13565b915061119582611156565b602082019050919050565b5f6020820190508181035f8301526111b78161117e565b9050919050565b7f426f6f6b20616c726561647920657869737473206174207468697320494420665f8201527f6f72207468652075736572000000000000000000000000000000000000000000602082015250565b5f611218602b83610d13565b9150611223826111be565b604082019050919050565b5f6020820190508181035f8301526112458161120c565b9050919050565b7f4e487b71000000000000000000000000000000000000000000000000000000005f52601160045260245ffd5b5f61128382610842565b91507fffffffffffffffffffffffffffffffffffffffffffffffffffffffffffffffff82036112b5576112b461124c565b5b60018201905091905056fea2646970667358221220308352d90b40cea38cc93f7dedff2ae36255f511f3bd65b7fa1fdb121f7ef5ba64736f6c634300081a0033",
					"opcodes": "PUSH1 0x80 PUSH1 0x40 MSTORE CALLVALUE DUP1 ISZERO PUSH1 0xE JUMPI PUSH0 DUP1 REVERT JUMPDEST POP PUSH2 0x12F6 DUP1 PUSH2 0x1C PUSH0 CODECOPY PUSH0 RETURN INVALID PUSH1 0x80 PUSH1 0x40 MSTORE CALLVALUE DUP1 ISZERO PUSH2 0xF JUMPI PUSH0 DUP1 REVERT JUMPDEST POP PUSH1 0x4 CALLDATASIZE LT PUSH2 0x55 JUMPI PUSH0 CALLDATALOAD PUSH1 0xE0 SHR DUP1 PUSH4 0x28414F2 EQ PUSH2 0x59 JUMPI DUP1 PUSH4 0x242D79E3 EQ PUSH2 0x75 JUMPI DUP1 PUSH4 0x398F3CE4 EQ PUSH2 0x93 JUMPI DUP1 PUSH4 0x493EC707 EQ PUSH2 0xC3 JUMPI DUP1 PUSH4 0x68744046 EQ PUSH2 0xDF JUMPI JUMPDEST PUSH0 DUP1 REVERT JUMPDEST PUSH2 0x73 PUSH1 0x4 DUP1 CALLDATASIZE SUB DUP2 ADD SWAP1 PUSH2 0x6E SWAP2 SWAP1 PUSH2 0x9B1 JUMP JUMPDEST PUSH2 0x110 JUMP JUMPDEST STOP JUMPDEST PUSH2 0x7D PUSH2 0x202 JUMP JUMPDEST PUSH1 0x40 MLOAD PUSH2 0x8A SWAP2 SWAP1 PUSH2 0xA48 JUMP JUMPDEST PUSH1 0x40 MLOAD DUP1 SWAP2 SUB SWAP1 RETURN JUMPDEST PUSH2 0xAD PUSH1 0x4 DUP1 CALLDATASIZE SUB DUP2 ADD SWAP1 PUSH2 0xA8 SWAP2 SWAP1 PUSH2 0xB25 JUMP JUMPDEST PUSH2 0x246 JUMP JUMPDEST PUSH1 0x40 MLOAD PUSH2 0xBA SWAP2 SWAP1 PUSH2 0xCC8 JUMP JUMPDEST PUSH1 0x40 MLOAD DUP1 SWAP2 SUB SWAP1 RETURN JUMPDEST PUSH2 0xDD PUSH1 0x4 DUP1 CALLDATASIZE SUB DUP2 ADD SWAP1 PUSH2 0xD8 SWAP2 SWAP1 PUSH2 0x9B1 JUMP JUMPDEST PUSH2 0x56A JUMP JUMPDEST STOP JUMPDEST PUSH2 0xF9 PUSH1 0x4 DUP1 CALLDATASIZE SUB DUP2 ADD SWAP1 PUSH2 0xF4 SWAP2 SWAP1 PUSH2 0xCE8 JUMP JUMPDEST PUSH2 0x6EC JUMP JUMPDEST PUSH1 0x40 MLOAD PUSH2 0x107 SWAP3 SWAP2 SWAP1 PUSH2 0xD5B JUMP JUMPDEST PUSH1 0x40 MLOAD DUP1 SWAP2 SUB SWAP1 RETURN JUMPDEST PUSH0 DUP1 PUSH0 DUP6 DUP2 MSTORE PUSH1 0x20 ADD SWAP1 DUP2 MSTORE PUSH1 0x20 ADD PUSH0 KECCAK256 PUSH1 0x1 ADD DUP1 SLOAD PUSH2 0x12F SWAP1 PUSH2 0xDBD JUMP JUMPDEST SWAP1 POP EQ PUSH2 0x171 JUMPI PUSH1 0x40 MLOAD PUSH32 0x8C379A000000000000000000000000000000000000000000000000000000000 DUP2 MSTORE PUSH1 0x4 ADD PUSH2 0x168 SWAP1 PUSH2 0xE37 JUMP JUMPDEST PUSH1 0x40 MLOAD DUP1 SWAP2 SUB SWAP1 REVERT JUMPDEST PUSH1 0x40 MLOAD DUP1 PUSH1 0x40 ADD PUSH1 0x40 MSTORE DUP1 DUP4 DUP2 MSTORE PUSH1 0x20 ADD DUP3 DUP2 MSTORE POP PUSH0 DUP1 DUP6 DUP2 MSTORE PUSH1 0x20 ADD SWAP1 DUP2 MSTORE PUSH1 0x20 ADD PUSH0 KECCAK256 PUSH0 DUP3 ADD MLOAD DUP2 PUSH0 ADD SWAP1 DUP2 PUSH2 0x1A9 SWAP2 SWAP1 PUSH2 0xFF2 JUMP JUMPDEST POP PUSH1 0x20 DUP3 ADD MLOAD DUP2 PUSH1 0x1 ADD SWAP1 DUP2 PUSH2 0x1BF SWAP2 SWAP1 PUSH2 0xFF2 JUMP JUMPDEST POP SWAP1 POP POP DUP3 PUSH32 0x36899B40595334456EAC37BA436643F558E1D5342018D7A5D05AF21F752AC539 DUP4 DUP4 PUSH1 0x40 MLOAD PUSH2 0x1F5 SWAP3 SWAP2 SWAP1 PUSH2 0xD5B JUMP JUMPDEST PUSH1 0x40 MLOAD DUP1 SWAP2 SUB SWAP1 LOG2 POP POP POP JUMP JUMPDEST PUSH0 PUSH1 0x2 PUSH0 CALLER PUSH20 0xFFFFFFFFFFFFFFFFFFFFFFFFFFFFFFFFFFFFFFFF AND PUSH20 0xFFFFFFFFFFFFFFFFFFFFFFFFFFFFFFFFFFFFFFFF AND DUP2 MSTORE PUSH1 0x20 ADD SWAP1 DUP2 MSTORE PUSH1 0x20 ADD PUSH0 KECCAK256 SLOAD SWAP1 POP SWAP1 JUMP JUMPDEST PUSH1 0x60 PUSH0 DUP3 MLOAD GT PUSH2 0x28B JUMPI PUSH1 0x40 MLOAD PUSH32 0x8C379A000000000000000000000000000000000000000000000000000000000 DUP2 MSTORE PUSH1 0x4 ADD PUSH2 0x282 SWAP1 PUSH2 0x110B JUMP JUMPDEST PUSH1 0x40 MLOAD DUP1 SWAP2 SUB SWAP1 REVERT JUMPDEST PUSH0 DUP3 MLOAD PUSH8 0xFFFFFFFFFFFFFFFF DUP2 GT ISZERO PUSH2 0x2A7 JUMPI PUSH2 0x2A6 PUSH2 0x88D JUMP JUMPDEST JUMPDEST PUSH1 0x40 MLOAD SWAP1 DUP1 DUP3 MSTORE DUP1 PUSH1 0x20 MUL PUSH1 0x20 ADD DUP3 ADD PUSH1 0x40 MSTORE DUP1 ISZERO PUSH2 0x2E0 JUMPI DUP2 PUSH1 0x20 ADD JUMPDEST PUSH2 0x2CD PUSH2 0x817 JUMP JUMPDEST DUP2 MSTORE PUSH1 0x20 ADD SWAP1 PUSH1 0x1 SWAP1 SUB SWAP1 DUP2 PUSH2 0x2C5 JUMPI SWAP1 POP JUMPDEST POP SWAP1 POP PUSH0 JUMPDEST DUP4 MLOAD DUP2 LT ISZERO PUSH2 0x560 JUMPI PUSH0 PUSH1 0x1 PUSH0 CALLER PUSH20 0xFFFFFFFFFFFFFFFFFFFFFFFFFFFFFFFFFFFFFFFF AND PUSH20 0xFFFFFFFFFFFFFFFFFFFFFFFFFFFFFFFFFFFFFFFF AND DUP2 MSTORE PUSH1 0x20 ADD SWAP1 DUP2 MSTORE PUSH1 0x20 ADD PUSH0 KECCAK256 PUSH0 DUP7 DUP5 DUP2 MLOAD DUP2 LT PUSH2 0x340 JUMPI PUSH2 0x33F PUSH2 0x1129 JUMP JUMPDEST JUMPDEST PUSH1 0x20 MUL PUSH1 0x20 ADD ADD MLOAD DUP2 MSTORE PUSH1 0x20 ADD SWAP1 DUP2 MSTORE PUSH1 0x20 ADD PUSH0 KECCAK256 PUSH1 0x1 ADD DUP1 SLOAD PUSH2 0x363 SWAP1 PUSH2 0xDBD JUMP JUMPDEST SWAP1 POP SUB PUSH2 0x3A5 JUMPI PUSH1 0x40 MLOAD PUSH32 0x8C379A000000000000000000000000000000000000000000000000000000000 DUP2 MSTORE PUSH1 0x4 ADD PUSH2 0x39C SWAP1 PUSH2 0x11A0 JUMP JUMPDEST PUSH1 0x40 MLOAD DUP1 SWAP2 SUB SWAP1 REVERT JUMPDEST PUSH1 0x1 PUSH0 CALLER PUSH20 0xFFFFFFFFFFFFFFFFFFFFFFFFFFFFFFFFFFFFFFFF AND PUSH20 0xFFFFFFFFFFFFFFFFFFFFFFFFFFFFFFFFFFFFFFFF AND DUP2 MSTORE PUSH1 0x20 ADD SWAP1 DUP2 MSTORE PUSH1 0x20 ADD PUSH0 KECCAK256 PUSH0 DUP6 DUP4 DUP2 MLOAD DUP2 LT PUSH2 0x3F6 JUMPI PUSH2 0x3F5 PUSH2 0x1129 JUMP JUMPDEST JUMPDEST PUSH1 0x20 MUL PUSH1 0x20 ADD ADD MLOAD DUP2 MSTORE PUSH1 0x20 ADD SWAP1 DUP2 MSTORE PUSH1 0x20 ADD PUSH0 KECCAK256 PUSH1 0x40 MLOAD DUP1 PUSH1 0x40 ADD PUSH1 0x40 MSTORE SWAP1 DUP2 PUSH0 DUP3 ADD DUP1 SLOAD PUSH2 0x425 SWAP1 PUSH2 0xDBD JUMP JUMPDEST DUP1 PUSH1 0x1F ADD PUSH1 0x20 DUP1 SWAP2 DIV MUL PUSH1 0x20 ADD PUSH1 0x40 MLOAD SWAP1 DUP2 ADD PUSH1 0x40 MSTORE DUP1 SWAP3 SWAP2 SWAP1 DUP2 DUP2 MSTORE PUSH1 0x20 ADD DUP3 DUP1 SLOAD PUSH2 0x451 SWAP1 PUSH2 0xDBD JUMP JUMPDEST DUP1 ISZERO PUSH2 0x49C JUMPI DUP1 PUSH1 0x1F LT PUSH2 0x473 JUMPI PUSH2 0x100 DUP1 DUP4 SLOAD DIV MUL DUP4 MSTORE SWAP2 PUSH1 0x20 ADD SWAP2 PUSH2 0x49C JUMP JUMPDEST DUP3 ADD SWAP2 SWAP1 PUSH0 MSTORE PUSH1 0x20 PUSH0 KECCAK256 SWAP1 JUMPDEST DUP2 SLOAD DUP2 MSTORE SWAP1 PUSH1 0x1 ADD SWAP1 PUSH1 0x20 ADD DUP1 DUP4 GT PUSH2 0x47F JUMPI DUP3 SWAP1 SUB PUSH1 0x1F AND DUP3 ADD SWAP2 JUMPDEST POP POP POP POP POP DUP2 MSTORE PUSH1 0x20 ADD PUSH1 0x1 DUP3 ADD DUP1 SLOAD PUSH2 0x4B5 SWAP1 PUSH2 0xDBD JUMP JUMPDEST DUP1 PUSH1 0x1F ADD PUSH1 0x20 DUP1 SWAP2 DIV MUL PUSH1 0x20 ADD PUSH1 0x40 MLOAD SWAP1 DUP2 ADD PUSH1 0x40 MSTORE DUP1 SWAP3 SWAP2 SWAP1 DUP2 DUP2 MSTORE PUSH1 0x20 ADD DUP3 DUP1 SLOAD PUSH2 0x4E1 SWAP1 PUSH2 0xDBD JUMP JUMPDEST DUP1 ISZERO PUSH2 0x52C JUMPI DUP1 PUSH1 0x1F LT PUSH2 0x503 JUMPI PUSH2 0x100 DUP1 DUP4 SLOAD DIV MUL DUP4 MSTORE SWAP2 PUSH1 0x20 ADD SWAP2 PUSH2 0x52C JUMP JUMPDEST DUP3 ADD SWAP2 SWAP1 PUSH0 MSTORE PUSH1 0x20 PUSH0 KECCAK256 SWAP1 JUMPDEST DUP2 SLOAD DUP2 MSTORE SWAP1 PUSH1 0x1 ADD SWAP1 PUSH1 0x20 ADD DUP1 DUP4 GT PUSH2 0x50F JUMPI DUP3 SWAP1 SUB PUSH1 0x1F AND DUP3 ADD SWAP2 JUMPDEST POP POP POP POP POP DUP2 MSTORE POP POP DUP3 DUP3 DUP2 MLOAD DUP2 LT PUSH2 0x548 JUMPI PUSH2 0x547 PUSH2 0x1129 JUMP JUMPDEST JUMPDEST PUSH1 0x20 MUL PUSH1 0x20 ADD ADD DUP2 SWAP1 MSTORE POP DUP1 DUP1 PUSH1 0x1 ADD SWAP2 POP POP PUSH2 0x2E5 JUMP JUMPDEST POP DUP1 SWAP2 POP POP SWAP2 SWAP1 POP JUMP JUMPDEST PUSH0 PUSH1 0x1 PUSH0 CALLER PUSH20 0xFFFFFFFFFFFFFFFFFFFFFFFFFFFFFFFFFFFFFFFF AND PUSH20 0xFFFFFFFFFFFFFFFFFFFFFFFFFFFFFFFFFFFFFFFF AND DUP2 MSTORE PUSH1 0x20 ADD SWAP1 DUP2 MSTORE PUSH1 0x20 ADD PUSH0 KECCAK256 PUSH0 DUP6 DUP2 MSTORE PUSH1 0x20 ADD SWAP1 DUP2 MSTORE PUSH1 0x20 ADD PUSH0 KECCAK256 PUSH1 0x1 ADD DUP1 SLOAD PUSH2 0x5C5 SWAP1 PUSH2 0xDBD JUMP JUMPDEST SWAP1 POP EQ PUSH2 0x607 JUMPI PUSH1 0x40 MLOAD PUSH32 0x8C379A000000000000000000000000000000000000000000000000000000000 DUP2 MSTORE PUSH1 0x4 ADD PUSH2 0x5FE SWAP1 PUSH2 0x122E JUMP JUMPDEST PUSH1 0x40 MLOAD DUP1 SWAP2 SUB SWAP1 REVERT JUMPDEST PUSH1 0x40 MLOAD DUP1 PUSH1 0x40 ADD PUSH1 0x40 MSTORE DUP1 DUP4 DUP2 MSTORE PUSH1 0x20 ADD DUP3 DUP2 MSTORE POP PUSH1 0x1 PUSH0 CALLER PUSH20 0xFFFFFFFFFFFFFFFFFFFFFFFFFFFFFFFFFFFFFFFF AND PUSH20 0xFFFFFFFFFFFFFFFFFFFFFFFFFFFFFFFFFFFFFFFF AND DUP2 MSTORE PUSH1 0x20 ADD SWAP1 DUP2 MSTORE PUSH1 0x20 ADD PUSH0 KECCAK256 PUSH0 DUP6 DUP2 MSTORE PUSH1 0x20 ADD SWAP1 DUP2 MSTORE PUSH1 0x20 ADD PUSH0 KECCAK256 PUSH0 DUP3 ADD MLOAD DUP2 PUSH0 ADD SWAP1 DUP2 PUSH2 0x67B SWAP2 SWAP1 PUSH2 0xFF2 JUMP JUMPDEST POP PUSH1 0x20 DUP3 ADD MLOAD DUP2 PUSH1 0x1 ADD SWAP1 DUP2 PUSH2 0x691 SWAP2 SWAP1 PUSH2 0xFF2 JUMP JUMPDEST POP SWAP1 POP POP PUSH1 0x2 PUSH0 CALLER PUSH20 0xFFFFFFFFFFFFFFFFFFFFFFFFFFFFFFFFFFFFFFFF AND PUSH20 0xFFFFFFFFFFFFFFFFFFFFFFFFFFFFFFFFFFFFFFFF AND DUP2 MSTORE PUSH1 0x20 ADD SWAP1 DUP2 MSTORE PUSH1 0x20 ADD PUSH0 KECCAK256 PUSH0 DUP2 SLOAD DUP1 SWAP3 SWAP2 SWAP1 PUSH2 0x6E2 SWAP1 PUSH2 0x1279 JUMP JUMPDEST SWAP2 SWAP1 POP SSTORE POP POP POP POP JUMP JUMPDEST PUSH0 PUSH1 0x20 MSTORE DUP1 PUSH0 MSTORE PUSH1 0x40 PUSH0 KECCAK256 PUSH0 SWAP2 POP SWAP1 POP DUP1 PUSH0 ADD DUP1 SLOAD PUSH2 0x70A SWAP1 PUSH2 0xDBD JUMP JUMPDEST DUP1 PUSH1 0x1F ADD PUSH1 0x20 DUP1 SWAP2 DIV MUL PUSH1 0x20 ADD PUSH1 0x40 MLOAD SWAP1 DUP2 ADD PUSH1 0x40 MSTORE DUP1 SWAP3 SWAP2 SWAP1 DUP2 DUP2 MSTORE PUSH1 0x20 ADD DUP3 DUP1 SLOAD PUSH2 0x736 SWAP1 PUSH2 0xDBD JUMP JUMPDEST DUP1 ISZERO PUSH2 0x781 JUMPI DUP1 PUSH1 0x1F LT PUSH2 0x758 JUMPI PUSH2 0x100 DUP1 DUP4 SLOAD DIV MUL DUP4 MSTORE SWAP2 PUSH1 0x20 ADD SWAP2 PUSH2 0x781 JUMP JUMPDEST DUP3 ADD SWAP2 SWAP1 PUSH0 MSTORE PUSH1 0x20 PUSH0 KECCAK256 SWAP1 JUMPDEST DUP2 SLOAD DUP2 MSTORE SWAP1 PUSH1 0x1 ADD SWAP1 PUSH1 0x20 ADD DUP1 DUP4 GT PUSH2 0x764 JUMPI DUP3 SWAP1 SUB PUSH1 0x1F AND DUP3 ADD SWAP2 JUMPDEST POP POP POP POP POP SWAP1 DUP1 PUSH1 0x1 ADD DUP1 SLOAD PUSH2 0x796 SWAP1 PUSH2 0xDBD JUMP JUMPDEST DUP1 PUSH1 0x1F ADD PUSH1 0x20 DUP1 SWAP2 DIV MUL PUSH1 0x20 ADD PUSH1 0x40 MLOAD SWAP1 DUP2 ADD PUSH1 0x40 MSTORE DUP1 SWAP3 SWAP2 SWAP1 DUP2 DUP2 MSTORE PUSH1 0x20 ADD DUP3 DUP1 SLOAD PUSH2 0x7C2 SWAP1 PUSH2 0xDBD JUMP JUMPDEST DUP1 ISZERO PUSH2 0x80D JUMPI DUP1 PUSH1 0x1F LT PUSH2 0x7E4 JUMPI PUSH2 0x100 DUP1 DUP4 SLOAD DIV MUL DUP4 MSTORE SWAP2 PUSH1 0x20 ADD SWAP2 PUSH2 0x80D JUMP JUMPDEST DUP3 ADD SWAP2 SWAP1 PUSH0 MSTORE PUSH1 0x20 PUSH0 KECCAK256 SWAP1 JUMPDEST DUP2 SLOAD DUP2 MSTORE SWAP1 PUSH1 0x1 ADD SWAP1 PUSH1 0x20 ADD DUP1 DUP4 GT PUSH2 0x7F0 JUMPI DUP3 SWAP1 SUB PUSH1 0x1F AND DUP3 ADD SWAP2 JUMPDEST POP POP POP POP POP SWAP1 POP DUP3 JUMP JUMPDEST PUSH1 0x40 MLOAD DUP1 PUSH1 0x40 ADD PUSH1 0x40 MSTORE DUP1 PUSH1 0x60 DUP2 MSTORE PUSH1 0x20 ADD PUSH1 0x60 DUP2 MSTORE POP SWAP1 JUMP JUMPDEST PUSH0 PUSH1 0x40 MLOAD SWAP1 POP SWAP1 JUMP JUMPDEST PUSH0 DUP1 REVERT JUMPDEST PUSH0 DUP1 REVERT JUMPDEST PUSH0 DUP2 SWAP1 POP SWAP2 SWAP1 POP JUMP JUMPDEST PUSH2 0x854 DUP2 PUSH2 0x842 JUMP JUMPDEST DUP2 EQ PUSH2 0x85E JUMPI PUSH0 DUP1 REVERT JUMPDEST POP JUMP JUMPDEST PUSH0 DUP2 CALLDATALOAD SWAP1 POP PUSH2 0x86F DUP2 PUSH2 0x84B JUMP JUMPDEST SWAP3 SWAP2 POP POP JUMP JUMPDEST PUSH0 DUP1 REVERT JUMPDEST PUSH0 DUP1 REVERT JUMPDEST PUSH0 PUSH1 0x1F NOT PUSH1 0x1F DUP4 ADD AND SWAP1 POP SWAP2 SWAP1 POP JUMP JUMPDEST PUSH32 0x4E487B7100000000000000000000000000000000000000000000000000000000 PUSH0 MSTORE PUSH1 0x41 PUSH1 0x4 MSTORE PUSH1 0x24 PUSH0 REVERT JUMPDEST PUSH2 0x8C3 DUP3 PUSH2 0x87D JUMP JUMPDEST DUP2 ADD DUP2 DUP2 LT PUSH8 0xFFFFFFFFFFFFFFFF DUP3 GT OR ISZERO PUSH2 0x8E2 JUMPI PUSH2 0x8E1 PUSH2 0x88D JUMP JUMPDEST JUMPDEST DUP1 PUSH1 0x40 MSTORE POP POP POP JUMP JUMPDEST PUSH0 PUSH2 0x8F4 PUSH2 0x831 JUMP JUMPDEST SWAP1 POP PUSH2 0x900 DUP3 DUP3 PUSH2 0x8BA JUMP JUMPDEST SWAP2 SWAP1 POP JUMP JUMPDEST PUSH0 PUSH8 0xFFFFFFFFFFFFFFFF DUP3 GT ISZERO PUSH2 0x91F JUMPI PUSH2 0x91E PUSH2 0x88D JUMP JUMPDEST JUMPDEST PUSH2 0x928 DUP3 PUSH2 0x87D JUMP JUMPDEST SWAP1 POP PUSH1 0x20 DUP2 ADD SWAP1 POP SWAP2 SWAP1 POP JUMP JUMPDEST DUP3 DUP2 DUP4 CALLDATACOPY PUSH0 DUP4 DUP4 ADD MSTORE POP POP POP JUMP JUMPDEST PUSH0 PUSH2 0x955 PUSH2 0x950 DUP5 PUSH2 0x905 JUMP JUMPDEST PUSH2 0x8EB JUMP JUMPDEST SWAP1 POP DUP3 DUP2 MSTORE PUSH1 0x20 DUP2 ADD DUP5 DUP5 DUP5 ADD GT ISZERO PUSH2 0x971 JUMPI PUSH2 0x970 PUSH2 0x879 JUMP JUMPDEST JUMPDEST PUSH2 0x97C DUP5 DUP3 DUP6 PUSH2 0x935 JUMP JUMPDEST POP SWAP4 SWAP3 POP POP POP JUMP JUMPDEST PUSH0 DUP3 PUSH1 0x1F DUP4 ADD SLT PUSH2 0x998 JUMPI PUSH2 0x997 PUSH2 0x875 JUMP JUMPDEST JUMPDEST DUP2 CALLDATALOAD PUSH2 0x9A8 DUP5 DUP3 PUSH1 0x20 DUP7 ADD PUSH2 0x943 JUMP JUMPDEST SWAP2 POP POP SWAP3 SWAP2 POP POP JUMP JUMPDEST PUSH0 DUP1 PUSH0 PUSH1 0x60 DUP5 DUP7 SUB SLT ISZERO PUSH2 0x9C8 JUMPI PUSH2 0x9C7 PUSH2 0x83A JUMP JUMPDEST JUMPDEST PUSH0 PUSH2 0x9D5 DUP7 DUP3 DUP8 ADD PUSH2 0x861 JUMP JUMPDEST SWAP4 POP POP PUSH1 0x20 DUP5 ADD CALLDATALOAD PUSH8 0xFFFFFFFFFFFFFFFF DUP2 GT ISZERO PUSH2 0x9F6 JUMPI PUSH2 0x9F5 PUSH2 0x83E JUMP JUMPDEST JUMPDEST PUSH2 0xA02 DUP7 DUP3 DUP8 ADD PUSH2 0x984 JUMP JUMPDEST SWAP3 POP POP PUSH1 0x40 DUP5 ADD CALLDATALOAD PUSH8 0xFFFFFFFFFFFFFFFF DUP2 GT ISZERO PUSH2 0xA23 JUMPI PUSH2 0xA22 PUSH2 0x83E JUMP JUMPDEST JUMPDEST PUSH2 0xA2F DUP7 DUP3 DUP8 ADD PUSH2 0x984 JUMP JUMPDEST SWAP2 POP POP SWAP3 POP SWAP3 POP SWAP3 JUMP JUMPDEST PUSH2 0xA42 DUP2 PUSH2 0x842 JUMP JUMPDEST DUP3 MSTORE POP POP JUMP JUMPDEST PUSH0 PUSH1 0x20 DUP3 ADD SWAP1 POP PUSH2 0xA5B PUSH0 DUP4 ADD DUP5 PUSH2 0xA39 JUMP JUMPDEST SWAP3 SWAP2 POP POP JUMP JUMPDEST PUSH0 PUSH8 0xFFFFFFFFFFFFFFFF DUP3 GT ISZERO PUSH2 0xA7B JUMPI PUSH2 0xA7A PUSH2 0x88D JUMP JUMPDEST JUMPDEST PUSH1 0x20 DUP3 MUL SWAP1 POP PUSH1 0x20 DUP2 ADD SWAP1 POP SWAP2 SWAP1 POP JUMP JUMPDEST PUSH0 DUP1 REVERT JUMPDEST PUSH0 PUSH2 0xAA2 PUSH2 0xA9D DUP5 PUSH2 0xA61 JUMP JUMPDEST PUSH2 0x8EB JUMP JUMPDEST SWAP1 POP DUP1 DUP4 DUP3 MSTORE PUSH1 0x20 DUP3 ADD SWAP1 POP PUSH1 0x20 DUP5 MUL DUP4 ADD DUP6 DUP2 GT ISZERO PUSH2 0xAC5 JUMPI PUSH2 0xAC4 PUSH2 0xA8C JUMP JUMPDEST JUMPDEST DUP4 JUMPDEST DUP2 DUP2 LT ISZERO PUSH2 0xAEE JUMPI DUP1 PUSH2 0xADA DUP9 DUP3 PUSH2 0x861 JUMP JUMPDEST DUP5 MSTORE PUSH1 0x20 DUP5 ADD SWAP4 POP POP PUSH1 0x20 DUP2 ADD SWAP1 POP PUSH2 0xAC7 JUMP JUMPDEST POP POP POP SWAP4 SWAP3 POP POP POP JUMP JUMPDEST PUSH0 DUP3 PUSH1 0x1F DUP4 ADD SLT PUSH2 0xB0C JUMPI PUSH2 0xB0B PUSH2 0x875 JUMP JUMPDEST JUMPDEST DUP2 CALLDATALOAD PUSH2 0xB1C DUP5 DUP3 PUSH1 0x20 DUP7 ADD PUSH2 0xA90 JUMP JUMPDEST SWAP2 POP POP SWAP3 SWAP2 POP POP JUMP JUMPDEST PUSH0 PUSH1 0x20 DUP3 DUP5 SUB SLT ISZERO PUSH2 0xB3A JUMPI PUSH2 0xB39 PUSH2 0x83A JUMP JUMPDEST JUMPDEST PUSH0 DUP3 ADD CALLDATALOAD PUSH8 0xFFFFFFFFFFFFFFFF DUP2 GT ISZERO PUSH2 0xB57 JUMPI PUSH2 0xB56 PUSH2 0x83E JUMP JUMPDEST JUMPDEST PUSH2 0xB63 DUP5 DUP3 DUP6 ADD PUSH2 0xAF8 JUMP JUMPDEST SWAP2 POP POP SWAP3 SWAP2 POP POP JUMP JUMPDEST PUSH0 DUP2 MLOAD SWAP1 POP SWAP2 SWAP1 POP JUMP JUMPDEST PUSH0 DUP3 DUP3 MSTORE PUSH1 0x20 DUP3 ADD SWAP1 POP SWAP3 SWAP2 POP POP JUMP JUMPDEST PUSH0 DUP2 SWAP1 POP PUSH1 0x20 DUP3 ADD SWAP1 POP SWAP2 SWAP1 POP JUMP JUMPDEST PUSH0 DUP2 MLOAD SWAP1 POP SWAP2 SWAP1 POP JUMP JUMPDEST PUSH0 DUP3 DUP3 MSTORE PUSH1 0x20 DUP3 ADD SWAP1 POP SWAP3 SWAP2 POP POP JUMP JUMPDEST DUP3 DUP2 DUP4 MCOPY PUSH0 DUP4 DUP4 ADD MSTORE POP POP POP JUMP JUMPDEST PUSH0 PUSH2 0xBC7 DUP3 PUSH2 0xB95 JUMP JUMPDEST PUSH2 0xBD1 DUP2 DUP6 PUSH2 0xB9F JUMP JUMPDEST SWAP4 POP PUSH2 0xBE1 DUP2 DUP6 PUSH1 0x20 DUP7 ADD PUSH2 0xBAF JUMP JUMPDEST PUSH2 0xBEA DUP2 PUSH2 0x87D JUMP JUMPDEST DUP5 ADD SWAP2 POP POP SWAP3 SWAP2 POP POP JUMP JUMPDEST PUSH0 PUSH1 0x40 DUP4 ADD PUSH0 DUP4 ADD MLOAD DUP5 DUP3 SUB PUSH0 DUP7 ADD MSTORE PUSH2 0xC0F DUP3 DUP3 PUSH2 0xBBD JUMP JUMPDEST SWAP2 POP POP PUSH1 0x20 DUP4 ADD MLOAD DUP5 DUP3 SUB PUSH1 0x20 DUP7 ADD MSTORE PUSH2 0xC29 DUP3 DUP3 PUSH2 0xBBD JUMP JUMPDEST SWAP2 POP POP DUP1 SWAP2 POP POP SWAP3 SWAP2 POP POP JUMP JUMPDEST PUSH0 PUSH2 0xC41 DUP4 DUP4 PUSH2 0xBF5 JUMP JUMPDEST SWAP1 POP SWAP3 SWAP2 POP POP JUMP JUMPDEST PUSH0 PUSH1 0x20 DUP3 ADD SWAP1 POP SWAP2 SWAP1 POP JUMP JUMPDEST PUSH0 PUSH2 0xC5F DUP3 PUSH2 0xB6C JUMP JUMPDEST PUSH2 0xC69 DUP2 DUP6 PUSH2 0xB76 JUMP JUMPDEST SWAP4 POP DUP4 PUSH1 0x20 DUP3 MUL DUP6 ADD PUSH2 0xC7B DUP6 PUSH2 0xB86 JUMP JUMPDEST DUP1 PUSH0 JUMPDEST DUP6 DUP2 LT ISZERO PUSH2 0xCB6 JUMPI DUP5 DUP5 SUB DUP10 MSTORE DUP2 MLOAD PUSH2 0xC97 DUP6 DUP3 PUSH2 0xC36 JUMP JUMPDEST SWAP5 POP PUSH2 0xCA2 DUP4 PUSH2 0xC49 JUMP JUMPDEST SWAP3 POP PUSH1 0x20 DUP11 ADD SWAP10 POP POP PUSH1 0x1 DUP2 ADD SWAP1 POP PUSH2 0xC7E JUMP JUMPDEST POP DUP3 SWAP8 POP DUP8 SWAP6 POP POP POP POP POP POP SWAP3 SWAP2 POP POP JUMP JUMPDEST PUSH0 PUSH1 0x20 DUP3 ADD SWAP1 POP DUP2 DUP2 SUB PUSH0 DUP4 ADD MSTORE PUSH2 0xCE0 DUP2 DUP5 PUSH2 0xC55 JUMP JUMPDEST SWAP1 POP SWAP3 SWAP2 POP POP JUMP JUMPDEST PUSH0 PUSH1 0x20 DUP3 DUP5 SUB SLT ISZERO PUSH2 0xCFD JUMPI PUSH2 0xCFC PUSH2 0x83A JUMP JUMPDEST JUMPDEST PUSH0 PUSH2 0xD0A DUP5 DUP3 DUP6 ADD PUSH2 0x861 JUMP JUMPDEST SWAP2 POP POP SWAP3 SWAP2 POP POP JUMP JUMPDEST PUSH0 DUP3 DUP3 MSTORE PUSH1 0x20 DUP3 ADD SWAP1 POP SWAP3 SWAP2 POP POP JUMP JUMPDEST PUSH0 PUSH2 0xD2D DUP3 PUSH2 0xB95 JUMP JUMPDEST PUSH2 0xD37 DUP2 DUP6 PUSH2 0xD13 JUMP JUMPDEST SWAP4 POP PUSH2 0xD47 DUP2 DUP6 PUSH1 0x20 DUP7 ADD PUSH2 0xBAF JUMP JUMPDEST PUSH2 0xD50 DUP2 PUSH2 0x87D JUMP JUMPDEST DUP5 ADD SWAP2 POP POP SWAP3 SWAP2 POP POP JUMP JUMPDEST PUSH0 PUSH1 0x40 DUP3 ADD SWAP1 POP DUP2 DUP2 SUB PUSH0 DUP4 ADD MSTORE PUSH2 0xD73 DUP2 DUP6 PUSH2 0xD23 JUMP JUMPDEST SWAP1 POP DUP2 DUP2 SUB PUSH1 0x20 DUP4 ADD MSTORE PUSH2 0xD87 DUP2 DUP5 PUSH2 0xD23 JUMP JUMPDEST SWAP1 POP SWAP4 SWAP3 POP POP POP JUMP JUMPDEST PUSH32 0x4E487B7100000000000000000000000000000000000000000000000000000000 PUSH0 MSTORE PUSH1 0x22 PUSH1 0x4 MSTORE PUSH1 0x24 PUSH0 REVERT JUMPDEST PUSH0 PUSH1 0x2 DUP3 DIV SWAP1 POP PUSH1 0x1 DUP3 AND DUP1 PUSH2 0xDD4 JUMPI PUSH1 0x7F DUP3 AND SWAP2 POP JUMPDEST PUSH1 0x20 DUP3 LT DUP2 SUB PUSH2 0xDE7 JUMPI PUSH2 0xDE6 PUSH2 0xD90 JUMP JUMPDEST JUMPDEST POP SWAP2 SWAP1 POP JUMP JUMPDEST PUSH32 0x426F6F6B20616C7265616479206578697374206174207468697320696E646578 PUSH0 DUP3 ADD MSTORE POP JUMP JUMPDEST PUSH0 PUSH2 0xE21 PUSH1 0x20 DUP4 PUSH2 0xD13 JUMP JUMPDEST SWAP2 POP PUSH2 0xE2C DUP3 PUSH2 0xDED JUMP JUMPDEST PUSH1 0x20 DUP3 ADD SWAP1 POP SWAP2 SWAP1 POP JUMP JUMPDEST PUSH0 PUSH1 0x20 DUP3 ADD SWAP1 POP DUP2 DUP2 SUB PUSH0 DUP4 ADD MSTORE PUSH2 0xE4E DUP2 PUSH2 0xE15 JUMP JUMPDEST SWAP1 POP SWAP2 SWAP1 POP JUMP JUMPDEST PUSH0 DUP2 SWAP1 POP DUP2 PUSH0 MSTORE PUSH1 0x20 PUSH0 KECCAK256 SWAP1 POP SWAP2 SWAP1 POP JUMP JUMPDEST PUSH0 PUSH1 0x20 PUSH1 0x1F DUP4 ADD DIV SWAP1 POP SWAP2 SWAP1 POP JUMP JUMPDEST PUSH0 DUP3 DUP3 SHL SWAP1 POP SWAP3 SWAP2 POP POP JUMP JUMPDEST PUSH0 PUSH1 0x8 DUP4 MUL PUSH2 0xEB1 PUSH32 0xFFFFFFFFFFFFFFFFFFFFFFFFFFFFFFFFFFFFFFFFFFFFFFFFFFFFFFFFFFFFFFFF DUP3 PUSH2 0xE76 JUMP JUMPDEST PUSH2 0xEBB DUP7 DUP4 PUSH2 0xE76 JUMP JUMPDEST SWAP6 POP DUP1 NOT DUP5 AND SWAP4 POP DUP1 DUP7 AND DUP5 OR SWAP3 POP POP POP SWAP4 SWAP3 POP POP POP JUMP JUMPDEST PUSH0 DUP2 SWAP1 POP SWAP2 SWAP1 POP JUMP JUMPDEST PUSH0 PUSH2 0xEF6 PUSH2 0xEF1 PUSH2 0xEEC DUP5 PUSH2 0x842 JUMP JUMPDEST PUSH2 0xED3 JUMP JUMPDEST PUSH2 0x842 JUMP JUMPDEST SWAP1 POP SWAP2 SWAP1 POP JUMP JUMPDEST PUSH0 DUP2 SWAP1 POP SWAP2 SWAP1 POP JUMP JUMPDEST PUSH2 0xF0F DUP4 PUSH2 0xEDC JUMP JUMPDEST PUSH2 0xF23 PUSH2 0xF1B DUP3 PUSH2 0xEFD JUMP JUMPDEST DUP5 DUP5 SLOAD PUSH2 0xE82 JUMP JUMPDEST DUP3 SSTORE POP POP POP POP JUMP JUMPDEST PUSH0 SWAP1 JUMP JUMPDEST PUSH2 0xF37 PUSH2 0xF2B JUMP JUMPDEST PUSH2 0xF42 DUP2 DUP5 DUP5 PUSH2 0xF06 JUMP JUMPDEST POP POP POP JUMP JUMPDEST JUMPDEST DUP2 DUP2 LT ISZERO PUSH2 0xF65 JUMPI PUSH2 0xF5A PUSH0 DUP3 PUSH2 0xF2F JUMP JUMPDEST PUSH1 0x1 DUP2 ADD SWAP1 POP PUSH2 0xF48 JUMP JUMPDEST POP POP JUMP JUMPDEST PUSH1 0x1F DUP3 GT ISZERO PUSH2 0xFAA JUMPI PUSH2 0xF7B DUP2 PUSH2 0xE55 JUMP JUMPDEST PUSH2 0xF84 DUP5 PUSH2 0xE67 JUMP JUMPDEST DUP2 ADD PUSH1 0x20 DUP6 LT ISZERO PUSH2 0xF93 JUMPI DUP2 SWAP1 POP JUMPDEST PUSH2 0xFA7 PUSH2 0xF9F DUP6 PUSH2 0xE67 JUMP JUMPDEST DUP4 ADD DUP3 PUSH2 0xF47 JUMP JUMPDEST POP POP JUMPDEST POP POP POP JUMP JUMPDEST PUSH0 DUP3 DUP3 SHR SWAP1 POP SWAP3 SWAP2 POP POP JUMP JUMPDEST PUSH0 PUSH2 0xFCA PUSH0 NOT DUP5 PUSH1 0x8 MUL PUSH2 0xFAF JUMP JUMPDEST NOT DUP1 DUP4 AND SWAP2 POP POP SWAP3 SWAP2 POP POP JUMP JUMPDEST PUSH0 PUSH2 0xFE2 DUP4 DUP4 PUSH2 0xFBB JUMP JUMPDEST SWAP2 POP DUP3 PUSH1 0x2 MUL DUP3 OR SWAP1 POP SWAP3 SWAP2 POP POP JUMP JUMPDEST PUSH2 0xFFB DUP3 PUSH2 0xB95 JUMP JUMPDEST PUSH8 0xFFFFFFFFFFFFFFFF DUP2 GT ISZERO PUSH2 0x1014 JUMPI PUSH2 0x1013 PUSH2 0x88D JUMP JUMPDEST JUMPDEST PUSH2 0x101E DUP3 SLOAD PUSH2 0xDBD JUMP JUMPDEST PUSH2 0x1029 DUP3 DUP3 DUP6 PUSH2 0xF69 JUMP JUMPDEST PUSH0 PUSH1 0x20 SWAP1 POP PUSH1 0x1F DUP4 GT PUSH1 0x1 DUP2 EQ PUSH2 0x105A JUMPI PUSH0 DUP5 ISZERO PUSH2 0x1048 JUMPI DUP3 DUP8 ADD MLOAD SWAP1 POP JUMPDEST PUSH2 0x1052 DUP6 DUP3 PUSH2 0xFD7 JUMP JUMPDEST DUP7 SSTORE POP PUSH2 0x10B9 JUMP JUMPDEST PUSH1 0x1F NOT DUP5 AND PUSH2 0x1068 DUP7 PUSH2 0xE55 JUMP JUMPDEST PUSH0 JUMPDEST DUP3 DUP2 LT ISZERO PUSH2 0x108F JUMPI DUP5 DUP10 ADD MLOAD DUP3 SSTORE PUSH1 0x1 DUP3 ADD SWAP2 POP PUSH1 0x20 DUP6 ADD SWAP5 POP PUSH1 0x20 DUP2 ADD SWAP1 POP PUSH2 0x106A JUMP JUMPDEST DUP7 DUP4 LT ISZERO PUSH2 0x10AC JUMPI DUP5 DUP10 ADD MLOAD PUSH2 0x10A8 PUSH1 0x1F DUP10 AND DUP3 PUSH2 0xFBB JUMP JUMPDEST DUP4 SSTORE POP JUMPDEST PUSH1 0x1 PUSH1 0x2 DUP9 MUL ADD DUP9 SSTORE POP POP POP JUMPDEST POP POP POP POP POP POP JUMP JUMPDEST PUSH32 0x506C65617365206174206C65617374206F6E6520494400000000000000000000 PUSH0 DUP3 ADD MSTORE POP JUMP JUMPDEST PUSH0 PUSH2 0x10F5 PUSH1 0x16 DUP4 PUSH2 0xD13 JUMP JUMPDEST SWAP2 POP PUSH2 0x1100 DUP3 PUSH2 0x10C1 JUMP JUMPDEST PUSH1 0x20 DUP3 ADD SWAP1 POP SWAP2 SWAP1 POP JUMP JUMPDEST PUSH0 PUSH1 0x20 DUP3 ADD SWAP1 POP DUP2 DUP2 SUB PUSH0 DUP4 ADD MSTORE PUSH2 0x1122 DUP2 PUSH2 0x10E9 JUMP JUMPDEST SWAP1 POP SWAP2 SWAP1 POP JUMP JUMPDEST PUSH32 0x4E487B7100000000000000000000000000000000000000000000000000000000 PUSH0 MSTORE PUSH1 0x32 PUSH1 0x4 MSTORE PUSH1 0x24 PUSH0 REVERT JUMPDEST PUSH32 0x426F6F6B20646F6573206E6F7420657869737420617420746869732049440000 PUSH0 DUP3 ADD MSTORE POP JUMP JUMPDEST PUSH0 PUSH2 0x118A PUSH1 0x1E DUP4 PUSH2 0xD13 JUMP JUMPDEST SWAP2 POP PUSH2 0x1195 DUP3 PUSH2 0x1156 JUMP JUMPDEST PUSH1 0x20 DUP3 ADD SWAP1 POP SWAP2 SWAP1 POP JUMP JUMPDEST PUSH0 PUSH1 0x20 DUP3 ADD SWAP1 POP DUP2 DUP2 SUB PUSH0 DUP4 ADD MSTORE PUSH2 0x11B7 DUP2 PUSH2 0x117E JUMP JUMPDEST SWAP1 POP SWAP2 SWAP1 POP JUMP JUMPDEST PUSH32 0x426F6F6B20616C72656164792065786973747320617420746869732049442066 PUSH0 DUP3 ADD MSTORE PUSH32 0x6F72207468652075736572000000000000000000000000000000000000000000 PUSH1 0x20 DUP3 ADD MSTORE POP JUMP JUMPDEST PUSH0 PUSH2 0x1218 PUSH1 0x2B DUP4 PUSH2 0xD13 JUMP JUMPDEST SWAP2 POP PUSH2 0x1223 DUP3 PUSH2 0x11BE JUMP JUMPDEST PUSH1 0x40 DUP3 ADD SWAP1 POP SWAP2 SWAP1 POP JUMP JUMPDEST PUSH0 PUSH1 0x20 DUP3 ADD SWAP1 POP DUP2 DUP2 SUB PUSH0 DUP4 ADD MSTORE PUSH2 0x1245 DUP2 PUSH2 0x120C JUMP JUMPDEST SWAP1 POP SWAP2 SWAP1 POP JUMP JUMPDEST PUSH32 0x4E487B7100000000000000000000000000000000000000000000000000000000 PUSH0 MSTORE PUSH1 0x11 PUSH1 0x4 MSTORE PUSH1 0x24 PUSH0 REVERT JUMPDEST PUSH0 PUSH2 0x1283 DUP3 PUSH2 0x842 JUMP JUMPDEST SWAP2 POP PUSH32 0xFFFFFFFFFFFFFFFFFFFFFFFFFFFFFFFFFFFFFFFFFFFFFFFFFFFFFFFFFFFFFFFF DUP3 SUB PUSH2 0x12B5 JUMPI PUSH2 0x12B4 PUSH2 0x124C JUMP JUMPDEST JUMPDEST PUSH1 0x1 DUP3 ADD SWAP1 POP SWAP2 SWAP1 POP JUMP INVALID LOG2 PUSH5 0x6970667358 0x22 SLT KECCAK256 ADDRESS DUP4 MSTORE 0xD9 SIGNEXTEND BLOCKHASH 0xCE LOG3 DUP13 0xC9 EXTCODEHASH PUSH30 0xEDFF2AE36255F511F3BD65B7FA1FDB121F7EF5BA64736F6C634300081A00 CALLER "
				},
				"gasEstimates": {
					"creation": {
						"codeDepositCost": "970800",
						"executionCost": "1006",
						"totalCost": "971806"
					},
					"external": {
						"addBook(uint256,string,string)": "infinite",
						"addMyBook(uint256,string,string)": "infinite",
						"books(uint256)": "infinite",
						"getMyBooks(uint256[])": "infinite",
						"getMybooksCount()": "2519"
					}
				},
				"methodIdentifiers": {
					"addBook(uint256,string,string)": "028414f2",
					"addMyBook(uint256,string,string)": "493ec707",
					"books(uint256)": "68744046",
					"getMyBooks(uint256[])": "398f3ce4",
					"getMybooksCount()": "242d79e3"
				}
			},
			"storageLayout": {
				"storage": [
					{
						"astId": 6,
						"contract": "contracts/BooksLibrary.sol:BooksLibrary",
						"label": "books",
						"offset": 0,
						"slot": "0",
						"type": "t_mapping(t_uint256,t_struct(Book)11_storage)"
					},
					{
						"astId": 18,
						"contract": "contracts/BooksLibrary.sol:BooksLibrary",
						"label": "myBooks",
						"offset": 0,
						"slot": "1",
						"type": "t_mapping(t_address,t_mapping(t_uint256,t_struct(Book)11_storage))"
					},
					{
						"astId": 22,
						"contract": "contracts/BooksLibrary.sol:BooksLibrary",
						"label": "myBooksCount",
						"offset": 0,
						"slot": "2",
						"type": "t_mapping(t_address,t_uint256)"
					}
				],
				"types": {
					"t_address": {
						"encoding": "inplace",
						"label": "address",
						"numberOfBytes": "20"
					},
					"t_mapping(t_address,t_mapping(t_uint256,t_struct(Book)11_storage))": {
						"encoding": "mapping",
						"key": "t_address",
						"label": "mapping(address => mapping(uint256 => struct BooksLibrary.Book))",
						"numberOfBytes": "32",
						"value": "t_mapping(t_uint256,t_struct(Book)11_storage)"
					},
					"t_mapping(t_address,t_uint256)": {
						"encoding": "mapping",
						"key": "t_address",
						"label": "mapping(address => uint256)",
						"numberOfBytes": "32",
						"value": "t_uint256"
					},
					"t_mapping(t_uint256,t_struct(Book)11_storage)": {
						"encoding": "mapping",
						"key": "t_uint256",
						"label": "mapping(uint256 => struct BooksLibrary.Book)",
						"numberOfBytes": "32",
						"value": "t_struct(Book)11_storage"
					},
					"t_string_storage": {
						"encoding": "bytes",
						"label": "string",
						"numberOfBytes": "32"
					},
					"t_struct(Book)11_storage": {
						"encoding": "inplace",
						"label": "struct BooksLibrary.Book",
						"members": [
							{
								"astId": 8,
								"contract": "contracts/BooksLibrary.sol:BooksLibrary",
								"label": "author",
								"offset": 0,
								"slot": "0",
								"type": "t_string_storage"
							},
							{
								"astId": 10,
								"contract": "contracts/BooksLibrary.sol:BooksLibrary",
								"label": "title",
								"offset": 0,
								"slot": "1",
								"type": "t_string_storage"
							}
						],
						"numberOfBytes": "64"
					},
					"t_uint256": {
						"encoding": "inplace",
						"label": "uint256",
						"numberOfBytes": "32"
					}
				}
			},
			"userdoc": {
				"kind": "user",
				"methods": {},
				"version": 1
			}
		}
	}
}