{
	"contracts/HotelRoom.sol": {
		"HotelRoom": {
			"abi": [
				{
					"inputs": [],
					"stateMutability": "nonpayable",
					"type": "constructor"
				},
				{
					"anonymous": false,
					"inputs": [
						{
							"indexed": false,
							"internalType": "string",
							"name": "details",
							"type": "string"
						},
						{
							"indexed": false,
							"internalType": "uint256",
							"name": "price",
							"type": "uint256"
						},
						{
							"indexed": false,
							"internalType": "enum HotelRoom.roomStatus",
							"name": "status",
							"type": "uint8"
						}
					],
					"name": "RoomAdded",
					"type": "event"
				},
				{
					"anonymous": false,
					"inputs": [
						{
							"indexed": false,
							"internalType": "uint256",
							"name": "id",
							"type": "uint256"
						},
						{
							"indexed": false,
							"internalType": "uint256",
							"name": "price",
							"type": "uint256"
						}
					],
					"name": "RoomOccupied",
					"type": "event"
				},
				{
					"inputs": [
						{
							"internalType": "string",
							"name": "_details",
							"type": "string"
						},
						{
							"internalType": "uint256",
							"name": "_price",
							"type": "uint256"
						}
					],
					"name": "addRoom",
					"outputs": [],
					"stateMutability": "nonpayable",
					"type": "function"
				},
				{
					"inputs": [
						{
							"internalType": "uint256",
							"name": "roomId",
							"type": "uint256"
						}
					],
					"name": "bookRoom",
					"outputs": [],
					"stateMutability": "payable",
					"type": "function"
				},
				{
					"inputs": [],
					"name": "owner",
					"outputs": [
						{
							"internalType": "address payable",
							"name": "",
							"type": "address"
						}
					],
					"stateMutability": "view",
					"type": "function"
				},
				{
					"inputs": [
						{
							"internalType": "uint256",
							"name": "",
							"type": "uint256"
						}
					],
					"name": "rooms",
					"outputs": [
						{
							"internalType": "string",
							"name": "details",
							"type": "string"
						},
						{
							"internalType": "uint256",
							"name": "price",
							"type": "uint256"
						},
						{
							"internalType": "enum HotelRoom.roomStatus",
							"name": "status",
							"type": "uint8"
						}
					],
					"stateMutability": "view",
					"type": "function"
				}
			],
			"devdoc": {
				"kind": "dev",
				"methods": {},
				"version": 1
			},
			"evm": {
				"assembly": "    /* \"contracts/HotelRoom.sol\":57:1439  contract HotelRoom {... */\n  mstore(0x40, 0x80)\n    /* \"contracts/HotelRoom.sol\":759:817  constructor() {... */\n  callvalue\n  dup1\n  iszero\n  tag_1\n  jumpi\n  0x00\n  dup1\n  revert\ntag_1:\n  pop\n    /* \"contracts/HotelRoom.sol\":799:809  msg.sender */\n  caller\n    /* \"contracts/HotelRoom.sol\":783:788  owner */\n  0x00\n  dup1\n    /* \"contracts/HotelRoom.sol\":783:810  owner = payable(msg.sender) */\n  0x0100\n  exp\n  dup2\n  sload\n  dup2\n  0xffffffffffffffffffffffffffffffffffffffff\n  mul\n  not\n  and\n  swap1\n  dup4\n  0xffffffffffffffffffffffffffffffffffffffff\n  and\n  mul\n  or\n  swap1\n  sstore\n  pop\n    /* \"contracts/HotelRoom.sol\":57:1439  contract HotelRoom {... */\n  dataSize(sub_0)\n  dup1\n  dataOffset(sub_0)\n  0x00\n  codecopy\n  0x00\n  return\nstop\n\nsub_0: assembly {\n        /* \"contracts/HotelRoom.sol\":57:1439  contract HotelRoom {... */\n      mstore(0x40, 0x80)\n      jumpi(tag_1, lt(calldatasize, 0x04))\n      shr(0xe0, calldataload(0x00))\n      dup1\n      0x1bae0ac8\n      eq\n      tag_2\n      jumpi\n      dup1\n      0x4bde3ab1\n      eq\n      tag_3\n      jumpi\n      dup1\n      0x5f49d3d8\n      eq\n      tag_4\n      jumpi\n      dup1\n      0x8da5cb5b\n      eq\n      tag_5\n      jumpi\n    tag_1:\n      0x00\n      dup1\n      revert\n        /* \"contracts/HotelRoom.sol\":733:752  Room[] public rooms */\n    tag_2:\n      callvalue\n      dup1\n      iszero\n      tag_6\n      jumpi\n      0x00\n      dup1\n      revert\n    tag_6:\n      pop\n      tag_7\n      0x04\n      dup1\n      calldatasize\n      sub\n      dup2\n      add\n      swap1\n      tag_8\n      swap2\n      swap1\n      tag_9\n      jump\t// in\n    tag_8:\n      tag_10\n      jump\t// in\n    tag_7:\n      mload(0x40)\n      tag_11\n      swap4\n      swap3\n      swap2\n      swap1\n      tag_12\n      jump\t// in\n    tag_11:\n      mload(0x40)\n      dup1\n      swap2\n      sub\n      swap1\n      return\n        /* \"contracts/HotelRoom.sol\":823:1026  function addRoom(string memory _details, uint256 _price) public isOwner {... */\n    tag_3:\n      callvalue\n      dup1\n      iszero\n      tag_13\n      jumpi\n      0x00\n      dup1\n      revert\n    tag_13:\n      pop\n      tag_14\n      0x04\n      dup1\n      calldatasize\n      sub\n      dup2\n      add\n      swap1\n      tag_15\n      swap2\n      swap1\n      tag_16\n      jump\t// in\n    tag_15:\n      tag_17\n      jump\t// in\n    tag_14:\n      stop\n        /* \"contracts/HotelRoom.sol\":1032:1437  function bookRoom(uint256 roomId) public payable isVacant(roomId) {... */\n    tag_4:\n      tag_18\n      0x04\n      dup1\n      calldatasize\n      sub\n      dup2\n      add\n      swap1\n      tag_19\n      swap2\n      swap1\n      tag_9\n      jump\t// in\n    tag_19:\n      tag_20\n      jump\t// in\n    tag_18:\n      stop\n        /* \"contracts/HotelRoom.sol\":82:110  address payable public owner */\n    tag_5:\n      callvalue\n      dup1\n      iszero\n      tag_21\n      jumpi\n      0x00\n      dup1\n      revert\n    tag_21:\n      pop\n      tag_22\n      tag_23\n      jump\t// in\n    tag_22:\n      mload(0x40)\n      tag_24\n      swap2\n      swap1\n      tag_25\n      jump\t// in\n    tag_24:\n      mload(0x40)\n      dup1\n      swap2\n      sub\n      swap1\n      return\n        /* \"contracts/HotelRoom.sol\":733:752  Room[] public rooms */\n    tag_10:\n      0x01\n      dup2\n      dup2\n      sload\n      dup2\n      lt\n      tag_26\n      jumpi\n      0x00\n      dup1\n      revert\n    tag_26:\n      swap1\n      0x00\n      mstore\n      keccak256(0x00, 0x20)\n      swap1\n      0x03\n      mul\n      add\n      0x00\n      swap2\n      pop\n      swap1\n      pop\n      dup1\n      0x00\n      add\n      dup1\n      sload\n      tag_28\n      swap1\n      tag_29\n      jump\t// in\n    tag_28:\n      dup1\n      0x1f\n      add\n      0x20\n      dup1\n      swap2\n      div\n      mul\n      0x20\n      add\n      mload(0x40)\n      swap1\n      dup2\n      add\n      0x40\n      mstore\n      dup1\n      swap3\n      swap2\n      swap1\n      dup2\n      dup2\n      mstore\n      0x20\n      add\n      dup3\n      dup1\n      sload\n      tag_30\n      swap1\n      tag_29\n      jump\t// in\n    tag_30:\n      dup1\n      iszero\n      tag_31\n      jumpi\n      dup1\n      0x1f\n      lt\n      tag_32\n      jumpi\n      0x0100\n      dup1\n      dup4\n      sload\n      div\n      mul\n      dup4\n      mstore\n      swap2\n      0x20\n      add\n      swap2\n      jump(tag_31)\n    tag_32:\n      dup3\n      add\n      swap2\n      swap1\n      0x00\n      mstore\n      keccak256(0x00, 0x20)\n      swap1\n    tag_33:\n      dup2\n      sload\n      dup2\n      mstore\n      swap1\n      0x01\n      add\n      swap1\n      0x20\n      add\n      dup1\n      dup4\n      gt\n      tag_33\n      jumpi\n      dup3\n      swap1\n      sub\n      0x1f\n      and\n      dup3\n      add\n      swap2\n    tag_31:\n      pop\n      pop\n      pop\n      pop\n      pop\n      swap1\n      dup1\n      0x01\n      add\n      sload\n      swap1\n      dup1\n      0x02\n      add\n      0x00\n      swap1\n      sload\n      swap1\n      0x0100\n      exp\n      swap1\n      div\n      0xff\n      and\n      swap1\n      pop\n      dup4\n      jump\t// out\n        /* \"contracts/HotelRoom.sol\":823:1026  function addRoom(string memory _details, uint256 _price) public isOwner {... */\n    tag_17:\n        /* \"contracts/HotelRoom.sol\":464:469  owner */\n      0x00\n      dup1\n      sload\n      swap1\n      0x0100\n      exp\n      swap1\n      div\n      0xffffffffffffffffffffffffffffffffffffffff\n      and\n        /* \"contracts/HotelRoom.sol\":450:469  msg.sender == owner */\n      0xffffffffffffffffffffffffffffffffffffffff\n      and\n        /* \"contracts/HotelRoom.sol\":450:460  msg.sender */\n      caller\n        /* \"contracts/HotelRoom.sol\":450:469  msg.sender == owner */\n      0xffffffffffffffffffffffffffffffffffffffff\n      and\n      eq\n        /* \"contracts/HotelRoom.sol\":429:539  require(... */\n      tag_35\n      jumpi\n      mload(0x40)\n      0x08c379a000000000000000000000000000000000000000000000000000000000\n      dup2\n      mstore\n      0x04\n      add\n      tag_36\n      swap1\n      tag_37\n      jump\t// in\n    tag_36:\n      mload(0x40)\n      dup1\n      swap2\n      sub\n      swap1\n      revert\n    tag_35:\n        /* \"contracts/HotelRoom.sol\":905:910  rooms */\n      0x01\n        /* \"contracts/HotelRoom.sol\":916:957  Room(_details, _price, roomStatus.Vacant) */\n      mload(0x40)\n      dup1\n      0x60\n      add\n      0x40\n      mstore\n      dup1\n        /* \"contracts/HotelRoom.sol\":921:929  _details */\n      dup5\n        /* \"contracts/HotelRoom.sol\":916:957  Room(_details, _price, roomStatus.Vacant) */\n      dup2\n      mstore\n      0x20\n      add\n        /* \"contracts/HotelRoom.sol\":931:937  _price */\n      dup4\n        /* \"contracts/HotelRoom.sol\":916:957  Room(_details, _price, roomStatus.Vacant) */\n      dup2\n      mstore\n      0x20\n      add\n        /* \"contracts/HotelRoom.sol\":939:956  roomStatus.Vacant */\n      0x00\n        /* \"contracts/HotelRoom.sol\":916:957  Room(_details, _price, roomStatus.Vacant) */\n      0x01\n      dup2\n      gt\n      iszero\n      tag_39\n      jumpi\n      tag_40\n      tag_41\n      jump\t// in\n    tag_40:\n    tag_39:\n      dup2\n      mstore\n      pop\n        /* \"contracts/HotelRoom.sol\":905:958  rooms.push(Room(_details, _price, roomStatus.Vacant)) */\n      swap1\n      dup1\n      0x01\n      dup2\n      sload\n      add\n      dup1\n      dup3\n      sstore\n      dup1\n      swap2\n      pop\n      pop\n      0x01\n      swap1\n      sub\n      swap1\n      0x00\n      mstore\n      keccak256(0x00, 0x20)\n      swap1\n      0x03\n      mul\n      add\n      0x00\n      swap1\n      swap2\n      swap1\n      swap2\n      swap1\n      swap2\n      pop\n      0x00\n      dup3\n      add\n      mload\n      dup2\n      0x00\n      add\n      swap1\n      dup2\n      tag_43\n      swap2\n      swap1\n      tag_44\n      jump\t// in\n    tag_43:\n      pop\n      0x20\n      dup3\n      add\n      mload\n      dup2\n      0x01\n      add\n      sstore\n      0x40\n      dup3\n      add\n      mload\n      dup2\n      0x02\n      add\n      exp(0x0100, 0x00)\n      dup2\n      sload\n      dup2\n      0xff\n      mul\n      not\n      and\n      swap1\n      dup4\n      0x01\n      dup2\n      gt\n      iszero\n      tag_45\n      jumpi\n      tag_46\n      tag_41\n      jump\t// in\n    tag_46:\n    tag_45:\n      mul\n      or\n      swap1\n      sstore\n      pop\n      pop\n      pop\n        /* \"contracts/HotelRoom.sol\":973:1019  RoomAdded(_details, _price, roomStatus.Vacant) */\n      0x608a4b9b1eddb2b48fb3c62a5e7f36d625b58f5ff3a1f8cc78259e69e2cf067e\n        /* \"contracts/HotelRoom.sol\":983:991  _details */\n      dup3\n        /* \"contracts/HotelRoom.sol\":993:999  _price */\n      dup3\n        /* \"contracts/HotelRoom.sol\":1001:1018  roomStatus.Vacant */\n      0x00\n        /* \"contracts/HotelRoom.sol\":973:1019  RoomAdded(_details, _price, roomStatus.Vacant) */\n      mload(0x40)\n      tag_47\n      swap4\n      swap3\n      swap2\n      swap1\n      tag_12\n      jump\t// in\n    tag_47:\n      mload(0x40)\n      dup1\n      swap2\n      sub\n      swap1\n      log1\n        /* \"contracts/HotelRoom.sol\":823:1026  function addRoom(string memory _details, uint256 _price) public isOwner {... */\n      pop\n      pop\n      jump\t// out\n        /* \"contracts/HotelRoom.sol\":1032:1437  function bookRoom(uint256 roomId) public payable isVacant(roomId) {... */\n    tag_20:\n        /* \"contracts/HotelRoom.sol\":1090:1096  roomId */\n      dup1\n        /* \"contracts/HotelRoom.sol\":643:660  roomStatus.Vacant */\n      0x00\n        /* \"contracts/HotelRoom.sol\":623:660  rooms[id].status == roomStatus.Vacant */\n      0x01\n      dup2\n      gt\n      iszero\n      tag_49\n      jumpi\n      tag_50\n      tag_41\n      jump\t// in\n    tag_50:\n    tag_49:\n        /* \"contracts/HotelRoom.sol\":623:628  rooms */\n      0x01\n        /* \"contracts/HotelRoom.sol\":629:631  id */\n      dup3\n        /* \"contracts/HotelRoom.sol\":623:632  rooms[id] */\n      dup2\n      sload\n      dup2\n      lt\n      tag_51\n      jumpi\n      tag_52\n      tag_53\n      jump\t// in\n    tag_52:\n    tag_51:\n      swap1\n      0x00\n      mstore\n      keccak256(0x00, 0x20)\n      swap1\n      0x03\n      mul\n      add\n        /* \"contracts/HotelRoom.sol\":623:639  rooms[id].status */\n      0x02\n      add\n      0x00\n      swap1\n      sload\n      swap1\n      0x0100\n      exp\n      swap1\n      div\n      0xff\n      and\n        /* \"contracts/HotelRoom.sol\":623:660  rooms[id].status == roomStatus.Vacant */\n      0x01\n      dup2\n      gt\n      iszero\n      tag_55\n      jumpi\n      tag_56\n      tag_41\n      jump\t// in\n    tag_56:\n    tag_55:\n      eq\n        /* \"contracts/HotelRoom.sol\":602:710  require(... */\n      tag_57\n      jumpi\n      mload(0x40)\n      0x08c379a000000000000000000000000000000000000000000000000000000000\n      dup2\n      mstore\n      0x04\n      add\n      tag_58\n      swap1\n      tag_59\n      jump\t// in\n    tag_58:\n      mload(0x40)\n      dup1\n      swap2\n      sub\n      swap1\n      revert\n    tag_57:\n        /* \"contracts/HotelRoom.sol\":1152:1161  msg.value */\n      callvalue\n        /* \"contracts/HotelRoom.sol\":1129:1134  rooms */\n      0x01\n        /* \"contracts/HotelRoom.sol\":1135:1141  roomId */\n      dup4\n        /* \"contracts/HotelRoom.sol\":1129:1142  rooms[roomId] */\n      dup2\n      sload\n      dup2\n      lt\n      tag_61\n      jumpi\n      tag_62\n      tag_53\n      jump\t// in\n    tag_62:\n    tag_61:\n      swap1\n      0x00\n      mstore\n      keccak256(0x00, 0x20)\n      swap1\n      0x03\n      mul\n      add\n        /* \"contracts/HotelRoom.sol\":1129:1148  rooms[roomId].price */\n      0x01\n      add\n      sload\n        /* \"contracts/HotelRoom.sol\":1129:1161  rooms[roomId].price <= msg.value */\n      gt\n      iszero\n        /* \"contracts/HotelRoom.sol\":1108:1231  require(... */\n      tag_64\n      jumpi\n      mload(0x40)\n      0x08c379a000000000000000000000000000000000000000000000000000000000\n      dup2\n      mstore\n      0x04\n      add\n      tag_65\n      swap1\n      tag_66\n      jump\t// in\n    tag_65:\n      mload(0x40)\n      dup1\n      swap2\n      sub\n      swap1\n      revert\n    tag_64:\n        /* \"contracts/HotelRoom.sol\":1242:1251  bool sent */\n      0x00\n        /* \"contracts/HotelRoom.sol\":1256:1261  owner */\n      dup1\n      0x00\n      swap1\n      sload\n      swap1\n      0x0100\n      exp\n      swap1\n      div\n      0xffffffffffffffffffffffffffffffffffffffff\n      and\n        /* \"contracts/HotelRoom.sol\":1256:1266  owner.call */\n      0xffffffffffffffffffffffffffffffffffffffff\n      and\n        /* \"contracts/HotelRoom.sol\":1274:1283  msg.value */\n      callvalue\n        /* \"contracts/HotelRoom.sol\":1256:1288  owner.call{value: msg.value}(\"\") */\n      mload(0x40)\n      tag_67\n      swap1\n      tag_68\n      jump\t// in\n    tag_67:\n      0x00\n      mload(0x40)\n      dup1\n      dup4\n      sub\n      dup2\n      dup6\n      dup8\n      gas\n      call\n      swap3\n      pop\n      pop\n      pop\n      returndatasize\n      dup1\n      0x00\n      dup2\n      eq\n      tag_71\n      jumpi\n      mload(0x40)\n      swap2\n      pop\n      and(add(returndatasize, 0x3f), not(0x1f))\n      dup3\n      add\n      0x40\n      mstore\n      returndatasize\n      dup3\n      mstore\n      returndatasize\n      0x00\n      0x20\n      dup5\n      add\n      returndatacopy\n      jump(tag_70)\n    tag_71:\n      0x60\n      swap2\n      pop\n    tag_70:\n      pop\n        /* \"contracts/HotelRoom.sol\":1241:1288  (bool sent,) = owner.call{value: msg.value}(\"\") */\n      pop\n      swap1\n      pop\n        /* \"contracts/HotelRoom.sol\":1306:1310  sent */\n      dup1\n        /* \"contracts/HotelRoom.sol\":1298:1332  require(sent,\"Transaction Failed\") */\n      tag_72\n      jumpi\n      mload(0x40)\n      0x08c379a000000000000000000000000000000000000000000000000000000000\n      dup2\n      mstore\n      0x04\n      add\n      tag_73\n      swap1\n      tag_74\n      jump\t// in\n    tag_73:\n      mload(0x40)\n      dup1\n      swap2\n      sub\n      swap1\n      revert\n    tag_72:\n        /* \"contracts/HotelRoom.sol\":1365:1384  roomStatus.Occupied */\n      0x01\n        /* \"contracts/HotelRoom.sol\":1342:1347  rooms */\n      dup1\n        /* \"contracts/HotelRoom.sol\":1348:1354  roomId */\n      dup5\n        /* \"contracts/HotelRoom.sol\":1342:1355  rooms[roomId] */\n      dup2\n      sload\n      dup2\n      lt\n      tag_75\n      jumpi\n      tag_76\n      tag_53\n      jump\t// in\n    tag_76:\n    tag_75:\n      swap1\n      0x00\n      mstore\n      keccak256(0x00, 0x20)\n      swap1\n      0x03\n      mul\n      add\n        /* \"contracts/HotelRoom.sol\":1342:1362  rooms[roomId].status */\n      0x02\n      add\n      0x00\n        /* \"contracts/HotelRoom.sol\":1342:1384  rooms[roomId].status = roomStatus.Occupied */\n      0x0100\n      exp\n      dup2\n      sload\n      dup2\n      0xff\n      mul\n      not\n      and\n      swap1\n      dup4\n      0x01\n      dup2\n      gt\n      iszero\n      tag_78\n      jumpi\n      tag_79\n      tag_41\n      jump\t// in\n    tag_79:\n    tag_78:\n      mul\n      or\n      swap1\n      sstore\n      pop\n        /* \"contracts/HotelRoom.sol\":1399:1430  RoomOccupied(roomId, msg.value) */\n      0x7ac0530dc47ae7dc98142af4e8bb3975bf29e16c87d21da1c7638650416e4dc0\n        /* \"contracts/HotelRoom.sol\":1412:1418  roomId */\n      dup4\n        /* \"contracts/HotelRoom.sol\":1420:1429  msg.value */\n      callvalue\n        /* \"contracts/HotelRoom.sol\":1399:1430  RoomOccupied(roomId, msg.value) */\n      mload(0x40)\n      tag_80\n      swap3\n      swap2\n      swap1\n      tag_81\n      jump\t// in\n    tag_80:\n      mload(0x40)\n      dup1\n      swap2\n      sub\n      swap1\n      log1\n        /* \"contracts/HotelRoom.sol\":1098:1437  {... */\n      pop\n        /* \"contracts/HotelRoom.sol\":1032:1437  function bookRoom(uint256 roomId) public payable isVacant(roomId) {... */\n      pop\n      pop\n      jump\t// out\n        /* \"contracts/HotelRoom.sol\":82:110  address payable public owner */\n    tag_23:\n      0x00\n      dup1\n      sload\n      swap1\n      0x0100\n      exp\n      swap1\n      div\n      0xffffffffffffffffffffffffffffffffffffffff\n      and\n      dup2\n      jump\t// out\n        /* \"#utility.yul\":7:82   */\n    tag_82:\n        /* \"#utility.yul\":40:46   */\n      0x00\n        /* \"#utility.yul\":73:75   */\n      0x40\n        /* \"#utility.yul\":67:76   */\n      mload\n        /* \"#utility.yul\":57:76   */\n      swap1\n      pop\n        /* \"#utility.yul\":7:82   */\n      swap1\n      jump\t// out\n        /* \"#utility.yul\":88:205   */\n    tag_83:\n        /* \"#utility.yul\":197:198   */\n      0x00\n        /* \"#utility.yul\":194:195   */\n      dup1\n        /* \"#utility.yul\":187:199   */\n      revert\n        /* \"#utility.yul\":211:328   */\n    tag_84:\n        /* \"#utility.yul\":320:321   */\n      0x00\n        /* \"#utility.yul\":317:318   */\n      dup1\n        /* \"#utility.yul\":310:322   */\n      revert\n        /* \"#utility.yul\":334:411   */\n    tag_85:\n        /* \"#utility.yul\":371:378   */\n      0x00\n        /* \"#utility.yul\":400:405   */\n      dup2\n        /* \"#utility.yul\":389:405   */\n      swap1\n      pop\n        /* \"#utility.yul\":334:411   */\n      swap2\n      swap1\n      pop\n      jump\t// out\n        /* \"#utility.yul\":417:539   */\n    tag_86:\n        /* \"#utility.yul\":490:514   */\n      tag_143\n        /* \"#utility.yul\":508:513   */\n      dup2\n        /* \"#utility.yul\":490:514   */\n      tag_85\n      jump\t// in\n    tag_143:\n        /* \"#utility.yul\":483:488   */\n      dup2\n        /* \"#utility.yul\":480:515   */\n      eq\n        /* \"#utility.yul\":470:533   */\n      tag_144\n      jumpi\n        /* \"#utility.yul\":529:530   */\n      0x00\n        /* \"#utility.yul\":526:527   */\n      dup1\n        /* \"#utility.yul\":519:531   */\n      revert\n        /* \"#utility.yul\":470:533   */\n    tag_144:\n        /* \"#utility.yul\":417:539   */\n      pop\n      jump\t// out\n        /* \"#utility.yul\":545:684   */\n    tag_87:\n        /* \"#utility.yul\":591:596   */\n      0x00\n        /* \"#utility.yul\":629:635   */\n      dup2\n        /* \"#utility.yul\":616:636   */\n      calldataload\n        /* \"#utility.yul\":607:636   */\n      swap1\n      pop\n        /* \"#utility.yul\":645:678   */\n      tag_146\n        /* \"#utility.yul\":672:677   */\n      dup2\n        /* \"#utility.yul\":645:678   */\n      tag_86\n      jump\t// in\n    tag_146:\n        /* \"#utility.yul\":545:684   */\n      swap3\n      swap2\n      pop\n      pop\n      jump\t// out\n        /* \"#utility.yul\":690:1019   */\n    tag_9:\n        /* \"#utility.yul\":749:755   */\n      0x00\n        /* \"#utility.yul\":798:800   */\n      0x20\n        /* \"#utility.yul\":786:795   */\n      dup3\n        /* \"#utility.yul\":777:784   */\n      dup5\n        /* \"#utility.yul\":773:796   */\n      sub\n        /* \"#utility.yul\":769:801   */\n      slt\n        /* \"#utility.yul\":766:885   */\n      iszero\n      tag_148\n      jumpi\n        /* \"#utility.yul\":804:883   */\n      tag_149\n      tag_83\n      jump\t// in\n    tag_149:\n        /* \"#utility.yul\":766:885   */\n    tag_148:\n        /* \"#utility.yul\":924:925   */\n      0x00\n        /* \"#utility.yul\":949:1002   */\n      tag_150\n        /* \"#utility.yul\":994:1001   */\n      dup5\n        /* \"#utility.yul\":985:991   */\n      dup3\n        /* \"#utility.yul\":974:983   */\n      dup6\n        /* \"#utility.yul\":970:992   */\n      add\n        /* \"#utility.yul\":949:1002   */\n      tag_87\n      jump\t// in\n    tag_150:\n        /* \"#utility.yul\":939:1002   */\n      swap2\n      pop\n        /* \"#utility.yul\":895:1012   */\n      pop\n        /* \"#utility.yul\":690:1019   */\n      swap3\n      swap2\n      pop\n      pop\n      jump\t// out\n        /* \"#utility.yul\":1025:1124   */\n    tag_88:\n        /* \"#utility.yul\":1077:1083   */\n      0x00\n        /* \"#utility.yul\":1111:1116   */\n      dup2\n        /* \"#utility.yul\":1105:1117   */\n      mload\n        /* \"#utility.yul\":1095:1117   */\n      swap1\n      pop\n        /* \"#utility.yul\":1025:1124   */\n      swap2\n      swap1\n      pop\n      jump\t// out\n        /* \"#utility.yul\":1130:1299   */\n    tag_89:\n        /* \"#utility.yul\":1214:1225   */\n      0x00\n        /* \"#utility.yul\":1248:1254   */\n      dup3\n        /* \"#utility.yul\":1243:1246   */\n      dup3\n        /* \"#utility.yul\":1236:1255   */\n      mstore\n        /* \"#utility.yul\":1288:1292   */\n      0x20\n        /* \"#utility.yul\":1283:1286   */\n      dup3\n        /* \"#utility.yul\":1279:1293   */\n      add\n        /* \"#utility.yul\":1264:1293   */\n      swap1\n      pop\n        /* \"#utility.yul\":1130:1299   */\n      swap3\n      swap2\n      pop\n      pop\n      jump\t// out\n        /* \"#utility.yul\":1305:1444   */\n    tag_90:\n        /* \"#utility.yul\":1394:1400   */\n      dup3\n        /* \"#utility.yul\":1389:1392   */\n      dup2\n        /* \"#utility.yul\":1384:1387   */\n      dup4\n        /* \"#utility.yul\":1378:1401   */\n      mcopy\n        /* \"#utility.yul\":1435:1436   */\n      0x00\n        /* \"#utility.yul\":1426:1432   */\n      dup4\n        /* \"#utility.yul\":1421:1424   */\n      dup4\n        /* \"#utility.yul\":1417:1433   */\n      add\n        /* \"#utility.yul\":1410:1437   */\n      mstore\n        /* \"#utility.yul\":1305:1444   */\n      pop\n      pop\n      pop\n      jump\t// out\n        /* \"#utility.yul\":1450:1552   */\n    tag_91:\n        /* \"#utility.yul\":1491:1497   */\n      0x00\n        /* \"#utility.yul\":1542:1544   */\n      0x1f\n        /* \"#utility.yul\":1538:1545   */\n      not\n        /* \"#utility.yul\":1533:1535   */\n      0x1f\n        /* \"#utility.yul\":1526:1531   */\n      dup4\n        /* \"#utility.yul\":1522:1536   */\n      add\n        /* \"#utility.yul\":1518:1546   */\n      and\n        /* \"#utility.yul\":1508:1546   */\n      swap1\n      pop\n        /* \"#utility.yul\":1450:1552   */\n      swap2\n      swap1\n      pop\n      jump\t// out\n        /* \"#utility.yul\":1558:1935   */\n    tag_92:\n        /* \"#utility.yul\":1646:1649   */\n      0x00\n        /* \"#utility.yul\":1674:1713   */\n      tag_156\n        /* \"#utility.yul\":1707:1712   */\n      dup3\n        /* \"#utility.yul\":1674:1713   */\n      tag_88\n      jump\t// in\n    tag_156:\n        /* \"#utility.yul\":1729:1800   */\n      tag_157\n        /* \"#utility.yul\":1793:1799   */\n      dup2\n        /* \"#utility.yul\":1788:1791   */\n      dup6\n        /* \"#utility.yul\":1729:1800   */\n      tag_89\n      jump\t// in\n    tag_157:\n        /* \"#utility.yul\":1722:1800   */\n      swap4\n      pop\n        /* \"#utility.yul\":1809:1874   */\n      tag_158\n        /* \"#utility.yul\":1867:1873   */\n      dup2\n        /* \"#utility.yul\":1862:1865   */\n      dup6\n        /* \"#utility.yul\":1855:1859   */\n      0x20\n        /* \"#utility.yul\":1848:1853   */\n      dup7\n        /* \"#utility.yul\":1844:1860   */\n      add\n        /* \"#utility.yul\":1809:1874   */\n      tag_90\n      jump\t// in\n    tag_158:\n        /* \"#utility.yul\":1899:1928   */\n      tag_159\n        /* \"#utility.yul\":1921:1927   */\n      dup2\n        /* \"#utility.yul\":1899:1928   */\n      tag_91\n      jump\t// in\n    tag_159:\n        /* \"#utility.yul\":1894:1897   */\n      dup5\n        /* \"#utility.yul\":1890:1929   */\n      add\n        /* \"#utility.yul\":1883:1929   */\n      swap2\n      pop\n        /* \"#utility.yul\":1650:1935   */\n      pop\n        /* \"#utility.yul\":1558:1935   */\n      swap3\n      swap2\n      pop\n      pop\n      jump\t// out\n        /* \"#utility.yul\":1941:2059   */\n    tag_93:\n        /* \"#utility.yul\":2028:2052   */\n      tag_161\n        /* \"#utility.yul\":2046:2051   */\n      dup2\n        /* \"#utility.yul\":2028:2052   */\n      tag_85\n      jump\t// in\n    tag_161:\n        /* \"#utility.yul\":2023:2026   */\n      dup3\n        /* \"#utility.yul\":2016:2053   */\n      mstore\n        /* \"#utility.yul\":1941:2059   */\n      pop\n      pop\n      jump\t// out\n        /* \"#utility.yul\":2065:2245   */\n    tag_41:\n        /* \"#utility.yul\":2113:2190   */\n      0x4e487b7100000000000000000000000000000000000000000000000000000000\n        /* \"#utility.yul\":2110:2111   */\n      0x00\n        /* \"#utility.yul\":2103:2191   */\n      mstore\n        /* \"#utility.yul\":2210:2214   */\n      0x21\n        /* \"#utility.yul\":2207:2208   */\n      0x04\n        /* \"#utility.yul\":2200:2215   */\n      mstore\n        /* \"#utility.yul\":2234:2238   */\n      0x24\n        /* \"#utility.yul\":2231:2232   */\n      0x00\n        /* \"#utility.yul\":2224:2239   */\n      revert\n        /* \"#utility.yul\":2251:2368   */\n    tag_94:\n        /* \"#utility.yul\":2336:2337   */\n      0x02\n        /* \"#utility.yul\":2329:2334   */\n      dup2\n        /* \"#utility.yul\":2326:2338   */\n      lt\n        /* \"#utility.yul\":2316:2362   */\n      tag_164\n      jumpi\n        /* \"#utility.yul\":2342:2360   */\n      tag_165\n      tag_41\n      jump\t// in\n    tag_165:\n        /* \"#utility.yul\":2316:2362   */\n    tag_164:\n        /* \"#utility.yul\":2251:2368   */\n      pop\n      jump\t// out\n        /* \"#utility.yul\":2374:2509   */\n    tag_95:\n        /* \"#utility.yul\":2423:2430   */\n      0x00\n        /* \"#utility.yul\":2452:2457   */\n      dup2\n        /* \"#utility.yul\":2441:2457   */\n      swap1\n      pop\n        /* \"#utility.yul\":2458:2503   */\n      tag_167\n        /* \"#utility.yul\":2497:2502   */\n      dup3\n        /* \"#utility.yul\":2458:2503   */\n      tag_94\n      jump\t// in\n    tag_167:\n        /* \"#utility.yul\":2374:2509   */\n      swap2\n      swap1\n      pop\n      jump\t// out\n        /* \"#utility.yul\":2515:2650   */\n    tag_96:\n        /* \"#utility.yul\":2575:2584   */\n      0x00\n        /* \"#utility.yul\":2608:2644   */\n      tag_169\n        /* \"#utility.yul\":2638:2643   */\n      dup3\n        /* \"#utility.yul\":2608:2644   */\n      tag_95\n      jump\t// in\n    tag_169:\n        /* \"#utility.yul\":2595:2644   */\n      swap1\n      pop\n        /* \"#utility.yul\":2515:2650   */\n      swap2\n      swap1\n      pop\n      jump\t// out\n        /* \"#utility.yul\":2656:2807   */\n    tag_97:\n        /* \"#utility.yul\":2753:2800   */\n      tag_171\n        /* \"#utility.yul\":2794:2799   */\n      dup2\n        /* \"#utility.yul\":2753:2800   */\n      tag_96\n      jump\t// in\n    tag_171:\n        /* \"#utility.yul\":2748:2751   */\n      dup3\n        /* \"#utility.yul\":2741:2801   */\n      mstore\n        /* \"#utility.yul\":2656:2807   */\n      pop\n      pop\n      jump\t// out\n        /* \"#utility.yul\":2813:3366   */\n    tag_12:\n        /* \"#utility.yul\":2992:2996   */\n      0x00\n        /* \"#utility.yul\":3030:3032   */\n      0x60\n        /* \"#utility.yul\":3019:3028   */\n      dup3\n        /* \"#utility.yul\":3015:3033   */\n      add\n        /* \"#utility.yul\":3007:3033   */\n      swap1\n      pop\n        /* \"#utility.yul\":3079:3088   */\n      dup2\n        /* \"#utility.yul\":3073:3077   */\n      dup2\n        /* \"#utility.yul\":3069:3089   */\n      sub\n        /* \"#utility.yul\":3065:3066   */\n      0x00\n        /* \"#utility.yul\":3054:3063   */\n      dup4\n        /* \"#utility.yul\":3050:3067   */\n      add\n        /* \"#utility.yul\":3043:3090   */\n      mstore\n        /* \"#utility.yul\":3107:3185   */\n      tag_173\n        /* \"#utility.yul\":3180:3184   */\n      dup2\n        /* \"#utility.yul\":3171:3177   */\n      dup7\n        /* \"#utility.yul\":3107:3185   */\n      tag_92\n      jump\t// in\n    tag_173:\n        /* \"#utility.yul\":3099:3185   */\n      swap1\n      pop\n        /* \"#utility.yul\":3195:3267   */\n      tag_174\n        /* \"#utility.yul\":3263:3265   */\n      0x20\n        /* \"#utility.yul\":3252:3261   */\n      dup4\n        /* \"#utility.yul\":3248:3266   */\n      add\n        /* \"#utility.yul\":3239:3245   */\n      dup6\n        /* \"#utility.yul\":3195:3267   */\n      tag_93\n      jump\t// in\n    tag_174:\n        /* \"#utility.yul\":3277:3359   */\n      tag_175\n        /* \"#utility.yul\":3355:3357   */\n      0x40\n        /* \"#utility.yul\":3344:3353   */\n      dup4\n        /* \"#utility.yul\":3340:3358   */\n      add\n        /* \"#utility.yul\":3331:3337   */\n      dup5\n        /* \"#utility.yul\":3277:3359   */\n      tag_97\n      jump\t// in\n    tag_175:\n        /* \"#utility.yul\":2813:3366   */\n      swap5\n      swap4\n      pop\n      pop\n      pop\n      pop\n      jump\t// out\n        /* \"#utility.yul\":3372:3489   */\n    tag_98:\n        /* \"#utility.yul\":3481:3482   */\n      0x00\n        /* \"#utility.yul\":3478:3479   */\n      dup1\n        /* \"#utility.yul\":3471:3483   */\n      revert\n        /* \"#utility.yul\":3495:3612   */\n    tag_99:\n        /* \"#utility.yul\":3604:3605   */\n      0x00\n        /* \"#utility.yul\":3601:3602   */\n      dup1\n        /* \"#utility.yul\":3594:3606   */\n      revert\n        /* \"#utility.yul\":3618:3798   */\n    tag_100:\n        /* \"#utility.yul\":3666:3743   */\n      0x4e487b7100000000000000000000000000000000000000000000000000000000\n        /* \"#utility.yul\":3663:3664   */\n      0x00\n        /* \"#utility.yul\":3656:3744   */\n      mstore\n        /* \"#utility.yul\":3763:3767   */\n      0x41\n        /* \"#utility.yul\":3760:3761   */\n      0x04\n        /* \"#utility.yul\":3753:3768   */\n      mstore\n        /* \"#utility.yul\":3787:3791   */\n      0x24\n        /* \"#utility.yul\":3784:3785   */\n      0x00\n        /* \"#utility.yul\":3777:3792   */\n      revert\n        /* \"#utility.yul\":3804:4085   */\n    tag_101:\n        /* \"#utility.yul\":3887:3914   */\n      tag_180\n        /* \"#utility.yul\":3909:3913   */\n      dup3\n        /* \"#utility.yul\":3887:3914   */\n      tag_91\n      jump\t// in\n    tag_180:\n        /* \"#utility.yul\":3879:3885   */\n      dup2\n        /* \"#utility.yul\":3875:3915   */\n      add\n        /* \"#utility.yul\":4017:4023   */\n      dup2\n        /* \"#utility.yul\":4005:4015   */\n      dup2\n        /* \"#utility.yul\":4002:4024   */\n      lt\n        /* \"#utility.yul\":3981:3999   */\n      0xffffffffffffffff\n        /* \"#utility.yul\":3969:3979   */\n      dup3\n        /* \"#utility.yul\":3966:4000   */\n      gt\n        /* \"#utility.yul\":3963:4025   */\n      or\n        /* \"#utility.yul\":3960:4048   */\n      iszero\n      tag_181\n      jumpi\n        /* \"#utility.yul\":4028:4046   */\n      tag_182\n      tag_100\n      jump\t// in\n    tag_182:\n        /* \"#utility.yul\":3960:4048   */\n    tag_181:\n        /* \"#utility.yul\":4068:4078   */\n      dup1\n        /* \"#utility.yul\":4064:4066   */\n      0x40\n        /* \"#utility.yul\":4057:4079   */\n      mstore\n        /* \"#utility.yul\":3847:4085   */\n      pop\n        /* \"#utility.yul\":3804:4085   */\n      pop\n      pop\n      jump\t// out\n        /* \"#utility.yul\":4091:4220   */\n    tag_102:\n        /* \"#utility.yul\":4125:4131   */\n      0x00\n        /* \"#utility.yul\":4152:4172   */\n      tag_184\n      tag_82\n      jump\t// in\n    tag_184:\n        /* \"#utility.yul\":4142:4172   */\n      swap1\n      pop\n        /* \"#utility.yul\":4181:4214   */\n      tag_185\n        /* \"#utility.yul\":4209:4213   */\n      dup3\n        /* \"#utility.yul\":4201:4207   */\n      dup3\n        /* \"#utility.yul\":4181:4214   */\n      tag_101\n      jump\t// in\n    tag_185:\n        /* \"#utility.yul\":4091:4220   */\n      swap2\n      swap1\n      pop\n      jump\t// out\n        /* \"#utility.yul\":4226:4534   */\n    tag_103:\n        /* \"#utility.yul\":4288:4292   */\n      0x00\n        /* \"#utility.yul\":4378:4396   */\n      0xffffffffffffffff\n        /* \"#utility.yul\":4370:4376   */\n      dup3\n        /* \"#utility.yul\":4367:4397   */\n      gt\n        /* \"#utility.yul\":4364:4420   */\n      iszero\n      tag_187\n      jumpi\n        /* \"#utility.yul\":4400:4418   */\n      tag_188\n      tag_100\n      jump\t// in\n    tag_188:\n        /* \"#utility.yul\":4364:4420   */\n    tag_187:\n        /* \"#utility.yul\":4438:4467   */\n      tag_189\n        /* \"#utility.yul\":4460:4466   */\n      dup3\n        /* \"#utility.yul\":4438:4467   */\n      tag_91\n      jump\t// in\n    tag_189:\n        /* \"#utility.yul\":4430:4467   */\n      swap1\n      pop\n        /* \"#utility.yul\":4522:4526   */\n      0x20\n        /* \"#utility.yul\":4516:4520   */\n      dup2\n        /* \"#utility.yul\":4512:4527   */\n      add\n        /* \"#utility.yul\":4504:4527   */\n      swap1\n      pop\n        /* \"#utility.yul\":4226:4534   */\n      swap2\n      swap1\n      pop\n      jump\t// out\n        /* \"#utility.yul\":4540:4688   */\n    tag_104:\n        /* \"#utility.yul\":4638:4644   */\n      dup3\n        /* \"#utility.yul\":4633:4636   */\n      dup2\n        /* \"#utility.yul\":4628:4631   */\n      dup4\n        /* \"#utility.yul\":4615:4645   */\n      calldatacopy\n        /* \"#utility.yul\":4679:4680   */\n      0x00\n        /* \"#utility.yul\":4670:4676   */\n      dup4\n        /* \"#utility.yul\":4665:4668   */\n      dup4\n        /* \"#utility.yul\":4661:4677   */\n      add\n        /* \"#utility.yul\":4654:4681   */\n      mstore\n        /* \"#utility.yul\":4540:4688   */\n      pop\n      pop\n      pop\n      jump\t// out\n        /* \"#utility.yul\":4694:5119   */\n    tag_105:\n        /* \"#utility.yul\":4772:4777   */\n      0x00\n        /* \"#utility.yul\":4797:4863   */\n      tag_192\n        /* \"#utility.yul\":4813:4862   */\n      tag_193\n        /* \"#utility.yul\":4855:4861   */\n      dup5\n        /* \"#utility.yul\":4813:4862   */\n      tag_103\n      jump\t// in\n    tag_193:\n        /* \"#utility.yul\":4797:4863   */\n      tag_102\n      jump\t// in\n    tag_192:\n        /* \"#utility.yul\":4788:4863   */\n      swap1\n      pop\n        /* \"#utility.yul\":4886:4892   */\n      dup3\n        /* \"#utility.yul\":4879:4884   */\n      dup2\n        /* \"#utility.yul\":4872:4893   */\n      mstore\n        /* \"#utility.yul\":4924:4928   */\n      0x20\n        /* \"#utility.yul\":4917:4922   */\n      dup2\n        /* \"#utility.yul\":4913:4929   */\n      add\n        /* \"#utility.yul\":4962:4965   */\n      dup5\n        /* \"#utility.yul\":4953:4959   */\n      dup5\n        /* \"#utility.yul\":4948:4951   */\n      dup5\n        /* \"#utility.yul\":4944:4960   */\n      add\n        /* \"#utility.yul\":4941:4966   */\n      gt\n        /* \"#utility.yul\":4938:5050   */\n      iszero\n      tag_194\n      jumpi\n        /* \"#utility.yul\":4969:5048   */\n      tag_195\n      tag_99\n      jump\t// in\n    tag_195:\n        /* \"#utility.yul\":4938:5050   */\n    tag_194:\n        /* \"#utility.yul\":5059:5113   */\n      tag_196\n        /* \"#utility.yul\":5106:5112   */\n      dup5\n        /* \"#utility.yul\":5101:5104   */\n      dup3\n        /* \"#utility.yul\":5096:5099   */\n      dup6\n        /* \"#utility.yul\":5059:5113   */\n      tag_104\n      jump\t// in\n    tag_196:\n        /* \"#utility.yul\":4778:5119   */\n      pop\n        /* \"#utility.yul\":4694:5119   */\n      swap4\n      swap3\n      pop\n      pop\n      pop\n      jump\t// out\n        /* \"#utility.yul\":5139:5479   */\n    tag_106:\n        /* \"#utility.yul\":5195:5200   */\n      0x00\n        /* \"#utility.yul\":5244:5247   */\n      dup3\n        /* \"#utility.yul\":5237:5241   */\n      0x1f\n        /* \"#utility.yul\":5229:5235   */\n      dup4\n        /* \"#utility.yul\":5225:5242   */\n      add\n        /* \"#utility.yul\":5221:5248   */\n      slt\n        /* \"#utility.yul\":5211:5333   */\n      tag_198\n      jumpi\n        /* \"#utility.yul\":5252:5331   */\n      tag_199\n      tag_98\n      jump\t// in\n    tag_199:\n        /* \"#utility.yul\":5211:5333   */\n    tag_198:\n        /* \"#utility.yul\":5369:5375   */\n      dup2\n        /* \"#utility.yul\":5356:5376   */\n      calldataload\n        /* \"#utility.yul\":5394:5473   */\n      tag_200\n        /* \"#utility.yul\":5469:5472   */\n      dup5\n        /* \"#utility.yul\":5461:5467   */\n      dup3\n        /* \"#utility.yul\":5454:5458   */\n      0x20\n        /* \"#utility.yul\":5446:5452   */\n      dup7\n        /* \"#utility.yul\":5442:5459   */\n      add\n        /* \"#utility.yul\":5394:5473   */\n      tag_105\n      jump\t// in\n    tag_200:\n        /* \"#utility.yul\":5385:5473   */\n      swap2\n      pop\n        /* \"#utility.yul\":5201:5479   */\n      pop\n        /* \"#utility.yul\":5139:5479   */\n      swap3\n      swap2\n      pop\n      pop\n      jump\t// out\n        /* \"#utility.yul\":5485:6139   */\n    tag_16:\n        /* \"#utility.yul\":5563:5569   */\n      0x00\n        /* \"#utility.yul\":5571:5577   */\n      dup1\n        /* \"#utility.yul\":5620:5622   */\n      0x40\n        /* \"#utility.yul\":5608:5617   */\n      dup4\n        /* \"#utility.yul\":5599:5606   */\n      dup6\n        /* \"#utility.yul\":5595:5618   */\n      sub\n        /* \"#utility.yul\":5591:5623   */\n      slt\n        /* \"#utility.yul\":5588:5707   */\n      iszero\n      tag_202\n      jumpi\n        /* \"#utility.yul\":5626:5705   */\n      tag_203\n      tag_83\n      jump\t// in\n    tag_203:\n        /* \"#utility.yul\":5588:5707   */\n    tag_202:\n        /* \"#utility.yul\":5774:5775   */\n      0x00\n        /* \"#utility.yul\":5763:5772   */\n      dup4\n        /* \"#utility.yul\":5759:5776   */\n      add\n        /* \"#utility.yul\":5746:5777   */\n      calldataload\n        /* \"#utility.yul\":5804:5822   */\n      0xffffffffffffffff\n        /* \"#utility.yul\":5796:5802   */\n      dup2\n        /* \"#utility.yul\":5793:5823   */\n      gt\n        /* \"#utility.yul\":5790:5907   */\n      iszero\n      tag_204\n      jumpi\n        /* \"#utility.yul\":5826:5905   */\n      tag_205\n      tag_84\n      jump\t// in\n    tag_205:\n        /* \"#utility.yul\":5790:5907   */\n    tag_204:\n        /* \"#utility.yul\":5931:5994   */\n      tag_206\n        /* \"#utility.yul\":5986:5993   */\n      dup6\n        /* \"#utility.yul\":5977:5983   */\n      dup3\n        /* \"#utility.yul\":5966:5975   */\n      dup7\n        /* \"#utility.yul\":5962:5984   */\n      add\n        /* \"#utility.yul\":5931:5994   */\n      tag_106\n      jump\t// in\n    tag_206:\n        /* \"#utility.yul\":5921:5994   */\n      swap3\n      pop\n        /* \"#utility.yul\":5717:6004   */\n      pop\n        /* \"#utility.yul\":6043:6045   */\n      0x20\n        /* \"#utility.yul\":6069:6122   */\n      tag_207\n        /* \"#utility.yul\":6114:6121   */\n      dup6\n        /* \"#utility.yul\":6105:6111   */\n      dup3\n        /* \"#utility.yul\":6094:6103   */\n      dup7\n        /* \"#utility.yul\":6090:6112   */\n      add\n        /* \"#utility.yul\":6069:6122   */\n      tag_87\n      jump\t// in\n    tag_207:\n        /* \"#utility.yul\":6059:6122   */\n      swap2\n      pop\n        /* \"#utility.yul\":6014:6132   */\n      pop\n        /* \"#utility.yul\":5485:6139   */\n      swap3\n      pop\n      swap3\n      swap1\n      pop\n      jump\t// out\n        /* \"#utility.yul\":6145:6271   */\n    tag_107:\n        /* \"#utility.yul\":6182:6189   */\n      0x00\n        /* \"#utility.yul\":6222:6264   */\n      0xffffffffffffffffffffffffffffffffffffffff\n        /* \"#utility.yul\":6215:6220   */\n      dup3\n        /* \"#utility.yul\":6211:6265   */\n      and\n        /* \"#utility.yul\":6200:6265   */\n      swap1\n      pop\n        /* \"#utility.yul\":6145:6271   */\n      swap2\n      swap1\n      pop\n      jump\t// out\n        /* \"#utility.yul\":6277:6381   */\n    tag_108:\n        /* \"#utility.yul\":6322:6329   */\n      0x00\n        /* \"#utility.yul\":6351:6375   */\n      tag_210\n        /* \"#utility.yul\":6369:6374   */\n      dup3\n        /* \"#utility.yul\":6351:6375   */\n      tag_107\n      jump\t// in\n    tag_210:\n        /* \"#utility.yul\":6340:6375   */\n      swap1\n      pop\n        /* \"#utility.yul\":6277:6381   */\n      swap2\n      swap1\n      pop\n      jump\t// out\n        /* \"#utility.yul\":6387:6529   */\n    tag_109:\n        /* \"#utility.yul\":6490:6522   */\n      tag_212\n        /* \"#utility.yul\":6516:6521   */\n      dup2\n        /* \"#utility.yul\":6490:6522   */\n      tag_108\n      jump\t// in\n    tag_212:\n        /* \"#utility.yul\":6485:6488   */\n      dup3\n        /* \"#utility.yul\":6478:6523   */\n      mstore\n        /* \"#utility.yul\":6387:6529   */\n      pop\n      pop\n      jump\t// out\n        /* \"#utility.yul\":6535:6789   */\n    tag_25:\n        /* \"#utility.yul\":6644:6648   */\n      0x00\n        /* \"#utility.yul\":6682:6684   */\n      0x20\n        /* \"#utility.yul\":6671:6680   */\n      dup3\n        /* \"#utility.yul\":6667:6685   */\n      add\n        /* \"#utility.yul\":6659:6685   */\n      swap1\n      pop\n        /* \"#utility.yul\":6695:6782   */\n      tag_214\n        /* \"#utility.yul\":6779:6780   */\n      0x00\n        /* \"#utility.yul\":6768:6777   */\n      dup4\n        /* \"#utility.yul\":6764:6781   */\n      add\n        /* \"#utility.yul\":6755:6761   */\n      dup5\n        /* \"#utility.yul\":6695:6782   */\n      tag_109\n      jump\t// in\n    tag_214:\n        /* \"#utility.yul\":6535:6789   */\n      swap3\n      swap2\n      pop\n      pop\n      jump\t// out\n        /* \"#utility.yul\":6795:6975   */\n    tag_110:\n        /* \"#utility.yul\":6843:6920   */\n      0x4e487b7100000000000000000000000000000000000000000000000000000000\n        /* \"#utility.yul\":6840:6841   */\n      0x00\n        /* \"#utility.yul\":6833:6921   */\n      mstore\n        /* \"#utility.yul\":6940:6944   */\n      0x22\n        /* \"#utility.yul\":6937:6938   */\n      0x04\n        /* \"#utility.yul\":6930:6945   */\n      mstore\n        /* \"#utility.yul\":6964:6968   */\n      0x24\n        /* \"#utility.yul\":6961:6962   */\n      0x00\n        /* \"#utility.yul\":6954:6969   */\n      revert\n        /* \"#utility.yul\":6981:7301   */\n    tag_29:\n        /* \"#utility.yul\":7025:7031   */\n      0x00\n        /* \"#utility.yul\":7062:7063   */\n      0x02\n        /* \"#utility.yul\":7056:7060   */\n      dup3\n        /* \"#utility.yul\":7052:7064   */\n      div\n        /* \"#utility.yul\":7042:7064   */\n      swap1\n      pop\n        /* \"#utility.yul\":7109:7110   */\n      0x01\n        /* \"#utility.yul\":7103:7107   */\n      dup3\n        /* \"#utility.yul\":7099:7111   */\n      and\n        /* \"#utility.yul\":7130:7148   */\n      dup1\n        /* \"#utility.yul\":7120:7201   */\n      tag_217\n      jumpi\n        /* \"#utility.yul\":7186:7190   */\n      0x7f\n        /* \"#utility.yul\":7178:7184   */\n      dup3\n        /* \"#utility.yul\":7174:7191   */\n      and\n        /* \"#utility.yul\":7164:7191   */\n      swap2\n      pop\n        /* \"#utility.yul\":7120:7201   */\n    tag_217:\n        /* \"#utility.yul\":7248:7250   */\n      0x20\n        /* \"#utility.yul\":7240:7246   */\n      dup3\n        /* \"#utility.yul\":7237:7251   */\n      lt\n        /* \"#utility.yul\":7217:7235   */\n      dup2\n        /* \"#utility.yul\":7214:7252   */\n      sub\n        /* \"#utility.yul\":7211:7295   */\n      tag_218\n      jumpi\n        /* \"#utility.yul\":7267:7285   */\n      tag_219\n      tag_110\n      jump\t// in\n    tag_219:\n        /* \"#utility.yul\":7211:7295   */\n    tag_218:\n        /* \"#utility.yul\":7032:7301   */\n      pop\n        /* \"#utility.yul\":6981:7301   */\n      swap2\n      swap1\n      pop\n      jump\t// out\n        /* \"#utility.yul\":7307:7538   */\n    tag_111:\n        /* \"#utility.yul\":7447:7481   */\n      0x596f75206d75737420626520746865206f776e657220746f20706572666f726d\n        /* \"#utility.yul\":7443:7444   */\n      0x00\n        /* \"#utility.yul\":7435:7441   */\n      dup3\n        /* \"#utility.yul\":7431:7445   */\n      add\n        /* \"#utility.yul\":7424:7482   */\n      mstore\n        /* \"#utility.yul\":7516:7530   */\n      0x207468697320616374696f6e0000000000000000000000000000000000000000\n        /* \"#utility.yul\":7511:7513   */\n      0x20\n        /* \"#utility.yul\":7503:7509   */\n      dup3\n        /* \"#utility.yul\":7499:7514   */\n      add\n        /* \"#utility.yul\":7492:7531   */\n      mstore\n        /* \"#utility.yul\":7307:7538   */\n      pop\n      jump\t// out\n        /* \"#utility.yul\":7544:7910   */\n    tag_112:\n        /* \"#utility.yul\":7686:7689   */\n      0x00\n        /* \"#utility.yul\":7707:7774   */\n      tag_222\n        /* \"#utility.yul\":7771:7773   */\n      0x2c\n        /* \"#utility.yul\":7766:7769   */\n      dup4\n        /* \"#utility.yul\":7707:7774   */\n      tag_89\n      jump\t// in\n    tag_222:\n        /* \"#utility.yul\":7700:7774   */\n      swap2\n      pop\n        /* \"#utility.yul\":7783:7876   */\n      tag_223\n        /* \"#utility.yul\":7872:7875   */\n      dup3\n        /* \"#utility.yul\":7783:7876   */\n      tag_111\n      jump\t// in\n    tag_223:\n        /* \"#utility.yul\":7901:7903   */\n      0x40\n        /* \"#utility.yul\":7896:7899   */\n      dup3\n        /* \"#utility.yul\":7892:7904   */\n      add\n        /* \"#utility.yul\":7885:7904   */\n      swap1\n      pop\n        /* \"#utility.yul\":7544:7910   */\n      swap2\n      swap1\n      pop\n      jump\t// out\n        /* \"#utility.yul\":7916:8335   */\n    tag_37:\n        /* \"#utility.yul\":8082:8086   */\n      0x00\n        /* \"#utility.yul\":8120:8122   */\n      0x20\n        /* \"#utility.yul\":8109:8118   */\n      dup3\n        /* \"#utility.yul\":8105:8123   */\n      add\n        /* \"#utility.yul\":8097:8123   */\n      swap1\n      pop\n        /* \"#utility.yul\":8169:8178   */\n      dup2\n        /* \"#utility.yul\":8163:8167   */\n      dup2\n        /* \"#utility.yul\":8159:8179   */\n      sub\n        /* \"#utility.yul\":8155:8156   */\n      0x00\n        /* \"#utility.yul\":8144:8153   */\n      dup4\n        /* \"#utility.yul\":8140:8157   */\n      add\n        /* \"#utility.yul\":8133:8180   */\n      mstore\n        /* \"#utility.yul\":8197:8328   */\n      tag_225\n        /* \"#utility.yul\":8323:8327   */\n      dup2\n        /* \"#utility.yul\":8197:8328   */\n      tag_112\n      jump\t// in\n    tag_225:\n        /* \"#utility.yul\":8189:8328   */\n      swap1\n      pop\n        /* \"#utility.yul\":7916:8335   */\n      swap2\n      swap1\n      pop\n      jump\t// out\n        /* \"#utility.yul\":8341:8482   */\n    tag_113:\n        /* \"#utility.yul\":8390:8394   */\n      0x00\n        /* \"#utility.yul\":8413:8416   */\n      dup2\n        /* \"#utility.yul\":8405:8416   */\n      swap1\n      pop\n        /* \"#utility.yul\":8436:8439   */\n      dup2\n        /* \"#utility.yul\":8433:8434   */\n      0x00\n        /* \"#utility.yul\":8426:8440   */\n      mstore\n        /* \"#utility.yul\":8470:8474   */\n      0x20\n        /* \"#utility.yul\":8467:8468   */\n      0x00\n        /* \"#utility.yul\":8457:8475   */\n      keccak256\n        /* \"#utility.yul\":8449:8475   */\n      swap1\n      pop\n        /* \"#utility.yul\":8341:8482   */\n      swap2\n      swap1\n      pop\n      jump\t// out\n        /* \"#utility.yul\":8488:8581   */\n    tag_114:\n        /* \"#utility.yul\":8525:8531   */\n      0x00\n        /* \"#utility.yul\":8572:8574   */\n      0x20\n        /* \"#utility.yul\":8567:8569   */\n      0x1f\n        /* \"#utility.yul\":8560:8565   */\n      dup4\n        /* \"#utility.yul\":8556:8570   */\n      add\n        /* \"#utility.yul\":8552:8575   */\n      div\n        /* \"#utility.yul\":8542:8575   */\n      swap1\n      pop\n        /* \"#utility.yul\":8488:8581   */\n      swap2\n      swap1\n      pop\n      jump\t// out\n        /* \"#utility.yul\":8587:8694   */\n    tag_115:\n        /* \"#utility.yul\":8631:8639   */\n      0x00\n        /* \"#utility.yul\":8681:8686   */\n      dup3\n        /* \"#utility.yul\":8675:8679   */\n      dup3\n        /* \"#utility.yul\":8671:8687   */\n      shl\n        /* \"#utility.yul\":8650:8687   */\n      swap1\n      pop\n        /* \"#utility.yul\":8587:8694   */\n      swap3\n      swap2\n      pop\n      pop\n      jump\t// out\n        /* \"#utility.yul\":8700:9093   */\n    tag_116:\n        /* \"#utility.yul\":8769:8775   */\n      0x00\n        /* \"#utility.yul\":8819:8820   */\n      0x08\n        /* \"#utility.yul\":8807:8817   */\n      dup4\n        /* \"#utility.yul\":8803:8821   */\n      mul\n        /* \"#utility.yul\":8842:8939   */\n      tag_230\n        /* \"#utility.yul\":8872:8938   */\n      0xffffffffffffffffffffffffffffffffffffffffffffffffffffffffffffffff\n        /* \"#utility.yul\":8861:8870   */\n      dup3\n        /* \"#utility.yul\":8842:8939   */\n      tag_115\n      jump\t// in\n    tag_230:\n        /* \"#utility.yul\":8960:8999   */\n      tag_231\n        /* \"#utility.yul\":8990:8998   */\n      dup7\n        /* \"#utility.yul\":8979:8988   */\n      dup4\n        /* \"#utility.yul\":8960:8999   */\n      tag_115\n      jump\t// in\n    tag_231:\n        /* \"#utility.yul\":8948:8999   */\n      swap6\n      pop\n        /* \"#utility.yul\":9032:9036   */\n      dup1\n        /* \"#utility.yul\":9028:9037   */\n      not\n        /* \"#utility.yul\":9021:9026   */\n      dup5\n        /* \"#utility.yul\":9017:9038   */\n      and\n        /* \"#utility.yul\":9008:9038   */\n      swap4\n      pop\n        /* \"#utility.yul\":9081:9085   */\n      dup1\n        /* \"#utility.yul\":9071:9079   */\n      dup7\n        /* \"#utility.yul\":9067:9086   */\n      and\n        /* \"#utility.yul\":9060:9065   */\n      dup5\n        /* \"#utility.yul\":9057:9087   */\n      or\n        /* \"#utility.yul\":9047:9087   */\n      swap3\n      pop\n        /* \"#utility.yul\":8776:9093   */\n      pop\n      pop\n        /* \"#utility.yul\":8700:9093   */\n      swap4\n      swap3\n      pop\n      pop\n      pop\n      jump\t// out\n        /* \"#utility.yul\":9099:9159   */\n    tag_117:\n        /* \"#utility.yul\":9127:9130   */\n      0x00\n        /* \"#utility.yul\":9148:9153   */\n      dup2\n        /* \"#utility.yul\":9141:9153   */\n      swap1\n      pop\n        /* \"#utility.yul\":9099:9159   */\n      swap2\n      swap1\n      pop\n      jump\t// out\n        /* \"#utility.yul\":9165:9307   */\n    tag_118:\n        /* \"#utility.yul\":9215:9224   */\n      0x00\n        /* \"#utility.yul\":9248:9301   */\n      tag_234\n        /* \"#utility.yul\":9266:9300   */\n      tag_235\n        /* \"#utility.yul\":9275:9299   */\n      tag_236\n        /* \"#utility.yul\":9293:9298   */\n      dup5\n        /* \"#utility.yul\":9275:9299   */\n      tag_85\n      jump\t// in\n    tag_236:\n        /* \"#utility.yul\":9266:9300   */\n      tag_117\n      jump\t// in\n    tag_235:\n        /* \"#utility.yul\":9248:9301   */\n      tag_85\n      jump\t// in\n    tag_234:\n        /* \"#utility.yul\":9235:9301   */\n      swap1\n      pop\n        /* \"#utility.yul\":9165:9307   */\n      swap2\n      swap1\n      pop\n      jump\t// out\n        /* \"#utility.yul\":9313:9388   */\n    tag_119:\n        /* \"#utility.yul\":9356:9359   */\n      0x00\n        /* \"#utility.yul\":9377:9382   */\n      dup2\n        /* \"#utility.yul\":9370:9382   */\n      swap1\n      pop\n        /* \"#utility.yul\":9313:9388   */\n      swap2\n      swap1\n      pop\n      jump\t// out\n        /* \"#utility.yul\":9394:9663   */\n    tag_120:\n        /* \"#utility.yul\":9504:9543   */\n      tag_239\n        /* \"#utility.yul\":9535:9542   */\n      dup4\n        /* \"#utility.yul\":9504:9543   */\n      tag_118\n      jump\t// in\n    tag_239:\n        /* \"#utility.yul\":9565:9656   */\n      tag_240\n        /* \"#utility.yul\":9614:9655   */\n      tag_241\n        /* \"#utility.yul\":9638:9654   */\n      dup3\n        /* \"#utility.yul\":9614:9655   */\n      tag_119\n      jump\t// in\n    tag_241:\n        /* \"#utility.yul\":9606:9612   */\n      dup5\n        /* \"#utility.yul\":9599:9603   */\n      dup5\n        /* \"#utility.yul\":9593:9604   */\n      sload\n        /* \"#utility.yul\":9565:9656   */\n      tag_116\n      jump\t// in\n    tag_240:\n        /* \"#utility.yul\":9559:9563   */\n      dup3\n        /* \"#utility.yul\":9552:9657   */\n      sstore\n        /* \"#utility.yul\":9470:9663   */\n      pop\n        /* \"#utility.yul\":9394:9663   */\n      pop\n      pop\n      pop\n      jump\t// out\n        /* \"#utility.yul\":9669:9742   */\n    tag_121:\n        /* \"#utility.yul\":9714:9717   */\n      0x00\n        /* \"#utility.yul\":9669:9742   */\n      swap1\n      jump\t// out\n        /* \"#utility.yul\":9748:9937   */\n    tag_122:\n        /* \"#utility.yul\":9825:9857   */\n      tag_244\n      tag_121\n      jump\t// in\n    tag_244:\n        /* \"#utility.yul\":9866:9931   */\n      tag_245\n        /* \"#utility.yul\":9924:9930   */\n      dup2\n        /* \"#utility.yul\":9916:9922   */\n      dup5\n        /* \"#utility.yul\":9910:9914   */\n      dup5\n        /* \"#utility.yul\":9866:9931   */\n      tag_120\n      jump\t// in\n    tag_245:\n        /* \"#utility.yul\":9801:9937   */\n      pop\n        /* \"#utility.yul\":9748:9937   */\n      pop\n      pop\n      jump\t// out\n        /* \"#utility.yul\":9943:10129   */\n    tag_123:\n        /* \"#utility.yul\":10003:10123   */\n    tag_247:\n        /* \"#utility.yul\":10020:10023   */\n      dup2\n        /* \"#utility.yul\":10013:10018   */\n      dup2\n        /* \"#utility.yul\":10010:10024   */\n      lt\n        /* \"#utility.yul\":10003:10123   */\n      iszero\n      tag_249\n      jumpi\n        /* \"#utility.yul\":10074:10113   */\n      tag_250\n        /* \"#utility.yul\":10111:10112   */\n      0x00\n        /* \"#utility.yul\":10104:10109   */\n      dup3\n        /* \"#utility.yul\":10074:10113   */\n      tag_122\n      jump\t// in\n    tag_250:\n        /* \"#utility.yul\":10047:10048   */\n      0x01\n        /* \"#utility.yul\":10040:10045   */\n      dup2\n        /* \"#utility.yul\":10036:10049   */\n      add\n        /* \"#utility.yul\":10027:10049   */\n      swap1\n      pop\n        /* \"#utility.yul\":10003:10123   */\n      jump(tag_247)\n    tag_249:\n        /* \"#utility.yul\":9943:10129   */\n      pop\n      pop\n      jump\t// out\n        /* \"#utility.yul\":10135:10678   */\n    tag_124:\n        /* \"#utility.yul\":10236:10238   */\n      0x1f\n        /* \"#utility.yul\":10231:10234   */\n      dup3\n        /* \"#utility.yul\":10228:10239   */\n      gt\n        /* \"#utility.yul\":10225:10671   */\n      iszero\n      tag_252\n      jumpi\n        /* \"#utility.yul\":10270:10308   */\n      tag_253\n        /* \"#utility.yul\":10302:10307   */\n      dup2\n        /* \"#utility.yul\":10270:10308   */\n      tag_113\n      jump\t// in\n    tag_253:\n        /* \"#utility.yul\":10354:10383   */\n      tag_254\n        /* \"#utility.yul\":10372:10382   */\n      dup5\n        /* \"#utility.yul\":10354:10383   */\n      tag_114\n      jump\t// in\n    tag_254:\n        /* \"#utility.yul\":10344:10352   */\n      dup2\n        /* \"#utility.yul\":10340:10384   */\n      add\n        /* \"#utility.yul\":10537:10539   */\n      0x20\n        /* \"#utility.yul\":10525:10535   */\n      dup6\n        /* \"#utility.yul\":10522:10540   */\n      lt\n        /* \"#utility.yul\":10519:10568   */\n      iszero\n      tag_255\n      jumpi\n        /* \"#utility.yul\":10558:10566   */\n      dup2\n        /* \"#utility.yul\":10543:10566   */\n      swap1\n      pop\n        /* \"#utility.yul\":10519:10568   */\n    tag_255:\n        /* \"#utility.yul\":10581:10661   */\n      tag_256\n        /* \"#utility.yul\":10637:10659   */\n      tag_257\n        /* \"#utility.yul\":10655:10658   */\n      dup6\n        /* \"#utility.yul\":10637:10659   */\n      tag_114\n      jump\t// in\n    tag_257:\n        /* \"#utility.yul\":10627:10635   */\n      dup4\n        /* \"#utility.yul\":10623:10660   */\n      add\n        /* \"#utility.yul\":10610:10621   */\n      dup3\n        /* \"#utility.yul\":10581:10661   */\n      tag_123\n      jump\t// in\n    tag_256:\n        /* \"#utility.yul\":10240:10671   */\n      pop\n      pop\n        /* \"#utility.yul\":10225:10671   */\n    tag_252:\n        /* \"#utility.yul\":10135:10678   */\n      pop\n      pop\n      pop\n      jump\t// out\n        /* \"#utility.yul\":10684:10801   */\n    tag_125:\n        /* \"#utility.yul\":10738:10746   */\n      0x00\n        /* \"#utility.yul\":10788:10793   */\n      dup3\n        /* \"#utility.yul\":10782:10786   */\n      dup3\n        /* \"#utility.yul\":10778:10794   */\n      shr\n        /* \"#utility.yul\":10757:10794   */\n      swap1\n      pop\n        /* \"#utility.yul\":10684:10801   */\n      swap3\n      swap2\n      pop\n      pop\n      jump\t// out\n        /* \"#utility.yul\":10807:10976   */\n    tag_126:\n        /* \"#utility.yul\":10851:10857   */\n      0x00\n        /* \"#utility.yul\":10884:10935   */\n      tag_260\n        /* \"#utility.yul\":10932:10933   */\n      0x00\n        /* \"#utility.yul\":10928:10934   */\n      not\n        /* \"#utility.yul\":10920:10925   */\n      dup5\n        /* \"#utility.yul\":10917:10918   */\n      0x08\n        /* \"#utility.yul\":10913:10926   */\n      mul\n        /* \"#utility.yul\":10884:10935   */\n      tag_125\n      jump\t// in\n    tag_260:\n        /* \"#utility.yul\":10880:10936   */\n      not\n        /* \"#utility.yul\":10965:10969   */\n      dup1\n        /* \"#utility.yul\":10959:10963   */\n      dup4\n        /* \"#utility.yul\":10955:10970   */\n      and\n        /* \"#utility.yul\":10945:10970   */\n      swap2\n      pop\n        /* \"#utility.yul\":10858:10976   */\n      pop\n        /* \"#utility.yul\":10807:10976   */\n      swap3\n      swap2\n      pop\n      pop\n      jump\t// out\n        /* \"#utility.yul\":10981:11276   */\n    tag_127:\n        /* \"#utility.yul\":11057:11061   */\n      0x00\n        /* \"#utility.yul\":11203:11232   */\n      tag_262\n        /* \"#utility.yul\":11228:11231   */\n      dup4\n        /* \"#utility.yul\":11222:11226   */\n      dup4\n        /* \"#utility.yul\":11203:11232   */\n      tag_126\n      jump\t// in\n    tag_262:\n        /* \"#utility.yul\":11195:11232   */\n      swap2\n      pop\n        /* \"#utility.yul\":11265:11268   */\n      dup3\n        /* \"#utility.yul\":11262:11263   */\n      0x02\n        /* \"#utility.yul\":11258:11269   */\n      mul\n        /* \"#utility.yul\":11252:11256   */\n      dup3\n        /* \"#utility.yul\":11249:11270   */\n      or\n        /* \"#utility.yul\":11241:11270   */\n      swap1\n      pop\n        /* \"#utility.yul\":10981:11276   */\n      swap3\n      swap2\n      pop\n      pop\n      jump\t// out\n        /* \"#utility.yul\":11281:12676   */\n    tag_44:\n        /* \"#utility.yul\":11398:11435   */\n      tag_264\n        /* \"#utility.yul\":11431:11434   */\n      dup3\n        /* \"#utility.yul\":11398:11435   */\n      tag_88\n      jump\t// in\n    tag_264:\n        /* \"#utility.yul\":11500:11518   */\n      0xffffffffffffffff\n        /* \"#utility.yul\":11492:11498   */\n      dup2\n        /* \"#utility.yul\":11489:11519   */\n      gt\n        /* \"#utility.yul\":11486:11542   */\n      iszero\n      tag_265\n      jumpi\n        /* \"#utility.yul\":11522:11540   */\n      tag_266\n      tag_100\n      jump\t// in\n    tag_266:\n        /* \"#utility.yul\":11486:11542   */\n    tag_265:\n        /* \"#utility.yul\":11566:11604   */\n      tag_267\n        /* \"#utility.yul\":11598:11602   */\n      dup3\n        /* \"#utility.yul\":11592:11603   */\n      sload\n        /* \"#utility.yul\":11566:11604   */\n      tag_29\n      jump\t// in\n    tag_267:\n        /* \"#utility.yul\":11651:11718   */\n      tag_268\n        /* \"#utility.yul\":11711:11717   */\n      dup3\n        /* \"#utility.yul\":11703:11709   */\n      dup3\n        /* \"#utility.yul\":11697:11701   */\n      dup6\n        /* \"#utility.yul\":11651:11718   */\n      tag_124\n      jump\t// in\n    tag_268:\n        /* \"#utility.yul\":11745:11746   */\n      0x00\n        /* \"#utility.yul\":11769:11773   */\n      0x20\n        /* \"#utility.yul\":11756:11773   */\n      swap1\n      pop\n        /* \"#utility.yul\":11801:11803   */\n      0x1f\n        /* \"#utility.yul\":11793:11799   */\n      dup4\n        /* \"#utility.yul\":11790:11804   */\n      gt\n        /* \"#utility.yul\":11818:11819   */\n      0x01\n        /* \"#utility.yul\":11813:12431   */\n      dup2\n      eq\n      tag_270\n      jumpi\n        /* \"#utility.yul\":12475:12476   */\n      0x00\n        /* \"#utility.yul\":12492:12498   */\n      dup5\n        /* \"#utility.yul\":12489:12566   */\n      iszero\n      tag_271\n      jumpi\n        /* \"#utility.yul\":12541:12550   */\n      dup3\n        /* \"#utility.yul\":12536:12539   */\n      dup8\n        /* \"#utility.yul\":12532:12551   */\n      add\n        /* \"#utility.yul\":12526:12552   */\n      mload\n        /* \"#utility.yul\":12517:12552   */\n      swap1\n      pop\n        /* \"#utility.yul\":12489:12566   */\n    tag_271:\n        /* \"#utility.yul\":12592:12659   */\n      tag_272\n        /* \"#utility.yul\":12652:12658   */\n      dup6\n        /* \"#utility.yul\":12645:12650   */\n      dup3\n        /* \"#utility.yul\":12592:12659   */\n      tag_127\n      jump\t// in\n    tag_272:\n        /* \"#utility.yul\":12586:12590   */\n      dup7\n        /* \"#utility.yul\":12579:12660   */\n      sstore\n        /* \"#utility.yul\":12448:12670   */\n      pop\n        /* \"#utility.yul\":11783:12670   */\n      jump(tag_269)\n        /* \"#utility.yul\":11813:12431   */\n    tag_270:\n        /* \"#utility.yul\":11865:11869   */\n      0x1f\n        /* \"#utility.yul\":11861:11870   */\n      not\n        /* \"#utility.yul\":11853:11859   */\n      dup5\n        /* \"#utility.yul\":11849:11871   */\n      and\n        /* \"#utility.yul\":11899:11936   */\n      tag_273\n        /* \"#utility.yul\":11931:11935   */\n      dup7\n        /* \"#utility.yul\":11899:11936   */\n      tag_113\n      jump\t// in\n    tag_273:\n        /* \"#utility.yul\":11958:11959   */\n      0x00\n        /* \"#utility.yul\":11972:12180   */\n    tag_274:\n        /* \"#utility.yul\":11986:11993   */\n      dup3\n        /* \"#utility.yul\":11983:11984   */\n      dup2\n        /* \"#utility.yul\":11980:11994   */\n      lt\n        /* \"#utility.yul\":11972:12180   */\n      iszero\n      tag_276\n      jumpi\n        /* \"#utility.yul\":12065:12074   */\n      dup5\n        /* \"#utility.yul\":12060:12063   */\n      dup10\n        /* \"#utility.yul\":12056:12075   */\n      add\n        /* \"#utility.yul\":12050:12076   */\n      mload\n        /* \"#utility.yul\":12042:12048   */\n      dup3\n        /* \"#utility.yul\":12035:12077   */\n      sstore\n        /* \"#utility.yul\":12116:12117   */\n      0x01\n        /* \"#utility.yul\":12108:12114   */\n      dup3\n        /* \"#utility.yul\":12104:12118   */\n      add\n        /* \"#utility.yul\":12094:12118   */\n      swap2\n      pop\n        /* \"#utility.yul\":12163:12165   */\n      0x20\n        /* \"#utility.yul\":12152:12161   */\n      dup6\n        /* \"#utility.yul\":12148:12166   */\n      add\n        /* \"#utility.yul\":12135:12166   */\n      swap5\n      pop\n        /* \"#utility.yul\":12009:12013   */\n      0x20\n        /* \"#utility.yul\":12006:12007   */\n      dup2\n        /* \"#utility.yul\":12002:12014   */\n      add\n        /* \"#utility.yul\":11997:12014   */\n      swap1\n      pop\n        /* \"#utility.yul\":11972:12180   */\n      jump(tag_274)\n    tag_276:\n        /* \"#utility.yul\":12208:12214   */\n      dup7\n        /* \"#utility.yul\":12199:12206   */\n      dup4\n        /* \"#utility.yul\":12196:12215   */\n      lt\n        /* \"#utility.yul\":12193:12372   */\n      iszero\n      tag_277\n      jumpi\n        /* \"#utility.yul\":12266:12275   */\n      dup5\n        /* \"#utility.yul\":12261:12264   */\n      dup10\n        /* \"#utility.yul\":12257:12276   */\n      add\n        /* \"#utility.yul\":12251:12277   */\n      mload\n        /* \"#utility.yul\":12309:12357   */\n      tag_278\n        /* \"#utility.yul\":12351:12355   */\n      0x1f\n        /* \"#utility.yul\":12343:12349   */\n      dup10\n        /* \"#utility.yul\":12339:12356   */\n      and\n        /* \"#utility.yul\":12328:12337   */\n      dup3\n        /* \"#utility.yul\":12309:12357   */\n      tag_126\n      jump\t// in\n    tag_278:\n        /* \"#utility.yul\":12301:12307   */\n      dup4\n        /* \"#utility.yul\":12294:12358   */\n      sstore\n        /* \"#utility.yul\":12216:12372   */\n      pop\n        /* \"#utility.yul\":12193:12372   */\n    tag_277:\n        /* \"#utility.yul\":12418:12419   */\n      0x01\n        /* \"#utility.yul\":12414:12415   */\n      0x02\n        /* \"#utility.yul\":12406:12412   */\n      dup9\n        /* \"#utility.yul\":12402:12416   */\n      mul\n        /* \"#utility.yul\":12398:12420   */\n      add\n        /* \"#utility.yul\":12392:12396   */\n      dup9\n        /* \"#utility.yul\":12385:12421   */\n      sstore\n        /* \"#utility.yul\":11820:12431   */\n      pop\n      pop\n      pop\n        /* \"#utility.yul\":11783:12670   */\n    tag_269:\n      pop\n        /* \"#utility.yul\":11373:12676   */\n      pop\n      pop\n      pop\n        /* \"#utility.yul\":11281:12676   */\n      pop\n      pop\n      jump\t// out\n        /* \"#utility.yul\":12682:12862   */\n    tag_53:\n        /* \"#utility.yul\":12730:12807   */\n      0x4e487b7100000000000000000000000000000000000000000000000000000000\n        /* \"#utility.yul\":12727:12728   */\n      0x00\n        /* \"#utility.yul\":12720:12808   */\n      mstore\n        /* \"#utility.yul\":12827:12831   */\n      0x32\n        /* \"#utility.yul\":12824:12825   */\n      0x04\n        /* \"#utility.yul\":12817:12832   */\n      mstore\n        /* \"#utility.yul\":12851:12855   */\n      0x24\n        /* \"#utility.yul\":12848:12849   */\n      0x00\n        /* \"#utility.yul\":12841:12856   */\n      revert\n        /* \"#utility.yul\":12868:13042   */\n    tag_128:\n        /* \"#utility.yul\":13008:13034   */\n      0x526f6f6d20697320616c7265616479206f636375706965640000000000000000\n        /* \"#utility.yul\":13004:13005   */\n      0x00\n        /* \"#utility.yul\":12996:13002   */\n      dup3\n        /* \"#utility.yul\":12992:13006   */\n      add\n        /* \"#utility.yul\":12985:13035   */\n      mstore\n        /* \"#utility.yul\":12868:13042   */\n      pop\n      jump\t// out\n        /* \"#utility.yul\":13048:13414   */\n    tag_129:\n        /* \"#utility.yul\":13190:13193   */\n      0x00\n        /* \"#utility.yul\":13211:13278   */\n      tag_282\n        /* \"#utility.yul\":13275:13277   */\n      0x18\n        /* \"#utility.yul\":13270:13273   */\n      dup4\n        /* \"#utility.yul\":13211:13278   */\n      tag_89\n      jump\t// in\n    tag_282:\n        /* \"#utility.yul\":13204:13278   */\n      swap2\n      pop\n        /* \"#utility.yul\":13287:13380   */\n      tag_283\n        /* \"#utility.yul\":13376:13379   */\n      dup3\n        /* \"#utility.yul\":13287:13380   */\n      tag_128\n      jump\t// in\n    tag_283:\n        /* \"#utility.yul\":13405:13407   */\n      0x20\n        /* \"#utility.yul\":13400:13403   */\n      dup3\n        /* \"#utility.yul\":13396:13408   */\n      add\n        /* \"#utility.yul\":13389:13408   */\n      swap1\n      pop\n        /* \"#utility.yul\":13048:13414   */\n      swap2\n      swap1\n      pop\n      jump\t// out\n        /* \"#utility.yul\":13420:13839   */\n    tag_59:\n        /* \"#utility.yul\":13586:13590   */\n      0x00\n        /* \"#utility.yul\":13624:13626   */\n      0x20\n        /* \"#utility.yul\":13613:13622   */\n      dup3\n        /* \"#utility.yul\":13609:13627   */\n      add\n        /* \"#utility.yul\":13601:13627   */\n      swap1\n      pop\n        /* \"#utility.yul\":13673:13682   */\n      dup2\n        /* \"#utility.yul\":13667:13671   */\n      dup2\n        /* \"#utility.yul\":13663:13683   */\n      sub\n        /* \"#utility.yul\":13659:13660   */\n      0x00\n        /* \"#utility.yul\":13648:13657   */\n      dup4\n        /* \"#utility.yul\":13644:13661   */\n      add\n        /* \"#utility.yul\":13637:13684   */\n      mstore\n        /* \"#utility.yul\":13701:13832   */\n      tag_285\n        /* \"#utility.yul\":13827:13831   */\n      dup2\n        /* \"#utility.yul\":13701:13832   */\n      tag_129\n      jump\t// in\n    tag_285:\n        /* \"#utility.yul\":13693:13832   */\n      swap1\n      pop\n        /* \"#utility.yul\":13420:13839   */\n      swap2\n      swap1\n      pop\n      jump\t// out\n        /* \"#utility.yul\":13845:14076   */\n    tag_130:\n        /* \"#utility.yul\":13985:14019   */\n      0x426f6f6b696e672063616e63656c6c65643a204e6f7420656e6f756768206574\n        /* \"#utility.yul\":13981:13982   */\n      0x00\n        /* \"#utility.yul\":13973:13979   */\n      dup3\n        /* \"#utility.yul\":13969:13983   */\n      add\n        /* \"#utility.yul\":13962:14020   */\n      mstore\n        /* \"#utility.yul\":14054:14068   */\n      0x6865722070726f76696465640000000000000000000000000000000000000000\n        /* \"#utility.yul\":14049:14051   */\n      0x20\n        /* \"#utility.yul\":14041:14047   */\n      dup3\n        /* \"#utility.yul\":14037:14052   */\n      add\n        /* \"#utility.yul\":14030:14069   */\n      mstore\n        /* \"#utility.yul\":13845:14076   */\n      pop\n      jump\t// out\n        /* \"#utility.yul\":14082:14448   */\n    tag_131:\n        /* \"#utility.yul\":14224:14227   */\n      0x00\n        /* \"#utility.yul\":14245:14312   */\n      tag_288\n        /* \"#utility.yul\":14309:14311   */\n      0x2c\n        /* \"#utility.yul\":14304:14307   */\n      dup4\n        /* \"#utility.yul\":14245:14312   */\n      tag_89\n      jump\t// in\n    tag_288:\n        /* \"#utility.yul\":14238:14312   */\n      swap2\n      pop\n        /* \"#utility.yul\":14321:14414   */\n      tag_289\n        /* \"#utility.yul\":14410:14413   */\n      dup3\n        /* \"#utility.yul\":14321:14414   */\n      tag_130\n      jump\t// in\n    tag_289:\n        /* \"#utility.yul\":14439:14441   */\n      0x40\n        /* \"#utility.yul\":14434:14437   */\n      dup3\n        /* \"#utility.yul\":14430:14442   */\n      add\n        /* \"#utility.yul\":14423:14442   */\n      swap1\n      pop\n        /* \"#utility.yul\":14082:14448   */\n      swap2\n      swap1\n      pop\n      jump\t// out\n        /* \"#utility.yul\":14454:14873   */\n    tag_66:\n        /* \"#utility.yul\":14620:14624   */\n      0x00\n        /* \"#utility.yul\":14658:14660   */\n      0x20\n        /* \"#utility.yul\":14647:14656   */\n      dup3\n        /* \"#utility.yul\":14643:14661   */\n      add\n        /* \"#utility.yul\":14635:14661   */\n      swap1\n      pop\n        /* \"#utility.yul\":14707:14716   */\n      dup2\n        /* \"#utility.yul\":14701:14705   */\n      dup2\n        /* \"#utility.yul\":14697:14717   */\n      sub\n        /* \"#utility.yul\":14693:14694   */\n      0x00\n        /* \"#utility.yul\":14682:14691   */\n      dup4\n        /* \"#utility.yul\":14678:14695   */\n      add\n        /* \"#utility.yul\":14671:14718   */\n      mstore\n        /* \"#utility.yul\":14735:14866   */\n      tag_291\n        /* \"#utility.yul\":14861:14865   */\n      dup2\n        /* \"#utility.yul\":14735:14866   */\n      tag_131\n      jump\t// in\n    tag_291:\n        /* \"#utility.yul\":14727:14866   */\n      swap1\n      pop\n        /* \"#utility.yul\":14454:14873   */\n      swap2\n      swap1\n      pop\n      jump\t// out\n        /* \"#utility.yul\":14879:15026   */\n    tag_132:\n        /* \"#utility.yul\":14980:14991   */\n      0x00\n        /* \"#utility.yul\":15017:15020   */\n      dup2\n        /* \"#utility.yul\":15002:15020   */\n      swap1\n      pop\n        /* \"#utility.yul\":14879:15026   */\n      swap3\n      swap2\n      pop\n      pop\n      jump\t// out\n        /* \"#utility.yul\":15032:15146   */\n    tag_133:\n      pop\n      jump\t// out\n        /* \"#utility.yul\":15152:15550   */\n    tag_134:\n        /* \"#utility.yul\":15311:15314   */\n      0x00\n        /* \"#utility.yul\":15332:15415   */\n      tag_295\n        /* \"#utility.yul\":15413:15414   */\n      0x00\n        /* \"#utility.yul\":15408:15411   */\n      dup4\n        /* \"#utility.yul\":15332:15415   */\n      tag_132\n      jump\t// in\n    tag_295:\n        /* \"#utility.yul\":15325:15415   */\n      swap2\n      pop\n        /* \"#utility.yul\":15424:15517   */\n      tag_296\n        /* \"#utility.yul\":15513:15516   */\n      dup3\n        /* \"#utility.yul\":15424:15517   */\n      tag_133\n      jump\t// in\n    tag_296:\n        /* \"#utility.yul\":15542:15543   */\n      0x00\n        /* \"#utility.yul\":15537:15540   */\n      dup3\n        /* \"#utility.yul\":15533:15544   */\n      add\n        /* \"#utility.yul\":15526:15544   */\n      swap1\n      pop\n        /* \"#utility.yul\":15152:15550   */\n      swap2\n      swap1\n      pop\n      jump\t// out\n        /* \"#utility.yul\":15556:15935   */\n    tag_68:\n        /* \"#utility.yul\":15740:15743   */\n      0x00\n        /* \"#utility.yul\":15762:15909   */\n      tag_298\n        /* \"#utility.yul\":15905:15908   */\n      dup3\n        /* \"#utility.yul\":15762:15909   */\n      tag_134\n      jump\t// in\n    tag_298:\n        /* \"#utility.yul\":15755:15909   */\n      swap2\n      pop\n        /* \"#utility.yul\":15926:15929   */\n      dup2\n        /* \"#utility.yul\":15919:15929   */\n      swap1\n      pop\n        /* \"#utility.yul\":15556:15935   */\n      swap2\n      swap1\n      pop\n      jump\t// out\n        /* \"#utility.yul\":15941:16109   */\n    tag_135:\n        /* \"#utility.yul\":16081:16101   */\n      0x5472616e73616374696f6e204661696c65640000000000000000000000000000\n        /* \"#utility.yul\":16077:16078   */\n      0x00\n        /* \"#utility.yul\":16069:16075   */\n      dup3\n        /* \"#utility.yul\":16065:16079   */\n      add\n        /* \"#utility.yul\":16058:16102   */\n      mstore\n        /* \"#utility.yul\":15941:16109   */\n      pop\n      jump\t// out\n        /* \"#utility.yul\":16115:16481   */\n    tag_136:\n        /* \"#utility.yul\":16257:16260   */\n      0x00\n        /* \"#utility.yul\":16278:16345   */\n      tag_301\n        /* \"#utility.yul\":16342:16344   */\n      0x12\n        /* \"#utility.yul\":16337:16340   */\n      dup4\n        /* \"#utility.yul\":16278:16345   */\n      tag_89\n      jump\t// in\n    tag_301:\n        /* \"#utility.yul\":16271:16345   */\n      swap2\n      pop\n        /* \"#utility.yul\":16354:16447   */\n      tag_302\n        /* \"#utility.yul\":16443:16446   */\n      dup3\n        /* \"#utility.yul\":16354:16447   */\n      tag_135\n      jump\t// in\n    tag_302:\n        /* \"#utility.yul\":16472:16474   */\n      0x20\n        /* \"#utility.yul\":16467:16470   */\n      dup3\n        /* \"#utility.yul\":16463:16475   */\n      add\n        /* \"#utility.yul\":16456:16475   */\n      swap1\n      pop\n        /* \"#utility.yul\":16115:16481   */\n      swap2\n      swap1\n      pop\n      jump\t// out\n        /* \"#utility.yul\":16487:16906   */\n    tag_74:\n        /* \"#utility.yul\":16653:16657   */\n      0x00\n        /* \"#utility.yul\":16691:16693   */\n      0x20\n        /* \"#utility.yul\":16680:16689   */\n      dup3\n        /* \"#utility.yul\":16676:16694   */\n      add\n        /* \"#utility.yul\":16668:16694   */\n      swap1\n      pop\n        /* \"#utility.yul\":16740:16749   */\n      dup2\n        /* \"#utility.yul\":16734:16738   */\n      dup2\n        /* \"#utility.yul\":16730:16750   */\n      sub\n        /* \"#utility.yul\":16726:16727   */\n      0x00\n        /* \"#utility.yul\":16715:16724   */\n      dup4\n        /* \"#utility.yul\":16711:16728   */\n      add\n        /* \"#utility.yul\":16704:16751   */\n      mstore\n        /* \"#utility.yul\":16768:16899   */\n      tag_304\n        /* \"#utility.yul\":16894:16898   */\n      dup2\n        /* \"#utility.yul\":16768:16899   */\n      tag_136\n      jump\t// in\n    tag_304:\n        /* \"#utility.yul\":16760:16899   */\n      swap1\n      pop\n        /* \"#utility.yul\":16487:16906   */\n      swap2\n      swap1\n      pop\n      jump\t// out\n        /* \"#utility.yul\":16912:17244   */\n    tag_81:\n        /* \"#utility.yul\":17033:17037   */\n      0x00\n        /* \"#utility.yul\":17071:17073   */\n      0x40\n        /* \"#utility.yul\":17060:17069   */\n      dup3\n        /* \"#utility.yul\":17056:17074   */\n      add\n        /* \"#utility.yul\":17048:17074   */\n      swap1\n      pop\n        /* \"#utility.yul\":17084:17155   */\n      tag_306\n        /* \"#utility.yul\":17152:17153   */\n      0x00\n        /* \"#utility.yul\":17141:17150   */\n      dup4\n        /* \"#utility.yul\":17137:17154   */\n      add\n        /* \"#utility.yul\":17128:17134   */\n      dup6\n        /* \"#utility.yul\":17084:17155   */\n      tag_93\n      jump\t// in\n    tag_306:\n        /* \"#utility.yul\":17165:17237   */\n      tag_307\n        /* \"#utility.yul\":17233:17235   */\n      0x20\n        /* \"#utility.yul\":17222:17231   */\n      dup4\n        /* \"#utility.yul\":17218:17236   */\n      add\n        /* \"#utility.yul\":17209:17215   */\n      dup5\n        /* \"#utility.yul\":17165:17237   */\n      tag_93\n      jump\t// in\n    tag_307:\n        /* \"#utility.yul\":16912:17244   */\n      swap4\n      swap3\n      pop\n      pop\n      pop\n      jump\t// out\n\n    auxdata: 0xa2646970667358221220a78f7f963439a07c01d0ac30707250f65219bb3f98289d8331b006819484a25d64736f6c634300081a0033\n}\n",
				"bytecode": {
					"linkReferences": {},
					"object": "6080604052348015600e575f80fd5b50335f806101000a81548173ffffffffffffffffffffffffffffffffffffffff021916908373ffffffffffffffffffffffffffffffffffffffff160217905550610e8f8061005b5f395ff3fe60806040526004361061003e575f3560e01c80631bae0ac8146100425780634bde3ab1146100805780635f49d3d8146100a85780638da5cb5b146100c4575b5f80fd5b34801561004d575f80fd5b50610068600480360381019061006391906105d8565b6100ee565b604051610077939291906106f5565b60405180910390f35b34801561008b575f80fd5b506100a660048036038101906100a1919061085d565b6101b5565b005b6100c260048036038101906100bd91906105d8565b610325565b005b3480156100cf575f80fd5b506100d8610571565b6040516100e591906108f6565b60405180910390f35b600181815481106100fd575f80fd5b905f5260205f2090600302015f91509050805f01805461011c9061093c565b80601f01602080910402602001604051908101604052809291908181526020018280546101489061093c565b80156101935780601f1061016a57610100808354040283529160200191610193565b820191905f5260205f20905b81548152906001019060200180831161017657829003601f168201915b505050505090806001015490806002015f9054906101000a900460ff16905083565b5f8054906101000a900473ffffffffffffffffffffffffffffffffffffffff1673ffffffffffffffffffffffffffffffffffffffff163373ffffffffffffffffffffffffffffffffffffffff1614610242576040517f08c379a0000000000000000000000000000000000000000000000000000000008152600401610239906109dc565b60405180910390fd5b600160405180606001604052808481526020018381526020015f600181111561026e5761026d610682565b5b815250908060018154018082558091505060019003905f5260205f2090600302015f909190919091505f820151815f0190816102aa9190610b97565b50602082015181600101556040820151816002015f6101000a81548160ff021916908360018111156102df576102de610682565b5b021790555050507f608a4b9b1eddb2b48fb3c62a5e7f36d625b58f5ff3a1f8cc78259e69e2cf067e82825f604051610319939291906106f5565b60405180910390a15050565b805f600181111561033957610338610682565b5b6001828154811061034d5761034c610c66565b5b905f5260205f2090600302016002015f9054906101000a900460ff16600181111561037b5761037a610682565b5b146103bb576040517f08c379a00000000000000000000000000000000000000000000000000000000081526004016103b290610cdd565b60405180910390fd5b34600183815481106103d0576103cf610c66565b5b905f5260205f209060030201600101541115610421576040517f08c379a000000000000000000000000000000000000000000000000000000000815260040161041890610d6b565b60405180910390fd5b5f805f9054906101000a900473ffffffffffffffffffffffffffffffffffffffff1673ffffffffffffffffffffffffffffffffffffffff163460405161046690610db6565b5f6040518083038185875af1925050503d805f81146104a0576040519150601f19603f3d011682016040523d82523d5f602084013e6104a5565b606091505b50509050806104e9576040517f08c379a00000000000000000000000000000000000000000000000000000000081526004016104e090610e14565b60405180910390fd5b60018084815481106104fe576104fd610c66565b5b905f5260205f2090600302016002015f6101000a81548160ff0219169083600181111561052e5761052d610682565b5b02179055507f7ac0530dc47ae7dc98142af4e8bb3975bf29e16c87d21da1c7638650416e4dc08334604051610564929190610e32565b60405180910390a1505050565b5f8054906101000a900473ffffffffffffffffffffffffffffffffffffffff1681565b5f604051905090565b5f80fd5b5f80fd5b5f819050919050565b6105b7816105a5565b81146105c1575f80fd5b50565b5f813590506105d2816105ae565b92915050565b5f602082840312156105ed576105ec61059d565b5b5f6105fa848285016105c4565b91505092915050565b5f81519050919050565b5f82825260208201905092915050565b8281835e5f83830152505050565b5f601f19601f8301169050919050565b5f61064582610603565b61064f818561060d565b935061065f81856020860161061d565b6106688161062b565b840191505092915050565b61067c816105a5565b82525050565b7f4e487b71000000000000000000000000000000000000000000000000000000005f52602160045260245ffd5b600281106106c0576106bf610682565b5b50565b5f8190506106d0826106af565b919050565b5f6106df826106c3565b9050919050565b6106ef816106d5565b82525050565b5f6060820190508181035f83015261070d818661063b565b905061071c6020830185610673565b61072960408301846106e6565b949350505050565b5f80fd5b5f80fd5b7f4e487b71000000000000000000000000000000000000000000000000000000005f52604160045260245ffd5b61076f8261062b565b810181811067ffffffffffffffff8211171561078e5761078d610739565b5b80604052505050565b5f6107a0610594565b90506107ac8282610766565b919050565b5f67ffffffffffffffff8211156107cb576107ca610739565b5b6107d48261062b565b9050602081019050919050565b828183375f83830152505050565b5f6108016107fc846107b1565b610797565b90508281526020810184848401111561081d5761081c610735565b5b6108288482856107e1565b509392505050565b5f82601f83011261084457610843610731565b5b81356108548482602086016107ef565b91505092915050565b5f80604083850312156108735761087261059d565b5b5f83013567ffffffffffffffff8111156108905761088f6105a1565b5b61089c85828601610830565b92505060206108ad858286016105c4565b9150509250929050565b5f73ffffffffffffffffffffffffffffffffffffffff82169050919050565b5f6108e0826108b7565b9050919050565b6108f0816108d6565b82525050565b5f6020820190506109095f8301846108e7565b92915050565b7f4e487b71000000000000000000000000000000000000000000000000000000005f52602260045260245ffd5b5f600282049050600182168061095357607f821691505b6020821081036109665761096561090f565b5b50919050565b7f596f75206d75737420626520746865206f776e657220746f20706572666f726d5f8201527f207468697320616374696f6e0000000000000000000000000000000000000000602082015250565b5f6109c6602c8361060d565b91506109d18261096c565b604082019050919050565b5f6020820190508181035f8301526109f3816109ba565b9050919050565b5f819050815f5260205f209050919050565b5f6020601f8301049050919050565b5f82821b905092915050565b5f60088302610a567fffffffffffffffffffffffffffffffffffffffffffffffffffffffffffffffff82610a1b565b610a608683610a1b565b95508019841693508086168417925050509392505050565b5f819050919050565b5f610a9b610a96610a91846105a5565b610a78565b6105a5565b9050919050565b5f819050919050565b610ab483610a81565b610ac8610ac082610aa2565b848454610a27565b825550505050565b5f90565b610adc610ad0565b610ae7818484610aab565b505050565b5b81811015610b0a57610aff5f82610ad4565b600181019050610aed565b5050565b601f821115610b4f57610b20816109fa565b610b2984610a0c565b81016020851015610b38578190505b610b4c610b4485610a0c565b830182610aec565b50505b505050565b5f82821c905092915050565b5f610b6f5f1984600802610b54565b1980831691505092915050565b5f610b878383610b60565b9150826002028217905092915050565b610ba082610603565b67ffffffffffffffff811115610bb957610bb8610739565b5b610bc3825461093c565b610bce828285610b0e565b5f60209050601f831160018114610bff575f8415610bed578287015190505b610bf78582610b7c565b865550610c5e565b601f198416610c0d866109fa565b5f5b82811015610c3457848901518255600182019150602085019450602081019050610c0f565b86831015610c515784890151610c4d601f891682610b60565b8355505b6001600288020188555050505b505050505050565b7f4e487b71000000000000000000000000000000000000000000000000000000005f52603260045260245ffd5b7f526f6f6d20697320616c7265616479206f6363757069656400000000000000005f82015250565b5f610cc760188361060d565b9150610cd282610c93565b602082019050919050565b5f6020820190508181035f830152610cf481610cbb565b9050919050565b7f426f6f6b696e672063616e63656c6c65643a204e6f7420656e6f7567682065745f8201527f6865722070726f76696465640000000000000000000000000000000000000000602082015250565b5f610d55602c8361060d565b9150610d6082610cfb565b604082019050919050565b5f6020820190508181035f830152610d8281610d49565b9050919050565b5f81905092915050565b50565b5f610da15f83610d89565b9150610dac82610d93565b5f82019050919050565b5f610dc082610d96565b9150819050919050565b7f5472616e73616374696f6e204661696c656400000000000000000000000000005f82015250565b5f610dfe60128361060d565b9150610e0982610dca565b602082019050919050565b5f6020820190508181035f830152610e2b81610df2565b9050919050565b5f604082019050610e455f830185610673565b610e526020830184610673565b939250505056fea2646970667358221220a78f7f963439a07c01d0ac30707250f65219bb3f98289d8331b006819484a25d64736f6c634300081a0033",
					"opcodes": "PUSH1 0x80 PUSH1 0x40 MSTORE CALLVALUE DUP1 ISZERO PUSH1 0xE JUMPI PUSH0 DUP1 REVERT JUMPDEST POP CALLER PUSH0 DUP1 PUSH2 0x100 EXP DUP2 SLOAD DUP2 PUSH20 0xFFFFFFFFFFFFFFFFFFFFFFFFFFFFFFFFFFFFFFFF MUL NOT AND SWAP1 DUP4 PUSH20 0xFFFFFFFFFFFFFFFFFFFFFFFFFFFFFFFFFFFFFFFF AND MUL OR SWAP1 SSTORE POP PUSH2 0xE8F DUP1 PUSH2 0x5B PUSH0 CODECOPY PUSH0 RETURN INVALID PUSH1 0x80 PUSH1 0x40 MSTORE PUSH1 0x4 CALLDATASIZE LT PUSH2 0x3E JUMPI PUSH0 CALLDATALOAD PUSH1 0xE0 SHR DUP1 PUSH4 0x1BAE0AC8 EQ PUSH2 0x42 JUMPI DUP1 PUSH4 0x4BDE3AB1 EQ PUSH2 0x80 JUMPI DUP1 PUSH4 0x5F49D3D8 EQ PUSH2 0xA8 JUMPI DUP1 PUSH4 0x8DA5CB5B EQ PUSH2 0xC4 JUMPI JUMPDEST PUSH0 DUP1 REVERT JUMPDEST CALLVALUE DUP1 ISZERO PUSH2 0x4D JUMPI PUSH0 DUP1 REVERT JUMPDEST POP PUSH2 0x68 PUSH1 0x4 DUP1 CALLDATASIZE SUB DUP2 ADD SWAP1 PUSH2 0x63 SWAP2 SWAP1 PUSH2 0x5D8 JUMP JUMPDEST PUSH2 0xEE JUMP JUMPDEST PUSH1 0x40 MLOAD PUSH2 0x77 SWAP4 SWAP3 SWAP2 SWAP1 PUSH2 0x6F5 JUMP JUMPDEST PUSH1 0x40 MLOAD DUP1 SWAP2 SUB SWAP1 RETURN JUMPDEST CALLVALUE DUP1 ISZERO PUSH2 0x8B JUMPI PUSH0 DUP1 REVERT JUMPDEST POP PUSH2 0xA6 PUSH1 0x4 DUP1 CALLDATASIZE SUB DUP2 ADD SWAP1 PUSH2 0xA1 SWAP2 SWAP1 PUSH2 0x85D JUMP JUMPDEST PUSH2 0x1B5 JUMP JUMPDEST STOP JUMPDEST PUSH2 0xC2 PUSH1 0x4 DUP1 CALLDATASIZE SUB DUP2 ADD SWAP1 PUSH2 0xBD SWAP2 SWAP1 PUSH2 0x5D8 JUMP JUMPDEST PUSH2 0x325 JUMP JUMPDEST STOP JUMPDEST CALLVALUE DUP1 ISZERO PUSH2 0xCF JUMPI PUSH0 DUP1 REVERT JUMPDEST POP PUSH2 0xD8 PUSH2 0x571 JUMP JUMPDEST PUSH1 0x40 MLOAD PUSH2 0xE5 SWAP2 SWAP1 PUSH2 0x8F6 JUMP JUMPDEST PUSH1 0x40 MLOAD DUP1 SWAP2 SUB SWAP1 RETURN JUMPDEST PUSH1 0x1 DUP2 DUP2 SLOAD DUP2 LT PUSH2 0xFD JUMPI PUSH0 DUP1 REVERT JUMPDEST SWAP1 PUSH0 MSTORE PUSH1 0x20 PUSH0 KECCAK256 SWAP1 PUSH1 0x3 MUL ADD PUSH0 SWAP2 POP SWAP1 POP DUP1 PUSH0 ADD DUP1 SLOAD PUSH2 0x11C SWAP1 PUSH2 0x93C JUMP JUMPDEST DUP1 PUSH1 0x1F ADD PUSH1 0x20 DUP1 SWAP2 DIV MUL PUSH1 0x20 ADD PUSH1 0x40 MLOAD SWAP1 DUP2 ADD PUSH1 0x40 MSTORE DUP1 SWAP3 SWAP2 SWAP1 DUP2 DUP2 MSTORE PUSH1 0x20 ADD DUP3 DUP1 SLOAD PUSH2 0x148 SWAP1 PUSH2 0x93C JUMP JUMPDEST DUP1 ISZERO PUSH2 0x193 JUMPI DUP1 PUSH1 0x1F LT PUSH2 0x16A JUMPI PUSH2 0x100 DUP1 DUP4 SLOAD DIV MUL DUP4 MSTORE SWAP2 PUSH1 0x20 ADD SWAP2 PUSH2 0x193 JUMP JUMPDEST DUP3 ADD SWAP2 SWAP1 PUSH0 MSTORE PUSH1 0x20 PUSH0 KECCAK256 SWAP1 JUMPDEST DUP2 SLOAD DUP2 MSTORE SWAP1 PUSH1 0x1 ADD SWAP1 PUSH1 0x20 ADD DUP1 DUP4 GT PUSH2 0x176 JUMPI DUP3 SWAP1 SUB PUSH1 0x1F AND DUP3 ADD SWAP2 JUMPDEST POP POP POP POP POP SWAP1 DUP1 PUSH1 0x1 ADD SLOAD SWAP1 DUP1 PUSH1 0x2 ADD PUSH0 SWAP1 SLOAD SWAP1 PUSH2 0x100 EXP SWAP1 DIV PUSH1 0xFF AND SWAP1 POP DUP4 JUMP JUMPDEST PUSH0 DUP1 SLOAD SWAP1 PUSH2 0x100 EXP SWAP1 DIV PUSH20 0xFFFFFFFFFFFFFFFFFFFFFFFFFFFFFFFFFFFFFFFF AND PUSH20 0xFFFFFFFFFFFFFFFFFFFFFFFFFFFFFFFFFFFFFFFF AND CALLER PUSH20 0xFFFFFFFFFFFFFFFFFFFFFFFFFFFFFFFFFFFFFFFF AND EQ PUSH2 0x242 JUMPI PUSH1 0x40 MLOAD PUSH32 0x8C379A000000000000000000000000000000000000000000000000000000000 DUP2 MSTORE PUSH1 0x4 ADD PUSH2 0x239 SWAP1 PUSH2 0x9DC JUMP JUMPDEST PUSH1 0x40 MLOAD DUP1 SWAP2 SUB SWAP1 REVERT JUMPDEST PUSH1 0x1 PUSH1 0x40 MLOAD DUP1 PUSH1 0x60 ADD PUSH1 0x40 MSTORE DUP1 DUP5 DUP2 MSTORE PUSH1 0x20 ADD DUP4 DUP2 MSTORE PUSH1 0x20 ADD PUSH0 PUSH1 0x1 DUP2 GT ISZERO PUSH2 0x26E JUMPI PUSH2 0x26D PUSH2 0x682 JUMP JUMPDEST JUMPDEST DUP2 MSTORE POP SWAP1 DUP1 PUSH1 0x1 DUP2 SLOAD ADD DUP1 DUP3 SSTORE DUP1 SWAP2 POP POP PUSH1 0x1 SWAP1 SUB SWAP1 PUSH0 MSTORE PUSH1 0x20 PUSH0 KECCAK256 SWAP1 PUSH1 0x3 MUL ADD PUSH0 SWAP1 SWAP2 SWAP1 SWAP2 SWAP1 SWAP2 POP PUSH0 DUP3 ADD MLOAD DUP2 PUSH0 ADD SWAP1 DUP2 PUSH2 0x2AA SWAP2 SWAP1 PUSH2 0xB97 JUMP JUMPDEST POP PUSH1 0x20 DUP3 ADD MLOAD DUP2 PUSH1 0x1 ADD SSTORE PUSH1 0x40 DUP3 ADD MLOAD DUP2 PUSH1 0x2 ADD PUSH0 PUSH2 0x100 EXP DUP2 SLOAD DUP2 PUSH1 0xFF MUL NOT AND SWAP1 DUP4 PUSH1 0x1 DUP2 GT ISZERO PUSH2 0x2DF JUMPI PUSH2 0x2DE PUSH2 0x682 JUMP JUMPDEST JUMPDEST MUL OR SWAP1 SSTORE POP POP POP PUSH32 0x608A4B9B1EDDB2B48FB3C62A5E7F36D625B58F5FF3A1F8CC78259E69E2CF067E DUP3 DUP3 PUSH0 PUSH1 0x40 MLOAD PUSH2 0x319 SWAP4 SWAP3 SWAP2 SWAP1 PUSH2 0x6F5 JUMP JUMPDEST PUSH1 0x40 MLOAD DUP1 SWAP2 SUB SWAP1 LOG1 POP POP JUMP JUMPDEST DUP1 PUSH0 PUSH1 0x1 DUP2 GT ISZERO PUSH2 0x339 JUMPI PUSH2 0x338 PUSH2 0x682 JUMP JUMPDEST JUMPDEST PUSH1 0x1 DUP3 DUP2 SLOAD DUP2 LT PUSH2 0x34D JUMPI PUSH2 0x34C PUSH2 0xC66 JUMP JUMPDEST JUMPDEST SWAP1 PUSH0 MSTORE PUSH1 0x20 PUSH0 KECCAK256 SWAP1 PUSH1 0x3 MUL ADD PUSH1 0x2 ADD PUSH0 SWAP1 SLOAD SWAP1 PUSH2 0x100 EXP SWAP1 DIV PUSH1 0xFF AND PUSH1 0x1 DUP2 GT ISZERO PUSH2 0x37B JUMPI PUSH2 0x37A PUSH2 0x682 JUMP JUMPDEST JUMPDEST EQ PUSH2 0x3BB JUMPI PUSH1 0x40 MLOAD PUSH32 0x8C379A000000000000000000000000000000000000000000000000000000000 DUP2 MSTORE PUSH1 0x4 ADD PUSH2 0x3B2 SWAP1 PUSH2 0xCDD JUMP JUMPDEST PUSH1 0x40 MLOAD DUP1 SWAP2 SUB SWAP1 REVERT JUMPDEST CALLVALUE PUSH1 0x1 DUP4 DUP2 SLOAD DUP2 LT PUSH2 0x3D0 JUMPI PUSH2 0x3CF PUSH2 0xC66 JUMP JUMPDEST JUMPDEST SWAP1 PUSH0 MSTORE PUSH1 0x20 PUSH0 KECCAK256 SWAP1 PUSH1 0x3 MUL ADD PUSH1 0x1 ADD SLOAD GT ISZERO PUSH2 0x421 JUMPI PUSH1 0x40 MLOAD PUSH32 0x8C379A000000000000000000000000000000000000000000000000000000000 DUP2 MSTORE PUSH1 0x4 ADD PUSH2 0x418 SWAP1 PUSH2 0xD6B JUMP JUMPDEST PUSH1 0x40 MLOAD DUP1 SWAP2 SUB SWAP1 REVERT JUMPDEST PUSH0 DUP1 PUSH0 SWAP1 SLOAD SWAP1 PUSH2 0x100 EXP SWAP1 DIV PUSH20 0xFFFFFFFFFFFFFFFFFFFFFFFFFFFFFFFFFFFFFFFF AND PUSH20 0xFFFFFFFFFFFFFFFFFFFFFFFFFFFFFFFFFFFFFFFF AND CALLVALUE PUSH1 0x40 MLOAD PUSH2 0x466 SWAP1 PUSH2 0xDB6 JUMP JUMPDEST PUSH0 PUSH1 0x40 MLOAD DUP1 DUP4 SUB DUP2 DUP6 DUP8 GAS CALL SWAP3 POP POP POP RETURNDATASIZE DUP1 PUSH0 DUP2 EQ PUSH2 0x4A0 JUMPI PUSH1 0x40 MLOAD SWAP2 POP PUSH1 0x1F NOT PUSH1 0x3F RETURNDATASIZE ADD AND DUP3 ADD PUSH1 0x40 MSTORE RETURNDATASIZE DUP3 MSTORE RETURNDATASIZE PUSH0 PUSH1 0x20 DUP5 ADD RETURNDATACOPY PUSH2 0x4A5 JUMP JUMPDEST PUSH1 0x60 SWAP2 POP JUMPDEST POP POP SWAP1 POP DUP1 PUSH2 0x4E9 JUMPI PUSH1 0x40 MLOAD PUSH32 0x8C379A000000000000000000000000000000000000000000000000000000000 DUP2 MSTORE PUSH1 0x4 ADD PUSH2 0x4E0 SWAP1 PUSH2 0xE14 JUMP JUMPDEST PUSH1 0x40 MLOAD DUP1 SWAP2 SUB SWAP1 REVERT JUMPDEST PUSH1 0x1 DUP1 DUP5 DUP2 SLOAD DUP2 LT PUSH2 0x4FE JUMPI PUSH2 0x4FD PUSH2 0xC66 JUMP JUMPDEST JUMPDEST SWAP1 PUSH0 MSTORE PUSH1 0x20 PUSH0 KECCAK256 SWAP1 PUSH1 0x3 MUL ADD PUSH1 0x2 ADD PUSH0 PUSH2 0x100 EXP DUP2 SLOAD DUP2 PUSH1 0xFF MUL NOT AND SWAP1 DUP4 PUSH1 0x1 DUP2 GT ISZERO PUSH2 0x52E JUMPI PUSH2 0x52D PUSH2 0x682 JUMP JUMPDEST JUMPDEST MUL OR SWAP1 SSTORE POP PUSH32 0x7AC0530DC47AE7DC98142AF4E8BB3975BF29E16C87D21DA1C7638650416E4DC0 DUP4 CALLVALUE PUSH1 0x40 MLOAD PUSH2 0x564 SWAP3 SWAP2 SWAP1 PUSH2 0xE32 JUMP JUMPDEST PUSH1 0x40 MLOAD DUP1 SWAP2 SUB SWAP1 LOG1 POP POP POP JUMP JUMPDEST PUSH0 DUP1 SLOAD SWAP1 PUSH2 0x100 EXP SWAP1 DIV PUSH20 0xFFFFFFFFFFFFFFFFFFFFFFFFFFFFFFFFFFFFFFFF AND DUP2 JUMP JUMPDEST PUSH0 PUSH1 0x40 MLOAD SWAP1 POP SWAP1 JUMP JUMPDEST PUSH0 DUP1 REVERT JUMPDEST PUSH0 DUP1 REVERT JUMPDEST PUSH0 DUP2 SWAP1 POP SWAP2 SWAP1 POP JUMP JUMPDEST PUSH2 0x5B7 DUP2 PUSH2 0x5A5 JUMP JUMPDEST DUP2 EQ PUSH2 0x5C1 JUMPI PUSH0 DUP1 REVERT JUMPDEST POP JUMP JUMPDEST PUSH0 DUP2 CALLDATALOAD SWAP1 POP PUSH2 0x5D2 DUP2 PUSH2 0x5AE JUMP JUMPDEST SWAP3 SWAP2 POP POP JUMP JUMPDEST PUSH0 PUSH1 0x20 DUP3 DUP5 SUB SLT ISZERO PUSH2 0x5ED JUMPI PUSH2 0x5EC PUSH2 0x59D JUMP JUMPDEST JUMPDEST PUSH0 PUSH2 0x5FA DUP5 DUP3 DUP6 ADD PUSH2 0x5C4 JUMP JUMPDEST SWAP2 POP POP SWAP3 SWAP2 POP POP JUMP JUMPDEST PUSH0 DUP2 MLOAD SWAP1 POP SWAP2 SWAP1 POP JUMP JUMPDEST PUSH0 DUP3 DUP3 MSTORE PUSH1 0x20 DUP3 ADD SWAP1 POP SWAP3 SWAP2 POP POP JUMP JUMPDEST DUP3 DUP2 DUP4 MCOPY PUSH0 DUP4 DUP4 ADD MSTORE POP POP POP JUMP JUMPDEST PUSH0 PUSH1 0x1F NOT PUSH1 0x1F DUP4 ADD AND SWAP1 POP SWAP2 SWAP1 POP JUMP JUMPDEST PUSH0 PUSH2 0x645 DUP3 PUSH2 0x603 JUMP JUMPDEST PUSH2 0x64F DUP2 DUP6 PUSH2 0x60D JUMP JUMPDEST SWAP4 POP PUSH2 0x65F DUP2 DUP6 PUSH1 0x20 DUP7 ADD PUSH2 0x61D JUMP JUMPDEST PUSH2 0x668 DUP2 PUSH2 0x62B JUMP JUMPDEST DUP5 ADD SWAP2 POP POP SWAP3 SWAP2 POP POP JUMP JUMPDEST PUSH2 0x67C DUP2 PUSH2 0x5A5 JUMP JUMPDEST DUP3 MSTORE POP POP JUMP JUMPDEST PUSH32 0x4E487B7100000000000000000000000000000000000000000000000000000000 PUSH0 MSTORE PUSH1 0x21 PUSH1 0x4 MSTORE PUSH1 0x24 PUSH0 REVERT JUMPDEST PUSH1 0x2 DUP2 LT PUSH2 0x6C0 JUMPI PUSH2 0x6BF PUSH2 0x682 JUMP JUMPDEST JUMPDEST POP JUMP JUMPDEST PUSH0 DUP2 SWAP1 POP PUSH2 0x6D0 DUP3 PUSH2 0x6AF JUMP JUMPDEST SWAP2 SWAP1 POP JUMP JUMPDEST PUSH0 PUSH2 0x6DF DUP3 PUSH2 0x6C3 JUMP JUMPDEST SWAP1 POP SWAP2 SWAP1 POP JUMP JUMPDEST PUSH2 0x6EF DUP2 PUSH2 0x6D5 JUMP JUMPDEST DUP3 MSTORE POP POP JUMP JUMPDEST PUSH0 PUSH1 0x60 DUP3 ADD SWAP1 POP DUP2 DUP2 SUB PUSH0 DUP4 ADD MSTORE PUSH2 0x70D DUP2 DUP7 PUSH2 0x63B JUMP JUMPDEST SWAP1 POP PUSH2 0x71C PUSH1 0x20 DUP4 ADD DUP6 PUSH2 0x673 JUMP JUMPDEST PUSH2 0x729 PUSH1 0x40 DUP4 ADD DUP5 PUSH2 0x6E6 JUMP JUMPDEST SWAP5 SWAP4 POP POP POP POP JUMP JUMPDEST PUSH0 DUP1 REVERT JUMPDEST PUSH0 DUP1 REVERT JUMPDEST PUSH32 0x4E487B7100000000000000000000000000000000000000000000000000000000 PUSH0 MSTORE PUSH1 0x41 PUSH1 0x4 MSTORE PUSH1 0x24 PUSH0 REVERT JUMPDEST PUSH2 0x76F DUP3 PUSH2 0x62B JUMP JUMPDEST DUP2 ADD DUP2 DUP2 LT PUSH8 0xFFFFFFFFFFFFFFFF DUP3 GT OR ISZERO PUSH2 0x78E JUMPI PUSH2 0x78D PUSH2 0x739 JUMP JUMPDEST JUMPDEST DUP1 PUSH1 0x40 MSTORE POP POP POP JUMP JUMPDEST PUSH0 PUSH2 0x7A0 PUSH2 0x594 JUMP JUMPDEST SWAP1 POP PUSH2 0x7AC DUP3 DUP3 PUSH2 0x766 JUMP JUMPDEST SWAP2 SWAP1 POP JUMP JUMPDEST PUSH0 PUSH8 0xFFFFFFFFFFFFFFFF DUP3 GT ISZERO PUSH2 0x7CB JUMPI PUSH2 0x7CA PUSH2 0x739 JUMP JUMPDEST JUMPDEST PUSH2 0x7D4 DUP3 PUSH2 0x62B JUMP JUMPDEST SWAP1 POP PUSH1 0x20 DUP2 ADD SWAP1 POP SWAP2 SWAP1 POP JUMP JUMPDEST DUP3 DUP2 DUP4 CALLDATACOPY PUSH0 DUP4 DUP4 ADD MSTORE POP POP POP JUMP JUMPDEST PUSH0 PUSH2 0x801 PUSH2 0x7FC DUP5 PUSH2 0x7B1 JUMP JUMPDEST PUSH2 0x797 JUMP JUMPDEST SWAP1 POP DUP3 DUP2 MSTORE PUSH1 0x20 DUP2 ADD DUP5 DUP5 DUP5 ADD GT ISZERO PUSH2 0x81D JUMPI PUSH2 0x81C PUSH2 0x735 JUMP JUMPDEST JUMPDEST PUSH2 0x828 DUP5 DUP3 DUP6 PUSH2 0x7E1 JUMP JUMPDEST POP SWAP4 SWAP3 POP POP POP JUMP JUMPDEST PUSH0 DUP3 PUSH1 0x1F DUP4 ADD SLT PUSH2 0x844 JUMPI PUSH2 0x843 PUSH2 0x731 JUMP JUMPDEST JUMPDEST DUP2 CALLDATALOAD PUSH2 0x854 DUP5 DUP3 PUSH1 0x20 DUP7 ADD PUSH2 0x7EF JUMP JUMPDEST SWAP2 POP POP SWAP3 SWAP2 POP POP JUMP JUMPDEST PUSH0 DUP1 PUSH1 0x40 DUP4 DUP6 SUB SLT ISZERO PUSH2 0x873 JUMPI PUSH2 0x872 PUSH2 0x59D JUMP JUMPDEST JUMPDEST PUSH0 DUP4 ADD CALLDATALOAD PUSH8 0xFFFFFFFFFFFFFFFF DUP2 GT ISZERO PUSH2 0x890 JUMPI PUSH2 0x88F PUSH2 0x5A1 JUMP JUMPDEST JUMPDEST PUSH2 0x89C DUP6 DUP3 DUP7 ADD PUSH2 0x830 JUMP JUMPDEST SWAP3 POP POP PUSH1 0x20 PUSH2 0x8AD DUP6 DUP3 DUP7 ADD PUSH2 0x5C4 JUMP JUMPDEST SWAP2 POP POP SWAP3 POP SWAP3 SWAP1 POP JUMP JUMPDEST PUSH0 PUSH20 0xFFFFFFFFFFFFFFFFFFFFFFFFFFFFFFFFFFFFFFFF DUP3 AND SWAP1 POP SWAP2 SWAP1 POP JUMP JUMPDEST PUSH0 PUSH2 0x8E0 DUP3 PUSH2 0x8B7 JUMP JUMPDEST SWAP1 POP SWAP2 SWAP1 POP JUMP JUMPDEST PUSH2 0x8F0 DUP2 PUSH2 0x8D6 JUMP JUMPDEST DUP3 MSTORE POP POP JUMP JUMPDEST PUSH0 PUSH1 0x20 DUP3 ADD SWAP1 POP PUSH2 0x909 PUSH0 DUP4 ADD DUP5 PUSH2 0x8E7 JUMP JUMPDEST SWAP3 SWAP2 POP POP JUMP JUMPDEST PUSH32 0x4E487B7100000000000000000000000000000000000000000000000000000000 PUSH0 MSTORE PUSH1 0x22 PUSH1 0x4 MSTORE PUSH1 0x24 PUSH0 REVERT JUMPDEST PUSH0 PUSH1 0x2 DUP3 DIV SWAP1 POP PUSH1 0x1 DUP3 AND DUP1 PUSH2 0x953 JUMPI PUSH1 0x7F DUP3 AND SWAP2 POP JUMPDEST PUSH1 0x20 DUP3 LT DUP2 SUB PUSH2 0x966 JUMPI PUSH2 0x965 PUSH2 0x90F JUMP JUMPDEST JUMPDEST POP SWAP2 SWAP1 POP JUMP JUMPDEST PUSH32 0x596F75206D75737420626520746865206F776E657220746F20706572666F726D PUSH0 DUP3 ADD MSTORE PUSH32 0x207468697320616374696F6E0000000000000000000000000000000000000000 PUSH1 0x20 DUP3 ADD MSTORE POP JUMP JUMPDEST PUSH0 PUSH2 0x9C6 PUSH1 0x2C DUP4 PUSH2 0x60D JUMP JUMPDEST SWAP2 POP PUSH2 0x9D1 DUP3 PUSH2 0x96C JUMP JUMPDEST PUSH1 0x40 DUP3 ADD SWAP1 POP SWAP2 SWAP1 POP JUMP JUMPDEST PUSH0 PUSH1 0x20 DUP3 ADD SWAP1 POP DUP2 DUP2 SUB PUSH0 DUP4 ADD MSTORE PUSH2 0x9F3 DUP2 PUSH2 0x9BA JUMP JUMPDEST SWAP1 POP SWAP2 SWAP1 POP JUMP JUMPDEST PUSH0 DUP2 SWAP1 POP DUP2 PUSH0 MSTORE PUSH1 0x20 PUSH0 KECCAK256 SWAP1 POP SWAP2 SWAP1 POP JUMP JUMPDEST PUSH0 PUSH1 0x20 PUSH1 0x1F DUP4 ADD DIV SWAP1 POP SWAP2 SWAP1 POP JUMP JUMPDEST PUSH0 DUP3 DUP3 SHL SWAP1 POP SWAP3 SWAP2 POP POP JUMP JUMPDEST PUSH0 PUSH1 0x8 DUP4 MUL PUSH2 0xA56 PUSH32 0xFFFFFFFFFFFFFFFFFFFFFFFFFFFFFFFFFFFFFFFFFFFFFFFFFFFFFFFFFFFFFFFF DUP3 PUSH2 0xA1B JUMP JUMPDEST PUSH2 0xA60 DUP7 DUP4 PUSH2 0xA1B JUMP JUMPDEST SWAP6 POP DUP1 NOT DUP5 AND SWAP4 POP DUP1 DUP7 AND DUP5 OR SWAP3 POP POP POP SWAP4 SWAP3 POP POP POP JUMP JUMPDEST PUSH0 DUP2 SWAP1 POP SWAP2 SWAP1 POP JUMP JUMPDEST PUSH0 PUSH2 0xA9B PUSH2 0xA96 PUSH2 0xA91 DUP5 PUSH2 0x5A5 JUMP JUMPDEST PUSH2 0xA78 JUMP JUMPDEST PUSH2 0x5A5 JUMP JUMPDEST SWAP1 POP SWAP2 SWAP1 POP JUMP JUMPDEST PUSH0 DUP2 SWAP1 POP SWAP2 SWAP1 POP JUMP JUMPDEST PUSH2 0xAB4 DUP4 PUSH2 0xA81 JUMP JUMPDEST PUSH2 0xAC8 PUSH2 0xAC0 DUP3 PUSH2 0xAA2 JUMP JUMPDEST DUP5 DUP5 SLOAD PUSH2 0xA27 JUMP JUMPDEST DUP3 SSTORE POP POP POP POP JUMP JUMPDEST PUSH0 SWAP1 JUMP JUMPDEST PUSH2 0xADC PUSH2 0xAD0 JUMP JUMPDEST PUSH2 0xAE7 DUP2 DUP5 DUP5 PUSH2 0xAAB JUMP JUMPDEST POP POP POP JUMP JUMPDEST JUMPDEST DUP2 DUP2 LT ISZERO PUSH2 0xB0A JUMPI PUSH2 0xAFF PUSH0 DUP3 PUSH2 0xAD4 JUMP JUMPDEST PUSH1 0x1 DUP2 ADD SWAP1 POP PUSH2 0xAED JUMP JUMPDEST POP POP JUMP JUMPDEST PUSH1 0x1F DUP3 GT ISZERO PUSH2 0xB4F JUMPI PUSH2 0xB20 DUP2 PUSH2 0x9FA JUMP JUMPDEST PUSH2 0xB29 DUP5 PUSH2 0xA0C JUMP JUMPDEST DUP2 ADD PUSH1 0x20 DUP6 LT ISZERO PUSH2 0xB38 JUMPI DUP2 SWAP1 POP JUMPDEST PUSH2 0xB4C PUSH2 0xB44 DUP6 PUSH2 0xA0C JUMP JUMPDEST DUP4 ADD DUP3 PUSH2 0xAEC JUMP JUMPDEST POP POP JUMPDEST POP POP POP JUMP JUMPDEST PUSH0 DUP3 DUP3 SHR SWAP1 POP SWAP3 SWAP2 POP POP JUMP JUMPDEST PUSH0 PUSH2 0xB6F PUSH0 NOT DUP5 PUSH1 0x8 MUL PUSH2 0xB54 JUMP JUMPDEST NOT DUP1 DUP4 AND SWAP2 POP POP SWAP3 SWAP2 POP POP JUMP JUMPDEST PUSH0 PUSH2 0xB87 DUP4 DUP4 PUSH2 0xB60 JUMP JUMPDEST SWAP2 POP DUP3 PUSH1 0x2 MUL DUP3 OR SWAP1 POP SWAP3 SWAP2 POP POP JUMP JUMPDEST PUSH2 0xBA0 DUP3 PUSH2 0x603 JUMP JUMPDEST PUSH8 0xFFFFFFFFFFFFFFFF DUP2 GT ISZERO PUSH2 0xBB9 JUMPI PUSH2 0xBB8 PUSH2 0x739 JUMP JUMPDEST JUMPDEST PUSH2 0xBC3 DUP3 SLOAD PUSH2 0x93C JUMP JUMPDEST PUSH2 0xBCE DUP3 DUP3 DUP6 PUSH2 0xB0E JUMP JUMPDEST PUSH0 PUSH1 0x20 SWAP1 POP PUSH1 0x1F DUP4 GT PUSH1 0x1 DUP2 EQ PUSH2 0xBFF JUMPI PUSH0 DUP5 ISZERO PUSH2 0xBED JUMPI DUP3 DUP8 ADD MLOAD SWAP1 POP JUMPDEST PUSH2 0xBF7 DUP6 DUP3 PUSH2 0xB7C JUMP JUMPDEST DUP7 SSTORE POP PUSH2 0xC5E JUMP JUMPDEST PUSH1 0x1F NOT DUP5 AND PUSH2 0xC0D DUP7 PUSH2 0x9FA JUMP JUMPDEST PUSH0 JUMPDEST DUP3 DUP2 LT ISZERO PUSH2 0xC34 JUMPI DUP5 DUP10 ADD MLOAD DUP3 SSTORE PUSH1 0x1 DUP3 ADD SWAP2 POP PUSH1 0x20 DUP6 ADD SWAP5 POP PUSH1 0x20 DUP2 ADD SWAP1 POP PUSH2 0xC0F JUMP JUMPDEST DUP7 DUP4 LT ISZERO PUSH2 0xC51 JUMPI DUP5 DUP10 ADD MLOAD PUSH2 0xC4D PUSH1 0x1F DUP10 AND DUP3 PUSH2 0xB60 JUMP JUMPDEST DUP4 SSTORE POP JUMPDEST PUSH1 0x1 PUSH1 0x2 DUP9 MUL ADD DUP9 SSTORE POP POP POP JUMPDEST POP POP POP POP POP POP JUMP JUMPDEST PUSH32 0x4E487B7100000000000000000000000000000000000000000000000000000000 PUSH0 MSTORE PUSH1 0x32 PUSH1 0x4 MSTORE PUSH1 0x24 PUSH0 REVERT JUMPDEST PUSH32 0x526F6F6D20697320616C7265616479206F636375706965640000000000000000 PUSH0 DUP3 ADD MSTORE POP JUMP JUMPDEST PUSH0 PUSH2 0xCC7 PUSH1 0x18 DUP4 PUSH2 0x60D JUMP JUMPDEST SWAP2 POP PUSH2 0xCD2 DUP3 PUSH2 0xC93 JUMP JUMPDEST PUSH1 0x20 DUP3 ADD SWAP1 POP SWAP2 SWAP1 POP JUMP JUMPDEST PUSH0 PUSH1 0x20 DUP3 ADD SWAP1 POP DUP2 DUP2 SUB PUSH0 DUP4 ADD MSTORE PUSH2 0xCF4 DUP2 PUSH2 0xCBB JUMP JUMPDEST SWAP1 POP SWAP2 SWAP1 POP JUMP JUMPDEST PUSH32 0x426F6F6B696E672063616E63656C6C65643A204E6F7420656E6F756768206574 PUSH0 DUP3 ADD MSTORE PUSH32 0x6865722070726F76696465640000000000000000000000000000000000000000 PUSH1 0x20 DUP3 ADD MSTORE POP JUMP JUMPDEST PUSH0 PUSH2 0xD55 PUSH1 0x2C DUP4 PUSH2 0x60D JUMP JUMPDEST SWAP2 POP PUSH2 0xD60 DUP3 PUSH2 0xCFB JUMP JUMPDEST PUSH1 0x40 DUP3 ADD SWAP1 POP SWAP2 SWAP1 POP JUMP JUMPDEST PUSH0 PUSH1 0x20 DUP3 ADD SWAP1 POP DUP2 DUP2 SUB PUSH0 DUP4 ADD MSTORE PUSH2 0xD82 DUP2 PUSH2 0xD49 JUMP JUMPDEST SWAP1 POP SWAP2 SWAP1 POP JUMP JUMPDEST PUSH0 DUP2 SWAP1 POP SWAP3 SWAP2 POP POP JUMP JUMPDEST POP JUMP JUMPDEST PUSH0 PUSH2 0xDA1 PUSH0 DUP4 PUSH2 0xD89 JUMP JUMPDEST SWAP2 POP PUSH2 0xDAC DUP3 PUSH2 0xD93 JUMP JUMPDEST PUSH0 DUP3 ADD SWAP1 POP SWAP2 SWAP1 POP JUMP JUMPDEST PUSH0 PUSH2 0xDC0 DUP3 PUSH2 0xD96 JUMP JUMPDEST SWAP2 POP DUP2 SWAP1 POP SWAP2 SWAP1 POP JUMP JUMPDEST PUSH32 0x5472616E73616374696F6E204661696C65640000000000000000000000000000 PUSH0 DUP3 ADD MSTORE POP JUMP JUMPDEST PUSH0 PUSH2 0xDFE PUSH1 0x12 DUP4 PUSH2 0x60D JUMP JUMPDEST SWAP2 POP PUSH2 0xE09 DUP3 PUSH2 0xDCA JUMP JUMPDEST PUSH1 0x20 DUP3 ADD SWAP1 POP SWAP2 SWAP1 POP JUMP JUMPDEST PUSH0 PUSH1 0x20 DUP3 ADD SWAP1 POP DUP2 DUP2 SUB PUSH0 DUP4 ADD MSTORE PUSH2 0xE2B DUP2 PUSH2 0xDF2 JUMP JUMPDEST SWAP1 POP SWAP2 SWAP1 POP JUMP JUMPDEST PUSH0 PUSH1 0x40 DUP3 ADD SWAP1 POP PUSH2 0xE45 PUSH0 DUP4 ADD DUP6 PUSH2 0x673 JUMP JUMPDEST PUSH2 0xE52 PUSH1 0x20 DUP4 ADD DUP5 PUSH2 0x673 JUMP JUMPDEST SWAP4 SWAP3 POP POP POP JUMP INVALID LOG2 PUSH5 0x6970667358 0x22 SLT KECCAK256 0xA7 DUP16 PUSH32 0x963439A07C01D0AC30707250F65219BB3F98289D8331B006819484A25D64736F PUSH13 0x634300081A0033000000000000 "
				},
				"gasEstimates": {
					"creation": {
						"codeDepositCost": "745400",
						"executionCost": "25042",
						"totalCost": "770442"
					},
					"external": {
						"addRoom(string,uint256)": "infinite",
						"bookRoom(uint256)": "infinite",
						"owner()": "2549",
						"rooms(uint256)": "infinite"
					}
				},
				"methodIdentifiers": {
					"addRoom(string,uint256)": "4bde3ab1",
					"bookRoom(uint256)": "5f49d3d8",
					"owner()": "8da5cb5b",
					"rooms(uint256)": "1bae0ac8"
				}
			},
			"storageLayout": {
				"storage": [
					{
						"astId": 3,
						"contract": "contracts/HotelRoom.sol:HotelRoom",
						"label": "owner",
						"offset": 0,
						"slot": "0",
						"type": "t_address_payable"
					},
					{
						"astId": 62,
						"contract": "contracts/HotelRoom.sol:HotelRoom",
						"label": "rooms",
						"offset": 0,
						"slot": "1",
						"type": "t_array(t_struct(Room)14_storage)dyn_storage"
					}
				],
				"types": {
					"t_address_payable": {
						"encoding": "inplace",
						"label": "address payable",
						"numberOfBytes": "20"
					},
					"t_array(t_struct(Room)14_storage)dyn_storage": {
						"base": "t_struct(Room)14_storage",
						"encoding": "dynamic_array",
						"label": "struct HotelRoom.Room[]",
						"numberOfBytes": "32"
					},
					"t_enum(roomStatus)6": {
						"encoding": "inplace",
						"label": "enum HotelRoom.roomStatus",
						"numberOfBytes": "1"
					},
					"t_string_storage": {
						"encoding": "bytes",
						"label": "string",
						"numberOfBytes": "32"
					},
					"t_struct(Room)14_storage": {
						"encoding": "inplace",
						"label": "struct HotelRoom.Room",
						"members": [
							{
								"astId": 8,
								"contract": "contracts/HotelRoom.sol:HotelRoom",
								"label": "details",
								"offset": 0,
								"slot": "0",
								"type": "t_string_storage"
							},
							{
								"astId": 10,
								"contract": "contracts/HotelRoom.sol:HotelRoom",
								"label": "price",
								"offset": 0,
								"slot": "1",
								"type": "t_uint256"
							},
							{
								"astId": 13,
								"contract": "contracts/HotelRoom.sol:HotelRoom",
								"label": "status",
								"offset": 0,
								"slot": "2",
								"type": "t_enum(roomStatus)6"
							}
						],
						"numberOfBytes": "96"
					},
					"t_uint256": {
						"encoding": "inplace",
						"label": "uint256",
						"numberOfBytes": "32"
					}
				}
			},
			"userdoc": {
				"kind": "user",
				"methods": {},
				"version": 1
			}
		}
	}
}